{
  "contractName": "Arena",
  "abi": [
    {
      "constant": false,
      "inputs": [
        {
          "name": "_id",
          "type": "uint256"
        },
        {
          "name": "_startingPrice",
          "type": "uint256"
        }
      ],
      "name": "createAuction",
      "outputs": [],
      "payable": false,
      "stateMutability": "nonpayable",
      "type": "function"
    },
    {
      "constant": true,
      "inputs": [
        {
          "name": "_tokenId",
          "type": "uint256"
        }
      ],
      "name": "getApproved",
      "outputs": [
        {
          "name": "",
          "type": "address"
        }
      ],
      "payable": false,
      "stateMutability": "view",
      "type": "function"
    },
    {
      "constant": false,
      "inputs": [
        {
          "name": "_approved",
          "type": "address"
        },
        {
          "name": "_tokenId",
          "type": "uint256"
        }
      ],
      "name": "approve",
      "outputs": [],
      "payable": true,
      "stateMutability": "payable",
      "type": "function"
    },
    {
      "constant": true,
      "inputs": [
        {
          "name": "",
          "type": "uint256"
        }
      ],
      "name": "auction",
      "outputs": [
        {
          "name": "chairperson",
          "type": "address"
        },
        {
          "name": "startTime",
          "type": "uint256"
        },
        {
          "name": "startingPrice",
          "type": "uint256"
        },
        {
          "name": "highestBid",
          "type": "uint256"
        },
        {
          "name": "winner",
          "type": "address"
        }
      ],
      "payable": false,
      "stateMutability": "view",
      "type": "function"
    },
    {
      "constant": false,
      "inputs": [
        {
          "name": "_from",
          "type": "address"
        },
        {
          "name": "_to",
          "type": "address"
        },
        {
          "name": "_tokenId",
          "type": "uint256"
        }
      ],
      "name": "transferFrom",
      "outputs": [],
      "payable": true,
      "stateMutability": "payable",
      "type": "function"
    },
    {
      "constant": false,
      "inputs": [
        {
          "name": "_breeder",
          "type": "address"
        },
        {
          "name": "_race",
          "type": "uint8"
        },
        {
          "name": "_isMale",
          "type": "bool"
        },
        {
          "name": "_age",
          "type": "uint256"
        },
        {
          "name": "_category",
          "type": "uint256"
        }
      ],
      "name": "declareAnimal",
      "outputs": [
        {
          "name": "",
          "type": "bool"
        }
      ],
      "payable": false,
      "stateMutability": "nonpayable",
      "type": "function"
    },
    {
      "constant": false,
      "inputs": [
        {
          "name": "_from",
          "type": "address"
        },
        {
          "name": "_to",
          "type": "address"
        },
        {
          "name": "_id",
          "type": "uint256"
        }
      ],
      "name": "TransferAnimal",
      "outputs": [],
      "payable": false,
      "stateMutability": "nonpayable",
      "type": "function"
    },
    {
      "constant": true,
      "inputs": [
        {
          "name": "",
          "type": "uint256"
        }
      ],
      "name": "dogsById",
      "outputs": [
        {
          "name": "id",
          "type": "uint256"
        },
        {
          "name": "race",
          "type": "uint8"
        },
        {
          "name": "isMale",
          "type": "bool"
        },
        {
          "name": "age",
          "type": "uint256"
        },
        {
          "name": "category",
          "type": "uint256"
        }
      ],
      "payable": false,
      "stateMutability": "view",
      "type": "function"
    },
    {
      "constant": false,
      "inputs": [
        {
          "name": "_id",
          "type": "uint256"
        }
      ],
      "name": "updateBid",
      "outputs": [],
      "payable": true,
      "stateMutability": "payable",
      "type": "function"
    },
    {
      "constant": false,
      "inputs": [
        {
          "name": "_breeder",
          "type": "address"
        }
      ],
      "name": "registerBreeder",
      "outputs": [],
      "payable": false,
      "stateMutability": "nonpayable",
      "type": "function"
    },
    {
      "constant": false,
      "inputs": [
        {
          "name": "_dogId1",
          "type": "uint256"
        },
        {
          "name": "_dogId2",
          "type": "uint256"
        }
      ],
      "name": "breedAnimal",
      "outputs": [],
      "payable": false,
      "stateMutability": "nonpayable",
      "type": "function"
    },
    {
      "constant": false,
      "inputs": [
        {
          "name": "_id",
          "type": "uint256"
        }
      ],
      "name": "bidAuction",
      "outputs": [],
      "payable": true,
      "stateMutability": "payable",
      "type": "function"
    },
    {
      "constant": true,
      "inputs": [
        {
          "name": "_address",
          "type": "address"
        }
      ],
      "name": "balanceOf",
      "outputs": [
        {
          "name": "",
          "type": "uint256"
        }
      ],
      "payable": false,
      "stateMutability": "view",
      "type": "function"
    },
    {
      "constant": true,
      "inputs": [
        {
          "name": "",
          "type": "uint256"
        }
      ],
      "name": "_tokenOwner",
      "outputs": [
        {
          "name": "",
          "type": "address"
        }
      ],
      "payable": false,
      "stateMutability": "view",
      "type": "function"
    },
    {
      "constant": false,
      "inputs": [
        {
          "name": "_dogId",
          "type": "uint256"
        }
      ],
      "name": "proposeToBreed",
      "outputs": [],
      "payable": false,
      "stateMutability": "nonpayable",
      "type": "function"
    },
    {
      "constant": true,
      "inputs": [
        {
          "name": "",
          "type": "uint256"
        }
      ],
      "name": "availableToBreed",
      "outputs": [
        {
          "name": "",
          "type": "bool"
        }
      ],
      "payable": false,
      "stateMutability": "view",
      "type": "function"
    },
    {
      "constant": true,
      "inputs": [],
      "name": "contractBalance",
      "outputs": [
        {
          "name": "",
          "type": "uint256"
        }
      ],
      "payable": false,
      "stateMutability": "view",
      "type": "function"
    },
    {
      "constant": true,
      "inputs": [],
      "name": "owner",
      "outputs": [
        {
          "name": "",
          "type": "address"
        }
      ],
      "payable": false,
      "stateMutability": "view",
      "type": "function"
    },
    {
      "constant": true,
      "inputs": [
        {
          "name": "_id",
          "type": "uint256"
        }
      ],
      "name": "getHighestBid",
      "outputs": [
        {
          "name": "",
          "type": "uint256"
        }
      ],
      "payable": false,
      "stateMutability": "view",
      "type": "function"
    },
    {
      "constant": false,
      "inputs": [
        {
          "name": "_id",
          "type": "uint256"
        }
      ],
      "name": "claimAuction",
      "outputs": [],
      "payable": false,
      "stateMutability": "nonpayable",
      "type": "function"
    },
    {
      "constant": false,
      "inputs": [
        {
          "name": "_operator",
          "type": "address"
        },
        {
          "name": "_approved",
          "type": "bool"
        }
      ],
      "name": "setApprovalForAll",
      "outputs": [],
      "payable": false,
      "stateMutability": "nonpayable",
      "type": "function"
    },
    {
      "constant": true,
      "inputs": [
        {
          "name": "",
          "type": "uint256"
        }
      ],
      "name": "fightProposition",
      "outputs": [
        {
          "name": "",
          "type": "uint256"
        }
      ],
      "payable": false,
      "stateMutability": "view",
      "type": "function"
    },
    {
      "constant": true,
      "inputs": [
        {
          "name": "",
          "type": "uint256"
        }
      ],
      "name": "dogsInAuction",
      "outputs": [
        {
          "name": "",
          "type": "bool"
        }
      ],
      "payable": false,
      "stateMutability": "view",
      "type": "function"
    },
    {
      "constant": true,
      "inputs": [
        {
          "name": "",
          "type": "address"
        }
      ],
      "name": "_whitelist",
      "outputs": [
        {
          "name": "",
          "type": "bool"
        }
      ],
      "payable": false,
      "stateMutability": "view",
      "type": "function"
    },
    {
      "constant": true,
      "inputs": [
        {
          "name": "",
          "type": "uint256"
        }
      ],
      "name": "fightsById",
      "outputs": [
        {
          "name": "dog1",
          "type": "uint256"
        },
        {
          "name": "dog2",
          "type": "uint256"
        },
        {
          "name": "bid",
          "type": "uint256"
        },
        {
          "name": "accepted",
          "type": "bool"
        },
        {
          "name": "winner",
          "type": "address"
        }
      ],
      "payable": false,
      "stateMutability": "view",
      "type": "function"
    },
    {
      "constant": true,
      "inputs": [
        {
          "name": "_owner",
          "type": "address"
        },
        {
          "name": "_operator",
          "type": "address"
        }
      ],
      "name": "isApprovedForAll",
      "outputs": [
        {
          "name": "",
          "type": "bool"
        }
      ],
      "payable": false,
      "stateMutability": "view",
      "type": "function"
    },
    {
      "constant": false,
      "inputs": [
        {
          "name": "_tokenId",
          "type": "uint256"
        }
      ],
      "name": "deadAnimal",
      "outputs": [],
      "payable": false,
      "stateMutability": "nonpayable",
      "type": "function"
    },
    {
      "anonymous": false,
      "inputs": [
        {
          "indexed": true,
          "name": "_from",
          "type": "address"
        },
        {
          "indexed": true,
          "name": "_to",
          "type": "address"
        },
        {
          "indexed": true,
          "name": "_tokenId",
          "type": "uint256"
        }
      ],
      "name": "Transfer",
      "type": "event"
    },
    {
      "anonymous": false,
      "inputs": [
        {
          "indexed": true,
          "name": "_owner",
          "type": "address"
        },
        {
          "indexed": true,
          "name": "_approved",
          "type": "address"
        },
        {
          "indexed": true,
          "name": "_tokenId",
          "type": "uint256"
        }
      ],
      "name": "Approval",
      "type": "event"
    },
    {
      "anonymous": false,
      "inputs": [
        {
          "indexed": true,
          "name": "_owner",
          "type": "address"
        },
        {
          "indexed": true,
          "name": "_operator",
          "type": "address"
        },
        {
          "indexed": false,
          "name": "_approved",
          "type": "bool"
        }
      ],
      "name": "ApprovalForAll",
      "type": "event"
    },
    {
      "constant": false,
      "inputs": [
        {
          "name": "_id1",
          "type": "uint256"
        },
        {
          "name": "_id2",
          "type": "uint256"
        }
      ],
      "name": "proposeToFight",
      "outputs": [],
      "payable": true,
      "stateMutability": "payable",
      "type": "function"
    },
    {
      "constant": false,
      "inputs": [
        {
          "name": "_id1",
          "type": "uint256"
        },
        {
          "name": "_id2",
          "type": "uint256"
        }
      ],
      "name": "agreeToFight",
      "outputs": [],
      "payable": true,
      "stateMutability": "payable",
      "type": "function"
    },
    {
      "constant": false,
      "inputs": [
        {
          "name": "_id1",
          "type": "uint256"
        },
        {
          "name": "_id2",
          "type": "uint256"
        }
      ],
      "name": "_fight",
      "outputs": [],
      "payable": true,
      "stateMutability": "payable",
      "type": "function"
    }
  ],
  "bytecode": "0x60806040526200000e620000b3565b604051809103906000f0801580156200002b573d6000803e3d6000fd5b50600460006101000a81548173ffffffffffffffffffffffffffffffffffffffff021916908373ffffffffffffffffffffffffffffffffffffffff16021790555033600560006101000a81548173ffffffffffffffffffffffffffffffffffffffff021916908373ffffffffffffffffffffffffffffffffffffffff160217905550620000c4565b604051610e7f806200420383390190565b61412f80620000d46000396000f3fe608060405260043610610180576000357c0100000000000000000000000000000000000000000000000000000000900463ffffffff1680630121683f14610185578063081812fc146101ca578063095ea7b3146102455780631200617f1461029357806323b872dd1461035657806324d89bd2146103c45780633948313b1461045a5780633ba55578146104d55780634065cc671461050d57806343129de11461058a578063476fd474146105b85780635e6bab681461060957806364a7d7c71461064e57806370a082311461067c57806372368bdc146106e1578063796db312146107195780637dcdf9be1461079457806386f253aa146107cf5780638b7afe2e146108225780638da5cb5b1461084d5780638f288644146108a45780639aafc6c9146108f3578063a22cb4651461092e578063a7ccfca51461098b578063c1722d2b146109da578063ce6cc0fb14610a12578063cfdb63ac14610a65578063d748bc6414610ace578063e985e9c514610b69578063ec9b6db914610bf2575b600080fd5b34801561019157600080fd5b506101c8600480360360408110156101a857600080fd5b810190808035906020019092919080359060200190929190505050610c2d565b005b3480156101d657600080fd5b50610203600480360360208110156101ed57600080fd5b8101908080359060200190929190505050610ebb565b604051808273ffffffffffffffffffffffffffffffffffffffff1673ffffffffffffffffffffffffffffffffffffffff16815260200191505060405180910390f35b6102916004803603604081101561025b57600080fd5b81019080803573ffffffffffffffffffffffffffffffffffffffff16906020019092919080359060200190929190505050610f69565b005b34801561029f57600080fd5b506102cc600480360360208110156102b657600080fd5b81019080803590602001909291905050506111c8565b604051808673ffffffffffffffffffffffffffffffffffffffff1673ffffffffffffffffffffffffffffffffffffffff1681526020018581526020018481526020018381526020018273ffffffffffffffffffffffffffffffffffffffff1673ffffffffffffffffffffffffffffffffffffffff1681526020019550505050505060405180910390f35b6103c26004803603606081101561036c57600080fd5b81019080803573ffffffffffffffffffffffffffffffffffffffff169060200190929190803573ffffffffffffffffffffffffffffffffffffffff1690602001909291908035906020019092919050505061123e565b005b3480156103d057600080fd5b50610440600480360360a08110156103e757600080fd5b81019080803573ffffffffffffffffffffffffffffffffffffffff169060200190929190803560ff169060200190929190803515159060200190929190803590602001909291908035906020019092919050505061165e565b604051808215151515815260200191505060405180910390f35b34801561046657600080fd5b506104d36004803603606081101561047d57600080fd5b81019080803573ffffffffffffffffffffffffffffffffffffffff169060200190929190803573ffffffffffffffffffffffffffffffffffffffff16906020019092919080359060200190929190505050611935565b005b61050b600480360360408110156104eb57600080fd5b810190808035906020019092919080359060200190929190505050611b28565b005b34801561051957600080fd5b506105466004803603602081101561053057600080fd5b8101908080359060200190929190505050611d54565b6040518086815260200185600881111561055c57fe5b60ff168152602001841515151581526020018381526020018281526020019550505050505060405180910390f35b6105b6600480360360208110156105a057600080fd5b8101908080359060200190929190505050611da4565b005b3480156105c457600080fd5b50610607600480360360208110156105db57600080fd5b81019080803573ffffffffffffffffffffffffffffffffffffffff169060200190929190505050611e59565b005b34801561061557600080fd5b5061064c6004803603604081101561062c57600080fd5b81019080803590602001909291908035906020019092919050505061207f565b005b61067a6004803603602081101561066457600080fd5b810190808035906020019092919050505061240f565b005b34801561068857600080fd5b506106cb6004803603602081101561069f57600080fd5b81019080803573ffffffffffffffffffffffffffffffffffffffff169060200190929190505050612750565b6040518082815260200191505060405180910390f35b610717600480360360408110156106f757600080fd5b81019080803590602001909291908035906020019092919050505061283f565b005b34801561072557600080fd5b506107526004803603602081101561073c57600080fd5b81019080803590602001909291905050506129d0565b604051808273ffffffffffffffffffffffffffffffffffffffff1673ffffffffffffffffffffffffffffffffffffffff16815260200191505060405180910390f35b3480156107a057600080fd5b506107cd600480360360208110156107b757600080fd5b8101908080359060200190929190505050612a03565b005b3480156107db57600080fd5b50610808600480360360208110156107f257600080fd5b8101908080359060200190929190505050612b9f565b604051808215151515815260200191505060405180910390f35b34801561082e57600080fd5b50610837612bbf565b6040518082815260200191505060405180910390f35b34801561085957600080fd5b50610862612bde565b604051808273ffffffffffffffffffffffffffffffffffffffff1673ffffffffffffffffffffffffffffffffffffffff16815260200191505060405180910390f35b3480156108b057600080fd5b506108dd600480360360208110156108c757600080fd5b8101908080359060200190929190505050612c04565b6040518082815260200191505060405180910390f35b3480156108ff57600080fd5b5061092c6004803603602081101561091657600080fd5b8101908080359060200190929190505050612c24565b005b34801561093a57600080fd5b506109896004803603604081101561095157600080fd5b81019080803573ffffffffffffffffffffffffffffffffffffffff169060200190929190803515159060200190929190505050612e54565b005b34801561099757600080fd5b506109c4600480360360208110156109ae57600080fd5b810190808035906020019092919050505061301f565b6040518082815260200191505060405180910390f35b610a10600480360360408110156109f057600080fd5b810190808035906020019092919080359060200190929190505050613037565b005b348015610a1e57600080fd5b50610a4b60048036036020811015610a3557600080fd5b810190808035906020019092919050505061311d565b604051808215151515815260200191505060405180910390f35b348015610a7157600080fd5b50610ab460048036036020811015610a8857600080fd5b81019080803573ffffffffffffffffffffffffffffffffffffffff16906020019092919050505061313d565b604051808215151515815260200191505060405180910390f35b348015610ada57600080fd5b50610b0760048036036020811015610af157600080fd5b810190808035906020019092919050505061315d565b60405180868152602001858152602001848152602001831515151581526020018273ffffffffffffffffffffffffffffffffffffffff1673ffffffffffffffffffffffffffffffffffffffff1681526020019550505050505060405180910390f35b348015610b7557600080fd5b50610bd860048036036040811015610b8c57600080fd5b81019080803573ffffffffffffffffffffffffffffffffffffffff169060200190929190803573ffffffffffffffffffffffffffffffffffffffff1690602001909291905050506131c0565b604051808215151515815260200191505060405180910390f35b348015610bfe57600080fd5b50610c2b60048036036020811015610c1557600080fd5b8101908080359060200190929190505050613254565b005b3373ffffffffffffffffffffffffffffffffffffffff166001600084815260200190815260200160002060009054906101000a900473ffffffffffffffffffffffffffffffffffffffff1673ffffffffffffffffffffffffffffffffffffffff161480610ccd57503073ffffffffffffffffffffffffffffffffffffffff16610cb58361336b565b73ffffffffffffffffffffffffffffffffffffffff16145b1515610d67576040517f08c379a000000000000000000000000000000000000000000000000000000000815260040180806020018281038252602c8152602001807f73656e646572206973206e6f7420746f6b656e206f776e6572206e6f7220636f81526020017f6e7472616374206f776e6572000000000000000000000000000000000000000081525060400191505060405180910390fd5b610d6f614022565b60a0604051908101604052803373ffffffffffffffffffffffffffffffffffffffff16815260200142815260200160008152602001838152602001600073ffffffffffffffffffffffffffffffffffffffff1681525090506001600b600085815260200190815260200160002060006101000a81548160ff02191690831515021790555080600c600085815260200190815260200160002060008201518160000160006101000a81548173ffffffffffffffffffffffffffffffffffffffff021916908373ffffffffffffffffffffffffffffffffffffffff16021790555060208201518160010155604082015181600201556060820151816003015560808201518160040160006101000a81548173ffffffffffffffffffffffffffffffffffffffff021916908373ffffffffffffffffffffffffffffffffffffffff160217905550905050505050565b600081600073ffffffffffffffffffffffffffffffffffffffff166001600083815260200190815260200160002060009054906101000a900473ffffffffffffffffffffffffffffffffffffffff1673ffffffffffffffffffffffffffffffffffffffff1614151515610f2d57600080fd5b6002600084815260200190815260200160002060009054906101000a900473ffffffffffffffffffffffffffffffffffffffff16915050919050565b3373ffffffffffffffffffffffffffffffffffffffff168273ffffffffffffffffffffffffffffffffffffffff1614151515611033576040517f08c379a00000000000000000000000000000000000000000000000000000000081526004018080602001828103825260228152602001807f455243373231203a204f776e657220697320616c726561647920617070726f7681526020017f656400000000000000000000000000000000000000000000000000000000000081525060400191505060405180910390fd5b3373ffffffffffffffffffffffffffffffffffffffff166001600083815260200190815260200160002060009054906101000a900473ffffffffffffffffffffffffffffffffffffffff1673ffffffffffffffffffffffffffffffffffffffff1614806110d957506110d86001600083815260200190815260200160002060009054906101000a900473ffffffffffffffffffffffffffffffffffffffff16336131c0565b5b15156110e457600080fd5b816002600083815260200190815260200160002060006101000a81548173ffffffffffffffffffffffffffffffffffffffff021916908373ffffffffffffffffffffffffffffffffffffffff160217905550808273ffffffffffffffffffffffffffffffffffffffff166001600084815260200190815260200160002060009054906101000a900473ffffffffffffffffffffffffffffffffffffffff1673ffffffffffffffffffffffffffffffffffffffff167f8c5be1e5ebec7d5bd14f71427d1e84f3dd0314c0f7b2291e5b200ac8c7c3b92560405160405180910390a45050565b600c6020528060005260406000206000915090508060000160009054906101000a900473ffffffffffffffffffffffffffffffffffffffff16908060010154908060020154908060030154908060040160009054906101000a900473ffffffffffffffffffffffffffffffffffffffff16905085565b81600073ffffffffffffffffffffffffffffffffffffffff168173ffffffffffffffffffffffffffffffffffffffff16141515156112e4576040517f08c379a00000000000000000000000000000000000000000000000000000000081526004018080602001828103825260188152602001807f6164647265737320307830206973206e6f742076616c6964000000000000000081525060200191505060405180910390fd5b81600073ffffffffffffffffffffffffffffffffffffffff166001600083815260200190815260200160002060009054906101000a900473ffffffffffffffffffffffffffffffffffffffff1673ffffffffffffffffffffffffffffffffffffffff161415151561135457600080fd5b33838173ffffffffffffffffffffffffffffffffffffffff163373ffffffffffffffffffffffffffffffffffffffff1614806113c357508173ffffffffffffffffffffffffffffffffffffffff166113ab82610ebb565b73ffffffffffffffffffffffffffffffffffffffff16145b8061140757506114066001600083815260200190815260200160002060009054906101000a900473ffffffffffffffffffffffffffffffffffffffff16836131c0565b5b151561141257600080fd5b8673ffffffffffffffffffffffffffffffffffffffff166001600087815260200190815260200160002060009054906101000a900473ffffffffffffffffffffffffffffffffffffffff1673ffffffffffffffffffffffffffffffffffffffff1614151561150e576040517f08c379a000000000000000000000000000000000000000000000000000000000815260040180806020018281038252602b8152602001807f4552433732313a207472616e73666572206f6620746f6b656e2074686174206981526020017f73206e6f74206f776e656400000000000000000000000000000000000000000081525060400191505060405180910390fd5b60016000808973ffffffffffffffffffffffffffffffffffffffff1673ffffffffffffffffffffffffffffffffffffffff1681526020019081526020016000206000828254039250508190555060016000808873ffffffffffffffffffffffffffffffffffffffff1673ffffffffffffffffffffffffffffffffffffffff16815260200190815260200160002060008282540192505081905550856001600087815260200190815260200160002060006101000a81548173ffffffffffffffffffffffffffffffffffffffff021916908373ffffffffffffffffffffffffffffffffffffffff160217905550848673ffffffffffffffffffffffffffffffffffffffff168873ffffffffffffffffffffffffffffffffffffffff167fddf252ad1be2c89b69c2b068fc378daa952ba7f163c4a11628f55a4df523b3ef60405160405180910390a450505050505050565b600085600073ffffffffffffffffffffffffffffffffffffffff168173ffffffffffffffffffffffffffffffffffffffff1614151515611706576040517f08c379a00000000000000000000000000000000000000000000000000000000081526004018080602001828103825260188152602001807f6164647265737320307830206973206e6f742076616c6964000000000000000081525060200191505060405180910390fd5b60066000815480929190600101919050555061172061407e565b60a060405190810160405280600654815260200188600881111561174057fe5b81526020018715158152602001868152602001858152509050600860008973ffffffffffffffffffffffffffffffffffffffff1673ffffffffffffffffffffffffffffffffffffffff16815260200190815260200160002081908060018154018082558091505090600182039060005260206000209060040201600090919290919091506000820151816000015560208201518160010160006101000a81548160ff021916908360088111156117f257fe5b021790555060408201518160010160016101000a81548160ff0219169083151502179055506060820151816002015560808201518160030155505050806009600060065481526020019081526020016000206000820151816000015560208201518160010160006101000a81548160ff0219169083600881111561187257fe5b021790555060408201518160010160016101000a81548160ff02191690831515021790555060608201518160020155608082015181600301559050503073ffffffffffffffffffffffffffffffffffffffff168873ffffffffffffffffffffffffffffffffffffffff16141561191e576001600b6000600654815260200190815260200160002060006101000a81548160ff02191690831515021790555061191d6006546005610c2d565b5b61192a88600654613482565b505095945050505050565b8273ffffffffffffffffffffffffffffffffffffffff166119558261336b565b73ffffffffffffffffffffffffffffffffffffffff1614151561197757600080fd5b60001515600b600083815260200190815260200160002060009054906101000a900460ff1615151415156119aa57600080fd5b60011515600760008473ffffffffffffffffffffffffffffffffffffffff1673ffffffffffffffffffffffffffffffffffffffff16815260200190815260200160002060009054906101000a900460ff161515141515611a0957600080fd5b611a12816136a4565b600460009054906101000a900473ffffffffffffffffffffffffffffffffffffffff1673ffffffffffffffffffffffffffffffffffffffff166323b872dd8484846040518463ffffffff167c0100000000000000000000000000000000000000000000000000000000028152600401808473ffffffffffffffffffffffffffffffffffffffff1673ffffffffffffffffffffffffffffffffffffffff1681526020018373ffffffffffffffffffffffffffffffffffffffff1673ffffffffffffffffffffffffffffffffffffffff1681526020018281526020019350505050600060405180830381600087803b158015611b0b57600080fd5b505af1158015611b1f573d6000803e3d6000fd5b50505050505050565b80600f600084815260200190815260200160002054148015611b5c575081600f600083815260200190815260200160002054145b1515611b6757600080fd5b600160106000838501815260200190815260200160002060030160006101000a81548160ff02191690831515021790551515611ba257600080fd5b611baa6137ce565b506000611bb56137ce565b60ff161415611c8957611bc78261336b565b60106000838501815260200190815260200160002060030160016101000a81548173ffffffffffffffffffffffffffffffffffffffff021916908373ffffffffffffffffffffffffffffffffffffffff160217905550611c268261336b565b73ffffffffffffffffffffffffffffffffffffffff166108fc601060008486018152602001908152602001600020600201549081150290604051600060405180830381858888f19350505050158015611c83573d6000803e3d6000fd5b50611d50565b611c928161336b565b60106000838501815260200190815260200160002060030160016101000a81548173ffffffffffffffffffffffffffffffffffffffff021916908373ffffffffffffffffffffffffffffffffffffffff160217905550611cf18161336b565b73ffffffffffffffffffffffffffffffffffffffff166108fc601060008486018152602001908152602001600020600201549081150290604051600060405180830381858888f19350505050158015611d4e573d6000803e3d6000fd5b505b5050565b60096020528060005260406000206000915090508060000154908060010160009054906101000a900460ff16908060010160019054906101000a900460ff16908060020154908060030154905085565b600c60008281526020019081526020016000206003015434600d60003373ffffffffffffffffffffffffffffffffffffffff1673ffffffffffffffffffffffffffffffffffffffff1681526020019081526020016000205401111515611e0957600080fd5b34600d60003373ffffffffffffffffffffffffffffffffffffffff1673ffffffffffffffffffffffffffffffffffffffff1681526020019081526020016000206000828254019250508190555050565b80600073ffffffffffffffffffffffffffffffffffffffff168173ffffffffffffffffffffffffffffffffffffffff1614151515611eff576040517f08c379a00000000000000000000000000000000000000000000000000000000081526004018080602001828103825260188152602001807f6164647265737320307830206973206e6f742076616c6964000000000000000081525060200191505060405180910390fd5b600560009054906101000a900473ffffffffffffffffffffffffffffffffffffffff1673ffffffffffffffffffffffffffffffffffffffff163373ffffffffffffffffffffffffffffffffffffffff16141515611f5b57600080fd5b60001515600760008473ffffffffffffffffffffffffffffffffffffffff1673ffffffffffffffffffffffffffffffffffffffff16815260200190815260200160002060009054906101000a900460ff161515141515612023576040517f08c379a000000000000000000000000000000000000000000000000000000000815260040180806020018281038252601a8152602001807f6272656564657220616c7265616479207265676973746572656400000000000081525060200191505060405180910390fd5b6001600760008473ffffffffffffffffffffffffffffffffffffffff1673ffffffffffffffffffffffffffffffffffffffff16815260200190815260200160002060006101000a81548160ff0219169083151502179055505050565b600115156009600084815260200190815260200160002060010160019054906101000a900460ff1615151480156120dd5750600015156009600083815260200190815260200160002060010160019054906101000a900460ff161515145b806121425750600015156009600084815260200190815260200160002060010160019054906101000a900460ff1615151480156121415750600115156009600083815260200190815260200160002060010160019054906101000a900460ff161515145b5b15156121dc576040517f08c379a00000000000000000000000000000000000000000000000000000000081526004018080602001828103825260268152602001807f6e6f7420706f737369626c6520746f2062726565642073616d6520736578206181526020017f6e696d616c73000000000000000000000000000000000000000000000000000081525060400191505060405180910390fd5b6121e6338361386e565b806121f757506121f6338261386e565b5b1515612291576040517f08c379a000000000000000000000000000000000000000000000000000000000815260040180806020018281038252602c8152602001807f6d6573736167652073656e646572206973206e6f74206f6e65206f662074686581526020017f20746f6b656e206f776e6572000000000000000000000000000000000000000081525060400191505060405180910390fd5b600a600083815260200190815260200160002060009054906101000a900460ff1680156122db5750600a600082815260200190815260200160002060009054906101000a900460ff165b1515612375576040517f08c379a00000000000000000000000000000000000000000000000000000000081526004018080602001828103825260228152602001807f646f6773206861766520746f20626520617661696c61626c6520746f2062726581526020017f656400000000000000000000000000000000000000000000000000000000000081525060400191505060405180910390fd5b60006123818383613944565b90506000600260096000858152602001908152602001600020600301546009600087815260200190815260200160002060030154018115156123bf57fe5b0490506123cc338561386e565b80156123de57506123dd338461386e565b5b156123f8576123f23383600160008561165e565b50612409565b6124073083600160008561165e565b505b50505050565b3373ffffffffffffffffffffffffffffffffffffffff166001600083815260200190815260200160002060009054906101000a900473ffffffffffffffffffffffffffffffffffffffff1673ffffffffffffffffffffffffffffffffffffffff161415151561250c576040517f08c379a00000000000000000000000000000000000000000000000000000000081526004018080602001828103825260238152602001807f746f6b656e206f776e65722063616e2774206265206d6573736167652073656e81526020017f646572000000000000000000000000000000000000000000000000000000000081525060400191505060405180910390fd5b60011515600b600083815260200190815260200160002060009054906101000a900460ff1615151415156125a8576040517f08c379a00000000000000000000000000000000000000000000000000000000081526004018080602001828103825260158152602001807f646f67206973206e6f7420696e2061756374696f6e000000000000000000000081525060200191505060405180910390fd5b600c6000828152602001908152602001600020600301543411151561265b576040517f08c379a000000000000000000000000000000000000000000000000000000000815260040180806020018281038252602d8152602001807f6d73672e76616c7565206d757374206265207375706572696f7220746f20746881526020017f652068696768657374206269640000000000000000000000000000000000000081525060400191505060405180910390fd5b426202a300600c60008481526020019081526020016000206001015401101515156126ee576040517f08c379a00000000000000000000000000000000000000000000000000000000081526004018080602001828103825260138152602001807f61756374696f6e2069732066696e69736865640000000000000000000000000081525060200191505060405180910390fd5b34600d60003373ffffffffffffffffffffffffffffffffffffffff1673ffffffffffffffffffffffffffffffffffffffff1681526020019081526020016000208190555034600c60008381526020019081526020016000206003018190555050565b600081600073ffffffffffffffffffffffffffffffffffffffff168173ffffffffffffffffffffffffffffffffffffffff16141515156127f8576040517f08c379a00000000000000000000000000000000000000000000000000000000081526004018080602001828103825260188152602001807f6164647265737320307830206973206e6f742076616c6964000000000000000081525060200191505060405180910390fd5b6000808473ffffffffffffffffffffffffffffffffffffffff1673ffffffffffffffffffffffffffffffffffffffff16815260200190815260200160002054915050919050565b3373ffffffffffffffffffffffffffffffffffffffff1661285f8361336b565b73ffffffffffffffffffffffffffffffffffffffff1614151561288157600080fd5b60001515600b600084815260200190815260200160002060009054906101000a900460ff1615151415156128b457600080fd5b6000341115156128c357600080fd5b80600f60008481526020019081526020016000208190555060003490506128e86140bb565b60a060405190810160405280858152602001848152602001838152602001600015158152602001600073ffffffffffffffffffffffffffffffffffffffff1681525090508060106000858701815260200190815260200160002060008201518160000155602082015181600101556040820151816002015560608201518160030160006101000a81548160ff02191690831515021790555060808201518160030160016101000a81548173ffffffffffffffffffffffffffffffffffffffff021916908373ffffffffffffffffffffffffffffffffffffffff16021790555090505050505050565b60016020528060005260406000206000915054906101000a900473ffffffffffffffffffffffffffffffffffffffff1681565b612a0c8161336b565b73ffffffffffffffffffffffffffffffffffffffff163373ffffffffffffffffffffffffffffffffffffffff16141515612aae576040517f08c379a00000000000000000000000000000000000000000000000000000000081526004018080602001828103825260198152602001807f73656e646572206973206e6f7420746f6b656e206f776e65720000000000000081525060200191505060405180910390fd5b60001515600a600083815260200190815260200160002060009054906101000a900460ff161515141515612b70576040517f08c379a00000000000000000000000000000000000000000000000000000000081526004018080602001828103825260218152602001807f646f6720697320616c726561647920617661696c61626c6520746f206272656581526020017f640000000000000000000000000000000000000000000000000000000000000081525060400191505060405180910390fd5b6001600a600083815260200190815260200160002060006101000a81548160ff02191690831515021790555050565b600a6020528060005260406000206000915054906101000a900460ff1681565b60003073ffffffffffffffffffffffffffffffffffffffff1631905090565b600560009054906101000a900473ffffffffffffffffffffffffffffffffffffffff1681565b6000600c6000838152602001908152602001600020600301549050919050565b60011515600b600083815260200190815260200160002060009054906101000a900460ff161515141515612c5757600080fd5b6202a300600c6000838152602001908152602001600020600101540142111515612c8057600080fd5b600c600082815260200190815260200160002060030154600d60003373ffffffffffffffffffffffffffffffffffffffff1673ffffffffffffffffffffffffffffffffffffffff16815260200190815260200160002054141515612ce357600080fd5b600460009054906101000a900473ffffffffffffffffffffffffffffffffffffffff1673ffffffffffffffffffffffffffffffffffffffff166323b872dd612d2a8361336b565b33846040518463ffffffff167c0100000000000000000000000000000000000000000000000000000000028152600401808473ffffffffffffffffffffffffffffffffffffffff1673ffffffffffffffffffffffffffffffffffffffff1681526020018373ffffffffffffffffffffffffffffffffffffffff1673ffffffffffffffffffffffffffffffffffffffff1681526020018281526020019350505050600060405180830381600087803b158015612de457600080fd5b505af1158015612df8573d6000803e3d6000fd5b5050505033600c600083815260200190815260200160002060040160006101000a81548173ffffffffffffffffffffffffffffffffffffffff021916908373ffffffffffffffffffffffffffffffffffffffff16021790555050565b3373ffffffffffffffffffffffffffffffffffffffff168273ffffffffffffffffffffffffffffffffffffffff1614151515612f1e576040517f08c379a00000000000000000000000000000000000000000000000000000000081526004018080602001828103825260218152602001807f4552433732313a204f776e657220697320616c726561647920617070726f766581526020017f640000000000000000000000000000000000000000000000000000000000000081525060400191505060405180910390fd5b80600360003373ffffffffffffffffffffffffffffffffffffffff1673ffffffffffffffffffffffffffffffffffffffff16815260200190815260200160002060008473ffffffffffffffffffffffffffffffffffffffff1673ffffffffffffffffffffffffffffffffffffffff16815260200190815260200160002060006101000a81548160ff0219169083151502179055508173ffffffffffffffffffffffffffffffffffffffff163373ffffffffffffffffffffffffffffffffffffffff167f17307eab39ab6107e8899845ad3d59bd9653f200f220920489ca2b5937696c3183604051808215151515815260200191505060405180910390a35050565b600f6020528060005260406000206000915090505481565b60003490503373ffffffffffffffffffffffffffffffffffffffff1661305c8461336b565b73ffffffffffffffffffffffffffffffffffffffff1614151561307e57600080fd5b82600f60008481526020019081526020016000205414151561309f57600080fd5b80601060008486018152602001908152602001600020600201541415156130c557600080fd5b81600f600085815260200190815260200160002081905550600160106000848601815260200190815260200160002060030160006101000a81548160ff0219169083151502179055506131188383611b28565b505050565b600b6020528060005260406000206000915054906101000a900460ff1681565b60076020528060005260406000206000915054906101000a900460ff1681565b60106020528060005260406000206000915090508060000154908060010154908060020154908060030160009054906101000a900460ff16908060030160019054906101000a900473ffffffffffffffffffffffffffffffffffffffff16905085565b6000600360008473ffffffffffffffffffffffffffffffffffffffff1673ffffffffffffffffffffffffffffffffffffffff16815260200190815260200160002060008373ffffffffffffffffffffffffffffffffffffffff1673ffffffffffffffffffffffffffffffffffffffff16815260200190815260200160002060009054906101000a900460ff16905092915050565b61325d8161336b565b73ffffffffffffffffffffffffffffffffffffffff163373ffffffffffffffffffffffffffffffffffffffff161415156132ff576040517f08c379a00000000000000000000000000000000000000000000000000000000081526004018080602001828103825260198152602001807f73656e646572206973206e6f7420746f6b656e206f776e65720000000000000081525060200191505060405180910390fd5b6133093382613ceb565b600960008281526020019081526020016000206000808201600090556001820160006101000a81549060ff02191690556001820160016101000a81549060ff0219169055600282016000905560038201600090555050613368816136a4565b50565b60006001600083815260200190815260200160002060009054906101000a900473ffffffffffffffffffffffffffffffffffffffff16600073ffffffffffffffffffffffffffffffffffffffff168173ffffffffffffffffffffffffffffffffffffffff1614151515613446576040517f08c379a00000000000000000000000000000000000000000000000000000000081526004018080602001828103825260188152602001807f6164647265737320307830206973206e6f742076616c6964000000000000000081525060200191505060405180910390fd5b6001600084815260200190815260200160002060009054906101000a900473ffffffffffffffffffffffffffffffffffffffff16915050919050565b600073ffffffffffffffffffffffffffffffffffffffff168273ffffffffffffffffffffffffffffffffffffffff1614151515613527576040517f08c379a00000000000000000000000000000000000000000000000000000000081526004018080602001828103825260208152602001807f4552433732313a206d696e7420746f20746865207a65726f206164647265737381525060200191505060405180910390fd5b61353081613ef0565b1515156135a5576040517f08c379a000000000000000000000000000000000000000000000000000000000815260040180806020018281038252601c8152602001807f4552433732313a20746f6b656e20616c7265616479206d696e7465640000000081525060200191505060405180910390fd5b816001600083815260200190815260200160002060006101000a81548173ffffffffffffffffffffffffffffffffffffffff021916908373ffffffffffffffffffffffffffffffffffffffff16021790555060016000808473ffffffffffffffffffffffffffffffffffffffff1673ffffffffffffffffffffffffffffffffffffffff16815260200190815260200160002060008282540192505081905550808273ffffffffffffffffffffffffffffffffffffffff16600073ffffffffffffffffffffffffffffffffffffffff167fddf252ad1be2c89b69c2b068fc378daa952ba7f163c4a11628f55a4df523b3ef60405160405180910390a45050565b60008090505b81600860006136b88561336b565b73ffffffffffffffffffffffffffffffffffffffff1673ffffffffffffffffffffffffffffffffffffffff168152602001908152602001600020828154811015156136ff57fe5b9060005260206000209060040201600001541415156137255780806001019150506136aa565b600860006137328461336b565b73ffffffffffffffffffffffffffffffffffffffff1673ffffffffffffffffffffffffffffffffffffffff1681526020019081526020016000208181548110151561377957fe5b90600052602060002090600402016000808201600090556001820160006101000a81549060ff02191690556001820160016101000a81549060ff02191690556002820160009055600382016000905550505050565b600060024260115433604051602001808481526020018381526020018273ffffffffffffffffffffffffffffffffffffffff1673ffffffffffffffffffffffffffffffffffffffff166c010000000000000000000000000281526014019350505050604051602081830303815290604052805190602001206001900481151561385357fe5b06905060116000815480929190600101919050555080905090565b600080905060008090505b600860008573ffffffffffffffffffffffffffffffffffffffff1673ffffffffffffffffffffffffffffffffffffffff1681526020019081526020016000208054905081101561393a5782600860008673ffffffffffffffffffffffffffffffffffffffff1673ffffffffffffffffffffffffffffffffffffffff1681526020019081526020016000208281548110151561391057fe5b906000526020600020906004020160000154141561392d57600191505b8080600101915050613879565b5080905092915050565b600061394e61407e565b6009600085815260200190815260200160002060a06040519081016040529081600082015481526020016001820160009054906101000a900460ff16600881111561399557fe5b60088111156139a057fe5b81526020016001820160019054906101000a900460ff161515151581526020016002820154815260200160038201548152505090506139dd61407e565b6009600085815260200190815260200160002060a06040519081016040529081600082015481526020016001820160009054906101000a900460ff166008811115613a2457fe5b6008811115613a2f57fe5b81526020016001820160019054906101000a900460ff1615151515815260200160028201548152602001600382015481525050905060006008811115613a7157fe5b82602001516008811115613a8157fe5b148015613aa8575060016008811115613a9657fe5b81602001516008811115613aa657fe5b145b80613af3575060016008811115613abb57fe5b82602001516008811115613acb57fe5b148015613af2575060006008811115613ae057fe5b81602001516008811115613af057fe5b145b5b15613b015760059250613ce0565b60016008811115613b0e57fe5b82602001516008811115613b1e57fe5b148015613b45575060046008811115613b3357fe5b81602001516008811115613b4357fe5b145b80613b90575060046008811115613b5857fe5b82602001516008811115613b6857fe5b148015613b8f575060016008811115613b7d57fe5b81602001516008811115613b8d57fe5b145b5b15613b9e5760069250613cdf565b60026008811115613bab57fe5b82602001516008811115613bbb57fe5b148015613be2575060036008811115613bd057fe5b81602001516008811115613be057fe5b145b80613c2d575060036008811115613bf557fe5b82602001516008811115613c0557fe5b148015613c2c575060026008811115613c1a57fe5b81602001516008811115613c2a57fe5b145b5b15613c3b5760019250613cde565b60006008811115613c4857fe5b82602001516008811115613c5857fe5b148015613c7f575060046008811115613c6d57fe5b81602001516008811115613c7d57fe5b145b80613cca575060046008811115613c9257fe5b82602001516008811115613ca257fe5b148015613cc9575060006008811115613cb757fe5b81602001516008811115613cc757fe5b145b5b15613cd85760079250613cdd565b600892505b5b5b5b829250505092915050565b8173ffffffffffffffffffffffffffffffffffffffff166001600083815260200190815260200160002060009054906101000a900473ffffffffffffffffffffffffffffffffffffffff1673ffffffffffffffffffffffffffffffffffffffff16141515613de7576040517f08c379a00000000000000000000000000000000000000000000000000000000081526004018080602001828103825260258152602001807f4552433732313a206275726e206f6620746f6b656e2074686174206973206e6f81526020017f74206f776e00000000000000000000000000000000000000000000000000000081525060400191505060405180910390fd5b613df081613f62565b60016000808473ffffffffffffffffffffffffffffffffffffffff1673ffffffffffffffffffffffffffffffffffffffff1681526020019081526020016000206000828254039250508190555060006001600083815260200190815260200160002060006101000a81548173ffffffffffffffffffffffffffffffffffffffff021916908373ffffffffffffffffffffffffffffffffffffffff16021790555080600073ffffffffffffffffffffffffffffffffffffffff168373ffffffffffffffffffffffffffffffffffffffff167fddf252ad1be2c89b69c2b068fc378daa952ba7f163c4a11628f55a4df523b3ef60405160405180910390a45050565b6000806001600084815260200190815260200160002060009054906101000a900473ffffffffffffffffffffffffffffffffffffffff169050600073ffffffffffffffffffffffffffffffffffffffff168173ffffffffffffffffffffffffffffffffffffffff161415915050919050565b600073ffffffffffffffffffffffffffffffffffffffff166002600083815260200190815260200160002060009054906101000a900473ffffffffffffffffffffffffffffffffffffffff1673ffffffffffffffffffffffffffffffffffffffff1614151561401f5760006002600083815260200190815260200160002060006101000a81548173ffffffffffffffffffffffffffffffffffffffff021916908373ffffffffffffffffffffffffffffffffffffffff1602179055505b50565b60a060405190810160405280600073ffffffffffffffffffffffffffffffffffffffff168152602001600081526020016000815260200160008152602001600073ffffffffffffffffffffffffffffffffffffffff1681525090565b60a060405190810160405280600081526020016000600881111561409e57fe5b815260200160001515815260200160008152602001600081525090565b60a060405190810160405280600081526020016000815260200160008152602001600015158152602001600073ffffffffffffffffffffffffffffffffffffffff168152509056fea165627a7a72305820206377ae1e02c7d68ca00e48552eed8eb3c25e34ea480f4a28481ae55e3634ce0029608060405234801561001057600080fd5b50610e5f806100206000396000f3fe608060405260043610610083576000357c0100000000000000000000000000000000000000000000000000000000900463ffffffff168063081812fc14610088578063095ea7b31461010357806323b872dd1461015157806370a08231146101bf578063796db31214610224578063a22cb4651461029f578063e985e9c5146102fc575b600080fd5b34801561009457600080fd5b506100c1600480360360208110156100ab57600080fd5b8101908080359060200190929190505050610385565b604051808273ffffffffffffffffffffffffffffffffffffffff1673ffffffffffffffffffffffffffffffffffffffff16815260200191505060405180910390f35b61014f6004803603604081101561011957600080fd5b81019080803573ffffffffffffffffffffffffffffffffffffffff16906020019092919080359060200190929190505050610433565b005b6101bd6004803603606081101561016757600080fd5b81019080803573ffffffffffffffffffffffffffffffffffffffff169060200190929190803573ffffffffffffffffffffffffffffffffffffffff16906020019092919080359060200190929190505050610692565b005b3480156101cb57600080fd5b5061020e600480360360208110156101e257600080fd5b81019080803573ffffffffffffffffffffffffffffffffffffffff169060200190929190505050610ab2565b6040518082815260200191505060405180910390f35b34801561023057600080fd5b5061025d6004803603602081101561024757600080fd5b8101908080359060200190929190505050610ba1565b604051808273ffffffffffffffffffffffffffffffffffffffff1673ffffffffffffffffffffffffffffffffffffffff16815260200191505060405180910390f35b3480156102ab57600080fd5b506102fa600480360360408110156102c257600080fd5b81019080803573ffffffffffffffffffffffffffffffffffffffff169060200190929190803515159060200190929190505050610bd4565b005b34801561030857600080fd5b5061036b6004803603604081101561031f57600080fd5b81019080803573ffffffffffffffffffffffffffffffffffffffff169060200190929190803573ffffffffffffffffffffffffffffffffffffffff169060200190929190505050610d9f565b604051808215151515815260200191505060405180910390f35b600081600073ffffffffffffffffffffffffffffffffffffffff166001600083815260200190815260200160002060009054906101000a900473ffffffffffffffffffffffffffffffffffffffff1673ffffffffffffffffffffffffffffffffffffffff16141515156103f757600080fd5b6002600084815260200190815260200160002060009054906101000a900473ffffffffffffffffffffffffffffffffffffffff16915050919050565b3373ffffffffffffffffffffffffffffffffffffffff168273ffffffffffffffffffffffffffffffffffffffff16141515156104fd576040517f08c379a00000000000000000000000000000000000000000000000000000000081526004018080602001828103825260228152602001807f455243373231203a204f776e657220697320616c726561647920617070726f7681526020017f656400000000000000000000000000000000000000000000000000000000000081525060400191505060405180910390fd5b3373ffffffffffffffffffffffffffffffffffffffff166001600083815260200190815260200160002060009054906101000a900473ffffffffffffffffffffffffffffffffffffffff1673ffffffffffffffffffffffffffffffffffffffff1614806105a357506105a26001600083815260200190815260200160002060009054906101000a900473ffffffffffffffffffffffffffffffffffffffff1633610d9f565b5b15156105ae57600080fd5b816002600083815260200190815260200160002060006101000a81548173ffffffffffffffffffffffffffffffffffffffff021916908373ffffffffffffffffffffffffffffffffffffffff160217905550808273ffffffffffffffffffffffffffffffffffffffff166001600084815260200190815260200160002060009054906101000a900473ffffffffffffffffffffffffffffffffffffffff1673ffffffffffffffffffffffffffffffffffffffff167f8c5be1e5ebec7d5bd14f71427d1e84f3dd0314c0f7b2291e5b200ac8c7c3b92560405160405180910390a45050565b81600073ffffffffffffffffffffffffffffffffffffffff168173ffffffffffffffffffffffffffffffffffffffff1614151515610738576040517f08c379a00000000000000000000000000000000000000000000000000000000081526004018080602001828103825260188152602001807f6164647265737320307830206973206e6f742076616c6964000000000000000081525060200191505060405180910390fd5b81600073ffffffffffffffffffffffffffffffffffffffff166001600083815260200190815260200160002060009054906101000a900473ffffffffffffffffffffffffffffffffffffffff1673ffffffffffffffffffffffffffffffffffffffff16141515156107a857600080fd5b33838173ffffffffffffffffffffffffffffffffffffffff163373ffffffffffffffffffffffffffffffffffffffff16148061081757508173ffffffffffffffffffffffffffffffffffffffff166107ff82610385565b73ffffffffffffffffffffffffffffffffffffffff16145b8061085b575061085a6001600083815260200190815260200160002060009054906101000a900473ffffffffffffffffffffffffffffffffffffffff1683610d9f565b5b151561086657600080fd5b8673ffffffffffffffffffffffffffffffffffffffff166001600087815260200190815260200160002060009054906101000a900473ffffffffffffffffffffffffffffffffffffffff1673ffffffffffffffffffffffffffffffffffffffff16141515610962576040517f08c379a000000000000000000000000000000000000000000000000000000000815260040180806020018281038252602b8152602001807f4552433732313a207472616e73666572206f6620746f6b656e2074686174206981526020017f73206e6f74206f776e656400000000000000000000000000000000000000000081525060400191505060405180910390fd5b60016000808973ffffffffffffffffffffffffffffffffffffffff1673ffffffffffffffffffffffffffffffffffffffff1681526020019081526020016000206000828254039250508190555060016000808873ffffffffffffffffffffffffffffffffffffffff1673ffffffffffffffffffffffffffffffffffffffff16815260200190815260200160002060008282540192505081905550856001600087815260200190815260200160002060006101000a81548173ffffffffffffffffffffffffffffffffffffffff021916908373ffffffffffffffffffffffffffffffffffffffff160217905550848673ffffffffffffffffffffffffffffffffffffffff168873ffffffffffffffffffffffffffffffffffffffff167fddf252ad1be2c89b69c2b068fc378daa952ba7f163c4a11628f55a4df523b3ef60405160405180910390a450505050505050565b600081600073ffffffffffffffffffffffffffffffffffffffff168173ffffffffffffffffffffffffffffffffffffffff1614151515610b5a576040517f08c379a00000000000000000000000000000000000000000000000000000000081526004018080602001828103825260188152602001807f6164647265737320307830206973206e6f742076616c6964000000000000000081525060200191505060405180910390fd5b6000808473ffffffffffffffffffffffffffffffffffffffff1673ffffffffffffffffffffffffffffffffffffffff16815260200190815260200160002054915050919050565b60016020528060005260406000206000915054906101000a900473ffffffffffffffffffffffffffffffffffffffff1681565b3373ffffffffffffffffffffffffffffffffffffffff168273ffffffffffffffffffffffffffffffffffffffff1614151515610c9e576040517f08c379a00000000000000000000000000000000000000000000000000000000081526004018080602001828103825260218152602001807f4552433732313a204f776e657220697320616c726561647920617070726f766581526020017f640000000000000000000000000000000000000000000000000000000000000081525060400191505060405180910390fd5b80600360003373ffffffffffffffffffffffffffffffffffffffff1673ffffffffffffffffffffffffffffffffffffffff16815260200190815260200160002060008473ffffffffffffffffffffffffffffffffffffffff1673ffffffffffffffffffffffffffffffffffffffff16815260200190815260200160002060006101000a81548160ff0219169083151502179055508173ffffffffffffffffffffffffffffffffffffffff163373ffffffffffffffffffffffffffffffffffffffff167f17307eab39ab6107e8899845ad3d59bd9653f200f220920489ca2b5937696c3183604051808215151515815260200191505060405180910390a35050565b6000600360008473ffffffffffffffffffffffffffffffffffffffff1673ffffffffffffffffffffffffffffffffffffffff16815260200190815260200160002060008373ffffffffffffffffffffffffffffffffffffffff1673ffffffffffffffffffffffffffffffffffffffff16815260200190815260200160002060009054906101000a900460ff1690509291505056fea165627a7a72305820855d066cbefef1f53f7e14e6c5ef26b6b10b128c45d15afac5e736f63a1c143b0029",
  "source": "pragma solidity ^0.5.0;\r\n\r\nimport \"./DogRegisterCoin.sol\";\r\n\r\n\r\ncontract Arena is DogRegisterCoin {\r\n\r\n\r\n\r\n\tmapping(uint256 => uint256) public fightProposition;\r\n\tmapping(uint256 => Fight) public fightsById; //fight id is sum of the two dogs ids\r\n\r\n\t uint256 private _nonce;\r\n\r\n\r\n\r\n\tstruct Fight {\r\n\t\tuint256 dog1;\r\n\t\tuint256 dog2;\r\n\t\tuint256 bid;\r\n\t\tbool accepted;\r\n\t\taddress winner;\r\n\t}\r\n\r\n\r\n\r\n\r\n\tfunction proposeToFight(uint256 _id1, uint256 _id2) public payable{\r\n\t\trequire(ownerOf(_id1) == msg.sender);\r\n\t\trequire(dogsInAuction[_id1] == false);\r\n\t\trequire(msg.value > 0);\r\n\t\tfightProposition[_id1] = _id2;\r\n\t\tuint256 _bid = uint256(msg.value);\r\n\t\tFight memory fight = Fight(_id1, _id2, _bid, false, address(0));\r\n\t\tfightsById[_id1+_id2] = fight;\r\n\r\n\r\n\t}\r\n\r\n\r\n\tfunction agreeToFight(uint256 _id1, uint256 _id2) public payable{\r\n\t\tuint256 _bid = uint256(msg.value);\r\n\t\trequire(ownerOf(_id1) == msg.sender);\r\n\t\trequire(fightProposition[_id2] == _id1);\r\n\t\trequire(fightsById[_id1 +_id2].bid ==  _bid);\r\n\t\tfightProposition[_id1] = _id2;\r\n\t\tfightsById[_id1+_id2].accepted = true;\r\n\r\n\t\t_fight(_id1, _id2);\t\r\n\r\n\t}\r\n\r\n\r\n\tfunction _fight(uint256 _id1, uint256 _id2) public payable{\r\n\t\trequire(fightProposition[_id1] == _id2 && fightProposition[_id2] == _id1);\r\n\t\trequire(fightsById[_id1+_id2].accepted = true);\r\n\r\n\t\t_random();\r\n\r\n\t\tif(_random() == 0) \r\n\t\t{\r\n\t\t\tfightsById[_id1+_id2].winner = ownerOf(_id1);\r\n\t\t\townerOf(_id1).transfer(fightsById[_id1 +_id2].bid);\r\n\r\n\t\t}\r\n\t\telse \r\n\t\t{\r\n\t\t\tfightsById[_id1 + _id2].winner = ownerOf(_id2);\r\n\t\t\townerOf(_id2).transfer(fightsById[_id1 +_id2].bid);\r\n\t\t}\r\n\r\n\t}\r\n\r\n\r\n\tfunction _random() private returns (uint8 random) {\r\n       random = uint8(uint256(keccak256(abi.encodePacked(block.timestamp, _nonce, msg.sender)))%2);\r\n       _nonce++;\r\n       return random;\r\n\r\n   }\r\n   \r\n}",
  "sourcePath": "C:/Users/cleme/Desktop/smart_contracts_ethereum/TD6/contracts/Arena.sol",
  "compiler": {
    "name": "solc",
    "version": "0.5.0+commit.1d4f565a.Emscripten.clang"
  },
  "schemaVersion": "3.0.5",
  "updatedAt": "2019-11-01T15:40:21.069Z",
  "devdoc": {
    "methods": {}
  },
  "userdoc": {
    "methods": {}
  }
}