{
  "contractName": "Arena",
  "abi": [
    {
      "constant": false,
      "inputs": [
        {
          "name": "_id",
          "type": "uint256"
        },
        {
          "name": "_startingPrice",
          "type": "uint256"
        }
      ],
      "name": "createAuction",
      "outputs": [],
      "payable": false,
      "stateMutability": "nonpayable",
      "type": "function"
    },
    {
      "constant": true,
      "inputs": [
        {
          "name": "_tokenId",
          "type": "uint256"
        }
      ],
      "name": "getApproved",
      "outputs": [
        {
          "name": "",
          "type": "address"
        }
      ],
      "payable": false,
      "stateMutability": "view",
      "type": "function"
    },
    {
      "constant": false,
      "inputs": [
        {
          "name": "_approved",
          "type": "address"
        },
        {
          "name": "_tokenId",
          "type": "uint256"
        }
      ],
      "name": "approve",
      "outputs": [],
      "payable": true,
      "stateMutability": "payable",
      "type": "function"
    },
    {
      "constant": true,
      "inputs": [
        {
          "name": "",
          "type": "uint256"
        }
      ],
      "name": "auction",
      "outputs": [
        {
          "name": "chairperson",
          "type": "address"
        },
        {
          "name": "startTime",
          "type": "uint256"
        },
        {
          "name": "startingPrice",
          "type": "uint256"
        },
        {
          "name": "highestBid",
          "type": "uint256"
        },
        {
          "name": "winner",
          "type": "address"
        }
      ],
      "payable": false,
      "stateMutability": "view",
      "type": "function"
    },
    {
      "constant": false,
      "inputs": [
        {
          "name": "_from",
          "type": "address"
        },
        {
          "name": "_to",
          "type": "address"
        },
        {
          "name": "_tokenId",
          "type": "uint256"
        }
      ],
      "name": "transferFrom",
      "outputs": [],
      "payable": true,
      "stateMutability": "payable",
      "type": "function"
    },
    {
      "constant": false,
      "inputs": [
        {
          "name": "_breeder",
          "type": "address"
        },
        {
          "name": "_race",
          "type": "uint8"
        },
        {
          "name": "_isMale",
          "type": "bool"
        },
        {
          "name": "_age",
          "type": "uint256"
        },
        {
          "name": "_category",
          "type": "uint256"
        }
      ],
      "name": "declareAnimal",
      "outputs": [
        {
          "name": "",
          "type": "bool"
        }
      ],
      "payable": false,
      "stateMutability": "nonpayable",
      "type": "function"
    },
    {
      "constant": false,
      "inputs": [
        {
          "name": "_from",
          "type": "address"
        },
        {
          "name": "_to",
          "type": "address"
        },
        {
          "name": "_id",
          "type": "uint256"
        }
      ],
      "name": "TransferAnimal",
      "outputs": [],
      "payable": false,
      "stateMutability": "nonpayable",
      "type": "function"
    },
    {
      "constant": true,
      "inputs": [
        {
          "name": "",
          "type": "uint256"
        }
      ],
      "name": "dogsById",
      "outputs": [
        {
          "name": "id",
          "type": "uint256"
        },
        {
          "name": "race",
          "type": "uint8"
        },
        {
          "name": "isMale",
          "type": "bool"
        },
        {
          "name": "age",
          "type": "uint256"
        },
        {
          "name": "category",
          "type": "uint256"
        }
      ],
      "payable": false,
      "stateMutability": "view",
      "type": "function"
    },
    {
      "constant": false,
      "inputs": [
        {
          "name": "_id",
          "type": "uint256"
        }
      ],
      "name": "updateBid",
      "outputs": [],
      "payable": true,
      "stateMutability": "payable",
      "type": "function"
    },
    {
      "constant": false,
      "inputs": [
        {
          "name": "_breeder",
          "type": "address"
        }
      ],
      "name": "registerBreeder",
      "outputs": [],
      "payable": false,
      "stateMutability": "nonpayable",
      "type": "function"
    },
    {
      "constant": false,
      "inputs": [
        {
          "name": "_dogId1",
          "type": "uint256"
        },
        {
          "name": "_dogId2",
          "type": "uint256"
        }
      ],
      "name": "breedAnimal",
      "outputs": [],
      "payable": false,
      "stateMutability": "nonpayable",
      "type": "function"
    },
    {
      "constant": false,
      "inputs": [
        {
          "name": "_id",
          "type": "uint256"
        }
      ],
      "name": "bidAuction",
      "outputs": [],
      "payable": true,
      "stateMutability": "payable",
      "type": "function"
    },
    {
      "constant": true,
      "inputs": [
        {
          "name": "_address",
          "type": "address"
        }
      ],
      "name": "balanceOf",
      "outputs": [
        {
          "name": "",
          "type": "uint256"
        }
      ],
      "payable": false,
      "stateMutability": "view",
      "type": "function"
    },
    {
      "constant": true,
      "inputs": [
        {
          "name": "",
          "type": "uint256"
        }
      ],
      "name": "_tokenOwner",
      "outputs": [
        {
          "name": "",
          "type": "address"
        }
      ],
      "payable": false,
      "stateMutability": "view",
      "type": "function"
    },
    {
      "constant": false,
      "inputs": [
        {
          "name": "_dogId",
          "type": "uint256"
        }
      ],
      "name": "proposeToBreed",
      "outputs": [],
      "payable": false,
      "stateMutability": "nonpayable",
      "type": "function"
    },
    {
      "constant": true,
      "inputs": [
        {
          "name": "",
          "type": "uint256"
        }
      ],
      "name": "availableToBreed",
      "outputs": [
        {
          "name": "",
          "type": "bool"
        }
      ],
      "payable": false,
      "stateMutability": "view",
      "type": "function"
    },
    {
      "constant": true,
      "inputs": [],
      "name": "contractBalance",
      "outputs": [
        {
          "name": "",
          "type": "uint256"
        }
      ],
      "payable": false,
      "stateMutability": "view",
      "type": "function"
    },
    {
      "constant": true,
      "inputs": [],
      "name": "owner",
      "outputs": [
        {
          "name": "",
          "type": "address"
        }
      ],
      "payable": false,
      "stateMutability": "view",
      "type": "function"
    },
    {
      "constant": true,
      "inputs": [
        {
          "name": "_id",
          "type": "uint256"
        }
      ],
      "name": "getHighestBid",
      "outputs": [
        {
          "name": "",
          "type": "uint256"
        }
      ],
      "payable": false,
      "stateMutability": "view",
      "type": "function"
    },
    {
      "constant": true,
      "inputs": [
        {
          "name": "",
          "type": "address"
        },
        {
          "name": "",
          "type": "uint256"
        }
      ],
      "name": "breederDogs",
      "outputs": [
        {
          "name": "id",
          "type": "uint256"
        },
        {
          "name": "race",
          "type": "uint8"
        },
        {
          "name": "isMale",
          "type": "bool"
        },
        {
          "name": "age",
          "type": "uint256"
        },
        {
          "name": "category",
          "type": "uint256"
        }
      ],
      "payable": false,
      "stateMutability": "view",
      "type": "function"
    },
    {
      "constant": false,
      "inputs": [
        {
          "name": "_id",
          "type": "uint256"
        }
      ],
      "name": "claimAuction",
      "outputs": [],
      "payable": true,
      "stateMutability": "payable",
      "type": "function"
    },
    {
      "constant": false,
      "inputs": [
        {
          "name": "_operator",
          "type": "address"
        },
        {
          "name": "_approved",
          "type": "bool"
        }
      ],
      "name": "setApprovalForAll",
      "outputs": [],
      "payable": false,
      "stateMutability": "nonpayable",
      "type": "function"
    },
    {
      "constant": true,
      "inputs": [
        {
          "name": "",
          "type": "uint256"
        }
      ],
      "name": "fightProposition",
      "outputs": [
        {
          "name": "",
          "type": "uint256"
        }
      ],
      "payable": false,
      "stateMutability": "view",
      "type": "function"
    },
    {
      "constant": true,
      "inputs": [
        {
          "name": "",
          "type": "uint256"
        }
      ],
      "name": "dogsInAuction",
      "outputs": [
        {
          "name": "",
          "type": "bool"
        }
      ],
      "payable": false,
      "stateMutability": "view",
      "type": "function"
    },
    {
      "constant": true,
      "inputs": [
        {
          "name": "",
          "type": "address"
        }
      ],
      "name": "_whitelist",
      "outputs": [
        {
          "name": "",
          "type": "bool"
        }
      ],
      "payable": false,
      "stateMutability": "view",
      "type": "function"
    },
    {
      "constant": true,
      "inputs": [
        {
          "name": "",
          "type": "uint256"
        }
      ],
      "name": "fightsById",
      "outputs": [
        {
          "name": "dog1",
          "type": "uint256"
        },
        {
          "name": "dog2",
          "type": "uint256"
        },
        {
          "name": "bid",
          "type": "uint256"
        },
        {
          "name": "accepted",
          "type": "bool"
        },
        {
          "name": "winner",
          "type": "address"
        }
      ],
      "payable": false,
      "stateMutability": "view",
      "type": "function"
    },
    {
      "constant": true,
      "inputs": [
        {
          "name": "_owner",
          "type": "address"
        },
        {
          "name": "_operator",
          "type": "address"
        }
      ],
      "name": "isApprovedForAll",
      "outputs": [
        {
          "name": "",
          "type": "bool"
        }
      ],
      "payable": false,
      "stateMutability": "view",
      "type": "function"
    },
    {
      "constant": false,
      "inputs": [
        {
          "name": "_tokenId",
          "type": "uint256"
        }
      ],
      "name": "deadAnimal",
      "outputs": [],
      "payable": false,
      "stateMutability": "nonpayable",
      "type": "function"
    },
    {
      "anonymous": false,
      "inputs": [
        {
          "indexed": true,
          "name": "_from",
          "type": "address"
        },
        {
          "indexed": true,
          "name": "_to",
          "type": "address"
        },
        {
          "indexed": true,
          "name": "_tokenId",
          "type": "uint256"
        }
      ],
      "name": "Transfer",
      "type": "event"
    },
    {
      "anonymous": false,
      "inputs": [
        {
          "indexed": true,
          "name": "_owner",
          "type": "address"
        },
        {
          "indexed": true,
          "name": "_approved",
          "type": "address"
        },
        {
          "indexed": true,
          "name": "_tokenId",
          "type": "uint256"
        }
      ],
      "name": "Approval",
      "type": "event"
    },
    {
      "anonymous": false,
      "inputs": [
        {
          "indexed": true,
          "name": "_owner",
          "type": "address"
        },
        {
          "indexed": true,
          "name": "_operator",
          "type": "address"
        },
        {
          "indexed": false,
          "name": "_approved",
          "type": "bool"
        }
      ],
      "name": "ApprovalForAll",
      "type": "event"
    },
    {
      "constant": false,
      "inputs": [
        {
          "name": "_id1",
          "type": "uint256"
        },
        {
          "name": "_id2",
          "type": "uint256"
        }
      ],
      "name": "proposeToFight",
      "outputs": [],
      "payable": true,
      "stateMutability": "payable",
      "type": "function"
    },
    {
      "constant": false,
      "inputs": [
        {
          "name": "_id1",
          "type": "uint256"
        },
        {
          "name": "_id2",
          "type": "uint256"
        }
      ],
      "name": "agreeToFight",
      "outputs": [],
      "payable": true,
      "stateMutability": "payable",
      "type": "function"
    }
  ],
  "bytecode": "0x60806040526200000e620000b3565b604051809103906000f0801580156200002b573d6000803e3d6000fd5b50600460006101000a81548173ffffffffffffffffffffffffffffffffffffffff021916908373ffffffffffffffffffffffffffffffffffffffff16021790555033600560006101000a81548173ffffffffffffffffffffffffffffffffffffffff021916908373ffffffffffffffffffffffffffffffffffffffff160217905550620000c4565b604051610e7f80620043ac83390190565b6142d880620000d46000396000f3fe608060405260043610610180576000357c0100000000000000000000000000000000000000000000000000000000900463ffffffff1680630121683f14610185578063081812fc146101ca578063095ea7b3146102455780631200617f1461029357806323b872dd1461035657806324d89bd2146103c45780633948313b1461045a5780634065cc67146104d557806343129de114610552578063476fd474146105805780635e6bab68146105d157806364a7d7c71461061657806370a082311461064457806372368bdc146106a9578063796db312146106e15780637dcdf9be1461075c57806386f253aa146107975780638b7afe2e146107ea5780638da5cb5b146108155780638f2886441461086c578063909e268a146108bb5780639aafc6c914610958578063a22cb46514610986578063a7ccfca5146109e3578063c1722d2b14610a32578063ce6cc0fb14610a6a578063cfdb63ac14610abd578063d748bc6414610b26578063e985e9c514610bc1578063ec9b6db914610c4a575b600080fd5b34801561019157600080fd5b506101c8600480360360408110156101a857600080fd5b810190808035906020019092919080359060200190929190505050610c85565b005b3480156101d657600080fd5b50610203600480360360208110156101ed57600080fd5b8101908080359060200190929190505050610eaf565b604051808273ffffffffffffffffffffffffffffffffffffffff1673ffffffffffffffffffffffffffffffffffffffff16815260200191505060405180910390f35b6102916004803603604081101561025b57600080fd5b81019080803573ffffffffffffffffffffffffffffffffffffffff16906020019092919080359060200190929190505050610f5d565b005b34801561029f57600080fd5b506102cc600480360360208110156102b657600080fd5b81019080803590602001909291905050506111bc565b604051808673ffffffffffffffffffffffffffffffffffffffff1673ffffffffffffffffffffffffffffffffffffffff1681526020018581526020018481526020018381526020018273ffffffffffffffffffffffffffffffffffffffff1673ffffffffffffffffffffffffffffffffffffffff1681526020019550505050505060405180910390f35b6103c26004803603606081101561036c57600080fd5b81019080803573ffffffffffffffffffffffffffffffffffffffff169060200190929190803573ffffffffffffffffffffffffffffffffffffffff16906020019092919080359060200190929190505050611232565b005b3480156103d057600080fd5b50610440600480360360a08110156103e757600080fd5b81019080803573ffffffffffffffffffffffffffffffffffffffff169060200190929190803560ff1690602001909291908035151590602001909291908035906020019092919080359060200190929190505050611652565b604051808215151515815260200191505060405180910390f35b34801561046657600080fd5b506104d36004803603606081101561047d57600080fd5b81019080803573ffffffffffffffffffffffffffffffffffffffff169060200190929190803573ffffffffffffffffffffffffffffffffffffffff1690602001909291908035906020019092919050505061192b565b005b3480156104e157600080fd5b5061050e600480360360208110156104f857600080fd5b8101908080359060200190929190505050611b1e565b6040518086815260200185600881111561052457fe5b60ff168152602001841515151581526020018381526020018281526020019550505050505060405180910390f35b61057e6004803603602081101561056857600080fd5b8101908080359060200190929190505050611b6e565b005b34801561058c57600080fd5b506105cf600480360360208110156105a357600080fd5b81019080803573ffffffffffffffffffffffffffffffffffffffff169060200190929190505050611c23565b005b3480156105dd57600080fd5b50610614600480360360408110156105f457600080fd5b810190808035906020019092919080359060200190929190505050611e49565b005b6106426004803603602081101561062c57600080fd5b81019080803590602001909291905050506121d9565b005b34801561065057600080fd5b506106936004803603602081101561066757600080fd5b81019080803573ffffffffffffffffffffffffffffffffffffffff16906020019092919050505061251a565b6040518082815260200191505060405180910390f35b6106df600480360360408110156106bf57600080fd5b810190808035906020019092919080359060200190929190505050612609565b005b3480156106ed57600080fd5b5061071a6004803603602081101561070457600080fd5b810190808035906020019092919050505061279a565b604051808273ffffffffffffffffffffffffffffffffffffffff1673ffffffffffffffffffffffffffffffffffffffff16815260200191505060405180910390f35b34801561076857600080fd5b506107956004803603602081101561077f57600080fd5b81019080803590602001909291905050506127cd565b005b3480156107a357600080fd5b506107d0600480360360208110156107ba57600080fd5b8101908080359060200190929190505050612969565b604051808215151515815260200191505060405180910390f35b3480156107f657600080fd5b506107ff612989565b6040518082815260200191505060405180910390f35b34801561082157600080fd5b5061082a6129a8565b604051808273ffffffffffffffffffffffffffffffffffffffff1673ffffffffffffffffffffffffffffffffffffffff16815260200191505060405180910390f35b34801561087857600080fd5b506108a56004803603602081101561088f57600080fd5b81019080803590602001909291905050506129ce565b6040518082815260200191505060405180910390f35b3480156108c757600080fd5b50610914600480360360408110156108de57600080fd5b81019080803573ffffffffffffffffffffffffffffffffffffffff169060200190929190803590602001909291905050506129ee565b6040518086815260200185600881111561092a57fe5b60ff168152602001841515151581526020018381526020018281526020019550505050505060405180910390f35b6109846004803603602081101561096e57600080fd5b8101908080359060200190929190505050612a5a565b005b34801561099257600080fd5b506109e1600480360360408110156109a957600080fd5b81019080803573ffffffffffffffffffffffffffffffffffffffff169060200190929190803515159060200190929190505050612c8a565b005b3480156109ef57600080fd5b50610a1c60048036036020811015610a0657600080fd5b8101908080359060200190929190505050612e55565b6040518082815260200191505060405180910390f35b610a6860048036036040811015610a4857600080fd5b810190808035906020019092919080359060200190929190505050612e6d565b005b348015610a7657600080fd5b50610aa360048036036020811015610a8d57600080fd5b81019080803590602001909291905050506130f4565b604051808215151515815260200191505060405180910390f35b348015610ac957600080fd5b50610b0c60048036036020811015610ae057600080fd5b81019080803573ffffffffffffffffffffffffffffffffffffffff169060200190929190505050613114565b604051808215151515815260200191505060405180910390f35b348015610b3257600080fd5b50610b5f60048036036020811015610b4957600080fd5b8101908080359060200190929190505050613134565b60405180868152602001858152602001848152602001831515151581526020018273ffffffffffffffffffffffffffffffffffffffff1673ffffffffffffffffffffffffffffffffffffffff1681526020019550505050505060405180910390f35b348015610bcd57600080fd5b50610c3060048036036040811015610be457600080fd5b81019080803573ffffffffffffffffffffffffffffffffffffffff169060200190929190803573ffffffffffffffffffffffffffffffffffffffff169060200190929190505050613197565b604051808215151515815260200191505060405180910390f35b348015610c5657600080fd5b50610c8360048036036020811015610c6d57600080fd5b810190808035906020019092919050505061322b565b005b3373ffffffffffffffffffffffffffffffffffffffff166001600084815260200190815260200160002060009054906101000a900473ffffffffffffffffffffffffffffffffffffffff1673ffffffffffffffffffffffffffffffffffffffff16141515610d5b576040517f08c379a00000000000000000000000000000000000000000000000000000000081526004018080602001828103825260198152602001807f73656e646572206973206e6f7420746f6b656e206f776e65720000000000000081525060200191505060405180910390fd5b610d636141cb565b60a0604051908101604052803373ffffffffffffffffffffffffffffffffffffffff16815260200142815260200183815260200160008152602001600073ffffffffffffffffffffffffffffffffffffffff1681525090506001600b600085815260200190815260200160002060006101000a81548160ff02191690831515021790555080600c600085815260200190815260200160002060008201518160000160006101000a81548173ffffffffffffffffffffffffffffffffffffffff021916908373ffffffffffffffffffffffffffffffffffffffff16021790555060208201518160010155604082015181600201556060820151816003015560808201518160040160006101000a81548173ffffffffffffffffffffffffffffffffffffffff021916908373ffffffffffffffffffffffffffffffffffffffff160217905550905050505050565b600081600073ffffffffffffffffffffffffffffffffffffffff166001600083815260200190815260200160002060009054906101000a900473ffffffffffffffffffffffffffffffffffffffff1673ffffffffffffffffffffffffffffffffffffffff1614151515610f2157600080fd5b6002600084815260200190815260200160002060009054906101000a900473ffffffffffffffffffffffffffffffffffffffff16915050919050565b3373ffffffffffffffffffffffffffffffffffffffff168273ffffffffffffffffffffffffffffffffffffffff1614151515611027576040517f08c379a00000000000000000000000000000000000000000000000000000000081526004018080602001828103825260228152602001807f455243373231203a204f776e657220697320616c726561647920617070726f7681526020017f656400000000000000000000000000000000000000000000000000000000000081525060400191505060405180910390fd5b3373ffffffffffffffffffffffffffffffffffffffff166001600083815260200190815260200160002060009054906101000a900473ffffffffffffffffffffffffffffffffffffffff1673ffffffffffffffffffffffffffffffffffffffff1614806110cd57506110cc6001600083815260200190815260200160002060009054906101000a900473ffffffffffffffffffffffffffffffffffffffff1633613197565b5b15156110d857600080fd5b816002600083815260200190815260200160002060006101000a81548173ffffffffffffffffffffffffffffffffffffffff021916908373ffffffffffffffffffffffffffffffffffffffff160217905550808273ffffffffffffffffffffffffffffffffffffffff166001600084815260200190815260200160002060009054906101000a900473ffffffffffffffffffffffffffffffffffffffff1673ffffffffffffffffffffffffffffffffffffffff167f8c5be1e5ebec7d5bd14f71427d1e84f3dd0314c0f7b2291e5b200ac8c7c3b92560405160405180910390a45050565b600c6020528060005260406000206000915090508060000160009054906101000a900473ffffffffffffffffffffffffffffffffffffffff16908060010154908060020154908060030154908060040160009054906101000a900473ffffffffffffffffffffffffffffffffffffffff16905085565b81600073ffffffffffffffffffffffffffffffffffffffff168173ffffffffffffffffffffffffffffffffffffffff16141515156112d8576040517f08c379a00000000000000000000000000000000000000000000000000000000081526004018080602001828103825260188152602001807f6164647265737320307830206973206e6f742076616c6964000000000000000081525060200191505060405180910390fd5b81600073ffffffffffffffffffffffffffffffffffffffff166001600083815260200190815260200160002060009054906101000a900473ffffffffffffffffffffffffffffffffffffffff1673ffffffffffffffffffffffffffffffffffffffff161415151561134857600080fd5b33838173ffffffffffffffffffffffffffffffffffffffff163373ffffffffffffffffffffffffffffffffffffffff1614806113b757508173ffffffffffffffffffffffffffffffffffffffff1661139f82610eaf565b73ffffffffffffffffffffffffffffffffffffffff16145b806113fb57506113fa6001600083815260200190815260200160002060009054906101000a900473ffffffffffffffffffffffffffffffffffffffff1683613197565b5b151561140657600080fd5b8673ffffffffffffffffffffffffffffffffffffffff166001600087815260200190815260200160002060009054906101000a900473ffffffffffffffffffffffffffffffffffffffff1673ffffffffffffffffffffffffffffffffffffffff16141515611502576040517f08c379a000000000000000000000000000000000000000000000000000000000815260040180806020018281038252602b8152602001807f4552433732313a207472616e73666572206f6620746f6b656e2074686174206981526020017f73206e6f74206f776e656400000000000000000000000000000000000000000081525060400191505060405180910390fd5b60016000808973ffffffffffffffffffffffffffffffffffffffff1673ffffffffffffffffffffffffffffffffffffffff1681526020019081526020016000206000828254039250508190555060016000808873ffffffffffffffffffffffffffffffffffffffff1673ffffffffffffffffffffffffffffffffffffffff16815260200190815260200160002060008282540192505081905550856001600087815260200190815260200160002060006101000a81548173ffffffffffffffffffffffffffffffffffffffff021916908373ffffffffffffffffffffffffffffffffffffffff160217905550848673ffffffffffffffffffffffffffffffffffffffff168873ffffffffffffffffffffffffffffffffffffffff167fddf252ad1be2c89b69c2b068fc378daa952ba7f163c4a11628f55a4df523b3ef60405160405180910390a450505050505050565b600085600073ffffffffffffffffffffffffffffffffffffffff168173ffffffffffffffffffffffffffffffffffffffff16141515156116fa576040517f08c379a00000000000000000000000000000000000000000000000000000000081526004018080602001828103825260188152602001807f6164647265737320307830206973206e6f742076616c6964000000000000000081525060200191505060405180910390fd5b600660008154809291906001019190505550611714614227565b60a060405190810160405280600654815260200188600881111561173457fe5b81526020018715158152602001868152602001858152509050600860008973ffffffffffffffffffffffffffffffffffffffff1673ffffffffffffffffffffffffffffffffffffffff16815260200190815260200160002081908060018154018082558091505090600182039060005260206000209060040201600090919290919091506000820151816000015560208201518160010160006101000a81548160ff021916908360088111156117e657fe5b021790555060408201518160010160016101000a81548160ff0219169083151502179055506060820151816002015560808201518160030155505050806009600060065481526020019081526020016000206000820151816000015560208201518160010160006101000a81548160ff0219169083600881111561186657fe5b021790555060408201518160010160016101000a81548160ff02191690831515021790555060608201518160020155608082015181600301559050503073ffffffffffffffffffffffffffffffffffffffff168873ffffffffffffffffffffffffffffffffffffffff161415611910576001600b6000600654815260200190815260200160002060006101000a81548160ff02191690831515021790555061190f600654613342565b5b61191c88600654613514565b60019250505095945050505050565b8273ffffffffffffffffffffffffffffffffffffffff1661194b82613736565b73ffffffffffffffffffffffffffffffffffffffff1614151561196d57600080fd5b60001515600b600083815260200190815260200160002060009054906101000a900460ff1615151415156119a057600080fd5b60011515600760008473ffffffffffffffffffffffffffffffffffffffff1673ffffffffffffffffffffffffffffffffffffffff16815260200190815260200160002060009054906101000a900460ff1615151415156119ff57600080fd5b611a088161384d565b600460009054906101000a900473ffffffffffffffffffffffffffffffffffffffff1673ffffffffffffffffffffffffffffffffffffffff166323b872dd8484846040518463ffffffff167c0100000000000000000000000000000000000000000000000000000000028152600401808473ffffffffffffffffffffffffffffffffffffffff1673ffffffffffffffffffffffffffffffffffffffff1681526020018373ffffffffffffffffffffffffffffffffffffffff1673ffffffffffffffffffffffffffffffffffffffff1681526020018281526020019350505050600060405180830381600087803b158015611b0157600080fd5b505af1158015611b15573d6000803e3d6000fd5b50505050505050565b60096020528060005260406000206000915090508060000154908060010160009054906101000a900460ff16908060010160019054906101000a900460ff16908060020154908060030154905085565b600c60008281526020019081526020016000206003015434600d60003373ffffffffffffffffffffffffffffffffffffffff1673ffffffffffffffffffffffffffffffffffffffff1681526020019081526020016000205401111515611bd357600080fd5b34600d60003373ffffffffffffffffffffffffffffffffffffffff1673ffffffffffffffffffffffffffffffffffffffff1681526020019081526020016000206000828254019250508190555050565b80600073ffffffffffffffffffffffffffffffffffffffff168173ffffffffffffffffffffffffffffffffffffffff1614151515611cc9576040517f08c379a00000000000000000000000000000000000000000000000000000000081526004018080602001828103825260188152602001807f6164647265737320307830206973206e6f742076616c6964000000000000000081525060200191505060405180910390fd5b600560009054906101000a900473ffffffffffffffffffffffffffffffffffffffff1673ffffffffffffffffffffffffffffffffffffffff163373ffffffffffffffffffffffffffffffffffffffff16141515611d2557600080fd5b60001515600760008473ffffffffffffffffffffffffffffffffffffffff1673ffffffffffffffffffffffffffffffffffffffff16815260200190815260200160002060009054906101000a900460ff161515141515611ded576040517f08c379a000000000000000000000000000000000000000000000000000000000815260040180806020018281038252601a8152602001807f6272656564657220616c7265616479207265676973746572656400000000000081525060200191505060405180910390fd5b6001600760008473ffffffffffffffffffffffffffffffffffffffff1673ffffffffffffffffffffffffffffffffffffffff16815260200190815260200160002060006101000a81548160ff0219169083151502179055505050565b600115156009600084815260200190815260200160002060010160019054906101000a900460ff161515148015611ea75750600015156009600083815260200190815260200160002060010160019054906101000a900460ff161515145b80611f0c5750600015156009600084815260200190815260200160002060010160019054906101000a900460ff161515148015611f0b5750600115156009600083815260200190815260200160002060010160019054906101000a900460ff161515145b5b1515611fa6576040517f08c379a00000000000000000000000000000000000000000000000000000000081526004018080602001828103825260268152602001807f6e6f7420706f737369626c6520746f2062726565642073616d6520736578206181526020017f6e696d616c73000000000000000000000000000000000000000000000000000081525060400191505060405180910390fd5b611fb03383613977565b80611fc15750611fc03382613977565b5b151561205b576040517f08c379a000000000000000000000000000000000000000000000000000000000815260040180806020018281038252602c8152602001807f6d6573736167652073656e646572206973206e6f74206f6e65206f662074686581526020017f20746f6b656e206f776e6572000000000000000000000000000000000000000081525060400191505060405180910390fd5b600a600083815260200190815260200160002060009054906101000a900460ff1680156120a55750600a600082815260200190815260200160002060009054906101000a900460ff165b151561213f576040517f08c379a00000000000000000000000000000000000000000000000000000000081526004018080602001828103825260228152602001807f646f6773206861766520746f20626520617661696c61626c6520746f2062726581526020017f656400000000000000000000000000000000000000000000000000000000000081525060400191505060405180910390fd5b600061214b8383613a4d565b905060006002600960008581526020019081526020016000206003015460096000878152602001908152602001600020600301540181151561218957fe5b0490506121963385613977565b80156121a857506121a73384613977565b5b156121c2576121bc33836001600085611652565b506121d3565b6121d130836001600085611652565b505b50505050565b3373ffffffffffffffffffffffffffffffffffffffff166001600083815260200190815260200160002060009054906101000a900473ffffffffffffffffffffffffffffffffffffffff1673ffffffffffffffffffffffffffffffffffffffff16141515156122d6576040517f08c379a00000000000000000000000000000000000000000000000000000000081526004018080602001828103825260238152602001807f746f6b656e206f776e65722063616e2774206265206d6573736167652073656e81526020017f646572000000000000000000000000000000000000000000000000000000000081525060400191505060405180910390fd5b60011515600b600083815260200190815260200160002060009054906101000a900460ff161515141515612372576040517f08c379a00000000000000000000000000000000000000000000000000000000081526004018080602001828103825260158152602001807f646f67206973206e6f7420696e2061756374696f6e000000000000000000000081525060200191505060405180910390fd5b600c60008281526020019081526020016000206003015434111515612425576040517f08c379a000000000000000000000000000000000000000000000000000000000815260040180806020018281038252602d8152602001807f6d73672e76616c7565206d757374206265207375706572696f7220746f20746881526020017f652068696768657374206269640000000000000000000000000000000000000081525060400191505060405180910390fd5b426202a300600c60008481526020019081526020016000206001015401101515156124b8576040517f08c379a00000000000000000000000000000000000000000000000000000000081526004018080602001828103825260138152602001807f61756374696f6e2069732066696e69736865640000000000000000000000000081525060200191505060405180910390fd5b34600d60003373ffffffffffffffffffffffffffffffffffffffff1673ffffffffffffffffffffffffffffffffffffffff1681526020019081526020016000208190555034600c60008381526020019081526020016000206003018190555050565b600081600073ffffffffffffffffffffffffffffffffffffffff168173ffffffffffffffffffffffffffffffffffffffff16141515156125c2576040517f08c379a00000000000000000000000000000000000000000000000000000000081526004018080602001828103825260188152602001807f6164647265737320307830206973206e6f742076616c6964000000000000000081525060200191505060405180910390fd5b6000808473ffffffffffffffffffffffffffffffffffffffff1673ffffffffffffffffffffffffffffffffffffffff16815260200190815260200160002054915050919050565b3373ffffffffffffffffffffffffffffffffffffffff1661262983613736565b73ffffffffffffffffffffffffffffffffffffffff1614151561264b57600080fd5b60001515600b600084815260200190815260200160002060009054906101000a900460ff16151514151561267e57600080fd5b60003411151561268d57600080fd5b80600f60008481526020019081526020016000208190555060003490506126b2614264565b60a060405190810160405280858152602001848152602001838152602001600015158152602001600073ffffffffffffffffffffffffffffffffffffffff1681525090508060106000858701815260200190815260200160002060008201518160000155602082015181600101556040820151816002015560608201518160030160006101000a81548160ff02191690831515021790555060808201518160030160016101000a81548173ffffffffffffffffffffffffffffffffffffffff021916908373ffffffffffffffffffffffffffffffffffffffff16021790555090505050505050565b60016020528060005260406000206000915054906101000a900473ffffffffffffffffffffffffffffffffffffffff1681565b6127d681613736565b73ffffffffffffffffffffffffffffffffffffffff163373ffffffffffffffffffffffffffffffffffffffff16141515612878576040517f08c379a00000000000000000000000000000000000000000000000000000000081526004018080602001828103825260198152602001807f73656e646572206973206e6f7420746f6b656e206f776e65720000000000000081525060200191505060405180910390fd5b60001515600a600083815260200190815260200160002060009054906101000a900460ff16151514151561293a576040517f08c379a00000000000000000000000000000000000000000000000000000000081526004018080602001828103825260218152602001807f646f6720697320616c726561647920617661696c61626c6520746f206272656581526020017f640000000000000000000000000000000000000000000000000000000000000081525060400191505060405180910390fd5b6001600a600083815260200190815260200160002060006101000a81548160ff02191690831515021790555050565b600a6020528060005260406000206000915054906101000a900460ff1681565b60003073ffffffffffffffffffffffffffffffffffffffff1631905090565b600560009054906101000a900473ffffffffffffffffffffffffffffffffffffffff1681565b6000600c6000838152602001908152602001600020600301549050919050565b600860205281600052604060002081815481101515612a0957fe5b9060005260206000209060040201600091509150508060000154908060010160009054906101000a900460ff16908060010160019054906101000a900460ff16908060020154908060030154905085565b60011515600b600083815260200190815260200160002060009054906101000a900460ff161515141515612a8d57600080fd5b6202a300600c6000838152602001908152602001600020600101540142111515612ab657600080fd5b600c600082815260200190815260200160002060030154600d60003373ffffffffffffffffffffffffffffffffffffffff1673ffffffffffffffffffffffffffffffffffffffff16815260200190815260200160002054141515612b1957600080fd5b600460009054906101000a900473ffffffffffffffffffffffffffffffffffffffff1673ffffffffffffffffffffffffffffffffffffffff166323b872dd612b6083613736565b33846040518463ffffffff167c0100000000000000000000000000000000000000000000000000000000028152600401808473ffffffffffffffffffffffffffffffffffffffff1673ffffffffffffffffffffffffffffffffffffffff1681526020018373ffffffffffffffffffffffffffffffffffffffff1673ffffffffffffffffffffffffffffffffffffffff1681526020018281526020019350505050600060405180830381600087803b158015612c1a57600080fd5b505af1158015612c2e573d6000803e3d6000fd5b5050505033600c600083815260200190815260200160002060040160006101000a81548173ffffffffffffffffffffffffffffffffffffffff021916908373ffffffffffffffffffffffffffffffffffffffff16021790555050565b3373ffffffffffffffffffffffffffffffffffffffff168273ffffffffffffffffffffffffffffffffffffffff1614151515612d54576040517f08c379a00000000000000000000000000000000000000000000000000000000081526004018080602001828103825260218152602001807f4552433732313a204f776e657220697320616c726561647920617070726f766581526020017f640000000000000000000000000000000000000000000000000000000000000081525060400191505060405180910390fd5b80600360003373ffffffffffffffffffffffffffffffffffffffff1673ffffffffffffffffffffffffffffffffffffffff16815260200190815260200160002060008473ffffffffffffffffffffffffffffffffffffffff1673ffffffffffffffffffffffffffffffffffffffff16815260200190815260200160002060006101000a81548160ff0219169083151502179055508173ffffffffffffffffffffffffffffffffffffffff163373ffffffffffffffffffffffffffffffffffffffff167f17307eab39ab6107e8899845ad3d59bd9653f200f220920489ca2b5937696c3183604051808215151515815260200191505060405180910390a35050565b600f6020528060005260406000206000915090505481565b3373ffffffffffffffffffffffffffffffffffffffff16612e8d83613736565b73ffffffffffffffffffffffffffffffffffffffff16141515612eaf57600080fd5b81600f600083815260200190815260200160002054141515612ed057600080fd5b3460106000838501815260200190815260200160002060020154141515612ef657600080fd5b80600f600084815260200190815260200160002081905550600160106000838501815260200190815260200160002060030160006101000a81548160ff0219169083151502179055506000612f49613df4565b905060008160ff16141561302557612f6083613736565b60106000848601815260200190815260200160002060030160016101000a81548173ffffffffffffffffffffffffffffffffffffffff021916908373ffffffffffffffffffffffffffffffffffffffff160217905550612fbf83613736565b73ffffffffffffffffffffffffffffffffffffffff166108fc601060008587018152602001908152602001600020600201546002029081150290604051600060405180830381858888f1935050505015801561301f573d6000803e3d6000fd5b506130ef565b61302e82613736565b60106000848601815260200190815260200160002060030160016101000a81548173ffffffffffffffffffffffffffffffffffffffff021916908373ffffffffffffffffffffffffffffffffffffffff16021790555061308d82613736565b73ffffffffffffffffffffffffffffffffffffffff166108fc601060008587018152602001908152602001600020600201546002029081150290604051600060405180830381858888f193505050501580156130ed573d6000803e3d6000fd5b505b505050565b600b6020528060005260406000206000915054906101000a900460ff1681565b60076020528060005260406000206000915054906101000a900460ff1681565b60106020528060005260406000206000915090508060000154908060010154908060020154908060030160009054906101000a900460ff16908060030160019054906101000a900473ffffffffffffffffffffffffffffffffffffffff16905085565b6000600360008473ffffffffffffffffffffffffffffffffffffffff1673ffffffffffffffffffffffffffffffffffffffff16815260200190815260200160002060008373ffffffffffffffffffffffffffffffffffffffff1673ffffffffffffffffffffffffffffffffffffffff16815260200190815260200160002060009054906101000a900460ff16905092915050565b61323481613736565b73ffffffffffffffffffffffffffffffffffffffff163373ffffffffffffffffffffffffffffffffffffffff161415156132d6576040517f08c379a00000000000000000000000000000000000000000000000000000000081526004018080602001828103825260198152602001807f73656e646572206973206e6f7420746f6b656e206f776e65720000000000000081525060200191505060405180910390fd5b6132e03382613e94565b600960008281526020019081526020016000206000808201600090556001820160006101000a81549060ff02191690556001820160016101000a81549060ff021916905560028201600090556003820160009055505061333f8161384d565b50565b61334c3082613977565b15156133c0576040517f08c379a000000000000000000000000000000000000000000000000000000000815260040180806020018281038252601b8152602001807f73656e646572206973206e6f7420636f6e74726174206f776e6572000000000081525060200191505060405180910390fd5b6133c86141cb565b60a0604051908101604052803073ffffffffffffffffffffffffffffffffffffffff1681526020014281526020016001815260200160008152602001600073ffffffffffffffffffffffffffffffffffffffff1681525090506001600b600084815260200190815260200160002060006101000a81548160ff02191690831515021790555080600c600084815260200190815260200160002060008201518160000160006101000a81548173ffffffffffffffffffffffffffffffffffffffff021916908373ffffffffffffffffffffffffffffffffffffffff16021790555060208201518160010155604082015181600201556060820151816003015560808201518160040160006101000a81548173ffffffffffffffffffffffffffffffffffffffff021916908373ffffffffffffffffffffffffffffffffffffffff1602179055509050505050565b600073ffffffffffffffffffffffffffffffffffffffff168273ffffffffffffffffffffffffffffffffffffffff16141515156135b9576040517f08c379a00000000000000000000000000000000000000000000000000000000081526004018080602001828103825260208152602001807f4552433732313a206d696e7420746f20746865207a65726f206164647265737381525060200191505060405180910390fd5b6135c281614099565b151515613637576040517f08c379a000000000000000000000000000000000000000000000000000000000815260040180806020018281038252601c8152602001807f4552433732313a20746f6b656e20616c7265616479206d696e7465640000000081525060200191505060405180910390fd5b816001600083815260200190815260200160002060006101000a81548173ffffffffffffffffffffffffffffffffffffffff021916908373ffffffffffffffffffffffffffffffffffffffff16021790555060016000808473ffffffffffffffffffffffffffffffffffffffff1673ffffffffffffffffffffffffffffffffffffffff16815260200190815260200160002060008282540192505081905550808273ffffffffffffffffffffffffffffffffffffffff16600073ffffffffffffffffffffffffffffffffffffffff167fddf252ad1be2c89b69c2b068fc378daa952ba7f163c4a11628f55a4df523b3ef60405160405180910390a45050565b60006001600083815260200190815260200160002060009054906101000a900473ffffffffffffffffffffffffffffffffffffffff16600073ffffffffffffffffffffffffffffffffffffffff168173ffffffffffffffffffffffffffffffffffffffff1614151515613811576040517f08c379a00000000000000000000000000000000000000000000000000000000081526004018080602001828103825260188152602001807f6164647265737320307830206973206e6f742076616c6964000000000000000081525060200191505060405180910390fd5b6001600084815260200190815260200160002060009054906101000a900473ffffffffffffffffffffffffffffffffffffffff16915050919050565b60008090505b816008600061386185613736565b73ffffffffffffffffffffffffffffffffffffffff1673ffffffffffffffffffffffffffffffffffffffff168152602001908152602001600020828154811015156138a857fe5b9060005260206000209060040201600001541415156138ce578080600101915050613853565b600860006138db84613736565b73ffffffffffffffffffffffffffffffffffffffff1673ffffffffffffffffffffffffffffffffffffffff1681526020019081526020016000208181548110151561392257fe5b90600052602060002090600402016000808201600090556001820160006101000a81549060ff02191690556001820160016101000a81549060ff02191690556002820160009055600382016000905550505050565b600080905060008090505b600860008573ffffffffffffffffffffffffffffffffffffffff1673ffffffffffffffffffffffffffffffffffffffff16815260200190815260200160002080549050811015613a435782600860008673ffffffffffffffffffffffffffffffffffffffff1673ffffffffffffffffffffffffffffffffffffffff16815260200190815260200160002082815481101515613a1957fe5b9060005260206000209060040201600001541415613a3657600191505b8080600101915050613982565b5080905092915050565b6000613a57614227565b6009600085815260200190815260200160002060a06040519081016040529081600082015481526020016001820160009054906101000a900460ff166008811115613a9e57fe5b6008811115613aa957fe5b81526020016001820160019054906101000a900460ff16151515158152602001600282015481526020016003820154815250509050613ae6614227565b6009600085815260200190815260200160002060a06040519081016040529081600082015481526020016001820160009054906101000a900460ff166008811115613b2d57fe5b6008811115613b3857fe5b81526020016001820160019054906101000a900460ff1615151515815260200160028201548152602001600382015481525050905060006008811115613b7a57fe5b82602001516008811115613b8a57fe5b148015613bb1575060016008811115613b9f57fe5b81602001516008811115613baf57fe5b145b80613bfc575060016008811115613bc457fe5b82602001516008811115613bd457fe5b148015613bfb575060006008811115613be957fe5b81602001516008811115613bf957fe5b145b5b15613c0a5760059250613de9565b60016008811115613c1757fe5b82602001516008811115613c2757fe5b148015613c4e575060046008811115613c3c57fe5b81602001516008811115613c4c57fe5b145b80613c99575060046008811115613c6157fe5b82602001516008811115613c7157fe5b148015613c98575060016008811115613c8657fe5b81602001516008811115613c9657fe5b145b5b15613ca75760069250613de8565b60026008811115613cb457fe5b82602001516008811115613cc457fe5b148015613ceb575060036008811115613cd957fe5b81602001516008811115613ce957fe5b145b80613d36575060036008811115613cfe57fe5b82602001516008811115613d0e57fe5b148015613d35575060026008811115613d2357fe5b81602001516008811115613d3357fe5b145b5b15613d445760019250613de7565b60006008811115613d5157fe5b82602001516008811115613d6157fe5b148015613d88575060046008811115613d7657fe5b81602001516008811115613d8657fe5b145b80613dd3575060046008811115613d9b57fe5b82602001516008811115613dab57fe5b148015613dd2575060006008811115613dc057fe5b81602001516008811115613dd057fe5b145b5b15613de15760079250613de6565b600892505b5b5b5b829250505092915050565b600060024260115433604051602001808481526020018381526020018273ffffffffffffffffffffffffffffffffffffffff1673ffffffffffffffffffffffffffffffffffffffff166c0100000000000000000000000002815260140193505050506040516020818303038152906040528051906020012060019004811515613e7957fe5b06905060116000815480929190600101919050555080905090565b8173ffffffffffffffffffffffffffffffffffffffff166001600083815260200190815260200160002060009054906101000a900473ffffffffffffffffffffffffffffffffffffffff1673ffffffffffffffffffffffffffffffffffffffff16141515613f90576040517f08c379a00000000000000000000000000000000000000000000000000000000081526004018080602001828103825260258152602001807f4552433732313a206275726e206f6620746f6b656e2074686174206973206e6f81526020017f74206f776e00000000000000000000000000000000000000000000000000000081525060400191505060405180910390fd5b613f998161410b565b60016000808473ffffffffffffffffffffffffffffffffffffffff1673ffffffffffffffffffffffffffffffffffffffff1681526020019081526020016000206000828254039250508190555060006001600083815260200190815260200160002060006101000a81548173ffffffffffffffffffffffffffffffffffffffff021916908373ffffffffffffffffffffffffffffffffffffffff16021790555080600073ffffffffffffffffffffffffffffffffffffffff168373ffffffffffffffffffffffffffffffffffffffff167fddf252ad1be2c89b69c2b068fc378daa952ba7f163c4a11628f55a4df523b3ef60405160405180910390a45050565b6000806001600084815260200190815260200160002060009054906101000a900473ffffffffffffffffffffffffffffffffffffffff169050600073ffffffffffffffffffffffffffffffffffffffff168173ffffffffffffffffffffffffffffffffffffffff161415915050919050565b600073ffffffffffffffffffffffffffffffffffffffff166002600083815260200190815260200160002060009054906101000a900473ffffffffffffffffffffffffffffffffffffffff1673ffffffffffffffffffffffffffffffffffffffff161415156141c85760006002600083815260200190815260200160002060006101000a81548173ffffffffffffffffffffffffffffffffffffffff021916908373ffffffffffffffffffffffffffffffffffffffff1602179055505b50565b60a060405190810160405280600073ffffffffffffffffffffffffffffffffffffffff168152602001600081526020016000815260200160008152602001600073ffffffffffffffffffffffffffffffffffffffff1681525090565b60a060405190810160405280600081526020016000600881111561424757fe5b815260200160001515815260200160008152602001600081525090565b60a060405190810160405280600081526020016000815260200160008152602001600015158152602001600073ffffffffffffffffffffffffffffffffffffffff168152509056fea165627a7a72305820685e5d20c37d41b2eae00e39808feaa7ae464bd3c5be6a839f4157738e36716d0029608060405234801561001057600080fd5b50610e5f806100206000396000f3fe608060405260043610610083576000357c0100000000000000000000000000000000000000000000000000000000900463ffffffff168063081812fc14610088578063095ea7b31461010357806323b872dd1461015157806370a08231146101bf578063796db31214610224578063a22cb4651461029f578063e985e9c5146102fc575b600080fd5b34801561009457600080fd5b506100c1600480360360208110156100ab57600080fd5b8101908080359060200190929190505050610385565b604051808273ffffffffffffffffffffffffffffffffffffffff1673ffffffffffffffffffffffffffffffffffffffff16815260200191505060405180910390f35b61014f6004803603604081101561011957600080fd5b81019080803573ffffffffffffffffffffffffffffffffffffffff16906020019092919080359060200190929190505050610433565b005b6101bd6004803603606081101561016757600080fd5b81019080803573ffffffffffffffffffffffffffffffffffffffff169060200190929190803573ffffffffffffffffffffffffffffffffffffffff16906020019092919080359060200190929190505050610692565b005b3480156101cb57600080fd5b5061020e600480360360208110156101e257600080fd5b81019080803573ffffffffffffffffffffffffffffffffffffffff169060200190929190505050610ab2565b6040518082815260200191505060405180910390f35b34801561023057600080fd5b5061025d6004803603602081101561024757600080fd5b8101908080359060200190929190505050610ba1565b604051808273ffffffffffffffffffffffffffffffffffffffff1673ffffffffffffffffffffffffffffffffffffffff16815260200191505060405180910390f35b3480156102ab57600080fd5b506102fa600480360360408110156102c257600080fd5b81019080803573ffffffffffffffffffffffffffffffffffffffff169060200190929190803515159060200190929190505050610bd4565b005b34801561030857600080fd5b5061036b6004803603604081101561031f57600080fd5b81019080803573ffffffffffffffffffffffffffffffffffffffff169060200190929190803573ffffffffffffffffffffffffffffffffffffffff169060200190929190505050610d9f565b604051808215151515815260200191505060405180910390f35b600081600073ffffffffffffffffffffffffffffffffffffffff166001600083815260200190815260200160002060009054906101000a900473ffffffffffffffffffffffffffffffffffffffff1673ffffffffffffffffffffffffffffffffffffffff16141515156103f757600080fd5b6002600084815260200190815260200160002060009054906101000a900473ffffffffffffffffffffffffffffffffffffffff16915050919050565b3373ffffffffffffffffffffffffffffffffffffffff168273ffffffffffffffffffffffffffffffffffffffff16141515156104fd576040517f08c379a00000000000000000000000000000000000000000000000000000000081526004018080602001828103825260228152602001807f455243373231203a204f776e657220697320616c726561647920617070726f7681526020017f656400000000000000000000000000000000000000000000000000000000000081525060400191505060405180910390fd5b3373ffffffffffffffffffffffffffffffffffffffff166001600083815260200190815260200160002060009054906101000a900473ffffffffffffffffffffffffffffffffffffffff1673ffffffffffffffffffffffffffffffffffffffff1614806105a357506105a26001600083815260200190815260200160002060009054906101000a900473ffffffffffffffffffffffffffffffffffffffff1633610d9f565b5b15156105ae57600080fd5b816002600083815260200190815260200160002060006101000a81548173ffffffffffffffffffffffffffffffffffffffff021916908373ffffffffffffffffffffffffffffffffffffffff160217905550808273ffffffffffffffffffffffffffffffffffffffff166001600084815260200190815260200160002060009054906101000a900473ffffffffffffffffffffffffffffffffffffffff1673ffffffffffffffffffffffffffffffffffffffff167f8c5be1e5ebec7d5bd14f71427d1e84f3dd0314c0f7b2291e5b200ac8c7c3b92560405160405180910390a45050565b81600073ffffffffffffffffffffffffffffffffffffffff168173ffffffffffffffffffffffffffffffffffffffff1614151515610738576040517f08c379a00000000000000000000000000000000000000000000000000000000081526004018080602001828103825260188152602001807f6164647265737320307830206973206e6f742076616c6964000000000000000081525060200191505060405180910390fd5b81600073ffffffffffffffffffffffffffffffffffffffff166001600083815260200190815260200160002060009054906101000a900473ffffffffffffffffffffffffffffffffffffffff1673ffffffffffffffffffffffffffffffffffffffff16141515156107a857600080fd5b33838173ffffffffffffffffffffffffffffffffffffffff163373ffffffffffffffffffffffffffffffffffffffff16148061081757508173ffffffffffffffffffffffffffffffffffffffff166107ff82610385565b73ffffffffffffffffffffffffffffffffffffffff16145b8061085b575061085a6001600083815260200190815260200160002060009054906101000a900473ffffffffffffffffffffffffffffffffffffffff1683610d9f565b5b151561086657600080fd5b8673ffffffffffffffffffffffffffffffffffffffff166001600087815260200190815260200160002060009054906101000a900473ffffffffffffffffffffffffffffffffffffffff1673ffffffffffffffffffffffffffffffffffffffff16141515610962576040517f08c379a000000000000000000000000000000000000000000000000000000000815260040180806020018281038252602b8152602001807f4552433732313a207472616e73666572206f6620746f6b656e2074686174206981526020017f73206e6f74206f776e656400000000000000000000000000000000000000000081525060400191505060405180910390fd5b60016000808973ffffffffffffffffffffffffffffffffffffffff1673ffffffffffffffffffffffffffffffffffffffff1681526020019081526020016000206000828254039250508190555060016000808873ffffffffffffffffffffffffffffffffffffffff1673ffffffffffffffffffffffffffffffffffffffff16815260200190815260200160002060008282540192505081905550856001600087815260200190815260200160002060006101000a81548173ffffffffffffffffffffffffffffffffffffffff021916908373ffffffffffffffffffffffffffffffffffffffff160217905550848673ffffffffffffffffffffffffffffffffffffffff168873ffffffffffffffffffffffffffffffffffffffff167fddf252ad1be2c89b69c2b068fc378daa952ba7f163c4a11628f55a4df523b3ef60405160405180910390a450505050505050565b600081600073ffffffffffffffffffffffffffffffffffffffff168173ffffffffffffffffffffffffffffffffffffffff1614151515610b5a576040517f08c379a00000000000000000000000000000000000000000000000000000000081526004018080602001828103825260188152602001807f6164647265737320307830206973206e6f742076616c6964000000000000000081525060200191505060405180910390fd5b6000808473ffffffffffffffffffffffffffffffffffffffff1673ffffffffffffffffffffffffffffffffffffffff16815260200190815260200160002054915050919050565b60016020528060005260406000206000915054906101000a900473ffffffffffffffffffffffffffffffffffffffff1681565b3373ffffffffffffffffffffffffffffffffffffffff168273ffffffffffffffffffffffffffffffffffffffff1614151515610c9e576040517f08c379a00000000000000000000000000000000000000000000000000000000081526004018080602001828103825260218152602001807f4552433732313a204f776e657220697320616c726561647920617070726f766581526020017f640000000000000000000000000000000000000000000000000000000000000081525060400191505060405180910390fd5b80600360003373ffffffffffffffffffffffffffffffffffffffff1673ffffffffffffffffffffffffffffffffffffffff16815260200190815260200160002060008473ffffffffffffffffffffffffffffffffffffffff1673ffffffffffffffffffffffffffffffffffffffff16815260200190815260200160002060006101000a81548160ff0219169083151502179055508173ffffffffffffffffffffffffffffffffffffffff163373ffffffffffffffffffffffffffffffffffffffff167f17307eab39ab6107e8899845ad3d59bd9653f200f220920489ca2b5937696c3183604051808215151515815260200191505060405180910390a35050565b6000600360008473ffffffffffffffffffffffffffffffffffffffff1673ffffffffffffffffffffffffffffffffffffffff16815260200190815260200160002060008373ffffffffffffffffffffffffffffffffffffffff1673ffffffffffffffffffffffffffffffffffffffff16815260200190815260200160002060009054906101000a900460ff1690509291505056fea165627a7a723058205671895392c79241393a1eff93788e2eea2c44abfcd660bfd2565da4e68eb53b0029",
  "source": "pragma solidity ^0.5.0;\r\n\r\nimport \"./DogRegisterCoin.sol\";\r\n\r\n\r\ncontract Arena is DogRegisterCoin {\r\n\r\n\r\n\r\n\tmapping(uint256 => uint256) public fightProposition;\r\n\tmapping(uint256 => Fight) public fightsById; //fight id is sum of the two dogs ids\r\n\r\n\t uint256 private _nonce;\r\n\r\n\r\n\r\n\tstruct Fight {\r\n\t\tuint256 dog1;\r\n\t\tuint256 dog2;\r\n\t\tuint256 bid;\r\n\t\tbool accepted;\r\n\t\taddress winner;\r\n\t}\r\n\r\n\r\n\r\n\r\n\tfunction proposeToFight(uint256 _id1, uint256 _id2) public payable{\r\n\t\trequire(ownerOf(_id1) == msg.sender);\r\n\t\trequire(dogsInAuction[_id1] == false);\r\n\t\trequire(msg.value > 0);\r\n\t\tfightProposition[_id1] = _id2;\r\n\t\tuint256 _bid = uint256(msg.value);\r\n\t\tFight memory fight = Fight(_id1, _id2, _bid, false, address(0));\r\n\t\tfightsById[_id1+_id2] = fight;\r\n\r\n\r\n\t}\r\n\r\n\r\n\tfunction agreeToFight(uint256 _id1, uint256 _id2) public payable{\r\n\t\trequire(ownerOf(_id1) == msg.sender);\r\n\t\trequire(fightProposition[_id2] == _id1);\r\n\t\trequire(fightsById[_id1 +_id2].bid ==uint256(msg.value));\r\n\t\tfightProposition[_id1] = _id2;\r\n\t\tfightsById[_id1+_id2].accepted = true;\r\n\r\n\t\tuint8 rand = _random();\r\n\r\n\t\tif(rand == 0) \r\n\t\t{\r\n\t\t\tfightsById[_id1+_id2].winner = ownerOf(_id1);\r\n\t\t\townerOf(_id1).transfer(2*fightsById[_id1 +_id2].bid);\r\n\r\n\t\t}\r\n\t\telse \r\n\t\t{\r\n\t\t\tfightsById[_id1 + _id2].winner = ownerOf(_id2);\r\n\t\t\townerOf(_id2).transfer(2*fightsById[_id1 +_id2].bid);\r\n\t\t}\r\n\t}\r\n\r\n\r\n\r\n\r\n\r\n\tfunction _random() private returns (uint8 random) {\r\n       random = uint8(uint256(keccak256(abi.encodePacked(block.timestamp, _nonce, msg.sender)))%2);\r\n       _nonce++;\r\n       return random;\r\n\r\n   }\r\n   \r\n}",
  "sourcePath": "C:/Users/cleme/Desktop/smart_contracts_ethereum/TD6/contracts/Arena.sol",
  "compiler": {
    "name": "solc",
    "version": "0.5.0+commit.1d4f565a.Emscripten.clang"
  },
  "schemaVersion": "3.0.5",
  "updatedAt": "2019-11-16T18:47:48.212Z",
  "devdoc": {
    "methods": {}
  },
  "userdoc": {
    "methods": {}
  }
}