{
  "contractName": "Arena",
  "abi": [
    {
      "anonymous": false,
      "inputs": [
        {
          "indexed": true,
          "internalType": "address",
          "name": "_owner",
          "type": "address"
        },
        {
          "indexed": true,
          "internalType": "address",
          "name": "_approved",
          "type": "address"
        },
        {
          "indexed": true,
          "internalType": "uint256",
          "name": "_tokenId",
          "type": "uint256"
        }
      ],
      "name": "Approval",
      "type": "event"
    },
    {
      "anonymous": false,
      "inputs": [
        {
          "indexed": true,
          "internalType": "address",
          "name": "_owner",
          "type": "address"
        },
        {
          "indexed": true,
          "internalType": "address",
          "name": "_operator",
          "type": "address"
        },
        {
          "indexed": false,
          "internalType": "bool",
          "name": "_approved",
          "type": "bool"
        }
      ],
      "name": "ApprovalForAll",
      "type": "event"
    },
    {
      "anonymous": false,
      "inputs": [
        {
          "indexed": true,
          "internalType": "address",
          "name": "_from",
          "type": "address"
        },
        {
          "indexed": true,
          "internalType": "address",
          "name": "_to",
          "type": "address"
        },
        {
          "indexed": true,
          "internalType": "uint256",
          "name": "_tokenId",
          "type": "uint256"
        }
      ],
      "name": "Transfer",
      "type": "event"
    },
    {
      "constant": false,
      "inputs": [
        {
          "internalType": "address payable",
          "name": "_to",
          "type": "address"
        },
        {
          "internalType": "uint256",
          "name": "_id",
          "type": "uint256"
        }
      ],
      "name": "TransferAnimal",
      "outputs": [],
      "payable": false,
      "stateMutability": "nonpayable",
      "type": "function"
    },
    {
      "constant": true,
      "inputs": [
        {
          "internalType": "uint256",
          "name": "",
          "type": "uint256"
        }
      ],
      "name": "_tokenOwner",
      "outputs": [
        {
          "internalType": "address payable",
          "name": "",
          "type": "address"
        }
      ],
      "payable": false,
      "stateMutability": "view",
      "type": "function"
    },
    {
      "constant": true,
      "inputs": [
        {
          "internalType": "address",
          "name": "",
          "type": "address"
        }
      ],
      "name": "_whitelist",
      "outputs": [
        {
          "internalType": "bool",
          "name": "",
          "type": "bool"
        }
      ],
      "payable": false,
      "stateMutability": "view",
      "type": "function"
    },
    {
      "constant": false,
      "inputs": [
        {
          "internalType": "address",
          "name": "_approved",
          "type": "address"
        },
        {
          "internalType": "uint256",
          "name": "_tokenId",
          "type": "uint256"
        }
      ],
      "name": "approve",
      "outputs": [],
      "payable": true,
      "stateMutability": "payable",
      "type": "function"
    },
    {
      "constant": true,
      "inputs": [
        {
          "internalType": "uint256",
          "name": "",
          "type": "uint256"
        }
      ],
      "name": "auction",
      "outputs": [
        {
          "internalType": "address",
          "name": "chairperson",
          "type": "address"
        },
        {
          "internalType": "uint256",
          "name": "startingPrice",
          "type": "uint256"
        },
        {
          "internalType": "uint256",
          "name": "startTime",
          "type": "uint256"
        },
        {
          "internalType": "uint256",
          "name": "highestBid",
          "type": "uint256"
        },
        {
          "internalType": "address",
          "name": "winner",
          "type": "address"
        }
      ],
      "payable": false,
      "stateMutability": "view",
      "type": "function"
    },
    {
      "constant": true,
      "inputs": [
        {
          "internalType": "uint256",
          "name": "",
          "type": "uint256"
        }
      ],
      "name": "availableToBreed",
      "outputs": [
        {
          "internalType": "bool",
          "name": "",
          "type": "bool"
        }
      ],
      "payable": false,
      "stateMutability": "view",
      "type": "function"
    },
    {
      "constant": true,
      "inputs": [
        {
          "internalType": "address",
          "name": "_address",
          "type": "address"
        }
      ],
      "name": "balanceOf",
      "outputs": [
        {
          "internalType": "uint256",
          "name": "",
          "type": "uint256"
        }
      ],
      "payable": false,
      "stateMutability": "view",
      "type": "function"
    },
    {
      "constant": false,
      "inputs": [
        {
          "internalType": "uint256",
          "name": "_id",
          "type": "uint256"
        }
      ],
      "name": "bidAuction",
      "outputs": [],
      "payable": true,
      "stateMutability": "payable",
      "type": "function"
    },
    {
      "constant": true,
      "inputs": [
        {
          "internalType": "address",
          "name": "",
          "type": "address"
        }
      ],
      "name": "bidderToBid",
      "outputs": [
        {
          "internalType": "uint256",
          "name": "",
          "type": "uint256"
        }
      ],
      "payable": false,
      "stateMutability": "view",
      "type": "function"
    },
    {
      "constant": false,
      "inputs": [
        {
          "internalType": "uint256",
          "name": "_dogId1",
          "type": "uint256"
        },
        {
          "internalType": "uint256",
          "name": "_dogId2",
          "type": "uint256"
        }
      ],
      "name": "breedAnimal",
      "outputs": [],
      "payable": false,
      "stateMutability": "nonpayable",
      "type": "function"
    },
    {
      "constant": true,
      "inputs": [
        {
          "internalType": "address",
          "name": "",
          "type": "address"
        },
        {
          "internalType": "uint256",
          "name": "",
          "type": "uint256"
        }
      ],
      "name": "breederDogs",
      "outputs": [
        {
          "internalType": "uint256",
          "name": "id",
          "type": "uint256"
        },
        {
          "internalType": "enum DogRegisterCoin.Race",
          "name": "race",
          "type": "uint8"
        },
        {
          "internalType": "bool",
          "name": "isMale",
          "type": "bool"
        },
        {
          "internalType": "uint8",
          "name": "age",
          "type": "uint8"
        },
        {
          "internalType": "uint8",
          "name": "category",
          "type": "uint8"
        }
      ],
      "payable": false,
      "stateMutability": "view",
      "type": "function"
    },
    {
      "constant": false,
      "inputs": [
        {
          "internalType": "uint256",
          "name": "_id",
          "type": "uint256"
        }
      ],
      "name": "claimAuction",
      "outputs": [],
      "payable": true,
      "stateMutability": "payable",
      "type": "function"
    },
    {
      "constant": true,
      "inputs": [],
      "name": "contractBalance",
      "outputs": [
        {
          "internalType": "uint256",
          "name": "",
          "type": "uint256"
        }
      ],
      "payable": false,
      "stateMutability": "view",
      "type": "function"
    },
    {
      "constant": false,
      "inputs": [
        {
          "internalType": "uint256",
          "name": "_id",
          "type": "uint256"
        },
        {
          "internalType": "uint256",
          "name": "_startingPrice",
          "type": "uint256"
        }
      ],
      "name": "createAuction",
      "outputs": [],
      "payable": false,
      "stateMutability": "nonpayable",
      "type": "function"
    },
    {
      "constant": false,
      "inputs": [
        {
          "internalType": "uint256",
          "name": "_tokenId",
          "type": "uint256"
        }
      ],
      "name": "deadAnimal",
      "outputs": [],
      "payable": false,
      "stateMutability": "nonpayable",
      "type": "function"
    },
    {
      "constant": false,
      "inputs": [
        {
          "internalType": "address payable",
          "name": "_breeder",
          "type": "address"
        },
        {
          "internalType": "enum DogRegisterCoin.Race",
          "name": "_race",
          "type": "uint8"
        },
        {
          "internalType": "bool",
          "name": "_isMale",
          "type": "bool"
        },
        {
          "internalType": "uint8",
          "name": "_age",
          "type": "uint8"
        },
        {
          "internalType": "uint8",
          "name": "_category",
          "type": "uint8"
        }
      ],
      "name": "declareAnimal",
      "outputs": [
        {
          "internalType": "bool",
          "name": "",
          "type": "bool"
        }
      ],
      "payable": false,
      "stateMutability": "nonpayable",
      "type": "function"
    },
    {
      "constant": true,
      "inputs": [
        {
          "internalType": "uint256",
          "name": "",
          "type": "uint256"
        }
      ],
      "name": "dogsById",
      "outputs": [
        {
          "internalType": "uint256",
          "name": "id",
          "type": "uint256"
        },
        {
          "internalType": "enum DogRegisterCoin.Race",
          "name": "race",
          "type": "uint8"
        },
        {
          "internalType": "bool",
          "name": "isMale",
          "type": "bool"
        },
        {
          "internalType": "uint8",
          "name": "age",
          "type": "uint8"
        },
        {
          "internalType": "uint8",
          "name": "category",
          "type": "uint8"
        }
      ],
      "payable": false,
      "stateMutability": "view",
      "type": "function"
    },
    {
      "constant": true,
      "inputs": [
        {
          "internalType": "uint256",
          "name": "",
          "type": "uint256"
        }
      ],
      "name": "dogsInAuction",
      "outputs": [
        {
          "internalType": "bool",
          "name": "",
          "type": "bool"
        }
      ],
      "payable": false,
      "stateMutability": "view",
      "type": "function"
    },
    {
      "constant": true,
      "inputs": [
        {
          "internalType": "uint256",
          "name": "",
          "type": "uint256"
        }
      ],
      "name": "fightProposition",
      "outputs": [
        {
          "internalType": "uint256",
          "name": "",
          "type": "uint256"
        }
      ],
      "payable": false,
      "stateMutability": "view",
      "type": "function"
    },
    {
      "constant": true,
      "inputs": [
        {
          "internalType": "uint256",
          "name": "",
          "type": "uint256"
        }
      ],
      "name": "fightsById",
      "outputs": [
        {
          "internalType": "uint256",
          "name": "dog1",
          "type": "uint256"
        },
        {
          "internalType": "uint256",
          "name": "dog2",
          "type": "uint256"
        },
        {
          "internalType": "uint256",
          "name": "bid",
          "type": "uint256"
        },
        {
          "internalType": "bool",
          "name": "accepted",
          "type": "bool"
        },
        {
          "internalType": "address",
          "name": "winner",
          "type": "address"
        }
      ],
      "payable": false,
      "stateMutability": "view",
      "type": "function"
    },
    {
      "constant": true,
      "inputs": [
        {
          "internalType": "uint256",
          "name": "_tokenId",
          "type": "uint256"
        }
      ],
      "name": "getApproved",
      "outputs": [
        {
          "internalType": "address",
          "name": "",
          "type": "address"
        }
      ],
      "payable": false,
      "stateMutability": "view",
      "type": "function"
    },
    {
      "constant": true,
      "inputs": [
        {
          "internalType": "uint256",
          "name": "_id",
          "type": "uint256"
        }
      ],
      "name": "getHighestBid",
      "outputs": [
        {
          "internalType": "uint256",
          "name": "",
          "type": "uint256"
        }
      ],
      "payable": false,
      "stateMutability": "view",
      "type": "function"
    },
    {
      "constant": true,
      "inputs": [
        {
          "internalType": "address",
          "name": "_owner",
          "type": "address"
        },
        {
          "internalType": "address",
          "name": "_operator",
          "type": "address"
        }
      ],
      "name": "isApprovedForAll",
      "outputs": [
        {
          "internalType": "bool",
          "name": "",
          "type": "bool"
        }
      ],
      "payable": false,
      "stateMutability": "view",
      "type": "function"
    },
    {
      "constant": true,
      "inputs": [],
      "name": "owner",
      "outputs": [
        {
          "internalType": "address payable",
          "name": "",
          "type": "address"
        }
      ],
      "payable": false,
      "stateMutability": "view",
      "type": "function"
    },
    {
      "constant": true,
      "inputs": [
        {
          "internalType": "uint256",
          "name": "_tokenId",
          "type": "uint256"
        }
      ],
      "name": "ownerOf",
      "outputs": [
        {
          "internalType": "address payable",
          "name": "",
          "type": "address"
        }
      ],
      "payable": false,
      "stateMutability": "view",
      "type": "function"
    },
    {
      "constant": false,
      "inputs": [
        {
          "internalType": "uint256",
          "name": "_dogId",
          "type": "uint256"
        }
      ],
      "name": "proposeToBreed",
      "outputs": [],
      "payable": false,
      "stateMutability": "nonpayable",
      "type": "function"
    },
    {
      "constant": false,
      "inputs": [
        {
          "internalType": "address",
          "name": "_breeder",
          "type": "address"
        }
      ],
      "name": "registerBreeder",
      "outputs": [],
      "payable": false,
      "stateMutability": "nonpayable",
      "type": "function"
    },
    {
      "constant": false,
      "inputs": [
        {
          "internalType": "address",
          "name": "_operator",
          "type": "address"
        },
        {
          "internalType": "bool",
          "name": "_approved",
          "type": "bool"
        }
      ],
      "name": "setApprovalForAll",
      "outputs": [],
      "payable": false,
      "stateMutability": "nonpayable",
      "type": "function"
    },
    {
      "constant": false,
      "inputs": [
        {
          "internalType": "address",
          "name": "_from",
          "type": "address"
        },
        {
          "internalType": "address payable",
          "name": "_to",
          "type": "address"
        },
        {
          "internalType": "uint256",
          "name": "_tokenId",
          "type": "uint256"
        }
      ],
      "name": "transferFrom",
      "outputs": [],
      "payable": true,
      "stateMutability": "payable",
      "type": "function"
    },
    {
      "constant": false,
      "inputs": [
        {
          "internalType": "uint256",
          "name": "_id",
          "type": "uint256"
        }
      ],
      "name": "updateBid",
      "outputs": [],
      "payable": true,
      "stateMutability": "payable",
      "type": "function"
    },
    {
      "constant": false,
      "inputs": [
        {
          "internalType": "uint256",
          "name": "_myDog",
          "type": "uint256"
        },
        {
          "internalType": "uint256",
          "name": "_opponent",
          "type": "uint256"
        }
      ],
      "name": "proposeToFight",
      "outputs": [],
      "payable": true,
      "stateMutability": "payable",
      "type": "function"
    },
    {
      "constant": false,
      "inputs": [
        {
          "internalType": "uint256",
          "name": "_myDog",
          "type": "uint256"
        },
        {
          "internalType": "uint256",
          "name": "_opponent",
          "type": "uint256"
        }
      ],
      "name": "agreeToFight",
      "outputs": [],
      "payable": true,
      "stateMutability": "payable",
      "type": "function"
    }
  ],
  "bytecode": "0x60806040526040516200001290620000b7565b604051809103906000f0801580156200002f573d6000803e3d6000fd5b50600460006101000a81548173ffffffffffffffffffffffffffffffffffffffff021916908373ffffffffffffffffffffffffffffffffffffffff16021790555033600560006101000a81548173ffffffffffffffffffffffffffffffffffffffff021916908373ffffffffffffffffffffffffffffffffffffffff160217905550620000c5565b610fa3806200570883390190565b61563380620000d56000396000f3fe6080604052600436106101e35760003560e01c806386f253aa11610102578063ac3df33011610095578063cfdb63ac11610064578063cfdb63ac14610bfe578063d748bc6414610c67578063e985e9c514610d02578063ec9b6db914610d8b576101e3565b8063ac3df33014610ab3578063c1722d2b14610b18578063c4b4b16b14610b50578063ce6cc0fb14610bab576101e3565b8063909e268a116100d1578063909e268a146109305780639aafc6c9146109d9578063a22cb46514610a07578063a7ccfca514610a64576101e3565b806386f253aa1461080c5780638b7afe2e1461085f5780638da5cb5b1461088a5780638f288644146108e1576101e3565b80635e6bab681161017a57806370a082311161014957806370a08231146106b957806372368bdc1461071e578063796db312146107565780637dcdf9be146107d1576101e3565b80635e6bab681461052f578063617065e3146105745780636352211e1461061057806364a7d7c71461068b576101e3565b806323b872dd116101b657806323b872dd146103b95780634065cc671461042757806343129de1146104b0578063476fd474146104de576101e3565b80630121683f146101e8578063081812fc1461022d578063095ea7b3146102a85780631200617f146102f6575b600080fd5b3480156101f457600080fd5b5061022b6004803603604081101561020b57600080fd5b810190808035906020019092919080359060200190929190505050610dc6565b005b34801561023957600080fd5b506102666004803603602081101561025057600080fd5b8101908080359060200190929190505050611090565b604051808273ffffffffffffffffffffffffffffffffffffffff1673ffffffffffffffffffffffffffffffffffffffff16815260200191505060405180910390f35b6102f4600480360360408110156102be57600080fd5b81019080803573ffffffffffffffffffffffffffffffffffffffff1690602001909291908035906020019092919050505061113c565b005b34801561030257600080fd5b5061032f6004803603602081101561031957600080fd5b8101908080359060200190929190505050611354565b604051808673ffffffffffffffffffffffffffffffffffffffff1673ffffffffffffffffffffffffffffffffffffffff1681526020018581526020018481526020018381526020018273ffffffffffffffffffffffffffffffffffffffff1673ffffffffffffffffffffffffffffffffffffffff1681526020019550505050505060405180910390f35b610425600480360360608110156103cf57600080fd5b81019080803573ffffffffffffffffffffffffffffffffffffffff169060200190929190803573ffffffffffffffffffffffffffffffffffffffff169060200190929190803590602001909291905050506113ca565b005b34801561043357600080fd5b506104606004803603602081101561044a57600080fd5b810190808035906020019092919050505061179f565b6040518086815260200185600881111561047657fe5b60ff168152602001841515151581526020018360ff1660ff1681526020018260ff1660ff1681526020019550505050505060405180910390f35b6104dc600480360360208110156104c657600080fd5b8101908080359060200190929190505050611809565b005b3480156104ea57600080fd5b5061052d6004803603602081101561050157600080fd5b81019080803573ffffffffffffffffffffffffffffffffffffffff169060200190929190505050611a3b565b005b34801561053b57600080fd5b506105726004803603604081101561055257600080fd5b810190808035906020019092919080359060200190929190505050611ca9565b005b34801561058057600080fd5b506105f6600480360360a081101561059757600080fd5b81019080803573ffffffffffffffffffffffffffffffffffffffff169060200190929190803560ff169060200190929190803515159060200190929190803560ff169060200190929190803560ff169060200190929190505050611f84565b604051808215151515815260200191505060405180910390f35b34801561061c57600080fd5b506106496004803603602081101561063357600080fd5b81019080803590602001909291905050506122ef565b604051808273ffffffffffffffffffffffffffffffffffffffff1673ffffffffffffffffffffffffffffffffffffffff16815260200191505060405180910390f35b6106b7600480360360208110156106a157600080fd5b8101908080359060200190929190505050612404565b005b3480156106c557600080fd5b50610708600480360360208110156106dc57600080fd5b81019080803573ffffffffffffffffffffffffffffffffffffffff1690602001909291905050506127c9565b6040518082815260200191505060405180910390f35b6107546004803603604081101561073457600080fd5b8101908080359060200190929190803590602001909291905050506128b6565b005b34801561076257600080fd5b5061078f6004803603602081101561077957600080fd5b8101908080359060200190929190505050612c36565b604051808273ffffffffffffffffffffffffffffffffffffffff1673ffffffffffffffffffffffffffffffffffffffff16815260200191505060405180910390f35b3480156107dd57600080fd5b5061080a600480360360208110156107f457600080fd5b8101908080359060200190929190505050612c69565b005b34801561081857600080fd5b506108456004803603602081101561082f57600080fd5b8101908080359060200190929190505050612da3565b604051808215151515815260200191505060405180910390f35b34801561086b57600080fd5b50610874612dc3565b6040518082815260200191505060405180910390f35b34801561089657600080fd5b5061089f612de2565b604051808273ffffffffffffffffffffffffffffffffffffffff1673ffffffffffffffffffffffffffffffffffffffff16815260200191505060405180910390f35b3480156108ed57600080fd5b5061091a6004803603602081101561090457600080fd5b8101908080359060200190929190505050612e08565b6040518082815260200191505060405180910390f35b34801561093c57600080fd5b506109896004803603604081101561095357600080fd5b81019080803573ffffffffffffffffffffffffffffffffffffffff16906020019092919080359060200190929190505050612e28565b6040518086815260200185600881111561099f57fe5b60ff168152602001841515151581526020018360ff1660ff1681526020018260ff1660ff1681526020019550505050505060405180910390f35b610a05600480360360208110156109ef57600080fd5b8101908080359060200190929190505050612eac565b005b348015610a1357600080fd5b50610a6260048036036040811015610a2a57600080fd5b81019080803573ffffffffffffffffffffffffffffffffffffffff1690602001909291908035151590602001909291905050506131fe565b005b348015610a7057600080fd5b50610a9d60048036036020811015610a8757600080fd5b8101908080359060200190929190505050613384565b6040518082815260200191505060405180910390f35b348015610abf57600080fd5b50610b0260048036036020811015610ad657600080fd5b81019080803573ffffffffffffffffffffffffffffffffffffffff16906020019092919050505061339c565b6040518082815260200191505060405180910390f35b610b4e60048036036040811015610b2e57600080fd5b8101908080359060200190929190803590602001909291905050506133b4565b005b348015610b5c57600080fd5b50610ba960048036036040811015610b7357600080fd5b81019080803573ffffffffffffffffffffffffffffffffffffffff1690602001909291908035906020019092919050505061365d565b005b348015610bb757600080fd5b50610be460048036036020811015610bce57600080fd5b81019080803590602001909291905050506139b4565b604051808215151515815260200191505060405180910390f35b348015610c0a57600080fd5b50610c4d60048036036020811015610c2157600080fd5b81019080803573ffffffffffffffffffffffffffffffffffffffff1690602001909291905050506139d4565b604051808215151515815260200191505060405180910390f35b348015610c7357600080fd5b50610ca060048036036020811015610c8a57600080fd5b81019080803590602001909291905050506139f4565b60405180868152602001858152602001848152602001831515151581526020018273ffffffffffffffffffffffffffffffffffffffff1673ffffffffffffffffffffffffffffffffffffffff1681526020019550505050505060405180910390f35b348015610d0e57600080fd5b50610d7160048036036040811015610d2557600080fd5b81019080803573ffffffffffffffffffffffffffffffffffffffff169060200190929190803573ffffffffffffffffffffffffffffffffffffffff169060200190929190505050613a57565b604051808215151515815260200191505060405180910390f35b348015610d9757600080fd5b50610dc460048036036020811015610dae57600080fd5b8101908080359060200190929190505050613aeb565b005b610dcf826122ef565b8073ffffffffffffffffffffffffffffffffffffffff163373ffffffffffffffffffffffffffffffffffffffff1614610e53576040517f08c379a00000000000000000000000000000000000000000000000000000000081526004018080602001828103825260218152602001806154c46021913960400191505060405180910390fd5b6008600084815260200190815260200160002060009054906101000a900460ff1615610ee7576040517f08c379a00000000000000000000000000000000000000000000000000000000081526004018080602001828103825260198152602001807f646f6720697320616c726561647920696e2061756374696f6e0000000000000081525060200191505060405180910390fd5b610eef6151fa565b33816000019073ffffffffffffffffffffffffffffffffffffffff16908173ffffffffffffffffffffffffffffffffffffffff168152505042816060018181525050828160400181815250508281608001818152505060008160a0019073ffffffffffffffffffffffffffffffffffffffff16908173ffffffffffffffffffffffffffffffffffffffff168152505060016008600086815260200190815260200160002060006101000a81548160ff02191690831515021790555080600d600086815260200190815260200160002060008201518160000160006101000a81548173ffffffffffffffffffffffffffffffffffffffff021916908373ffffffffffffffffffffffffffffffffffffffff160217905550602082015181600101908051906020019061102192919061525c565b5060408201518160020155606082015181600301556080820151816004015560a08201518160050160006101000a81548173ffffffffffffffffffffffffffffffffffffffff021916908373ffffffffffffffffffffffffffffffffffffffff16021790555090505050505050565b600081600073ffffffffffffffffffffffffffffffffffffffff166001600083815260200190815260200160002060009054906101000a900473ffffffffffffffffffffffffffffffffffffffff1673ffffffffffffffffffffffffffffffffffffffff16141561110057600080fd5b6002600084815260200190815260200160002060009054906101000a900473ffffffffffffffffffffffffffffffffffffffff16915050919050565b3373ffffffffffffffffffffffffffffffffffffffff168273ffffffffffffffffffffffffffffffffffffffff1614156111c1576040517f08c379a00000000000000000000000000000000000000000000000000000000081526004018080602001828103825260228152602001806154816022913960400191505060405180910390fd5b3373ffffffffffffffffffffffffffffffffffffffff166001600083815260200190815260200160002060009054906101000a900473ffffffffffffffffffffffffffffffffffffffff1673ffffffffffffffffffffffffffffffffffffffff16148061126757506112666001600083815260200190815260200160002060009054906101000a900473ffffffffffffffffffffffffffffffffffffffff1633613a57565b5b61127057600080fd5b816002600083815260200190815260200160002060006101000a81548173ffffffffffffffffffffffffffffffffffffffff021916908373ffffffffffffffffffffffffffffffffffffffff160217905550808273ffffffffffffffffffffffffffffffffffffffff166001600084815260200190815260200160002060009054906101000a900473ffffffffffffffffffffffffffffffffffffffff1673ffffffffffffffffffffffffffffffffffffffff167f8c5be1e5ebec7d5bd14f71427d1e84f3dd0314c0f7b2291e5b200ac8c7c3b92560405160405180910390a45050565b600d6020528060005260406000206000915090508060000160009054906101000a900473ffffffffffffffffffffffffffffffffffffffff16908060020154908060030154908060040154908060050160009054906101000a900473ffffffffffffffffffffffffffffffffffffffff16905085565b81600073ffffffffffffffffffffffffffffffffffffffff168173ffffffffffffffffffffffffffffffffffffffff16141561146e576040517f08c379a00000000000000000000000000000000000000000000000000000000081526004018080602001828103825260188152602001807f6164647265737320307830206973206e6f742076616c6964000000000000000081525060200191505060405180910390fd5b81600073ffffffffffffffffffffffffffffffffffffffff166001600083815260200190815260200160002060009054906101000a900473ffffffffffffffffffffffffffffffffffffffff1673ffffffffffffffffffffffffffffffffffffffff1614156114dc57600080fd5b33838173ffffffffffffffffffffffffffffffffffffffff163373ffffffffffffffffffffffffffffffffffffffff16148061154b57508173ffffffffffffffffffffffffffffffffffffffff1661153382611090565b73ffffffffffffffffffffffffffffffffffffffff16145b8061158f575061158e6001600083815260200190815260200160002060009054906101000a900473ffffffffffffffffffffffffffffffffffffffff1683613a57565b5b61159857600080fd5b8673ffffffffffffffffffffffffffffffffffffffff166001600087815260200190815260200160002060009054906101000a900473ffffffffffffffffffffffffffffffffffffffff1673ffffffffffffffffffffffffffffffffffffffff161461164f576040517f08c379a000000000000000000000000000000000000000000000000000000000815260040180806020018281038252602b8152602001806155d4602b913960400191505060405180910390fd5b60016000808973ffffffffffffffffffffffffffffffffffffffff1673ffffffffffffffffffffffffffffffffffffffff1681526020019081526020016000206000828254039250508190555060016000808873ffffffffffffffffffffffffffffffffffffffff1673ffffffffffffffffffffffffffffffffffffffff16815260200190815260200160002060008282540192505081905550856001600087815260200190815260200160002060006101000a81548173ffffffffffffffffffffffffffffffffffffffff021916908373ffffffffffffffffffffffffffffffffffffffff160217905550848673ffffffffffffffffffffffffffffffffffffffff168873ffffffffffffffffffffffffffffffffffffffff167fddf252ad1be2c89b69c2b068fc378daa952ba7f163c4a11628f55a4df523b3ef60405160405180910390a450505050505050565b60096020528060005260406000206000915090508060000154908060010160009054906101000a900460ff16908060010160019054906101000a900460ff16908060010160029054906101000a900460ff16908060010160039054906101000a900460ff16905085565b600d60008281526020019081526020016000206004015434600e60003373ffffffffffffffffffffffffffffffffffffffff1673ffffffffffffffffffffffffffffffffffffffff1681526020019081526020016000205401116118b8576040517f08c379a00000000000000000000000000000000000000000000000000000000081526004018080602001828103825260338152602001806153e96033913960400191505060405180910390fd5b426202a300600d600084815260200190815260200160002060030154011015611949576040517f08c379a00000000000000000000000000000000000000000000000000000000081526004018080602001828103825260138152602001807f61756374696f6e2069732066696e69736865640000000000000000000000000081525060200191505060405180910390fd5b61199b34600e60003373ffffffffffffffffffffffffffffffffffffffff1673ffffffffffffffffffffffffffffffffffffffff16815260200190815260200160002054613c0c90919063ffffffff16565b600e60003373ffffffffffffffffffffffffffffffffffffffff1673ffffffffffffffffffffffffffffffffffffffff16815260200190815260200160002081905550600e60003373ffffffffffffffffffffffffffffffffffffffff1673ffffffffffffffffffffffffffffffffffffffff16815260200190815260200160002054600d60008381526020019081526020016000206004018190555050565b80600073ffffffffffffffffffffffffffffffffffffffff168173ffffffffffffffffffffffffffffffffffffffff161415611adf576040517f08c379a00000000000000000000000000000000000000000000000000000000081526004018080602001828103825260188152602001807f6164647265737320307830206973206e6f742076616c6964000000000000000081525060200191505060405180910390fd5b600560009054906101000a900473ffffffffffffffffffffffffffffffffffffffff168073ffffffffffffffffffffffffffffffffffffffff163373ffffffffffffffffffffffffffffffffffffffff1614611b86576040517f08c379a00000000000000000000000000000000000000000000000000000000081526004018080602001828103825260218152602001806154c46021913960400191505060405180910390fd5b60001515600760008573ffffffffffffffffffffffffffffffffffffffff1673ffffffffffffffffffffffffffffffffffffffff16815260200190815260200160002060009054906101000a900460ff16151514611c4c576040517f08c379a000000000000000000000000000000000000000000000000000000000815260040180806020018281038252601a8152602001807f6272656564657220616c7265616479207265676973746572656400000000000081525060200191505060405180910390fd5b6001600760008573ffffffffffffffffffffffffffffffffffffffff1673ffffffffffffffffffffffffffffffffffffffff16815260200190815260200160002060006101000a81548160ff021916908315150217905550505050565b600115156009600084815260200190815260200160002060010160019054906101000a900460ff161515148015611d075750600015156009600083815260200190815260200160002060010160019054906101000a900460ff161515145b80611d6c5750600015156009600084815260200190815260200160002060010160019054906101000a900460ff161515148015611d6b5750600115156009600083815260200190815260200160002060010160019054906101000a900460ff161515145b5b611dc1576040517f08c379a00000000000000000000000000000000000000000000000000000000081526004018080602001828103825260268152602001806155076026913960400191505060405180910390fd5b611dcb3383613c2b565b80611ddc5750611ddb3382613c2b565b5b611e31576040517f08c379a000000000000000000000000000000000000000000000000000000000815260040180806020018281038252602c8152602001806155a8602c913960400191505060405180910390fd5b600a600083815260200190815260200160002060009054906101000a900460ff168015611e7b5750600a600082815260200190815260200160002060009054906101000a900460ff165b611ed0576040517f08c379a00000000000000000000000000000000000000000000000000000000081526004018080602001828103825260228152602001806154e56022913960400191505060405180910390fd5b6000611edc8383613cff565b9050600060026009600085815260200190815260200160002060010160039054906101000a900460ff166009600087815260200190815260200160002060010160039054906101000a900460ff160160ff1681611f3557fe5b049050611f423385613c2b565b8015611f545750611f533384613c2b565b5b15611f6e57611f6833836001600085611f84565b50611f7e565b611f7c8260016000846140f0565b505b50505050565b600085600073ffffffffffffffffffffffffffffffffffffffff168173ffffffffffffffffffffffffffffffffffffffff16141561202a576040517f08c379a00000000000000000000000000000000000000000000000000000000081526004018080602001828103825260188152602001807f6164647265737320307830206973206e6f742076616c6964000000000000000081525060200191505060405180910390fd5b3373ffffffffffffffffffffffffffffffffffffffff168773ffffffffffffffffffffffffffffffffffffffff16146120cb576040517f08c379a000000000000000000000000000000000000000000000000000000000815260040180806020018281038252601e8152602001807f627265656465722061646472657373206973206e6f7420636f7272656374000081525060200191505060405180910390fd5b6006600081548092919060010191905055506120e56152e6565b6040518060a00160405280600654815260200188600881111561210457fe5b815260200187151581526020018660ff1681526020018560ff168152509050600b60008973ffffffffffffffffffffffffffffffffffffffff1673ffffffffffffffffffffffffffffffffffffffff16815260200190815260200160002081908060018154018082558091505090600182039060005260206000209060020201600090919290919091506000820151816000015560208201518160010160006101000a81548160ff021916908360088111156121bc57fe5b021790555060408201518160010160016101000a81548160ff02191690831515021790555060608201518160010160026101000a81548160ff021916908360ff16021790555060808201518160010160036101000a81548160ff021916908360ff160217905550505050806009600060065481526020019081526020016000206000820151816000015560208201518160010160006101000a81548160ff0219169083600881111561226a57fe5b021790555060408201518160010160016101000a81548160ff02191690831515021790555060608201518160010160026101000a81548160ff021916908360ff16021790555060808201518160010160036101000a81548160ff021916908360ff1602179055509050506122e088600654614324565b60019250505095945050505050565b60006001600083815260200190815260200160002060009054906101000a900473ffffffffffffffffffffffffffffffffffffffff16600073ffffffffffffffffffffffffffffffffffffffff168173ffffffffffffffffffffffffffffffffffffffff1614156123c8576040517f08c379a00000000000000000000000000000000000000000000000000000000081526004018080602001828103825260188152602001807f6164647265737320307830206973206e6f742076616c6964000000000000000081525060200191505060405180910390fd5b6001600084815260200190815260200160002060009054906101000a900473ffffffffffffffffffffffffffffffffffffffff16915050919050565b3373ffffffffffffffffffffffffffffffffffffffff166001600083815260200190815260200160002060009054906101000a900473ffffffffffffffffffffffffffffffffffffffff1673ffffffffffffffffffffffffffffffffffffffff1614156124bc576040517f08c379a000000000000000000000000000000000000000000000000000000000815260040180806020018281038252602381526020018061545e6023913960400191505060405180910390fd5b600115156008600083815260200190815260200160002060009054906101000a900460ff16151514612556576040517f08c379a00000000000000000000000000000000000000000000000000000000081526004018080602001828103825260158152602001807f646f67206973206e6f7420696e2061756374696f6e000000000000000000000081525060200191505060405180910390fd5b600d60008281526020019081526020016000206004015434116125c4576040517f08c379a000000000000000000000000000000000000000000000000000000000815260040180806020018281038252602d81526020018061552d602d913960400191505060405180910390fd5b426202a300600d600084815260200190815260200160002060030154011015612655576040517f08c379a00000000000000000000000000000000000000000000000000000000081526004018080602001828103825260138152602001807f61756374696f6e2069732066696e69736865640000000000000000000000000081525060200191505060405180910390fd5b6000600e60003373ffffffffffffffffffffffffffffffffffffffff1673ffffffffffffffffffffffffffffffffffffffff16815260200190815260200160002054146126ed576040517f08c379a00000000000000000000000000000000000000000000000000000000081526004018080602001828103825260368152602001806153b36036913960400191505060405180910390fd5b34600e60003373ffffffffffffffffffffffffffffffffffffffff1673ffffffffffffffffffffffffffffffffffffffff16815260200190815260200160002081905550600d60008281526020019081526020016000206001013390806001815401808255809150509060018203906000526020600020016000909192909190916101000a81548173ffffffffffffffffffffffffffffffffffffffff021916908373ffffffffffffffffffffffffffffffffffffffff1602179055505034600d60008381526020019081526020016000206004018190555050565b600081600073ffffffffffffffffffffffffffffffffffffffff168173ffffffffffffffffffffffffffffffffffffffff16141561286f576040517f08c379a00000000000000000000000000000000000000000000000000000000081526004018080602001828103825260188152602001807f6164647265737320307830206973206e6f742076616c6964000000000000000081525060200191505060405180910390fd5b6000808473ffffffffffffffffffffffffffffffffffffffff1673ffffffffffffffffffffffffffffffffffffffff16815260200190815260200160002054915050919050565b3373ffffffffffffffffffffffffffffffffffffffff166128d6836122ef565b73ffffffffffffffffffffffffffffffffffffffff1614612942576040517f08c379a000000000000000000000000000000000000000000000000000000000815260040180806020018281038252602181526020018061541c6021913960400191505060405180910390fd5b3373ffffffffffffffffffffffffffffffffffffffff16612962826122ef565b73ffffffffffffffffffffffffffffffffffffffff1614156129ec576040517f08c379a000000000000000000000000000000000000000000000000000000000815260040180806020018281038252601e8152602001807f5f6f70706f6e656e742063616e27742062652066726f6d2073656e646572000081525060200191505060405180910390fd5b600015156008600084815260200190815260200160002060009054906101000a900460ff161515148015612a445750600015156008600083815260200190815260200160002060009054906101000a900460ff161515145b612ab6576040517f08c379a000000000000000000000000000000000000000000000000000000000815260040180806020018281038252601b8152602001807f646f6773206d757374206e6f7420626520696e2061756374696f6e000000000081525060200191505060405180910390fd5b60003411612b2c576040517f08c379a000000000000000000000000000000000000000000000000000000000815260040180806020018281038252601f8152602001807f76616c7565206d757374206265207374726963746c7920706f7369746976650081525060200191505060405180910390fd5b80600f6000848152602001908152602001600020819055506000349050612b51615328565b6040518060a00160405280858152602001848152602001838152602001600015158152602001600073ffffffffffffffffffffffffffffffffffffffff168152509050806010600086815260200190815260200160002060008201518160000155602082015181600101556040820151816002015560608201518160030160006101000a81548160ff02191690831515021790555060808201518160030160016101000a81548173ffffffffffffffffffffffffffffffffffffffff021916908373ffffffffffffffffffffffffffffffffffffffff16021790555090505050505050565b60016020528060005260406000206000915054906101000a900473ffffffffffffffffffffffffffffffffffffffff1681565b612c72816122ef565b8073ffffffffffffffffffffffffffffffffffffffff163373ffffffffffffffffffffffffffffffffffffffff1614612cf6576040517f08c379a00000000000000000000000000000000000000000000000000000000081526004018080602001828103825260218152602001806154c46021913960400191505060405180910390fd5b60001515600a600084815260200190815260200160002060009054906101000a900460ff16151514612d73576040517f08c379a000000000000000000000000000000000000000000000000000000000815260040180806020018281038252602181526020018061543d6021913960400191505060405180910390fd5b6001600a600084815260200190815260200160002060006101000a81548160ff0219169083151502179055505050565b600a6020528060005260406000206000915054906101000a900460ff1681565b60003073ffffffffffffffffffffffffffffffffffffffff1631905090565b600560009054906101000a900473ffffffffffffffffffffffffffffffffffffffff1681565b6000600d6000838152602001908152602001600020600401549050919050565b600b6020528160005260406000208181548110612e4157fe5b9060005260206000209060020201600091509150508060000154908060010160009054906101000a900460ff16908060010160019054906101000a900460ff16908060010160029054906101000a900460ff16908060010160039054906101000a900460ff16905085565b600115156008600083815260200190815260200160002060009054906101000a900460ff16151514612f46576040517f08c379a00000000000000000000000000000000000000000000000000000000081526004018080602001828103825260168152602001807f646f67206d75737420626520696e2061756374696f6e0000000000000000000081525060200191505060405180910390fd5b6202a300600d600083815260200190815260200160002060030154014211612fd6576040517f08c379a000000000000000000000000000000000000000000000000000000000815260040180806020018281038252601b8152602001807f61756374696f6e206973206e6f742066696e697368656420796574000000000081525060200191505060405180910390fd5b600d600082815260200190815260200160002060040154600e60003373ffffffffffffffffffffffffffffffffffffffff1673ffffffffffffffffffffffffffffffffffffffff16815260200190815260200160002054146130a0576040517f08c379a00000000000000000000000000000000000000000000000000000000081526004018080602001828103825260188152602001807f73656e646572206973206e6f74207468652077696e6e6572000000000000000081525060200191505060405180910390fd5b33600d600083815260200190815260200160002060050160006101000a81548173ffffffffffffffffffffffffffffffffffffffff021916908373ffffffffffffffffffffffffffffffffffffffff1602179055506130fe81614542565b600460009054906101000a900473ffffffffffffffffffffffffffffffffffffffff1673ffffffffffffffffffffffffffffffffffffffff166323b872dd613145836122ef565b33846040518463ffffffff1660e01b8152600401808473ffffffffffffffffffffffffffffffffffffffff1673ffffffffffffffffffffffffffffffffffffffff1681526020018373ffffffffffffffffffffffffffffffffffffffff1673ffffffffffffffffffffffffffffffffffffffff1681526020018281526020019350505050600060405180830381600087803b1580156131e357600080fd5b505af11580156131f7573d6000803e3d6000fd5b5050505050565b3373ffffffffffffffffffffffffffffffffffffffff168273ffffffffffffffffffffffffffffffffffffffff161415613283576040517f08c379a00000000000000000000000000000000000000000000000000000000081526004018080602001828103825260218152602001806154a36021913960400191505060405180910390fd5b80600360003373ffffffffffffffffffffffffffffffffffffffff1673ffffffffffffffffffffffffffffffffffffffff16815260200190815260200160002060008473ffffffffffffffffffffffffffffffffffffffff1673ffffffffffffffffffffffffffffffffffffffff16815260200190815260200160002060006101000a81548160ff0219169083151502179055508173ffffffffffffffffffffffffffffffffffffffff163373ffffffffffffffffffffffffffffffffffffffff167f17307eab39ab6107e8899845ad3d59bd9653f200f220920489ca2b5937696c3183604051808215151515815260200191505060405180910390a35050565b600f6020528060005260406000206000915090505481565b600e6020528060005260406000206000915090505481565b3373ffffffffffffffffffffffffffffffffffffffff166133d4836122ef565b73ffffffffffffffffffffffffffffffffffffffff16146133f457600080fd5b81600f6000838152602001908152602001600020541461341357600080fd5b3460106000838152602001908152602001600020600201541461343557600080fd5b600015156010600083815260200190815260200160002060030160009054906101000a900460ff1615151461346957600080fd5b80600f60008481526020019081526020016000208190555060016010600083815260200190815260200160002060030160006101000a81548160ff02191690831515021790555060006134ba614856565b905060008160ff161415613592576134d1836122ef565b6010600084815260200190815260200160002060030160016101000a81548173ffffffffffffffffffffffffffffffffffffffff021916908373ffffffffffffffffffffffffffffffffffffffff16021790555061352e836122ef565b73ffffffffffffffffffffffffffffffffffffffff166108fc60106000858152602001908152602001600020600201546002029081150290604051600060405180830381858888f1935050505015801561358c573d6000803e3d6000fd5b50613658565b61359b826122ef565b6010600084815260200190815260200160002060030160016101000a81548173ffffffffffffffffffffffffffffffffffffffff021916908373ffffffffffffffffffffffffffffffffffffffff1602179055506135f8826122ef565b73ffffffffffffffffffffffffffffffffffffffff166108fc60106000858152602001908152602001600020600201546002029081150290604051600060405180830381858888f19350505050158015613656573d6000803e3d6000fd5b505b505050565b613666816122ef565b8073ffffffffffffffffffffffffffffffffffffffff163373ffffffffffffffffffffffffffffffffffffffff16146136ea576040517f08c379a00000000000000000000000000000000000000000000000000000000081526004018080602001828103825260218152602001806154c46021913960400191505060405180910390fd5b600015156008600084815260200190815260200160002060009054906101000a900460ff16151514613767576040517f08c379a000000000000000000000000000000000000000000000000000000000815260040180806020018281038252602981526020018061557f6029913960400191505060405180910390fd5b600460009054906101000a900473ffffffffffffffffffffffffffffffffffffffff1673ffffffffffffffffffffffffffffffffffffffff166323b872dd3385856040518463ffffffff1660e01b8152600401808473ffffffffffffffffffffffffffffffffffffffff1673ffffffffffffffffffffffffffffffffffffffff1681526020018373ffffffffffffffffffffffffffffffffffffffff1673ffffffffffffffffffffffffffffffffffffffff1681526020018281526020019350505050600060405180830381600087803b15801561384457600080fd5b505af1158015613858573d6000803e3d6000fd5b5050505061386633836148e7565b600b60008473ffffffffffffffffffffffffffffffffffffffff1673ffffffffffffffffffffffffffffffffffffffff1681526020019081526020016000206009600084815260200190815260200160002090806001815401808255809150509060018203906000526020600020906002020160009091929091909150600082015481600001556001820160009054906101000a900460ff168160010160006101000a81548160ff0219169083600881111561391e57fe5b02179055506001820160019054906101000a900460ff168160010160016101000a81548160ff0219169083151502179055506001820160029054906101000a900460ff168160010160026101000a81548160ff021916908360ff1602179055506001820160039054906101000a900460ff168160010160036101000a81548160ff021916908360ff160217905550505050505050565b60086020528060005260406000206000915054906101000a900460ff1681565b60076020528060005260406000206000915054906101000a900460ff1681565b60106020528060005260406000206000915090508060000154908060010154908060020154908060030160009054906101000a900460ff16908060030160019054906101000a900473ffffffffffffffffffffffffffffffffffffffff16905085565b6000600360008473ffffffffffffffffffffffffffffffffffffffff1673ffffffffffffffffffffffffffffffffffffffff16815260200190815260200160002060008373ffffffffffffffffffffffffffffffffffffffff1673ffffffffffffffffffffffffffffffffffffffff16815260200190815260200160002060009054906101000a900460ff16905092915050565b613af4816122ef565b8073ffffffffffffffffffffffffffffffffffffffff163373ffffffffffffffffffffffffffffffffffffffff1614613b78576040517f08c379a00000000000000000000000000000000000000000000000000000000081526004018080602001828103825260218152602001806154c46021913960400191505060405180910390fd5b6000613b83836122ef565b9050613b8f3384614ccd565b600960008481526020019081526020016000206000808201600090556001820160006101000a81549060ff02191690556001820160016101000a81549060ff02191690556001820160026101000a81549060ff02191690556001820160036101000a81549060ff02191690555050613c0781846148e7565b505050565b600080828401905083811015613c2157600080fd5b8091505092915050565b600080905060008090505b600b60008573ffffffffffffffffffffffffffffffffffffffff1673ffffffffffffffffffffffffffffffffffffffff16815260200190815260200160002080549050811015613cf55782600b60008673ffffffffffffffffffffffffffffffffffffffff1673ffffffffffffffffffffffffffffffffffffffff1681526020019081526020016000208281548110613ccb57fe5b9060005260206000209060020201600001541415613ce857600191505b8080600101915050613c36565b5080905092915050565b6000613d096152e6565b600960008581526020019081526020016000206040518060a0016040529081600082015481526020016001820160009054906101000a900460ff166008811115613d4f57fe5b6008811115613d5a57fe5b81526020016001820160019054906101000a900460ff161515151581526020016001820160029054906101000a900460ff1660ff1660ff1681526020016001820160039054906101000a900460ff1660ff1660ff16815250509050613dbd6152e6565b600960008581526020019081526020016000206040518060a0016040529081600082015481526020016001820160009054906101000a900460ff166008811115613e0357fe5b6008811115613e0e57fe5b81526020016001820160019054906101000a900460ff161515151581526020016001820160029054906101000a900460ff1660ff1660ff1681526020016001820160039054906101000a900460ff1660ff1660ff1681525050905060006008811115613e7657fe5b82602001516008811115613e8657fe5b148015613ead575060016008811115613e9b57fe5b81602001516008811115613eab57fe5b145b80613ef8575060016008811115613ec057fe5b82602001516008811115613ed057fe5b148015613ef7575060006008811115613ee557fe5b81602001516008811115613ef557fe5b145b5b15613f0657600592506140e5565b60016008811115613f1357fe5b82602001516008811115613f2357fe5b148015613f4a575060046008811115613f3857fe5b81602001516008811115613f4857fe5b145b80613f95575060046008811115613f5d57fe5b82602001516008811115613f6d57fe5b148015613f94575060016008811115613f8257fe5b81602001516008811115613f9257fe5b145b5b15613fa357600692506140e4565b60026008811115613fb057fe5b82602001516008811115613fc057fe5b148015613fe7575060036008811115613fd557fe5b81602001516008811115613fe557fe5b145b80614032575060036008811115613ffa57fe5b8260200151600881111561400a57fe5b14801561403157506002600881111561401f57fe5b8160200151600881111561402f57fe5b145b5b1561404057600192506140e3565b6000600881111561404d57fe5b8260200151600881111561405d57fe5b14801561408457506004600881111561407257fe5b8160200151600881111561408257fe5b145b806140cf57506004600881111561409757fe5b826020015160088111156140a757fe5b1480156140ce5750600060088111156140bc57fe5b816020015160088111156140cc57fe5b145b5b156140dd57600792506140e2565b600892505b5b5b5b829250505092915050565b6000803090506006600081548092919060010191905055506141106152e6565b6040518060a00160405280600654815260200188600881111561412f57fe5b815260200187151581526020018660ff1681526020018560ff168152509050600b60008373ffffffffffffffffffffffffffffffffffffffff1673ffffffffffffffffffffffffffffffffffffffff16815260200190815260200160002081908060018154018082558091505090600182039060005260206000209060020201600090919290919091506000820151816000015560208201518160010160006101000a81548160ff021916908360088111156141e757fe5b021790555060408201518160010160016101000a81548160ff02191690831515021790555060608201518160010160026101000a81548160ff021916908360ff16021790555060808201518160010160036101000a81548160ff021916908360ff160217905550505050806009600060065481526020019081526020016000206000820151816000015560208201518160010160006101000a81548160ff0219169083600881111561429557fe5b021790555060408201518160010160016101000a81548160ff02191690831515021790555060608201518160010160026101000a81548160ff021916908360ff16021790555060808201518160010160036101000a81548160ff021916908360ff16021790555090505061430a600654614e8d565b61431682600654614324565b600192505050949350505050565b600073ffffffffffffffffffffffffffffffffffffffff168273ffffffffffffffffffffffffffffffffffffffff1614156143c7576040517f08c379a00000000000000000000000000000000000000000000000000000000081526004018080602001828103825260208152602001807f4552433732313a206d696e7420746f20746865207a65726f206164647265737381525060200191505060405180910390fd5b6143d0816150ca565b15614443576040517f08c379a000000000000000000000000000000000000000000000000000000000815260040180806020018281038252601c8152602001807f4552433732313a20746f6b656e20616c7265616479206d696e7465640000000081525060200191505060405180910390fd5b816001600083815260200190815260200160002060006101000a81548173ffffffffffffffffffffffffffffffffffffffff021916908373ffffffffffffffffffffffffffffffffffffffff16021790555060016000808473ffffffffffffffffffffffffffffffffffffffff1673ffffffffffffffffffffffffffffffffffffffff16815260200190815260200160002060008282540192505081905550808273ffffffffffffffffffffffffffffffffffffffff16600073ffffffffffffffffffffffffffffffffffffffff167fddf252ad1be2c89b69c2b068fc378daa952ba7f163c4a11628f55a4df523b3ef60405160405180910390a45050565b60008090505b600d6000838152602001908152602001600020600101805490508110156147d757600d600083815260200190815260200160002060050160009054906101000a900473ffffffffffffffffffffffffffffffffffffffff1673ffffffffffffffffffffffffffffffffffffffff16600d600084815260200190815260200160002060010182815481106145d757fe5b9060005260206000200160009054906101000a900473ffffffffffffffffffffffffffffffffffffffff1673ffffffffffffffffffffffffffffffffffffffff16146147ca57600d6000838152602001908152602001600020600101818154811061463e57fe5b9060005260206000200160009054906101000a900473ffffffffffffffffffffffffffffffffffffffff1673ffffffffffffffffffffffffffffffffffffffff166108fc600e6000600d600087815260200190815260200160002060010185815481106146a757fe5b9060005260206000200160009054906101000a900473ffffffffffffffffffffffffffffffffffffffff1673ffffffffffffffffffffffffffffffffffffffff1673ffffffffffffffffffffffffffffffffffffffff168152602001908152602001600020549081150290604051600060405180830381858888f19350505050158015614738573d6000803e3d6000fd5b506000600e6000600d6000868152602001908152602001600020600101848154811061476057fe5b9060005260206000200160009054906101000a900473ffffffffffffffffffffffffffffffffffffffff1673ffffffffffffffffffffffffffffffffffffffff1673ffffffffffffffffffffffffffffffffffffffff168152602001908152602001600020819055505b8080600101915050614548565b506000600e6000600d600085815260200190815260200160002060050160009054906101000a900473ffffffffffffffffffffffffffffffffffffffff1673ffffffffffffffffffffffffffffffffffffffff1673ffffffffffffffffffffffffffffffffffffffff1681526020019081526020016000208190555050565b600060024260115433604051602001808481526020018381526020018273ffffffffffffffffffffffffffffffffffffffff1673ffffffffffffffffffffffffffffffffffffffff1660601b815260140193505050506040516020818303038152906040528051906020012060001c816148cc57fe5b06905060116000815480929190600101919050555080905090565b600080905060008090506000600b60008673ffffffffffffffffffffffffffffffffffffffff1673ffffffffffffffffffffffffffffffffffffffff1681526020019081526020016000208054905090505b83600b60008773ffffffffffffffffffffffffffffffffffffffff1673ffffffffffffffffffffffffffffffffffffffff168152602001908152602001600020848154811061498457fe5b906000526020600020906002020160000154146149a8578280600101935050614939565b60018103831415614a6b57600b60008673ffffffffffffffffffffffffffffffffffffffff1673ffffffffffffffffffffffffffffffffffffffff16815260200190815260200160002083815481106149fd57fe5b90600052602060002090600202016000808201600090556001820160006101000a81549060ff02191690556001820160016101000a81549060ff02191690556001820160026101000a81549060ff02191690556001820160036101000a81549060ff02191690555050614cbd565b8291505b60018103821015614c0657600b60008673ffffffffffffffffffffffffffffffffffffffff1673ffffffffffffffffffffffffffffffffffffffff1681526020019081526020016000206001830181548110614ac757fe5b9060005260206000209060020201600b60008773ffffffffffffffffffffffffffffffffffffffff1673ffffffffffffffffffffffffffffffffffffffff1681526020019081526020016000208381548110614b1f57fe5b9060005260206000209060020201600082015481600001556001820160009054906101000a900460ff168160010160006101000a81548160ff02191690836008811115614b6857fe5b02179055506001820160019054906101000a900460ff168160010160016101000a81548160ff0219169083151502179055506001820160029054906101000a900460ff168160010160026101000a81548160ff021916908360ff1602179055506001820160039054906101000a900460ff168160010160036101000a81548160ff021916908360ff1602179055509050508180600101925050614a6f565b600b60008673ffffffffffffffffffffffffffffffffffffffff1673ffffffffffffffffffffffffffffffffffffffff1681526020019081526020016000206001820381548110614c5357fe5b90600052602060002090600202016000808201600090556001820160006101000a81549060ff02191690556001820160016101000a81549060ff02191690556001820160026101000a81549060ff02191690556001820160036101000a81549060ff021916905550505b8080600190039150505050505050565b8173ffffffffffffffffffffffffffffffffffffffff166001600083815260200190815260200160002060009054906101000a900473ffffffffffffffffffffffffffffffffffffffff1673ffffffffffffffffffffffffffffffffffffffff1614614d84576040517f08c379a000000000000000000000000000000000000000000000000000000000815260040180806020018281038252602581526020018061555a6025913960400191505060405180910390fd5b614d8d8161513c565b60016000808473ffffffffffffffffffffffffffffffffffffffff1673ffffffffffffffffffffffffffffffffffffffff1681526020019081526020016000206000828254039250508190555060006001600083815260200190815260200160002060006101000a81548173ffffffffffffffffffffffffffffffffffffffff021916908373ffffffffffffffffffffffffffffffffffffffff16021790555080600073ffffffffffffffffffffffffffffffffffffffff168373ffffffffffffffffffffffffffffffffffffffff167fddf252ad1be2c89b69c2b068fc378daa952ba7f163c4a11628f55a4df523b3ef60405160405180910390a45050565b6008600082815260200190815260200160002060009054906101000a900460ff1615614f21576040517f08c379a00000000000000000000000000000000000000000000000000000000081526004018080602001828103825260198152602001807f646f6720697320616c726561647920696e2061756374696f6e0000000000000081525060200191505060405180910390fd5b614f296151fa565b30816000019073ffffffffffffffffffffffffffffffffffffffff16908173ffffffffffffffffffffffffffffffffffffffff1681525050428160600181815250506001816040018181525050600081608001818152505060008160a0019073ffffffffffffffffffffffffffffffffffffffff16908173ffffffffffffffffffffffffffffffffffffffff168152505060016008600084815260200190815260200160002060006101000a81548160ff02191690831515021790555080600d600084815260200190815260200160002060008201518160000160006101000a81548173ffffffffffffffffffffffffffffffffffffffff021916908373ffffffffffffffffffffffffffffffffffffffff160217905550602082015181600101908051906020019061505d92919061525c565b5060408201518160020155606082015181600301556080820151816004015560a08201518160050160006101000a81548173ffffffffffffffffffffffffffffffffffffffff021916908373ffffffffffffffffffffffffffffffffffffffff1602179055509050505050565b6000806001600084815260200190815260200160002060009054906101000a900473ffffffffffffffffffffffffffffffffffffffff169050600073ffffffffffffffffffffffffffffffffffffffff168173ffffffffffffffffffffffffffffffffffffffff161415915050919050565b600073ffffffffffffffffffffffffffffffffffffffff166002600083815260200190815260200160002060009054906101000a900473ffffffffffffffffffffffffffffffffffffffff1673ffffffffffffffffffffffffffffffffffffffff16146151f75760006002600083815260200190815260200160002060006101000a81548173ffffffffffffffffffffffffffffffffffffffff021916908373ffffffffffffffffffffffffffffffffffffffff1602179055505b50565b6040518060c00160405280600073ffffffffffffffffffffffffffffffffffffffff16815260200160608152602001600081526020016000815260200160008152602001600073ffffffffffffffffffffffffffffffffffffffff1681525090565b8280548282559060005260206000209081019282156152d5579160200282015b828111156152d45782518260006101000a81548173ffffffffffffffffffffffffffffffffffffffff021916908373ffffffffffffffffffffffffffffffffffffffff1602179055509160200191906001019061527c565b5b5090506152e2919061536f565b5090565b6040518060a00160405280600081526020016000600881111561530557fe5b8152602001600015158152602001600060ff168152602001600060ff1681525090565b6040518060a00160405280600081526020016000815260200160008152602001600015158152602001600073ffffffffffffffffffffffffffffffffffffffff1681525090565b6153af91905b808211156153ab57600081816101000a81549073ffffffffffffffffffffffffffffffffffffffff021916905550600101615375565b5090565b9056fe6269646465722063616e6e6f7420626964206f6e207365766572616c2061756374696f6e7320696e207468652073616d652074696d657570646174656420626964206d757374206265207375706572696f7220746f2063757272656e742068696768657374206269645f6d79446f67206861766520746f206265206f776e65642062792073656e646572646f6720697320616c726561647920617661696c61626c6520746f206272656564746f6b656e206f776e65722063616e2774206265206d6573736167652073656e646572455243373231203a204f776e657220697320616c726561647920617070726f7665644552433732313a204f776e657220697320616c726561647920617070726f76656473656e646572206973206e6f742074686520636f72726563742061646472657373646f6773206861766520746f20626520617661696c61626c6520746f2062726565646e6f7420706f737369626c6520746f2062726565642073616d652073657820616e696d616c736d73672e76616c7565206d757374206265207375706572696f7220746f207468652068696768657374206269644552433732313a206275726e206f6620746f6b656e2074686174206973206e6f74206f776e63616e2774207472616e7366657220616e696d616c20776869636820697320696e2061756374696f6e6d6573736167652073656e646572206973206e6f74206f6e65206f662074686520746f6b656e206f776e65724552433732313a207472616e73666572206f6620746f6b656e2074686174206973206e6f74206f776e6564a265627a7a72315820d6590527127270788adebcf67912ead5fec179f663a5be7baddcff0635befd1c64736f6c634300050c0032608060405234801561001057600080fd5b50610f83806100206000396000f3fe60806040526004361061007b5760003560e01c806370a082311161004e57806370a0823114610232578063796db31214610297578063a22cb46514610312578063e985e9c51461036f5761007b565b8063081812fc14610080578063095ea7b3146100fb57806323b872dd146101495780636352211e146101b7575b600080fd5b34801561008c57600080fd5b506100b9600480360360208110156100a357600080fd5b81019080803590602001909291905050506103f8565b604051808273ffffffffffffffffffffffffffffffffffffffff1673ffffffffffffffffffffffffffffffffffffffff16815260200191505060405180910390f35b6101476004803603604081101561011157600080fd5b81019080803573ffffffffffffffffffffffffffffffffffffffff169060200190929190803590602001909291905050506104a4565b005b6101b56004803603606081101561015f57600080fd5b81019080803573ffffffffffffffffffffffffffffffffffffffff169060200190929190803573ffffffffffffffffffffffffffffffffffffffff169060200190929190803590602001909291905050506106bc565b005b3480156101c357600080fd5b506101f0600480360360208110156101da57600080fd5b8101908080359060200190929190505050610a91565b604051808273ffffffffffffffffffffffffffffffffffffffff1673ffffffffffffffffffffffffffffffffffffffff16815260200191505060405180910390f35b34801561023e57600080fd5b506102816004803603602081101561025557600080fd5b81019080803573ffffffffffffffffffffffffffffffffffffffff169060200190929190505050610ba6565b6040518082815260200191505060405180910390f35b3480156102a357600080fd5b506102d0600480360360208110156102ba57600080fd5b8101908080359060200190929190505050610c93565b604051808273ffffffffffffffffffffffffffffffffffffffff1673ffffffffffffffffffffffffffffffffffffffff16815260200191505060405180910390f35b34801561031e57600080fd5b5061036d6004803603604081101561033557600080fd5b81019080803573ffffffffffffffffffffffffffffffffffffffff169060200190929190803515159060200190929190505050610cc6565b005b34801561037b57600080fd5b506103de6004803603604081101561039257600080fd5b81019080803573ffffffffffffffffffffffffffffffffffffffff169060200190929190803573ffffffffffffffffffffffffffffffffffffffff169060200190929190505050610e4c565b604051808215151515815260200191505060405180910390f35b600081600073ffffffffffffffffffffffffffffffffffffffff166001600083815260200190815260200160002060009054906101000a900473ffffffffffffffffffffffffffffffffffffffff1673ffffffffffffffffffffffffffffffffffffffff16141561046857600080fd5b6002600084815260200190815260200160002060009054906101000a900473ffffffffffffffffffffffffffffffffffffffff16915050919050565b3373ffffffffffffffffffffffffffffffffffffffff168273ffffffffffffffffffffffffffffffffffffffff161415610529576040517f08c379a0000000000000000000000000000000000000000000000000000000008152600401808060200182810382526022815260200180610ee16022913960400191505060405180910390fd5b3373ffffffffffffffffffffffffffffffffffffffff166001600083815260200190815260200160002060009054906101000a900473ffffffffffffffffffffffffffffffffffffffff1673ffffffffffffffffffffffffffffffffffffffff1614806105cf57506105ce6001600083815260200190815260200160002060009054906101000a900473ffffffffffffffffffffffffffffffffffffffff1633610e4c565b5b6105d857600080fd5b816002600083815260200190815260200160002060006101000a81548173ffffffffffffffffffffffffffffffffffffffff021916908373ffffffffffffffffffffffffffffffffffffffff160217905550808273ffffffffffffffffffffffffffffffffffffffff166001600084815260200190815260200160002060009054906101000a900473ffffffffffffffffffffffffffffffffffffffff1673ffffffffffffffffffffffffffffffffffffffff167f8c5be1e5ebec7d5bd14f71427d1e84f3dd0314c0f7b2291e5b200ac8c7c3b92560405160405180910390a45050565b81600073ffffffffffffffffffffffffffffffffffffffff168173ffffffffffffffffffffffffffffffffffffffff161415610760576040517f08c379a00000000000000000000000000000000000000000000000000000000081526004018080602001828103825260188152602001807f6164647265737320307830206973206e6f742076616c6964000000000000000081525060200191505060405180910390fd5b81600073ffffffffffffffffffffffffffffffffffffffff166001600083815260200190815260200160002060009054906101000a900473ffffffffffffffffffffffffffffffffffffffff1673ffffffffffffffffffffffffffffffffffffffff1614156107ce57600080fd5b33838173ffffffffffffffffffffffffffffffffffffffff163373ffffffffffffffffffffffffffffffffffffffff16148061083d57508173ffffffffffffffffffffffffffffffffffffffff16610825826103f8565b73ffffffffffffffffffffffffffffffffffffffff16145b8061088157506108806001600083815260200190815260200160002060009054906101000a900473ffffffffffffffffffffffffffffffffffffffff1683610e4c565b5b61088a57600080fd5b8673ffffffffffffffffffffffffffffffffffffffff166001600087815260200190815260200160002060009054906101000a900473ffffffffffffffffffffffffffffffffffffffff1673ffffffffffffffffffffffffffffffffffffffff1614610941576040517f08c379a000000000000000000000000000000000000000000000000000000000815260040180806020018281038252602b815260200180610f24602b913960400191505060405180910390fd5b60016000808973ffffffffffffffffffffffffffffffffffffffff1673ffffffffffffffffffffffffffffffffffffffff1681526020019081526020016000206000828254039250508190555060016000808873ffffffffffffffffffffffffffffffffffffffff1673ffffffffffffffffffffffffffffffffffffffff16815260200190815260200160002060008282540192505081905550856001600087815260200190815260200160002060006101000a81548173ffffffffffffffffffffffffffffffffffffffff021916908373ffffffffffffffffffffffffffffffffffffffff160217905550848673ffffffffffffffffffffffffffffffffffffffff168873ffffffffffffffffffffffffffffffffffffffff167fddf252ad1be2c89b69c2b068fc378daa952ba7f163c4a11628f55a4df523b3ef60405160405180910390a450505050505050565b60006001600083815260200190815260200160002060009054906101000a900473ffffffffffffffffffffffffffffffffffffffff16600073ffffffffffffffffffffffffffffffffffffffff168173ffffffffffffffffffffffffffffffffffffffff161415610b6a576040517f08c379a00000000000000000000000000000000000000000000000000000000081526004018080602001828103825260188152602001807f6164647265737320307830206973206e6f742076616c6964000000000000000081525060200191505060405180910390fd5b6001600084815260200190815260200160002060009054906101000a900473ffffffffffffffffffffffffffffffffffffffff16915050919050565b600081600073ffffffffffffffffffffffffffffffffffffffff168173ffffffffffffffffffffffffffffffffffffffff161415610c4c576040517f08c379a00000000000000000000000000000000000000000000000000000000081526004018080602001828103825260188152602001807f6164647265737320307830206973206e6f742076616c6964000000000000000081525060200191505060405180910390fd5b6000808473ffffffffffffffffffffffffffffffffffffffff1673ffffffffffffffffffffffffffffffffffffffff16815260200190815260200160002054915050919050565b60016020528060005260406000206000915054906101000a900473ffffffffffffffffffffffffffffffffffffffff1681565b3373ffffffffffffffffffffffffffffffffffffffff168273ffffffffffffffffffffffffffffffffffffffff161415610d4b576040517f08c379a0000000000000000000000000000000000000000000000000000000008152600401808060200182810382526021815260200180610f036021913960400191505060405180910390fd5b80600360003373ffffffffffffffffffffffffffffffffffffffff1673ffffffffffffffffffffffffffffffffffffffff16815260200190815260200160002060008473ffffffffffffffffffffffffffffffffffffffff1673ffffffffffffffffffffffffffffffffffffffff16815260200190815260200160002060006101000a81548160ff0219169083151502179055508173ffffffffffffffffffffffffffffffffffffffff163373ffffffffffffffffffffffffffffffffffffffff167f17307eab39ab6107e8899845ad3d59bd9653f200f220920489ca2b5937696c3183604051808215151515815260200191505060405180910390a35050565b6000600360008473ffffffffffffffffffffffffffffffffffffffff1673ffffffffffffffffffffffffffffffffffffffff16815260200190815260200160002060008373ffffffffffffffffffffffffffffffffffffffff1673ffffffffffffffffffffffffffffffffffffffff16815260200190815260200160002060009054906101000a900460ff1690509291505056fe455243373231203a204f776e657220697320616c726561647920617070726f7665644552433732313a204f776e657220697320616c726561647920617070726f7665644552433732313a207472616e73666572206f6620746f6b656e2074686174206973206e6f74206f776e6564a265627a7a723158206a784257c34f68a1ad2d90531af64135e72ac26396daf2b8376bb782aa9ad7c664736f6c634300050c0032",
  "source": "pragma solidity ^0.5.12;\r\n\r\nimport \"./Breedding.sol\";\r\n\r\ncontract Arena is Breedding {\r\n\r\n\r\n\r\n\tmapping(uint256 => uint256) public fightProposition;\r\n\tmapping(uint256 => Fight) public fightsById; \r\n\r\n\t uint256 private _nonce;\r\n\r\n\r\n\r\n\tstruct Fight {\r\n\t\tuint256 dog1;\r\n\t\tuint256 dog2;\r\n\t\tuint256 bid;\r\n\t\tbool accepted;\r\n\t\taddress winner;\r\n\t}\r\n\r\n\r\n\r\n\r\n\tfunction proposeToFight(uint256 _myDog, uint256 _opponent) public payable {\r\n\t\trequire(ownerOf(_myDog) == msg.sender, \"_myDog have to be owned by sender\");\r\n\t\trequire(ownerOf(_opponent) != msg.sender, \"_opponent can't be from sender\");\r\n\t\trequire(dogsInAuction[_myDog] == false && dogsInAuction[_opponent] == false, \"dogs must not be in auction\");\r\n\t\trequire(msg.value > 0, \"value must be strictly positive\");\r\n\t\tfightProposition[_myDog] = _opponent;\r\n\t\tuint256 _bid = uint256(msg.value);\r\n\t\tFight memory fight = Fight(_myDog, _opponent, _bid, false, address(0));\r\n\t\tfightsById[_myDog] = fight;\r\n\r\n\r\n\t}\r\n\r\n\r\n\tfunction agreeToFight(uint256 _myDog, uint256 _opponent) public payable{\r\n\t\trequire(ownerOf(_myDog) == msg.sender);\r\n\t\trequire(fightProposition[_opponent] == _myDog);\r\n\t\trequire(fightsById[_opponent].bid ==uint256(msg.value));\r\n\t\trequire(fightsById[_opponent].accepted == false);\r\n\t\tfightProposition[_myDog] = _opponent;\r\n\t\tfightsById[_opponent].accepted = true;\r\n\r\n\t\tuint8 rand = _random();\r\n\r\n\t\tif(rand == 0) \r\n\t\t{\r\n\t\t\tfightsById[_opponent].winner = ownerOf(_myDog);\r\n\t\t\townerOf(_myDog).transfer(2*fightsById[_opponent].bid);\r\n\r\n\t\t}\r\n\t\telse \r\n\t\t{\r\n\t\t\tfightsById[_opponent].winner = ownerOf(_opponent);\r\n\t\t\townerOf(_opponent).transfer(2*fightsById[_opponent].bid);\r\n\t\t}\r\n\t}\r\n\r\n\r\n\r\n\r\n\r\n\tfunction _random() private returns (uint8 random) {\r\n       random = uint8(uint256(keccak256(abi.encodePacked(block.timestamp, _nonce, msg.sender)))%2);\r\n       _nonce++;\r\n       return random;\r\n\r\n   }\r\n   \r\n}",
  "sourcePath": "C:\\Users\\cleme\\Desktop\\smart_contracts_ethereum\\TD6\\contracts\\Arena.sol",
  "compiler": {
    "name": "solc",
    "version": "0.5.12+commit.7709ece9.Emscripten.clang"
  },
  "schemaVersion": "3.0.19",
  "updatedAt": "2019-11-24T18:10:25.983Z",
  "networkType": "ethereum",
  "devdoc": {
    "methods": {}
  },
  "userdoc": {
    "methods": {}
  }
}