{
  "contractName": "DogRegisterCoin",
  "abi": [
    {
      "constant": true,
      "inputs": [
        {
          "name": "_tokenId",
          "type": "uint256"
        }
      ],
      "name": "getApproved",
      "outputs": [
        {
          "name": "",
          "type": "address"
        }
      ],
      "payable": false,
      "stateMutability": "view",
      "type": "function"
    },
    {
      "constant": false,
      "inputs": [
        {
          "name": "_approved",
          "type": "address"
        },
        {
          "name": "_tokenId",
          "type": "uint256"
        }
      ],
      "name": "approve",
      "outputs": [],
      "payable": true,
      "stateMutability": "payable",
      "type": "function"
    },
    {
      "constant": true,
      "inputs": [
        {
          "name": "",
          "type": "uint256"
        }
      ],
      "name": "auction",
      "outputs": [
        {
          "name": "chairperson",
          "type": "address"
        },
        {
          "name": "startTime",
          "type": "uint256"
        },
        {
          "name": "startingPrice",
          "type": "uint256"
        },
        {
          "name": "highestBid",
          "type": "uint256"
        },
        {
          "name": "winner",
          "type": "address"
        }
      ],
      "payable": false,
      "stateMutability": "view",
      "type": "function"
    },
    {
      "constant": false,
      "inputs": [
        {
          "name": "_from",
          "type": "address"
        },
        {
          "name": "_to",
          "type": "address"
        },
        {
          "name": "_tokenId",
          "type": "uint256"
        }
      ],
      "name": "transferFrom",
      "outputs": [],
      "payable": true,
      "stateMutability": "payable",
      "type": "function"
    },
    {
      "constant": true,
      "inputs": [
        {
          "name": "",
          "type": "uint256"
        }
      ],
      "name": "dogsById",
      "outputs": [
        {
          "name": "id",
          "type": "uint256"
        },
        {
          "name": "race",
          "type": "uint8"
        },
        {
          "name": "isMale",
          "type": "bool"
        },
        {
          "name": "age",
          "type": "uint256"
        },
        {
          "name": "category",
          "type": "uint256"
        }
      ],
      "payable": false,
      "stateMutability": "view",
      "type": "function"
    },
    {
      "constant": true,
      "inputs": [
        {
          "name": "_address",
          "type": "address"
        }
      ],
      "name": "balanceOf",
      "outputs": [
        {
          "name": "",
          "type": "uint256"
        }
      ],
      "payable": false,
      "stateMutability": "view",
      "type": "function"
    },
    {
      "constant": true,
      "inputs": [
        {
          "name": "",
          "type": "uint256"
        }
      ],
      "name": "_tokenOwner",
      "outputs": [
        {
          "name": "",
          "type": "address"
        }
      ],
      "payable": false,
      "stateMutability": "view",
      "type": "function"
    },
    {
      "constant": true,
      "inputs": [
        {
          "name": "",
          "type": "uint256"
        }
      ],
      "name": "availableToBreed",
      "outputs": [
        {
          "name": "",
          "type": "bool"
        }
      ],
      "payable": false,
      "stateMutability": "view",
      "type": "function"
    },
    {
      "constant": true,
      "inputs": [],
      "name": "owner",
      "outputs": [
        {
          "name": "",
          "type": "address"
        }
      ],
      "payable": false,
      "stateMutability": "view",
      "type": "function"
    },
    {
      "constant": false,
      "inputs": [
        {
          "name": "_operator",
          "type": "address"
        },
        {
          "name": "_approved",
          "type": "bool"
        }
      ],
      "name": "setApprovalForAll",
      "outputs": [],
      "payable": false,
      "stateMutability": "nonpayable",
      "type": "function"
    },
    {
      "constant": true,
      "inputs": [
        {
          "name": "",
          "type": "uint256"
        }
      ],
      "name": "dogsInAuction",
      "outputs": [
        {
          "name": "",
          "type": "bool"
        }
      ],
      "payable": false,
      "stateMutability": "view",
      "type": "function"
    },
    {
      "constant": true,
      "inputs": [
        {
          "name": "",
          "type": "address"
        }
      ],
      "name": "_whitelist",
      "outputs": [
        {
          "name": "",
          "type": "bool"
        }
      ],
      "payable": false,
      "stateMutability": "view",
      "type": "function"
    },
    {
      "constant": true,
      "inputs": [
        {
          "name": "_owner",
          "type": "address"
        },
        {
          "name": "_operator",
          "type": "address"
        }
      ],
      "name": "isApprovedForAll",
      "outputs": [
        {
          "name": "",
          "type": "bool"
        }
      ],
      "payable": false,
      "stateMutability": "view",
      "type": "function"
    },
    {
      "inputs": [],
      "payable": false,
      "stateMutability": "nonpayable",
      "type": "constructor"
    },
    {
      "anonymous": false,
      "inputs": [
        {
          "indexed": true,
          "name": "_from",
          "type": "address"
        },
        {
          "indexed": true,
          "name": "_to",
          "type": "address"
        },
        {
          "indexed": true,
          "name": "_tokenId",
          "type": "uint256"
        }
      ],
      "name": "Transfer",
      "type": "event"
    },
    {
      "anonymous": false,
      "inputs": [
        {
          "indexed": true,
          "name": "_owner",
          "type": "address"
        },
        {
          "indexed": true,
          "name": "_approved",
          "type": "address"
        },
        {
          "indexed": true,
          "name": "_tokenId",
          "type": "uint256"
        }
      ],
      "name": "Approval",
      "type": "event"
    },
    {
      "anonymous": false,
      "inputs": [
        {
          "indexed": true,
          "name": "_owner",
          "type": "address"
        },
        {
          "indexed": true,
          "name": "_operator",
          "type": "address"
        },
        {
          "indexed": false,
          "name": "_approved",
          "type": "bool"
        }
      ],
      "name": "ApprovalForAll",
      "type": "event"
    },
    {
      "constant": true,
      "inputs": [],
      "name": "contractBalance",
      "outputs": [
        {
          "name": "",
          "type": "uint256"
        }
      ],
      "payable": false,
      "stateMutability": "view",
      "type": "function"
    },
    {
      "constant": false,
      "inputs": [
        {
          "name": "_breeder",
          "type": "address"
        }
      ],
      "name": "registerBreeder",
      "outputs": [],
      "payable": false,
      "stateMutability": "nonpayable",
      "type": "function"
    },
    {
      "constant": false,
      "inputs": [
        {
          "name": "_breeder",
          "type": "address"
        },
        {
          "name": "_race",
          "type": "uint8"
        },
        {
          "name": "_isMale",
          "type": "bool"
        },
        {
          "name": "_age",
          "type": "uint256"
        },
        {
          "name": "_category",
          "type": "uint256"
        }
      ],
      "name": "declareAnimal",
      "outputs": [
        {
          "name": "",
          "type": "bool"
        }
      ],
      "payable": false,
      "stateMutability": "nonpayable",
      "type": "function"
    },
    {
      "constant": false,
      "inputs": [
        {
          "name": "_tokenId",
          "type": "uint256"
        }
      ],
      "name": "deadAnimal",
      "outputs": [],
      "payable": false,
      "stateMutability": "nonpayable",
      "type": "function"
    },
    {
      "constant": false,
      "inputs": [
        {
          "name": "_dogId1",
          "type": "uint256"
        },
        {
          "name": "_dogId2",
          "type": "uint256"
        }
      ],
      "name": "breedAnimal",
      "outputs": [],
      "payable": false,
      "stateMutability": "nonpayable",
      "type": "function"
    },
    {
      "constant": false,
      "inputs": [
        {
          "name": "_dogId",
          "type": "uint256"
        }
      ],
      "name": "proposeToBreed",
      "outputs": [],
      "payable": false,
      "stateMutability": "nonpayable",
      "type": "function"
    },
    {
      "constant": true,
      "inputs": [
        {
          "name": "_id",
          "type": "uint256"
        }
      ],
      "name": "getHighestBid",
      "outputs": [
        {
          "name": "",
          "type": "uint256"
        }
      ],
      "payable": false,
      "stateMutability": "view",
      "type": "function"
    },
    {
      "constant": false,
      "inputs": [
        {
          "name": "_id",
          "type": "uint256"
        },
        {
          "name": "_startingPrice",
          "type": "uint256"
        }
      ],
      "name": "createAuction",
      "outputs": [],
      "payable": false,
      "stateMutability": "nonpayable",
      "type": "function"
    },
    {
      "constant": false,
      "inputs": [
        {
          "name": "_id",
          "type": "uint256"
        }
      ],
      "name": "bidAuction",
      "outputs": [],
      "payable": true,
      "stateMutability": "payable",
      "type": "function"
    },
    {
      "constant": false,
      "inputs": [
        {
          "name": "_id",
          "type": "uint256"
        }
      ],
      "name": "updateBid",
      "outputs": [],
      "payable": true,
      "stateMutability": "payable",
      "type": "function"
    },
    {
      "constant": false,
      "inputs": [
        {
          "name": "_id",
          "type": "uint256"
        }
      ],
      "name": "claimAuction",
      "outputs": [],
      "payable": false,
      "stateMutability": "nonpayable",
      "type": "function"
    },
    {
      "constant": false,
      "inputs": [
        {
          "name": "_from",
          "type": "address"
        },
        {
          "name": "_to",
          "type": "address"
        },
        {
          "name": "_id",
          "type": "uint256"
        }
      ],
      "name": "TransferAnimal",
      "outputs": [],
      "payable": false,
      "stateMutability": "nonpayable",
      "type": "function"
    }
  ],
  "bytecode": "0x60806040523480156200001157600080fd5b506200001c620000c1565b604051809103906000f08015801562000039573d6000803e3d6000fd5b50600460006101000a81548173ffffffffffffffffffffffffffffffffffffffff021916908373ffffffffffffffffffffffffffffffffffffffff16021790555033600560006101000a81548173ffffffffffffffffffffffffffffffffffffffff021916908373ffffffffffffffffffffffffffffffffffffffff160217905550620000d2565b604051610e7f8062003a4283390190565b61396080620000e26000396000f3fe608060405260043610610149576000357c0100000000000000000000000000000000000000000000000000000000900463ffffffff1680630121683f1461014e578063081812fc14610193578063095ea7b31461020e5780631200617f1461025c57806323b872dd1461031f57806324d89bd21461038d5780633948313b146104235780634065cc671461049e57806343129de11461051b578063476fd474146105495780635e6bab681461059a57806364a7d7c7146105df57806370a082311461060d578063796db312146106725780637dcdf9be146106ed57806386f253aa146107285780638b7afe2e1461077b5780638da5cb5b146107a65780638f288644146107fd5780639aafc6c91461084c578063a22cb46514610887578063ce6cc0fb146108e4578063cfdb63ac14610937578063e985e9c5146109a0578063ec9b6db914610a29575b600080fd5b34801561015a57600080fd5b506101916004803603604081101561017157600080fd5b810190808035906020019092919080359060200190929190505050610a64565b005b34801561019f57600080fd5b506101cc600480360360208110156101b657600080fd5b8101908080359060200190929190505050610cf2565b604051808273ffffffffffffffffffffffffffffffffffffffff1673ffffffffffffffffffffffffffffffffffffffff16815260200191505060405180910390f35b61025a6004803603604081101561022457600080fd5b81019080803573ffffffffffffffffffffffffffffffffffffffff16906020019092919080359060200190929190505050610da0565b005b34801561026857600080fd5b506102956004803603602081101561027f57600080fd5b8101908080359060200190929190505050610fff565b604051808673ffffffffffffffffffffffffffffffffffffffff1673ffffffffffffffffffffffffffffffffffffffff1681526020018581526020018481526020018381526020018273ffffffffffffffffffffffffffffffffffffffff1673ffffffffffffffffffffffffffffffffffffffff1681526020019550505050505060405180910390f35b61038b6004803603606081101561033557600080fd5b81019080803573ffffffffffffffffffffffffffffffffffffffff169060200190929190803573ffffffffffffffffffffffffffffffffffffffff16906020019092919080359060200190929190505050611075565b005b34801561039957600080fd5b50610409600480360360a08110156103b057600080fd5b81019080803573ffffffffffffffffffffffffffffffffffffffff169060200190929190803560ff1690602001909291908035151590602001909291908035906020019092919080359060200190929190505050611495565b604051808215151515815260200191505060405180910390f35b34801561042f57600080fd5b5061049c6004803603606081101561044657600080fd5b81019080803573ffffffffffffffffffffffffffffffffffffffff169060200190929190803573ffffffffffffffffffffffffffffffffffffffff1690602001909291908035906020019092919050505061176c565b005b3480156104aa57600080fd5b506104d7600480360360208110156104c157600080fd5b810190808035906020019092919050505061195f565b604051808681526020018560088111156104ed57fe5b60ff168152602001841515151581526020018381526020018281526020019550505050505060405180910390f35b6105476004803603602081101561053157600080fd5b81019080803590602001909291905050506119af565b005b34801561055557600080fd5b506105986004803603602081101561056c57600080fd5b81019080803573ffffffffffffffffffffffffffffffffffffffff169060200190929190505050611a64565b005b3480156105a657600080fd5b506105dd600480360360408110156105bd57600080fd5b810190808035906020019092919080359060200190929190505050611c8a565b005b61060b600480360360208110156105f557600080fd5b810190808035906020019092919050505061201a565b005b34801561061957600080fd5b5061065c6004803603602081101561063057600080fd5b81019080803573ffffffffffffffffffffffffffffffffffffffff16906020019092919050505061235b565b6040518082815260200191505060405180910390f35b34801561067e57600080fd5b506106ab6004803603602081101561069557600080fd5b810190808035906020019092919050505061244a565b604051808273ffffffffffffffffffffffffffffffffffffffff1673ffffffffffffffffffffffffffffffffffffffff16815260200191505060405180910390f35b3480156106f957600080fd5b506107266004803603602081101561071057600080fd5b810190808035906020019092919050505061247d565b005b34801561073457600080fd5b506107616004803603602081101561074b57600080fd5b8101908080359060200190929190505050612619565b604051808215151515815260200191505060405180910390f35b34801561078757600080fd5b50610790612639565b6040518082815260200191505060405180910390f35b3480156107b257600080fd5b506107bb612658565b604051808273ffffffffffffffffffffffffffffffffffffffff1673ffffffffffffffffffffffffffffffffffffffff16815260200191505060405180910390f35b34801561080957600080fd5b506108366004803603602081101561082057600080fd5b810190808035906020019092919050505061267e565b6040518082815260200191505060405180910390f35b34801561085857600080fd5b506108856004803603602081101561086f57600080fd5b810190808035906020019092919050505061269e565b005b34801561089357600080fd5b506108e2600480360360408110156108aa57600080fd5b81019080803573ffffffffffffffffffffffffffffffffffffffff1690602001909291908035151590602001909291905050506128ce565b005b3480156108f057600080fd5b5061091d6004803603602081101561090757600080fd5b8101908080359060200190929190505050612a99565b604051808215151515815260200191505060405180910390f35b34801561094357600080fd5b506109866004803603602081101561095a57600080fd5b81019080803573ffffffffffffffffffffffffffffffffffffffff169060200190929190505050612ab9565b604051808215151515815260200191505060405180910390f35b3480156109ac57600080fd5b50610a0f600480360360408110156109c357600080fd5b81019080803573ffffffffffffffffffffffffffffffffffffffff169060200190929190803573ffffffffffffffffffffffffffffffffffffffff169060200190929190505050612ad9565b604051808215151515815260200191505060405180910390f35b348015610a3557600080fd5b50610a6260048036036020811015610a4c57600080fd5b8101908080359060200190929190505050612b6d565b005b3373ffffffffffffffffffffffffffffffffffffffff166001600084815260200190815260200160002060009054906101000a900473ffffffffffffffffffffffffffffffffffffffff1673ffffffffffffffffffffffffffffffffffffffff161480610b0457503073ffffffffffffffffffffffffffffffffffffffff16610aec83612c84565b73ffffffffffffffffffffffffffffffffffffffff16145b1515610b9e576040517f08c379a000000000000000000000000000000000000000000000000000000000815260040180806020018281038252602c8152602001807f73656e646572206973206e6f7420746f6b656e206f776e6572206e6f7220636f81526020017f6e7472616374206f776e6572000000000000000000000000000000000000000081525060400191505060405180910390fd5b610ba661389b565b60a0604051908101604052803373ffffffffffffffffffffffffffffffffffffffff16815260200142815260200160008152602001838152602001600073ffffffffffffffffffffffffffffffffffffffff1681525090506001600b600085815260200190815260200160002060006101000a81548160ff02191690831515021790555080600c600085815260200190815260200160002060008201518160000160006101000a81548173ffffffffffffffffffffffffffffffffffffffff021916908373ffffffffffffffffffffffffffffffffffffffff16021790555060208201518160010155604082015181600201556060820151816003015560808201518160040160006101000a81548173ffffffffffffffffffffffffffffffffffffffff021916908373ffffffffffffffffffffffffffffffffffffffff160217905550905050505050565b600081600073ffffffffffffffffffffffffffffffffffffffff166001600083815260200190815260200160002060009054906101000a900473ffffffffffffffffffffffffffffffffffffffff1673ffffffffffffffffffffffffffffffffffffffff1614151515610d6457600080fd5b6002600084815260200190815260200160002060009054906101000a900473ffffffffffffffffffffffffffffffffffffffff16915050919050565b3373ffffffffffffffffffffffffffffffffffffffff168273ffffffffffffffffffffffffffffffffffffffff1614151515610e6a576040517f08c379a00000000000000000000000000000000000000000000000000000000081526004018080602001828103825260228152602001807f455243373231203a204f776e657220697320616c726561647920617070726f7681526020017f656400000000000000000000000000000000000000000000000000000000000081525060400191505060405180910390fd5b3373ffffffffffffffffffffffffffffffffffffffff166001600083815260200190815260200160002060009054906101000a900473ffffffffffffffffffffffffffffffffffffffff1673ffffffffffffffffffffffffffffffffffffffff161480610f105750610f0f6001600083815260200190815260200160002060009054906101000a900473ffffffffffffffffffffffffffffffffffffffff1633612ad9565b5b1515610f1b57600080fd5b816002600083815260200190815260200160002060006101000a81548173ffffffffffffffffffffffffffffffffffffffff021916908373ffffffffffffffffffffffffffffffffffffffff160217905550808273ffffffffffffffffffffffffffffffffffffffff166001600084815260200190815260200160002060009054906101000a900473ffffffffffffffffffffffffffffffffffffffff1673ffffffffffffffffffffffffffffffffffffffff167f8c5be1e5ebec7d5bd14f71427d1e84f3dd0314c0f7b2291e5b200ac8c7c3b92560405160405180910390a45050565b600c6020528060005260406000206000915090508060000160009054906101000a900473ffffffffffffffffffffffffffffffffffffffff16908060010154908060020154908060030154908060040160009054906101000a900473ffffffffffffffffffffffffffffffffffffffff16905085565b81600073ffffffffffffffffffffffffffffffffffffffff168173ffffffffffffffffffffffffffffffffffffffff161415151561111b576040517f08c379a00000000000000000000000000000000000000000000000000000000081526004018080602001828103825260188152602001807f6164647265737320307830206973206e6f742076616c6964000000000000000081525060200191505060405180910390fd5b81600073ffffffffffffffffffffffffffffffffffffffff166001600083815260200190815260200160002060009054906101000a900473ffffffffffffffffffffffffffffffffffffffff1673ffffffffffffffffffffffffffffffffffffffff161415151561118b57600080fd5b33838173ffffffffffffffffffffffffffffffffffffffff163373ffffffffffffffffffffffffffffffffffffffff1614806111fa57508173ffffffffffffffffffffffffffffffffffffffff166111e282610cf2565b73ffffffffffffffffffffffffffffffffffffffff16145b8061123e575061123d6001600083815260200190815260200160002060009054906101000a900473ffffffffffffffffffffffffffffffffffffffff1683612ad9565b5b151561124957600080fd5b8673ffffffffffffffffffffffffffffffffffffffff166001600087815260200190815260200160002060009054906101000a900473ffffffffffffffffffffffffffffffffffffffff1673ffffffffffffffffffffffffffffffffffffffff16141515611345576040517f08c379a000000000000000000000000000000000000000000000000000000000815260040180806020018281038252602b8152602001807f4552433732313a207472616e73666572206f6620746f6b656e2074686174206981526020017f73206e6f74206f776e656400000000000000000000000000000000000000000081525060400191505060405180910390fd5b60016000808973ffffffffffffffffffffffffffffffffffffffff1673ffffffffffffffffffffffffffffffffffffffff1681526020019081526020016000206000828254039250508190555060016000808873ffffffffffffffffffffffffffffffffffffffff1673ffffffffffffffffffffffffffffffffffffffff16815260200190815260200160002060008282540192505081905550856001600087815260200190815260200160002060006101000a81548173ffffffffffffffffffffffffffffffffffffffff021916908373ffffffffffffffffffffffffffffffffffffffff160217905550848673ffffffffffffffffffffffffffffffffffffffff168873ffffffffffffffffffffffffffffffffffffffff167fddf252ad1be2c89b69c2b068fc378daa952ba7f163c4a11628f55a4df523b3ef60405160405180910390a450505050505050565b600085600073ffffffffffffffffffffffffffffffffffffffff168173ffffffffffffffffffffffffffffffffffffffff161415151561153d576040517f08c379a00000000000000000000000000000000000000000000000000000000081526004018080602001828103825260188152602001807f6164647265737320307830206973206e6f742076616c6964000000000000000081525060200191505060405180910390fd5b6006600081548092919060010191905055506115576138f7565b60a060405190810160405280600654815260200188600881111561157757fe5b81526020018715158152602001868152602001858152509050600860008973ffffffffffffffffffffffffffffffffffffffff1673ffffffffffffffffffffffffffffffffffffffff16815260200190815260200160002081908060018154018082558091505090600182039060005260206000209060040201600090919290919091506000820151816000015560208201518160010160006101000a81548160ff0219169083600881111561162957fe5b021790555060408201518160010160016101000a81548160ff0219169083151502179055506060820151816002015560808201518160030155505050806009600060065481526020019081526020016000206000820151816000015560208201518160010160006101000a81548160ff021916908360088111156116a957fe5b021790555060408201518160010160016101000a81548160ff02191690831515021790555060608201518160020155608082015181600301559050503073ffffffffffffffffffffffffffffffffffffffff168873ffffffffffffffffffffffffffffffffffffffff161415611755576001600b6000600654815260200190815260200160002060006101000a81548160ff0219169083151502179055506117546006546005610a64565b5b61176188600654612d9b565b505095945050505050565b8273ffffffffffffffffffffffffffffffffffffffff1661178c82612c84565b73ffffffffffffffffffffffffffffffffffffffff161415156117ae57600080fd5b60001515600b600083815260200190815260200160002060009054906101000a900460ff1615151415156117e157600080fd5b60011515600760008473ffffffffffffffffffffffffffffffffffffffff1673ffffffffffffffffffffffffffffffffffffffff16815260200190815260200160002060009054906101000a900460ff16151514151561184057600080fd5b61184981612fbd565b600460009054906101000a900473ffffffffffffffffffffffffffffffffffffffff1673ffffffffffffffffffffffffffffffffffffffff166323b872dd8484846040518463ffffffff167c0100000000000000000000000000000000000000000000000000000000028152600401808473ffffffffffffffffffffffffffffffffffffffff1673ffffffffffffffffffffffffffffffffffffffff1681526020018373ffffffffffffffffffffffffffffffffffffffff1673ffffffffffffffffffffffffffffffffffffffff1681526020018281526020019350505050600060405180830381600087803b15801561194257600080fd5b505af1158015611956573d6000803e3d6000fd5b50505050505050565b60096020528060005260406000206000915090508060000154908060010160009054906101000a900460ff16908060010160019054906101000a900460ff16908060020154908060030154905085565b600c60008281526020019081526020016000206003015434600d60003373ffffffffffffffffffffffffffffffffffffffff1673ffffffffffffffffffffffffffffffffffffffff1681526020019081526020016000205401111515611a1457600080fd5b34600d60003373ffffffffffffffffffffffffffffffffffffffff1673ffffffffffffffffffffffffffffffffffffffff1681526020019081526020016000206000828254019250508190555050565b80600073ffffffffffffffffffffffffffffffffffffffff168173ffffffffffffffffffffffffffffffffffffffff1614151515611b0a576040517f08c379a00000000000000000000000000000000000000000000000000000000081526004018080602001828103825260188152602001807f6164647265737320307830206973206e6f742076616c6964000000000000000081525060200191505060405180910390fd5b600560009054906101000a900473ffffffffffffffffffffffffffffffffffffffff1673ffffffffffffffffffffffffffffffffffffffff163373ffffffffffffffffffffffffffffffffffffffff16141515611b6657600080fd5b60001515600760008473ffffffffffffffffffffffffffffffffffffffff1673ffffffffffffffffffffffffffffffffffffffff16815260200190815260200160002060009054906101000a900460ff161515141515611c2e576040517f08c379a000000000000000000000000000000000000000000000000000000000815260040180806020018281038252601a8152602001807f6272656564657220616c7265616479207265676973746572656400000000000081525060200191505060405180910390fd5b6001600760008473ffffffffffffffffffffffffffffffffffffffff1673ffffffffffffffffffffffffffffffffffffffff16815260200190815260200160002060006101000a81548160ff0219169083151502179055505050565b600115156009600084815260200190815260200160002060010160019054906101000a900460ff161515148015611ce85750600015156009600083815260200190815260200160002060010160019054906101000a900460ff161515145b80611d4d5750600015156009600084815260200190815260200160002060010160019054906101000a900460ff161515148015611d4c5750600115156009600083815260200190815260200160002060010160019054906101000a900460ff161515145b5b1515611de7576040517f08c379a00000000000000000000000000000000000000000000000000000000081526004018080602001828103825260268152602001807f6e6f7420706f737369626c6520746f2062726565642073616d6520736578206181526020017f6e696d616c73000000000000000000000000000000000000000000000000000081525060400191505060405180910390fd5b611df133836130e7565b80611e025750611e0133826130e7565b5b1515611e9c576040517f08c379a000000000000000000000000000000000000000000000000000000000815260040180806020018281038252602c8152602001807f6d6573736167652073656e646572206973206e6f74206f6e65206f662074686581526020017f20746f6b656e206f776e6572000000000000000000000000000000000000000081525060400191505060405180910390fd5b600a600083815260200190815260200160002060009054906101000a900460ff168015611ee65750600a600082815260200190815260200160002060009054906101000a900460ff165b1515611f80576040517f08c379a00000000000000000000000000000000000000000000000000000000081526004018080602001828103825260228152602001807f646f6773206861766520746f20626520617661696c61626c6520746f2062726581526020017f656400000000000000000000000000000000000000000000000000000000000081525060400191505060405180910390fd5b6000611f8c83836131bd565b9050600060026009600085815260200190815260200160002060030154600960008781526020019081526020016000206003015401811515611fca57fe5b049050611fd733856130e7565b8015611fe95750611fe833846130e7565b5b1561200357611ffd33836001600085611495565b50612014565b61201230836001600085611495565b505b50505050565b3373ffffffffffffffffffffffffffffffffffffffff166001600083815260200190815260200160002060009054906101000a900473ffffffffffffffffffffffffffffffffffffffff1673ffffffffffffffffffffffffffffffffffffffff1614151515612117576040517f08c379a00000000000000000000000000000000000000000000000000000000081526004018080602001828103825260238152602001807f746f6b656e206f776e65722063616e2774206265206d6573736167652073656e81526020017f646572000000000000000000000000000000000000000000000000000000000081525060400191505060405180910390fd5b60011515600b600083815260200190815260200160002060009054906101000a900460ff1615151415156121b3576040517f08c379a00000000000000000000000000000000000000000000000000000000081526004018080602001828103825260158152602001807f646f67206973206e6f7420696e2061756374696f6e000000000000000000000081525060200191505060405180910390fd5b600c60008281526020019081526020016000206003015434111515612266576040517f08c379a000000000000000000000000000000000000000000000000000000000815260040180806020018281038252602d8152602001807f6d73672e76616c7565206d757374206265207375706572696f7220746f20746881526020017f652068696768657374206269640000000000000000000000000000000000000081525060400191505060405180910390fd5b426202a300600c60008481526020019081526020016000206001015401101515156122f9576040517f08c379a00000000000000000000000000000000000000000000000000000000081526004018080602001828103825260138152602001807f61756374696f6e2069732066696e69736865640000000000000000000000000081525060200191505060405180910390fd5b34600d60003373ffffffffffffffffffffffffffffffffffffffff1673ffffffffffffffffffffffffffffffffffffffff1681526020019081526020016000208190555034600c60008381526020019081526020016000206003018190555050565b600081600073ffffffffffffffffffffffffffffffffffffffff168173ffffffffffffffffffffffffffffffffffffffff1614151515612403576040517f08c379a00000000000000000000000000000000000000000000000000000000081526004018080602001828103825260188152602001807f6164647265737320307830206973206e6f742076616c6964000000000000000081525060200191505060405180910390fd5b6000808473ffffffffffffffffffffffffffffffffffffffff1673ffffffffffffffffffffffffffffffffffffffff16815260200190815260200160002054915050919050565b60016020528060005260406000206000915054906101000a900473ffffffffffffffffffffffffffffffffffffffff1681565b61248681612c84565b73ffffffffffffffffffffffffffffffffffffffff163373ffffffffffffffffffffffffffffffffffffffff16141515612528576040517f08c379a00000000000000000000000000000000000000000000000000000000081526004018080602001828103825260198152602001807f73656e646572206973206e6f7420746f6b656e206f776e65720000000000000081525060200191505060405180910390fd5b60001515600a600083815260200190815260200160002060009054906101000a900460ff1615151415156125ea576040517f08c379a00000000000000000000000000000000000000000000000000000000081526004018080602001828103825260218152602001807f646f6720697320616c726561647920617661696c61626c6520746f206272656581526020017f640000000000000000000000000000000000000000000000000000000000000081525060400191505060405180910390fd5b6001600a600083815260200190815260200160002060006101000a81548160ff02191690831515021790555050565b600a6020528060005260406000206000915054906101000a900460ff1681565b60003073ffffffffffffffffffffffffffffffffffffffff1631905090565b600560009054906101000a900473ffffffffffffffffffffffffffffffffffffffff1681565b6000600c6000838152602001908152602001600020600301549050919050565b60011515600b600083815260200190815260200160002060009054906101000a900460ff1615151415156126d157600080fd5b6202a300600c60008381526020019081526020016000206001015401421115156126fa57600080fd5b600c600082815260200190815260200160002060030154600d60003373ffffffffffffffffffffffffffffffffffffffff1673ffffffffffffffffffffffffffffffffffffffff1681526020019081526020016000205414151561275d57600080fd5b600460009054906101000a900473ffffffffffffffffffffffffffffffffffffffff1673ffffffffffffffffffffffffffffffffffffffff166323b872dd6127a483612c84565b33846040518463ffffffff167c0100000000000000000000000000000000000000000000000000000000028152600401808473ffffffffffffffffffffffffffffffffffffffff1673ffffffffffffffffffffffffffffffffffffffff1681526020018373ffffffffffffffffffffffffffffffffffffffff1673ffffffffffffffffffffffffffffffffffffffff1681526020018281526020019350505050600060405180830381600087803b15801561285e57600080fd5b505af1158015612872573d6000803e3d6000fd5b5050505033600c600083815260200190815260200160002060040160006101000a81548173ffffffffffffffffffffffffffffffffffffffff021916908373ffffffffffffffffffffffffffffffffffffffff16021790555050565b3373ffffffffffffffffffffffffffffffffffffffff168273ffffffffffffffffffffffffffffffffffffffff1614151515612998576040517f08c379a00000000000000000000000000000000000000000000000000000000081526004018080602001828103825260218152602001807f4552433732313a204f776e657220697320616c726561647920617070726f766581526020017f640000000000000000000000000000000000000000000000000000000000000081525060400191505060405180910390fd5b80600360003373ffffffffffffffffffffffffffffffffffffffff1673ffffffffffffffffffffffffffffffffffffffff16815260200190815260200160002060008473ffffffffffffffffffffffffffffffffffffffff1673ffffffffffffffffffffffffffffffffffffffff16815260200190815260200160002060006101000a81548160ff0219169083151502179055508173ffffffffffffffffffffffffffffffffffffffff163373ffffffffffffffffffffffffffffffffffffffff167f17307eab39ab6107e8899845ad3d59bd9653f200f220920489ca2b5937696c3183604051808215151515815260200191505060405180910390a35050565b600b6020528060005260406000206000915054906101000a900460ff1681565b60076020528060005260406000206000915054906101000a900460ff1681565b6000600360008473ffffffffffffffffffffffffffffffffffffffff1673ffffffffffffffffffffffffffffffffffffffff16815260200190815260200160002060008373ffffffffffffffffffffffffffffffffffffffff1673ffffffffffffffffffffffffffffffffffffffff16815260200190815260200160002060009054906101000a900460ff16905092915050565b612b7681612c84565b73ffffffffffffffffffffffffffffffffffffffff163373ffffffffffffffffffffffffffffffffffffffff16141515612c18576040517f08c379a00000000000000000000000000000000000000000000000000000000081526004018080602001828103825260198152602001807f73656e646572206973206e6f7420746f6b656e206f776e65720000000000000081525060200191505060405180910390fd5b612c223382613564565b600960008281526020019081526020016000206000808201600090556001820160006101000a81549060ff02191690556001820160016101000a81549060ff0219169055600282016000905560038201600090555050612c8181612fbd565b50565b60006001600083815260200190815260200160002060009054906101000a900473ffffffffffffffffffffffffffffffffffffffff16600073ffffffffffffffffffffffffffffffffffffffff168173ffffffffffffffffffffffffffffffffffffffff1614151515612d5f576040517f08c379a00000000000000000000000000000000000000000000000000000000081526004018080602001828103825260188152602001807f6164647265737320307830206973206e6f742076616c6964000000000000000081525060200191505060405180910390fd5b6001600084815260200190815260200160002060009054906101000a900473ffffffffffffffffffffffffffffffffffffffff16915050919050565b600073ffffffffffffffffffffffffffffffffffffffff168273ffffffffffffffffffffffffffffffffffffffff1614151515612e40576040517f08c379a00000000000000000000000000000000000000000000000000000000081526004018080602001828103825260208152602001807f4552433732313a206d696e7420746f20746865207a65726f206164647265737381525060200191505060405180910390fd5b612e4981613769565b151515612ebe576040517f08c379a000000000000000000000000000000000000000000000000000000000815260040180806020018281038252601c8152602001807f4552433732313a20746f6b656e20616c7265616479206d696e7465640000000081525060200191505060405180910390fd5b816001600083815260200190815260200160002060006101000a81548173ffffffffffffffffffffffffffffffffffffffff021916908373ffffffffffffffffffffffffffffffffffffffff16021790555060016000808473ffffffffffffffffffffffffffffffffffffffff1673ffffffffffffffffffffffffffffffffffffffff16815260200190815260200160002060008282540192505081905550808273ffffffffffffffffffffffffffffffffffffffff16600073ffffffffffffffffffffffffffffffffffffffff167fddf252ad1be2c89b69c2b068fc378daa952ba7f163c4a11628f55a4df523b3ef60405160405180910390a45050565b60008090505b8160086000612fd185612c84565b73ffffffffffffffffffffffffffffffffffffffff1673ffffffffffffffffffffffffffffffffffffffff1681526020019081526020016000208281548110151561301857fe5b90600052602060002090600402016000015414151561303e578080600101915050612fc3565b6008600061304b84612c84565b73ffffffffffffffffffffffffffffffffffffffff1673ffffffffffffffffffffffffffffffffffffffff1681526020019081526020016000208181548110151561309257fe5b90600052602060002090600402016000808201600090556001820160006101000a81549060ff02191690556001820160016101000a81549060ff02191690556002820160009055600382016000905550505050565b600080905060008090505b600860008573ffffffffffffffffffffffffffffffffffffffff1673ffffffffffffffffffffffffffffffffffffffff168152602001908152602001600020805490508110156131b35782600860008673ffffffffffffffffffffffffffffffffffffffff1673ffffffffffffffffffffffffffffffffffffffff1681526020019081526020016000208281548110151561318957fe5b90600052602060002090600402016000015414156131a657600191505b80806001019150506130f2565b5080905092915050565b60006131c76138f7565b6009600085815260200190815260200160002060a06040519081016040529081600082015481526020016001820160009054906101000a900460ff16600881111561320e57fe5b600881111561321957fe5b81526020016001820160019054906101000a900460ff161515151581526020016002820154815260200160038201548152505090506132566138f7565b6009600085815260200190815260200160002060a06040519081016040529081600082015481526020016001820160009054906101000a900460ff16600881111561329d57fe5b60088111156132a857fe5b81526020016001820160019054906101000a900460ff16151515158152602001600282015481526020016003820154815250509050600060088111156132ea57fe5b826020015160088111156132fa57fe5b14801561332157506001600881111561330f57fe5b8160200151600881111561331f57fe5b145b8061336c57506001600881111561333457fe5b8260200151600881111561334457fe5b14801561336b57506000600881111561335957fe5b8160200151600881111561336957fe5b145b5b1561337a5760059250613559565b6001600881111561338757fe5b8260200151600881111561339757fe5b1480156133be5750600460088111156133ac57fe5b816020015160088111156133bc57fe5b145b806134095750600460088111156133d157fe5b826020015160088111156133e157fe5b1480156134085750600160088111156133f657fe5b8160200151600881111561340657fe5b145b5b156134175760069250613558565b6002600881111561342457fe5b8260200151600881111561343457fe5b14801561345b57506003600881111561344957fe5b8160200151600881111561345957fe5b145b806134a657506003600881111561346e57fe5b8260200151600881111561347e57fe5b1480156134a557506002600881111561349357fe5b816020015160088111156134a357fe5b145b5b156134b45760019250613557565b600060088111156134c157fe5b826020015160088111156134d157fe5b1480156134f85750600460088111156134e657fe5b816020015160088111156134f657fe5b145b8061354357506004600881111561350b57fe5b8260200151600881111561351b57fe5b14801561354257506000600881111561353057fe5b8160200151600881111561354057fe5b145b5b156135515760079250613556565b600892505b5b5b5b829250505092915050565b8173ffffffffffffffffffffffffffffffffffffffff166001600083815260200190815260200160002060009054906101000a900473ffffffffffffffffffffffffffffffffffffffff1673ffffffffffffffffffffffffffffffffffffffff16141515613660576040517f08c379a00000000000000000000000000000000000000000000000000000000081526004018080602001828103825260258152602001807f4552433732313a206275726e206f6620746f6b656e2074686174206973206e6f81526020017f74206f776e00000000000000000000000000000000000000000000000000000081525060400191505060405180910390fd5b613669816137db565b60016000808473ffffffffffffffffffffffffffffffffffffffff1673ffffffffffffffffffffffffffffffffffffffff1681526020019081526020016000206000828254039250508190555060006001600083815260200190815260200160002060006101000a81548173ffffffffffffffffffffffffffffffffffffffff021916908373ffffffffffffffffffffffffffffffffffffffff16021790555080600073ffffffffffffffffffffffffffffffffffffffff168373ffffffffffffffffffffffffffffffffffffffff167fddf252ad1be2c89b69c2b068fc378daa952ba7f163c4a11628f55a4df523b3ef60405160405180910390a45050565b6000806001600084815260200190815260200160002060009054906101000a900473ffffffffffffffffffffffffffffffffffffffff169050600073ffffffffffffffffffffffffffffffffffffffff168173ffffffffffffffffffffffffffffffffffffffff161415915050919050565b600073ffffffffffffffffffffffffffffffffffffffff166002600083815260200190815260200160002060009054906101000a900473ffffffffffffffffffffffffffffffffffffffff1673ffffffffffffffffffffffffffffffffffffffff161415156138985760006002600083815260200190815260200160002060006101000a81548173ffffffffffffffffffffffffffffffffffffffff021916908373ffffffffffffffffffffffffffffffffffffffff1602179055505b50565b60a060405190810160405280600073ffffffffffffffffffffffffffffffffffffffff168152602001600081526020016000815260200160008152602001600073ffffffffffffffffffffffffffffffffffffffff1681525090565b60a060405190810160405280600081526020016000600881111561391757fe5b81526020016000151581526020016000815260200160008152509056fea165627a7a7230582078be1e692c1c2fba3bd1168fc7c7d03dc4cf3c336d0d0cae5d6e7100b1b7fbd40029608060405234801561001057600080fd5b50610e5f806100206000396000f3fe608060405260043610610083576000357c0100000000000000000000000000000000000000000000000000000000900463ffffffff168063081812fc14610088578063095ea7b31461010357806323b872dd1461015157806370a08231146101bf578063796db31214610224578063a22cb4651461029f578063e985e9c5146102fc575b600080fd5b34801561009457600080fd5b506100c1600480360360208110156100ab57600080fd5b8101908080359060200190929190505050610385565b604051808273ffffffffffffffffffffffffffffffffffffffff1673ffffffffffffffffffffffffffffffffffffffff16815260200191505060405180910390f35b61014f6004803603604081101561011957600080fd5b81019080803573ffffffffffffffffffffffffffffffffffffffff16906020019092919080359060200190929190505050610433565b005b6101bd6004803603606081101561016757600080fd5b81019080803573ffffffffffffffffffffffffffffffffffffffff169060200190929190803573ffffffffffffffffffffffffffffffffffffffff16906020019092919080359060200190929190505050610692565b005b3480156101cb57600080fd5b5061020e600480360360208110156101e257600080fd5b81019080803573ffffffffffffffffffffffffffffffffffffffff169060200190929190505050610ab2565b6040518082815260200191505060405180910390f35b34801561023057600080fd5b5061025d6004803603602081101561024757600080fd5b8101908080359060200190929190505050610ba1565b604051808273ffffffffffffffffffffffffffffffffffffffff1673ffffffffffffffffffffffffffffffffffffffff16815260200191505060405180910390f35b3480156102ab57600080fd5b506102fa600480360360408110156102c257600080fd5b81019080803573ffffffffffffffffffffffffffffffffffffffff169060200190929190803515159060200190929190505050610bd4565b005b34801561030857600080fd5b5061036b6004803603604081101561031f57600080fd5b81019080803573ffffffffffffffffffffffffffffffffffffffff169060200190929190803573ffffffffffffffffffffffffffffffffffffffff169060200190929190505050610d9f565b604051808215151515815260200191505060405180910390f35b600081600073ffffffffffffffffffffffffffffffffffffffff166001600083815260200190815260200160002060009054906101000a900473ffffffffffffffffffffffffffffffffffffffff1673ffffffffffffffffffffffffffffffffffffffff16141515156103f757600080fd5b6002600084815260200190815260200160002060009054906101000a900473ffffffffffffffffffffffffffffffffffffffff16915050919050565b3373ffffffffffffffffffffffffffffffffffffffff168273ffffffffffffffffffffffffffffffffffffffff16141515156104fd576040517f08c379a00000000000000000000000000000000000000000000000000000000081526004018080602001828103825260228152602001807f455243373231203a204f776e657220697320616c726561647920617070726f7681526020017f656400000000000000000000000000000000000000000000000000000000000081525060400191505060405180910390fd5b3373ffffffffffffffffffffffffffffffffffffffff166001600083815260200190815260200160002060009054906101000a900473ffffffffffffffffffffffffffffffffffffffff1673ffffffffffffffffffffffffffffffffffffffff1614806105a357506105a26001600083815260200190815260200160002060009054906101000a900473ffffffffffffffffffffffffffffffffffffffff1633610d9f565b5b15156105ae57600080fd5b816002600083815260200190815260200160002060006101000a81548173ffffffffffffffffffffffffffffffffffffffff021916908373ffffffffffffffffffffffffffffffffffffffff160217905550808273ffffffffffffffffffffffffffffffffffffffff166001600084815260200190815260200160002060009054906101000a900473ffffffffffffffffffffffffffffffffffffffff1673ffffffffffffffffffffffffffffffffffffffff167f8c5be1e5ebec7d5bd14f71427d1e84f3dd0314c0f7b2291e5b200ac8c7c3b92560405160405180910390a45050565b81600073ffffffffffffffffffffffffffffffffffffffff168173ffffffffffffffffffffffffffffffffffffffff1614151515610738576040517f08c379a00000000000000000000000000000000000000000000000000000000081526004018080602001828103825260188152602001807f6164647265737320307830206973206e6f742076616c6964000000000000000081525060200191505060405180910390fd5b81600073ffffffffffffffffffffffffffffffffffffffff166001600083815260200190815260200160002060009054906101000a900473ffffffffffffffffffffffffffffffffffffffff1673ffffffffffffffffffffffffffffffffffffffff16141515156107a857600080fd5b33838173ffffffffffffffffffffffffffffffffffffffff163373ffffffffffffffffffffffffffffffffffffffff16148061081757508173ffffffffffffffffffffffffffffffffffffffff166107ff82610385565b73ffffffffffffffffffffffffffffffffffffffff16145b8061085b575061085a6001600083815260200190815260200160002060009054906101000a900473ffffffffffffffffffffffffffffffffffffffff1683610d9f565b5b151561086657600080fd5b8673ffffffffffffffffffffffffffffffffffffffff166001600087815260200190815260200160002060009054906101000a900473ffffffffffffffffffffffffffffffffffffffff1673ffffffffffffffffffffffffffffffffffffffff16141515610962576040517f08c379a000000000000000000000000000000000000000000000000000000000815260040180806020018281038252602b8152602001807f4552433732313a207472616e73666572206f6620746f6b656e2074686174206981526020017f73206e6f74206f776e656400000000000000000000000000000000000000000081525060400191505060405180910390fd5b60016000808973ffffffffffffffffffffffffffffffffffffffff1673ffffffffffffffffffffffffffffffffffffffff1681526020019081526020016000206000828254039250508190555060016000808873ffffffffffffffffffffffffffffffffffffffff1673ffffffffffffffffffffffffffffffffffffffff16815260200190815260200160002060008282540192505081905550856001600087815260200190815260200160002060006101000a81548173ffffffffffffffffffffffffffffffffffffffff021916908373ffffffffffffffffffffffffffffffffffffffff160217905550848673ffffffffffffffffffffffffffffffffffffffff168873ffffffffffffffffffffffffffffffffffffffff167fddf252ad1be2c89b69c2b068fc378daa952ba7f163c4a11628f55a4df523b3ef60405160405180910390a450505050505050565b600081600073ffffffffffffffffffffffffffffffffffffffff168173ffffffffffffffffffffffffffffffffffffffff1614151515610b5a576040517f08c379a00000000000000000000000000000000000000000000000000000000081526004018080602001828103825260188152602001807f6164647265737320307830206973206e6f742076616c6964000000000000000081525060200191505060405180910390fd5b6000808473ffffffffffffffffffffffffffffffffffffffff1673ffffffffffffffffffffffffffffffffffffffff16815260200190815260200160002054915050919050565b60016020528060005260406000206000915054906101000a900473ffffffffffffffffffffffffffffffffffffffff1681565b3373ffffffffffffffffffffffffffffffffffffffff168273ffffffffffffffffffffffffffffffffffffffff1614151515610c9e576040517f08c379a00000000000000000000000000000000000000000000000000000000081526004018080602001828103825260218152602001807f4552433732313a204f776e657220697320616c726561647920617070726f766581526020017f640000000000000000000000000000000000000000000000000000000000000081525060400191505060405180910390fd5b80600360003373ffffffffffffffffffffffffffffffffffffffff1673ffffffffffffffffffffffffffffffffffffffff16815260200190815260200160002060008473ffffffffffffffffffffffffffffffffffffffff1673ffffffffffffffffffffffffffffffffffffffff16815260200190815260200160002060006101000a81548160ff0219169083151502179055508173ffffffffffffffffffffffffffffffffffffffff163373ffffffffffffffffffffffffffffffffffffffff167f17307eab39ab6107e8899845ad3d59bd9653f200f220920489ca2b5937696c3183604051808215151515815260200191505060405180910390a35050565b6000600360008473ffffffffffffffffffffffffffffffffffffffff1673ffffffffffffffffffffffffffffffffffffffff16815260200190815260200160002060008373ffffffffffffffffffffffffffffffffffffffff1673ffffffffffffffffffffffffffffffffffffffff16815260200190815260200160002060009054906101000a900460ff1690509291505056fea165627a7a72305820855d066cbefef1f53f7e14e6c5ef26b6b10b128c45d15afac5e736f63a1c143b0029",
  "source": "pragma solidity ^0.5.0;\r\n\r\n\r\nimport \"./SafeMath.sol\";\r\nimport \"./ERC721.sol\";\r\n//import \"./BreedSystem.sol\";\r\n//import \"./Auction.sol\";\r\n//import \"./Arena.sol\";\r\n\r\n\r\ncontract DogRegisterCoin is ERC721 {\r\n\r\n    ERC721 private _erc721;\r\n    address payable public owner;\r\n\r\n    uint private _nextId;\r\n\r\n\r\n    mapping (address => bool) public _whitelist;\r\n\r\n    mapping (address => Dog[]) breederDogs;\r\n\r\n    mapping (uint => Dog) public dogsById;\r\n\r\n    mapping (uint256 => bool) public availableToBreed;\r\n\r\n    mapping (uint256 => bool) public dogsInAuction; //dogid => bool\r\n\r\n    mapping (uint256 => Auction) public auction; //mapping between dogid and auction\r\n\r\n    mapping (address => uint256) bid;\r\n\r\n\r\n    Dog[] availableDogsToBreed;\r\n\r\n    \r\n    enum Race {Labrador, Pitbull, Terrier, Bouldog, Husky, Bullador, Pitsky, Labrador_Husky, Unknown}\r\n    \r\n\r\n\tconstructor() public {\r\n\t\t_erc721 = new ERC721();\r\n\t\towner = msg.sender;\r\n\r\n\t}\r\n\r\n\r\n\tstruct Dog {\r\n\t\tuint id;\r\n\t\tRace race;\r\n\t\tbool isMale;\r\n\t\tuint256 age;\r\n\t\tuint256 category;\r\n\t}\r\n\r\n\tstruct Auction {\r\n\t\taddress chairperson;\r\n\t\tuint256 startTime;\r\n\t\tuint256 startingPrice;\r\n\t\tuint256 highestBid;\r\n\t\taddress winner;\r\n\t}\r\n\r\n\tmodifier onlyOwner() {\r\n\t\trequire(msg.sender == owner);\r\n\t\t_;\r\n\t}\r\n\r\n\r\n\tmodifier isNotContractOwner() {\r\n\t\trequire(msg.sender != address(this));\r\n\t\t_;\r\n\t}\r\n\r\n\r\n\tfunction contractBalance() public view returns (uint256) {\r\n\t\treturn address(this).balance;\r\n\t}\r\n\r\n     \r\n    //whitelist \r\n\tfunction registerBreeder(address _breeder) public isNonZeroAddress(_breeder) onlyOwner() {\r\n     require(_whitelist[_breeder] == false, \"breeder already registered\");\r\n     _whitelist[_breeder] = true;\r\n\t}\r\n\r\n\r\n\tfunction declareAnimal(address payable _breeder, Race _race, bool _isMale, uint256 _age, uint256 _category) public isNonZeroAddress(_breeder) returns (bool) {\r\n\t\t_nextId++;\r\n       Dog memory dog = Dog(_nextId, _race, _isMale, _age, _category);\r\n       breederDogs[_breeder].push(dog);\r\n       dogsById[_nextId] = dog;\r\n       if( _breeder == address(this))\r\n       {\r\n       \tdogsInAuction[_nextId] = true;\r\n       \tcreateAuction(_nextId,5);\r\n       }\r\n       _mint(_breeder, _nextId);\r\n\t}\r\n\r\n\tfunction deadAnimal(uint _tokenId) public {\r\n\t\trequire(msg.sender == ownerOf(_tokenId), \"sender is not token owner\");\r\n\t\t_burn(msg.sender, _tokenId);\r\n\t\tdelete dogsById[_tokenId];\r\n\t\t_removeFromArray(_tokenId);\r\n\t}\r\n\r\n\r\n\tfunction breedAnimal(uint256 _dogId1, uint256 _dogId2) public {\r\n\t\trequire(dogsById[_dogId1].isMale == true && dogsById[_dogId2].isMale == false || dogsById[_dogId1].isMale == false && dogsById[_dogId2].isMale == true, \"not possible to breed same sex animals\");\r\n\t\trequire(_hasDog(msg.sender, _dogId1) || _hasDog(msg.sender, _dogId2), \"message sender is not one of the token owner\");\r\n\t\trequire(availableToBreed[_dogId1] && availableToBreed[_dogId2], \"dogs have to be available to breed\");\r\n\t\t\r\n\r\n\t\tRace _race = _determineRaceAfterBreed(_dogId1, _dogId2);\r\n\t\tuint256 _category = (dogsById[_dogId1].category + dogsById[_dogId2].category)/2;\r\n\r\n\t\tif(_hasDog(msg.sender, _dogId1) && _hasDog(msg.sender, _dogId2))\r\n\t\t{\r\n\t\t\tdeclareAnimal(msg.sender, _race, true, 0, _category);\r\n\r\n\r\n\t\t}\r\n\r\n\t\telse \r\n\t\t{ \r\n\t\t\tdeclareAnimal(address(uint160(address(this))), _race, true, 0, _category);\r\n\r\n\t\t}\r\n\r\n\t}\r\n\r\n\r\n\tfunction proposeToBreed(uint256 _dogId) public {\r\n\t\trequire(msg.sender == ownerOf(_dogId), \"sender is not token owner\");\r\n\t\trequire(availableToBreed[_dogId] == false, \"dog is already available to breed\");\r\n\t\tavailableToBreed[_dogId] = true;\r\n\t}\r\n\r\n\r\n\r\n\tfunction _hasDog(address _breeder, uint256 _dogId) internal view returns (bool success) {\r\n\t\tsuccess = false;\r\n\t\tfor(uint i = 0; i<breederDogs[_breeder].length; i++)\r\n\t\t{\r\n\t\t\tif(breederDogs[_breeder][i].id == _dogId) {\r\n\t\t\t\tsuccess = true;\r\n\t\t\t}\r\n\r\n\t\t}\r\n\t\treturn success;\r\n\r\n\t}\r\n\r\n\tfunction _determineRaceAfterBreed(uint256 _id1, uint256 _id2) internal view returns (Race race){\r\n\t\tDog memory _dog1 = dogsById[_id1];\r\n\t\tDog memory _dog2 = dogsById[_id2];\r\n\r\n\t\tif((_dog1.race == Race.Labrador && _dog2.race == Race.Pitbull) || (_dog1.race == Race.Pitbull && _dog2.race == Race.Labrador))\r\n\t\t{\r\n\t\t\trace = Race.Bullador;\r\n\t\t}\r\n\t\telse if((_dog1.race == Race.Pitbull && _dog2.race == Race.Husky) || (_dog1.race == Race.Husky && _dog2.race == Race.Pitbull))\r\n\t\t{\r\n\t\t\trace = Race.Pitsky;\r\n\t\t}\r\n\t\telse if((_dog1.race == Race.Terrier && _dog2.race == Race.Bouldog) || (_dog1.race == Race.Bouldog && _dog2.race == Race.Terrier))\r\n\t\t{\r\n\t\t\trace = Race.Pitbull;\r\n\t\t}\r\n\t\telse if((_dog1.race == Race.Labrador && _dog2.race == Race.Husky) || (_dog1.race == Race.Husky && _dog2.race == Race.Labrador))\r\n\t\t{\r\n\t\t\trace = Race.Labrador_Husky;\r\n\t\t}\r\n\t\telse \r\n\t\t{\r\n\t\t\trace = Race.Unknown;\r\n\t\t} \r\n\t\treturn race;\r\n\r\n\t} \r\n\r\n\r\n\r\n\tfunction getHighestBid(uint256 _id) public view returns (uint256){\r\n\t\treturn auction[_id].highestBid;\r\n\r\n\t}\r\n\r\n\r\n\tfunction createAuction(uint256 _id, uint256 _startingPrice) public {\r\n\t\trequire(_tokenOwner[_id] == msg.sender || ownerOf(_id) == address(this), \"sender is not token owner nor contract owner\");\r\n\t\tAuction memory auc = Auction(msg.sender, now, 0, _startingPrice, address(0));\r\n\t\tdogsInAuction[_id] = true;\r\n\t\tauction[_id] = auc;\r\n\r\n\t}\r\n\r\n\tfunction bidAuction(uint256 _id) public payable {\r\n\t\trequire(_tokenOwner[_id] != msg.sender, \"token owner can't be message sender\");\r\n\t\trequire(dogsInAuction[_id] == true, \"dog is not in auction\");\r\n\t\trequire(msg.value > auction[_id].highestBid, \"msg.value must be superior to the highest bid\");\r\n\t\trequire(auction[_id].startTime + 2 days >= now, \"auction is finished\");\r\n\t\tbid[msg.sender] = msg.value;\r\n\t\tauction[_id].highestBid = msg.value;\r\n\r\n\t}\r\n\r\n\tfunction updateBid(uint256 _id) public payable {\r\n\t\trequire((bid[msg.sender] + msg.value) > auction[_id].highestBid);\r\n\t\tbid[msg.sender] += msg.value;\r\n\t}\r\n\r\n\r\n\tfunction claimAuction(uint256 _id) public {\r\n\t\trequire(dogsInAuction[_id] == true);\r\n\t\trequire(now > auction[_id].startTime + 2 days);\r\n\t\trequire(bid[msg.sender] == auction[_id].highestBid);\r\n\r\n\t\t_erc721.transferFrom(ownerOf(_id), msg.sender, _id);\r\n\r\n\t\tauction[_id].winner = msg.sender;\r\n\t}\r\n\r\n\r\n\r\n\tfunction TransferAnimal(address _from, address payable _to, uint256 _id) public {\r\n\t\trequire(ownerOf(_id) == _from);\r\n\t\trequire(dogsInAuction[_id] == false);\r\n\t\trequire(_whitelist[_to] == true);\r\n\t\t_removeFromArray(_id);\r\n\t\t_erc721.transferFrom(_from, _to , _id);\r\n\r\n\t}\r\n\r\n\r\n\r\nfunction _removeFromArray(uint256 _id) internal {\r\n    uint i = 0;\r\n\twhile (breederDogs[ownerOf(_id)][i].id != _id)\r\n\t{\r\n\t\ti++;\r\n\t}\r\n\tdelete breederDogs[ownerOf(_id)][i];\r\n}\r\n\r\n\r\n\r\n}",
  "sourcePath": "C:\\Users\\cleme\\Desktop\\smart_contracts_ethereum\\TD6\\contracts\\DogRegisterCoin.sol",
  "compiler": {
    "name": "solc",
    "version": "0.5.0+commit.1d4f565a.Emscripten.clang"
  },
  "schemaVersion": "3.0.5",
  "updatedAt": "2019-11-01T16:41:21.162Z",
  "devdoc": {
    "methods": {}
  },
  "userdoc": {
    "methods": {}
  }
}