{
  "contractName": "DogRegisterCoin",
  "abi": [
    {
      "constant": true,
      "inputs": [
        {
          "name": "_tokenId",
          "type": "uint256"
        }
      ],
      "name": "getApproved",
      "outputs": [
        {
          "name": "",
          "type": "address"
        }
      ],
      "payable": false,
      "stateMutability": "view",
      "type": "function"
    },
    {
      "constant": false,
      "inputs": [
        {
          "name": "_approved",
          "type": "address"
        },
        {
          "name": "_tokenId",
          "type": "uint256"
        }
      ],
      "name": "approve",
      "outputs": [],
      "payable": true,
      "stateMutability": "payable",
      "type": "function"
    },
    {
      "constant": true,
      "inputs": [
        {
          "name": "",
          "type": "uint256"
        }
      ],
      "name": "auction",
      "outputs": [
        {
          "name": "chairperson",
          "type": "address"
        },
        {
          "name": "startTime",
          "type": "uint256"
        },
        {
          "name": "startingPrice",
          "type": "uint256"
        },
        {
          "name": "highestBid",
          "type": "uint256"
        },
        {
          "name": "winner",
          "type": "address"
        }
      ],
      "payable": false,
      "stateMutability": "view",
      "type": "function"
    },
    {
      "constant": false,
      "inputs": [
        {
          "name": "_from",
          "type": "address"
        },
        {
          "name": "_to",
          "type": "address"
        },
        {
          "name": "_tokenId",
          "type": "uint256"
        }
      ],
      "name": "transferFrom",
      "outputs": [],
      "payable": true,
      "stateMutability": "payable",
      "type": "function"
    },
    {
      "constant": true,
      "inputs": [
        {
          "name": "",
          "type": "uint256"
        }
      ],
      "name": "dogsById",
      "outputs": [
        {
          "name": "id",
          "type": "uint256"
        },
        {
          "name": "race",
          "type": "uint8"
        },
        {
          "name": "isMale",
          "type": "bool"
        },
        {
          "name": "age",
          "type": "uint256"
        },
        {
          "name": "category",
          "type": "uint256"
        }
      ],
      "payable": false,
      "stateMutability": "view",
      "type": "function"
    },
    {
      "constant": true,
      "inputs": [
        {
          "name": "_address",
          "type": "address"
        }
      ],
      "name": "balanceOf",
      "outputs": [
        {
          "name": "",
          "type": "uint256"
        }
      ],
      "payable": false,
      "stateMutability": "view",
      "type": "function"
    },
    {
      "constant": true,
      "inputs": [
        {
          "name": "",
          "type": "uint256"
        }
      ],
      "name": "_tokenOwner",
      "outputs": [
        {
          "name": "",
          "type": "address"
        }
      ],
      "payable": false,
      "stateMutability": "view",
      "type": "function"
    },
    {
      "constant": true,
      "inputs": [
        {
          "name": "",
          "type": "uint256"
        }
      ],
      "name": "availableToBreed",
      "outputs": [
        {
          "name": "",
          "type": "bool"
        }
      ],
      "payable": false,
      "stateMutability": "view",
      "type": "function"
    },
    {
      "constant": true,
      "inputs": [],
      "name": "owner",
      "outputs": [
        {
          "name": "",
          "type": "address"
        }
      ],
      "payable": false,
      "stateMutability": "view",
      "type": "function"
    },
    {
      "constant": true,
      "inputs": [
        {
          "name": "",
          "type": "address"
        },
        {
          "name": "",
          "type": "uint256"
        }
      ],
      "name": "breederDogs",
      "outputs": [
        {
          "name": "id",
          "type": "uint256"
        },
        {
          "name": "race",
          "type": "uint8"
        },
        {
          "name": "isMale",
          "type": "bool"
        },
        {
          "name": "age",
          "type": "uint256"
        },
        {
          "name": "category",
          "type": "uint256"
        }
      ],
      "payable": false,
      "stateMutability": "view",
      "type": "function"
    },
    {
      "constant": false,
      "inputs": [
        {
          "name": "_operator",
          "type": "address"
        },
        {
          "name": "_approved",
          "type": "bool"
        }
      ],
      "name": "setApprovalForAll",
      "outputs": [],
      "payable": false,
      "stateMutability": "nonpayable",
      "type": "function"
    },
    {
      "constant": true,
      "inputs": [
        {
          "name": "",
          "type": "uint256"
        }
      ],
      "name": "dogsInAuction",
      "outputs": [
        {
          "name": "",
          "type": "bool"
        }
      ],
      "payable": false,
      "stateMutability": "view",
      "type": "function"
    },
    {
      "constant": true,
      "inputs": [
        {
          "name": "",
          "type": "address"
        }
      ],
      "name": "_whitelist",
      "outputs": [
        {
          "name": "",
          "type": "bool"
        }
      ],
      "payable": false,
      "stateMutability": "view",
      "type": "function"
    },
    {
      "constant": true,
      "inputs": [
        {
          "name": "_owner",
          "type": "address"
        },
        {
          "name": "_operator",
          "type": "address"
        }
      ],
      "name": "isApprovedForAll",
      "outputs": [
        {
          "name": "",
          "type": "bool"
        }
      ],
      "payable": false,
      "stateMutability": "view",
      "type": "function"
    },
    {
      "inputs": [],
      "payable": false,
      "stateMutability": "nonpayable",
      "type": "constructor"
    },
    {
      "anonymous": false,
      "inputs": [
        {
          "indexed": true,
          "name": "_from",
          "type": "address"
        },
        {
          "indexed": true,
          "name": "_to",
          "type": "address"
        },
        {
          "indexed": true,
          "name": "_tokenId",
          "type": "uint256"
        }
      ],
      "name": "Transfer",
      "type": "event"
    },
    {
      "anonymous": false,
      "inputs": [
        {
          "indexed": true,
          "name": "_owner",
          "type": "address"
        },
        {
          "indexed": true,
          "name": "_approved",
          "type": "address"
        },
        {
          "indexed": true,
          "name": "_tokenId",
          "type": "uint256"
        }
      ],
      "name": "Approval",
      "type": "event"
    },
    {
      "anonymous": false,
      "inputs": [
        {
          "indexed": true,
          "name": "_owner",
          "type": "address"
        },
        {
          "indexed": true,
          "name": "_operator",
          "type": "address"
        },
        {
          "indexed": false,
          "name": "_approved",
          "type": "bool"
        }
      ],
      "name": "ApprovalForAll",
      "type": "event"
    },
    {
      "constant": true,
      "inputs": [],
      "name": "contractBalance",
      "outputs": [
        {
          "name": "",
          "type": "uint256"
        }
      ],
      "payable": false,
      "stateMutability": "view",
      "type": "function"
    },
    {
      "constant": false,
      "inputs": [
        {
          "name": "_breeder",
          "type": "address"
        }
      ],
      "name": "registerBreeder",
      "outputs": [],
      "payable": false,
      "stateMutability": "nonpayable",
      "type": "function"
    },
    {
      "constant": false,
      "inputs": [
        {
          "name": "_breeder",
          "type": "address"
        },
        {
          "name": "_race",
          "type": "uint8"
        },
        {
          "name": "_isMale",
          "type": "bool"
        },
        {
          "name": "_age",
          "type": "uint256"
        },
        {
          "name": "_category",
          "type": "uint256"
        }
      ],
      "name": "declareAnimal",
      "outputs": [
        {
          "name": "",
          "type": "bool"
        }
      ],
      "payable": false,
      "stateMutability": "nonpayable",
      "type": "function"
    },
    {
      "constant": false,
      "inputs": [
        {
          "name": "_tokenId",
          "type": "uint256"
        }
      ],
      "name": "deadAnimal",
      "outputs": [],
      "payable": false,
      "stateMutability": "nonpayable",
      "type": "function"
    },
    {
      "constant": false,
      "inputs": [
        {
          "name": "_dogId1",
          "type": "uint256"
        },
        {
          "name": "_dogId2",
          "type": "uint256"
        }
      ],
      "name": "breedAnimal",
      "outputs": [],
      "payable": false,
      "stateMutability": "nonpayable",
      "type": "function"
    },
    {
      "constant": false,
      "inputs": [
        {
          "name": "_dogId",
          "type": "uint256"
        }
      ],
      "name": "proposeToBreed",
      "outputs": [],
      "payable": false,
      "stateMutability": "nonpayable",
      "type": "function"
    },
    {
      "constant": true,
      "inputs": [
        {
          "name": "_id",
          "type": "uint256"
        }
      ],
      "name": "getHighestBid",
      "outputs": [
        {
          "name": "",
          "type": "uint256"
        }
      ],
      "payable": false,
      "stateMutability": "view",
      "type": "function"
    },
    {
      "constant": false,
      "inputs": [
        {
          "name": "_id",
          "type": "uint256"
        },
        {
          "name": "_startingPrice",
          "type": "uint256"
        }
      ],
      "name": "createAuction",
      "outputs": [],
      "payable": false,
      "stateMutability": "nonpayable",
      "type": "function"
    },
    {
      "constant": false,
      "inputs": [
        {
          "name": "_id",
          "type": "uint256"
        }
      ],
      "name": "bidAuction",
      "outputs": [],
      "payable": true,
      "stateMutability": "payable",
      "type": "function"
    },
    {
      "constant": false,
      "inputs": [
        {
          "name": "_id",
          "type": "uint256"
        }
      ],
      "name": "updateBid",
      "outputs": [],
      "payable": true,
      "stateMutability": "payable",
      "type": "function"
    },
    {
      "constant": false,
      "inputs": [
        {
          "name": "_id",
          "type": "uint256"
        }
      ],
      "name": "claimAuction",
      "outputs": [],
      "payable": true,
      "stateMutability": "payable",
      "type": "function"
    },
    {
      "constant": false,
      "inputs": [
        {
          "name": "_from",
          "type": "address"
        },
        {
          "name": "_to",
          "type": "address"
        },
        {
          "name": "_id",
          "type": "uint256"
        }
      ],
      "name": "TransferAnimal",
      "outputs": [],
      "payable": false,
      "stateMutability": "nonpayable",
      "type": "function"
    }
  ],
  "bytecode": "0x60806040523480156200001157600080fd5b506200001c620000c1565b604051809103906000f08015801562000039573d6000803e3d6000fd5b50600460006101000a81548173ffffffffffffffffffffffffffffffffffffffff021916908373ffffffffffffffffffffffffffffffffffffffff16021790555033600560006101000a81548173ffffffffffffffffffffffffffffffffffffffff021916908373ffffffffffffffffffffffffffffffffffffffff160217905550620000d2565b604051610e7f80620041d883390190565b6140f680620000e26000396000f3fe608060405260043610610154576000357c0100000000000000000000000000000000000000000000000000000000900463ffffffff1680630121683f14610159578063081812fc1461019e578063095ea7b3146102195780631200617f1461026757806323b872dd1461032a57806324d89bd2146103985780633948313b1461042e5780634065cc67146104a957806343129de114610526578063476fd474146105545780635e6bab68146105a557806364a7d7c7146105ea57806370a0823114610618578063796db3121461067d5780637dcdf9be146106f857806386f253aa146107335780638b7afe2e146107865780638da5cb5b146107b15780638f28864414610808578063909e268a146108575780639aafc6c9146108f4578063a22cb46514610922578063ce6cc0fb1461097f578063cfdb63ac146109d2578063e985e9c514610a3b578063ec9b6db914610ac4575b600080fd5b34801561016557600080fd5b5061019c6004803603604081101561017c57600080fd5b810190808035906020019092919080359060200190929190505050610aff565b005b3480156101aa57600080fd5b506101d7600480360360208110156101c157600080fd5b8101908080359060200190929190505050610d7e565b604051808273ffffffffffffffffffffffffffffffffffffffff1673ffffffffffffffffffffffffffffffffffffffff16815260200191505060405180910390f35b6102656004803603604081101561022f57600080fd5b81019080803573ffffffffffffffffffffffffffffffffffffffff16906020019092919080359060200190929190505050610e2c565b005b34801561027357600080fd5b506102a06004803603602081101561028a57600080fd5b810190808035906020019092919050505061108b565b604051808673ffffffffffffffffffffffffffffffffffffffff1673ffffffffffffffffffffffffffffffffffffffff1681526020018581526020018481526020018381526020018273ffffffffffffffffffffffffffffffffffffffff1673ffffffffffffffffffffffffffffffffffffffff1681526020019550505050505060405180910390f35b6103966004803603606081101561034057600080fd5b81019080803573ffffffffffffffffffffffffffffffffffffffff169060200190929190803573ffffffffffffffffffffffffffffffffffffffff16906020019092919080359060200190929190505050611101565b005b3480156103a457600080fd5b50610414600480360360a08110156103bb57600080fd5b81019080803573ffffffffffffffffffffffffffffffffffffffff169060200190929190803560ff1690602001909291908035151590602001909291908035906020019092919080359060200190929190505050611521565b604051808215151515815260200191505060405180910390f35b34801561043a57600080fd5b506104a76004803603606081101561045157600080fd5b81019080803573ffffffffffffffffffffffffffffffffffffffff169060200190929190803573ffffffffffffffffffffffffffffffffffffffff169060200190929190803590602001909291905050506117fa565b005b3480156104b557600080fd5b506104e2600480360360208110156104cc57600080fd5b81019080803590602001909291905050506119ed565b604051808681526020018560088111156104f857fe5b60ff168152602001841515151581526020018381526020018281526020019550505050505060405180910390f35b6105526004803603602081101561053c57600080fd5b8101908080359060200190929190505050611a3d565b005b34801561056057600080fd5b506105a36004803603602081101561057757600080fd5b81019080803573ffffffffffffffffffffffffffffffffffffffff169060200190929190505050611af2565b005b3480156105b157600080fd5b506105e8600480360360408110156105c857600080fd5b810190808035906020019092919080359060200190929190505050611d18565b005b6106166004803603602081101561060057600080fd5b81019080803590602001909291905050506120a8565b005b34801561062457600080fd5b506106676004803603602081101561063b57600080fd5b81019080803573ffffffffffffffffffffffffffffffffffffffff169060200190929190505050612463565b6040518082815260200191505060405180910390f35b34801561068957600080fd5b506106b6600480360360208110156106a057600080fd5b8101908080359060200190929190505050612552565b604051808273ffffffffffffffffffffffffffffffffffffffff1673ffffffffffffffffffffffffffffffffffffffff16815260200191505060405180910390f35b34801561070457600080fd5b506107316004803603602081101561071b57600080fd5b8101908080359060200190929190505050612585565b005b34801561073f57600080fd5b5061076c6004803603602081101561075657600080fd5b8101908080359060200190929190505050612721565b604051808215151515815260200191505060405180910390f35b34801561079257600080fd5b5061079b612741565b6040518082815260200191505060405180910390f35b3480156107bd57600080fd5b506107c6612760565b604051808273ffffffffffffffffffffffffffffffffffffffff1673ffffffffffffffffffffffffffffffffffffffff16815260200191505060405180910390f35b34801561081457600080fd5b506108416004803603602081101561082b57600080fd5b8101908080359060200190929190505050612786565b6040518082815260200191505060405180910390f35b34801561086357600080fd5b506108b06004803603604081101561087a57600080fd5b81019080803573ffffffffffffffffffffffffffffffffffffffff169060200190929190803590602001909291905050506127a6565b604051808681526020018560088111156108c657fe5b60ff168152602001841515151581526020018381526020018281526020019550505050505060405180910390f35b6109206004803603602081101561090a57600080fd5b8101908080359060200190929190505050612812565b005b34801561092e57600080fd5b5061097d6004803603604081101561094557600080fd5b81019080803573ffffffffffffffffffffffffffffffffffffffff169060200190929190803515159060200190929190505050612a4b565b005b34801561098b57600080fd5b506109b8600480360360208110156109a257600080fd5b8101908080359060200190929190505050612c16565b604051808215151515815260200191505060405180910390f35b3480156109de57600080fd5b50610a21600480360360208110156109f557600080fd5b81019080803573ffffffffffffffffffffffffffffffffffffffff169060200190929190505050612c36565b604051808215151515815260200191505060405180910390f35b348015610a4757600080fd5b50610aaa60048036036040811015610a5e57600080fd5b81019080803573ffffffffffffffffffffffffffffffffffffffff169060200190929190803573ffffffffffffffffffffffffffffffffffffffff169060200190929190505050612c56565b604051808215151515815260200191505060405180910390f35b348015610ad057600080fd5b50610afd60048036036020811015610ae757600080fd5b8101908080359060200190929190505050612cea565b005b3373ffffffffffffffffffffffffffffffffffffffff166001600084815260200190815260200160002060009054906101000a900473ffffffffffffffffffffffffffffffffffffffff1673ffffffffffffffffffffffffffffffffffffffff16141515610bd5576040517f08c379a00000000000000000000000000000000000000000000000000000000081526004018080602001828103825260198152602001807f73656e646572206973206e6f7420746f6b656e206f776e65720000000000000081525060200191505060405180910390fd5b610bdd613f5d565b33816000019073ffffffffffffffffffffffffffffffffffffffff16908173ffffffffffffffffffffffffffffffffffffffff16815250504281604001818152505081816060018181525050600081608001818152505060008160a0019073ffffffffffffffffffffffffffffffffffffffff16908173ffffffffffffffffffffffffffffffffffffffff16815250506001600b600085815260200190815260200160002060006101000a81548160ff02191690831515021790555080600c600085815260200190815260200160002060008201518160000160006101000a81548173ffffffffffffffffffffffffffffffffffffffff021916908373ffffffffffffffffffffffffffffffffffffffff1602179055506020820151816001019080519060200190610d10929190613fc0565b5060408201518160020155606082015181600301556080820151816004015560a08201518160050160006101000a81548173ffffffffffffffffffffffffffffffffffffffff021916908373ffffffffffffffffffffffffffffffffffffffff160217905550905050505050565b600081600073ffffffffffffffffffffffffffffffffffffffff166001600083815260200190815260200160002060009054906101000a900473ffffffffffffffffffffffffffffffffffffffff1673ffffffffffffffffffffffffffffffffffffffff1614151515610df057600080fd5b6002600084815260200190815260200160002060009054906101000a900473ffffffffffffffffffffffffffffffffffffffff16915050919050565b3373ffffffffffffffffffffffffffffffffffffffff168273ffffffffffffffffffffffffffffffffffffffff1614151515610ef6576040517f08c379a00000000000000000000000000000000000000000000000000000000081526004018080602001828103825260228152602001807f455243373231203a204f776e657220697320616c726561647920617070726f7681526020017f656400000000000000000000000000000000000000000000000000000000000081525060400191505060405180910390fd5b3373ffffffffffffffffffffffffffffffffffffffff166001600083815260200190815260200160002060009054906101000a900473ffffffffffffffffffffffffffffffffffffffff1673ffffffffffffffffffffffffffffffffffffffff161480610f9c5750610f9b6001600083815260200190815260200160002060009054906101000a900473ffffffffffffffffffffffffffffffffffffffff1633612c56565b5b1515610fa757600080fd5b816002600083815260200190815260200160002060006101000a81548173ffffffffffffffffffffffffffffffffffffffff021916908373ffffffffffffffffffffffffffffffffffffffff160217905550808273ffffffffffffffffffffffffffffffffffffffff166001600084815260200190815260200160002060009054906101000a900473ffffffffffffffffffffffffffffffffffffffff1673ffffffffffffffffffffffffffffffffffffffff167f8c5be1e5ebec7d5bd14f71427d1e84f3dd0314c0f7b2291e5b200ac8c7c3b92560405160405180910390a45050565b600c6020528060005260406000206000915090508060000160009054906101000a900473ffffffffffffffffffffffffffffffffffffffff16908060020154908060030154908060040154908060050160009054906101000a900473ffffffffffffffffffffffffffffffffffffffff16905085565b81600073ffffffffffffffffffffffffffffffffffffffff168173ffffffffffffffffffffffffffffffffffffffff16141515156111a7576040517f08c379a00000000000000000000000000000000000000000000000000000000081526004018080602001828103825260188152602001807f6164647265737320307830206973206e6f742076616c6964000000000000000081525060200191505060405180910390fd5b81600073ffffffffffffffffffffffffffffffffffffffff166001600083815260200190815260200160002060009054906101000a900473ffffffffffffffffffffffffffffffffffffffff1673ffffffffffffffffffffffffffffffffffffffff161415151561121757600080fd5b33838173ffffffffffffffffffffffffffffffffffffffff163373ffffffffffffffffffffffffffffffffffffffff16148061128657508173ffffffffffffffffffffffffffffffffffffffff1661126e82610d7e565b73ffffffffffffffffffffffffffffffffffffffff16145b806112ca57506112c96001600083815260200190815260200160002060009054906101000a900473ffffffffffffffffffffffffffffffffffffffff1683612c56565b5b15156112d557600080fd5b8673ffffffffffffffffffffffffffffffffffffffff166001600087815260200190815260200160002060009054906101000a900473ffffffffffffffffffffffffffffffffffffffff1673ffffffffffffffffffffffffffffffffffffffff161415156113d1576040517f08c379a000000000000000000000000000000000000000000000000000000000815260040180806020018281038252602b8152602001807f4552433732313a207472616e73666572206f6620746f6b656e2074686174206981526020017f73206e6f74206f776e656400000000000000000000000000000000000000000081525060400191505060405180910390fd5b60016000808973ffffffffffffffffffffffffffffffffffffffff1673ffffffffffffffffffffffffffffffffffffffff1681526020019081526020016000206000828254039250508190555060016000808873ffffffffffffffffffffffffffffffffffffffff1673ffffffffffffffffffffffffffffffffffffffff16815260200190815260200160002060008282540192505081905550856001600087815260200190815260200160002060006101000a81548173ffffffffffffffffffffffffffffffffffffffff021916908373ffffffffffffffffffffffffffffffffffffffff160217905550848673ffffffffffffffffffffffffffffffffffffffff168873ffffffffffffffffffffffffffffffffffffffff167fddf252ad1be2c89b69c2b068fc378daa952ba7f163c4a11628f55a4df523b3ef60405160405180910390a450505050505050565b600085600073ffffffffffffffffffffffffffffffffffffffff168173ffffffffffffffffffffffffffffffffffffffff16141515156115c9576040517f08c379a00000000000000000000000000000000000000000000000000000000081526004018080602001828103825260188152602001807f6164647265737320307830206973206e6f742076616c6964000000000000000081525060200191505060405180910390fd5b6006600081548092919060010191905055506115e361404a565b60a060405190810160405280600654815260200188600881111561160357fe5b81526020018715158152602001868152602001858152509050600860008973ffffffffffffffffffffffffffffffffffffffff1673ffffffffffffffffffffffffffffffffffffffff16815260200190815260200160002081908060018154018082558091505090600182039060005260206000209060040201600090919290919091506000820151816000015560208201518160010160006101000a81548160ff021916908360088111156116b557fe5b021790555060408201518160010160016101000a81548160ff0219169083151502179055506060820151816002015560808201518160030155505050806009600060065481526020019081526020016000206000820151816000015560208201518160010160006101000a81548160ff0219169083600881111561173557fe5b021790555060408201518160010160016101000a81548160ff02191690831515021790555060608201518160020155608082015181600301559050503073ffffffffffffffffffffffffffffffffffffffff168873ffffffffffffffffffffffffffffffffffffffff1614156117df576001600b6000600654815260200190815260200160002060006101000a81548160ff0219169083151502179055506117de600654612e01565b5b6117eb88600654613028565b60019250505095945050505050565b8273ffffffffffffffffffffffffffffffffffffffff1661181a8261324a565b73ffffffffffffffffffffffffffffffffffffffff1614151561183c57600080fd5b60001515600b600083815260200190815260200160002060009054906101000a900460ff16151514151561186f57600080fd5b60011515600760008473ffffffffffffffffffffffffffffffffffffffff1673ffffffffffffffffffffffffffffffffffffffff16815260200190815260200160002060009054906101000a900460ff1615151415156118ce57600080fd5b6118d781613361565b600460009054906101000a900473ffffffffffffffffffffffffffffffffffffffff1673ffffffffffffffffffffffffffffffffffffffff166323b872dd8484846040518463ffffffff167c0100000000000000000000000000000000000000000000000000000000028152600401808473ffffffffffffffffffffffffffffffffffffffff1673ffffffffffffffffffffffffffffffffffffffff1681526020018373ffffffffffffffffffffffffffffffffffffffff1673ffffffffffffffffffffffffffffffffffffffff1681526020018281526020019350505050600060405180830381600087803b1580156119d057600080fd5b505af11580156119e4573d6000803e3d6000fd5b50505050505050565b60096020528060005260406000206000915090508060000154908060010160009054906101000a900460ff16908060010160019054906101000a900460ff16908060020154908060030154905085565b600c60008281526020019081526020016000206004015434600d60003373ffffffffffffffffffffffffffffffffffffffff1673ffffffffffffffffffffffffffffffffffffffff1681526020019081526020016000205401111515611aa257600080fd5b34600d60003373ffffffffffffffffffffffffffffffffffffffff1673ffffffffffffffffffffffffffffffffffffffff1681526020019081526020016000206000828254019250508190555050565b80600073ffffffffffffffffffffffffffffffffffffffff168173ffffffffffffffffffffffffffffffffffffffff1614151515611b98576040517f08c379a00000000000000000000000000000000000000000000000000000000081526004018080602001828103825260188152602001807f6164647265737320307830206973206e6f742076616c6964000000000000000081525060200191505060405180910390fd5b600560009054906101000a900473ffffffffffffffffffffffffffffffffffffffff1673ffffffffffffffffffffffffffffffffffffffff163373ffffffffffffffffffffffffffffffffffffffff16141515611bf457600080fd5b60001515600760008473ffffffffffffffffffffffffffffffffffffffff1673ffffffffffffffffffffffffffffffffffffffff16815260200190815260200160002060009054906101000a900460ff161515141515611cbc576040517f08c379a000000000000000000000000000000000000000000000000000000000815260040180806020018281038252601a8152602001807f6272656564657220616c7265616479207265676973746572656400000000000081525060200191505060405180910390fd5b6001600760008473ffffffffffffffffffffffffffffffffffffffff1673ffffffffffffffffffffffffffffffffffffffff16815260200190815260200160002060006101000a81548160ff0219169083151502179055505050565b600115156009600084815260200190815260200160002060010160019054906101000a900460ff161515148015611d765750600015156009600083815260200190815260200160002060010160019054906101000a900460ff161515145b80611ddb5750600015156009600084815260200190815260200160002060010160019054906101000a900460ff161515148015611dda5750600115156009600083815260200190815260200160002060010160019054906101000a900460ff161515145b5b1515611e75576040517f08c379a00000000000000000000000000000000000000000000000000000000081526004018080602001828103825260268152602001807f6e6f7420706f737369626c6520746f2062726565642073616d6520736578206181526020017f6e696d616c73000000000000000000000000000000000000000000000000000081525060400191505060405180910390fd5b611e7f338361348b565b80611e905750611e8f338261348b565b5b1515611f2a576040517f08c379a000000000000000000000000000000000000000000000000000000000815260040180806020018281038252602c8152602001807f6d6573736167652073656e646572206973206e6f74206f6e65206f662074686581526020017f20746f6b656e206f776e6572000000000000000000000000000000000000000081525060400191505060405180910390fd5b600a600083815260200190815260200160002060009054906101000a900460ff168015611f745750600a600082815260200190815260200160002060009054906101000a900460ff165b151561200e576040517f08c379a00000000000000000000000000000000000000000000000000000000081526004018080602001828103825260228152602001807f646f6773206861766520746f20626520617661696c61626c6520746f2062726581526020017f656400000000000000000000000000000000000000000000000000000000000081525060400191505060405180910390fd5b600061201a8383613561565b905060006002600960008581526020019081526020016000206003015460096000878152602001908152602001600020600301540181151561205857fe5b049050612065338561348b565b80156120775750612076338461348b565b5b156120915761208b33836001600085611521565b506120a2565b6120a030836001600085611521565b505b50505050565b3373ffffffffffffffffffffffffffffffffffffffff166001600083815260200190815260200160002060009054906101000a900473ffffffffffffffffffffffffffffffffffffffff1673ffffffffffffffffffffffffffffffffffffffff16141515156121a5576040517f08c379a00000000000000000000000000000000000000000000000000000000081526004018080602001828103825260238152602001807f746f6b656e206f776e65722063616e2774206265206d6573736167652073656e81526020017f646572000000000000000000000000000000000000000000000000000000000081525060400191505060405180910390fd5b60011515600b600083815260200190815260200160002060009054906101000a900460ff161515141515612241576040517f08c379a00000000000000000000000000000000000000000000000000000000081526004018080602001828103825260158152602001807f646f67206973206e6f7420696e2061756374696f6e000000000000000000000081525060200191505060405180910390fd5b600c600082815260200190815260200160002060040154341115156122f4576040517f08c379a000000000000000000000000000000000000000000000000000000000815260040180806020018281038252602d8152602001807f6d73672e76616c7565206d757374206265207375706572696f7220746f20746881526020017f652068696768657374206269640000000000000000000000000000000000000081525060400191505060405180910390fd5b426202a300600c6000848152602001908152602001600020600201540110151515612387576040517f08c379a00000000000000000000000000000000000000000000000000000000081526004018080602001828103825260138152602001807f61756374696f6e2069732066696e69736865640000000000000000000000000081525060200191505060405180910390fd5b34600d60003373ffffffffffffffffffffffffffffffffffffffff1673ffffffffffffffffffffffffffffffffffffffff16815260200190815260200160002081905550600c60008281526020019081526020016000206001013390806001815401808255809150509060018203906000526020600020016000909192909190916101000a81548173ffffffffffffffffffffffffffffffffffffffff021916908373ffffffffffffffffffffffffffffffffffffffff1602179055505034600c60008381526020019081526020016000206004018190555050565b600081600073ffffffffffffffffffffffffffffffffffffffff168173ffffffffffffffffffffffffffffffffffffffff161415151561250b576040517f08c379a00000000000000000000000000000000000000000000000000000000081526004018080602001828103825260188152602001807f6164647265737320307830206973206e6f742076616c6964000000000000000081525060200191505060405180910390fd5b6000808473ffffffffffffffffffffffffffffffffffffffff1673ffffffffffffffffffffffffffffffffffffffff16815260200190815260200160002054915050919050565b60016020528060005260406000206000915054906101000a900473ffffffffffffffffffffffffffffffffffffffff1681565b61258e8161324a565b73ffffffffffffffffffffffffffffffffffffffff163373ffffffffffffffffffffffffffffffffffffffff16141515612630576040517f08c379a00000000000000000000000000000000000000000000000000000000081526004018080602001828103825260198152602001807f73656e646572206973206e6f7420746f6b656e206f776e65720000000000000081525060200191505060405180910390fd5b60001515600a600083815260200190815260200160002060009054906101000a900460ff1615151415156126f2576040517f08c379a00000000000000000000000000000000000000000000000000000000081526004018080602001828103825260218152602001807f646f6720697320616c726561647920617661696c61626c6520746f206272656581526020017f640000000000000000000000000000000000000000000000000000000000000081525060400191505060405180910390fd5b6001600a600083815260200190815260200160002060006101000a81548160ff02191690831515021790555050565b600a6020528060005260406000206000915054906101000a900460ff1681565b60003073ffffffffffffffffffffffffffffffffffffffff1631905090565b600560009054906101000a900473ffffffffffffffffffffffffffffffffffffffff1681565b6000600c6000838152602001908152602001600020600401549050919050565b6008602052816000526040600020818154811015156127c157fe5b9060005260206000209060040201600091509150508060000154908060010160009054906101000a900460ff16908060010160019054906101000a900460ff16908060020154908060030154905085565b60011515600b600083815260200190815260200160002060009054906101000a900460ff16151514151561284557600080fd5b6202a300600c600083815260200190815260200160002060020154014211151561286e57600080fd5b600c600082815260200190815260200160002060040154600d60003373ffffffffffffffffffffffffffffffffffffffff1673ffffffffffffffffffffffffffffffffffffffff168152602001908152602001600020541415156128d157600080fd5b33600c600083815260200190815260200160002060050160006101000a81548173ffffffffffffffffffffffffffffffffffffffff021916908373ffffffffffffffffffffffffffffffffffffffff16021790555061292f81613908565b600460009054906101000a900473ffffffffffffffffffffffffffffffffffffffff1673ffffffffffffffffffffffffffffffffffffffff166323b872dd6129768361324a565b33846040518463ffffffff167c0100000000000000000000000000000000000000000000000000000000028152600401808473ffffffffffffffffffffffffffffffffffffffff1673ffffffffffffffffffffffffffffffffffffffff1681526020018373ffffffffffffffffffffffffffffffffffffffff1673ffffffffffffffffffffffffffffffffffffffff1681526020018281526020019350505050600060405180830381600087803b158015612a3057600080fd5b505af1158015612a44573d6000803e3d6000fd5b5050505050565b3373ffffffffffffffffffffffffffffffffffffffff168273ffffffffffffffffffffffffffffffffffffffff1614151515612b15576040517f08c379a00000000000000000000000000000000000000000000000000000000081526004018080602001828103825260218152602001807f4552433732313a204f776e657220697320616c726561647920617070726f766581526020017f640000000000000000000000000000000000000000000000000000000000000081525060400191505060405180910390fd5b80600360003373ffffffffffffffffffffffffffffffffffffffff1673ffffffffffffffffffffffffffffffffffffffff16815260200190815260200160002060008473ffffffffffffffffffffffffffffffffffffffff1673ffffffffffffffffffffffffffffffffffffffff16815260200190815260200160002060006101000a81548160ff0219169083151502179055508173ffffffffffffffffffffffffffffffffffffffff163373ffffffffffffffffffffffffffffffffffffffff167f17307eab39ab6107e8899845ad3d59bd9653f200f220920489ca2b5937696c3183604051808215151515815260200191505060405180910390a35050565b600b6020528060005260406000206000915054906101000a900460ff1681565b60076020528060005260406000206000915054906101000a900460ff1681565b6000600360008473ffffffffffffffffffffffffffffffffffffffff1673ffffffffffffffffffffffffffffffffffffffff16815260200190815260200160002060008373ffffffffffffffffffffffffffffffffffffffff1673ffffffffffffffffffffffffffffffffffffffff16815260200190815260200160002060009054906101000a900460ff16905092915050565b612cf38161324a565b73ffffffffffffffffffffffffffffffffffffffff163373ffffffffffffffffffffffffffffffffffffffff16141515612d95576040517f08c379a00000000000000000000000000000000000000000000000000000000081526004018080602001828103825260198152602001807f73656e646572206973206e6f7420746f6b656e206f776e65720000000000000081525060200191505060405180910390fd5b612d9f3382613c26565b600960008281526020019081526020016000206000808201600090556001820160006101000a81549060ff02191690556001820160016101000a81549060ff0219169055600282016000905560038201600090555050612dfe81613361565b50565b612e0b308261348b565b1515612e7f576040517f08c379a000000000000000000000000000000000000000000000000000000000815260040180806020018281038252601b8152602001807f73656e646572206973206e6f7420636f6e74726174206f776e6572000000000081525060200191505060405180910390fd5b612e87613f5d565b30816000019073ffffffffffffffffffffffffffffffffffffffff16908173ffffffffffffffffffffffffffffffffffffffff1681525050428160400181815250506001816060018181525050600081608001818152505060008160a0019073ffffffffffffffffffffffffffffffffffffffff16908173ffffffffffffffffffffffffffffffffffffffff16815250506001600b600084815260200190815260200160002060006101000a81548160ff02191690831515021790555080600c600084815260200190815260200160002060008201518160000160006101000a81548173ffffffffffffffffffffffffffffffffffffffff021916908373ffffffffffffffffffffffffffffffffffffffff1602179055506020820151816001019080519060200190612fbb929190613fc0565b5060408201518160020155606082015181600301556080820151816004015560a08201518160050160006101000a81548173ffffffffffffffffffffffffffffffffffffffff021916908373ffffffffffffffffffffffffffffffffffffffff1602179055509050505050565b600073ffffffffffffffffffffffffffffffffffffffff168273ffffffffffffffffffffffffffffffffffffffff16141515156130cd576040517f08c379a00000000000000000000000000000000000000000000000000000000081526004018080602001828103825260208152602001807f4552433732313a206d696e7420746f20746865207a65726f206164647265737381525060200191505060405180910390fd5b6130d681613e2b565b15151561314b576040517f08c379a000000000000000000000000000000000000000000000000000000000815260040180806020018281038252601c8152602001807f4552433732313a20746f6b656e20616c7265616479206d696e7465640000000081525060200191505060405180910390fd5b816001600083815260200190815260200160002060006101000a81548173ffffffffffffffffffffffffffffffffffffffff021916908373ffffffffffffffffffffffffffffffffffffffff16021790555060016000808473ffffffffffffffffffffffffffffffffffffffff1673ffffffffffffffffffffffffffffffffffffffff16815260200190815260200160002060008282540192505081905550808273ffffffffffffffffffffffffffffffffffffffff16600073ffffffffffffffffffffffffffffffffffffffff167fddf252ad1be2c89b69c2b068fc378daa952ba7f163c4a11628f55a4df523b3ef60405160405180910390a45050565b60006001600083815260200190815260200160002060009054906101000a900473ffffffffffffffffffffffffffffffffffffffff16600073ffffffffffffffffffffffffffffffffffffffff168173ffffffffffffffffffffffffffffffffffffffff1614151515613325576040517f08c379a00000000000000000000000000000000000000000000000000000000081526004018080602001828103825260188152602001807f6164647265737320307830206973206e6f742076616c6964000000000000000081525060200191505060405180910390fd5b6001600084815260200190815260200160002060009054906101000a900473ffffffffffffffffffffffffffffffffffffffff16915050919050565b60008090505b81600860006133758561324a565b73ffffffffffffffffffffffffffffffffffffffff1673ffffffffffffffffffffffffffffffffffffffff168152602001908152602001600020828154811015156133bc57fe5b9060005260206000209060040201600001541415156133e2578080600101915050613367565b600860006133ef8461324a565b73ffffffffffffffffffffffffffffffffffffffff1673ffffffffffffffffffffffffffffffffffffffff1681526020019081526020016000208181548110151561343657fe5b90600052602060002090600402016000808201600090556001820160006101000a81549060ff02191690556001820160016101000a81549060ff02191690556002820160009055600382016000905550505050565b600080905060008090505b600860008573ffffffffffffffffffffffffffffffffffffffff1673ffffffffffffffffffffffffffffffffffffffff168152602001908152602001600020805490508110156135575782600860008673ffffffffffffffffffffffffffffffffffffffff1673ffffffffffffffffffffffffffffffffffffffff1681526020019081526020016000208281548110151561352d57fe5b906000526020600020906004020160000154141561354a57600191505b8080600101915050613496565b5080905092915050565b600061356b61404a565b6009600085815260200190815260200160002060a06040519081016040529081600082015481526020016001820160009054906101000a900460ff1660088111156135b257fe5b60088111156135bd57fe5b81526020016001820160019054906101000a900460ff161515151581526020016002820154815260200160038201548152505090506135fa61404a565b6009600085815260200190815260200160002060a06040519081016040529081600082015481526020016001820160009054906101000a900460ff16600881111561364157fe5b600881111561364c57fe5b81526020016001820160019054906101000a900460ff161515151581526020016002820154815260200160038201548152505090506000600881111561368e57fe5b8260200151600881111561369e57fe5b1480156136c55750600160088111156136b357fe5b816020015160088111156136c357fe5b145b806137105750600160088111156136d857fe5b826020015160088111156136e857fe5b14801561370f5750600060088111156136fd57fe5b8160200151600881111561370d57fe5b145b5b1561371e57600592506138fd565b6001600881111561372b57fe5b8260200151600881111561373b57fe5b14801561376257506004600881111561375057fe5b8160200151600881111561376057fe5b145b806137ad57506004600881111561377557fe5b8260200151600881111561378557fe5b1480156137ac57506001600881111561379a57fe5b816020015160088111156137aa57fe5b145b5b156137bb57600692506138fc565b600260088111156137c857fe5b826020015160088111156137d857fe5b1480156137ff5750600360088111156137ed57fe5b816020015160088111156137fd57fe5b145b8061384a57506003600881111561381257fe5b8260200151600881111561382257fe5b14801561384957506002600881111561383757fe5b8160200151600881111561384757fe5b145b5b1561385857600192506138fb565b6000600881111561386557fe5b8260200151600881111561387557fe5b14801561389c57506004600881111561388a57fe5b8160200151600881111561389a57fe5b145b806138e75750600460088111156138af57fe5b826020015160088111156138bf57fe5b1480156138e65750600060088111156138d457fe5b816020015160088111156138e457fe5b145b5b156138f557600792506138fa565b600892505b5b5b5b829250505092915050565b60008090505b600c600083815260200190815260200160002060010180549050811015613ba757600c600083815260200190815260200160002060050160009054906101000a900473ffffffffffffffffffffffffffffffffffffffff1673ffffffffffffffffffffffffffffffffffffffff16600c60008481526020019081526020016000206001018281548110151561399f57fe5b9060005260206000200160009054906101000a900473ffffffffffffffffffffffffffffffffffffffff1673ffffffffffffffffffffffffffffffffffffffff16141515613b9a57600c600083815260200190815260200160002060010181815481101515613a0a57fe5b9060005260206000200160009054906101000a900473ffffffffffffffffffffffffffffffffffffffff1673ffffffffffffffffffffffffffffffffffffffff166108fc600d6000600c600087815260200190815260200160002060010185815481101515613a7557fe5b9060005260206000200160009054906101000a900473ffffffffffffffffffffffffffffffffffffffff1673ffffffffffffffffffffffffffffffffffffffff1673ffffffffffffffffffffffffffffffffffffffff168152602001908152602001600020549081150290604051600060405180830381858888f19350505050158015613b06573d6000803e3d6000fd5b506000600d6000600c600086815260200190815260200160002060010184815481101515613b3057fe5b9060005260206000200160009054906101000a900473ffffffffffffffffffffffffffffffffffffffff1673ffffffffffffffffffffffffffffffffffffffff1673ffffffffffffffffffffffffffffffffffffffff168152602001908152602001600020819055505b808060010191505061390e565b506000600d6000600c600085815260200190815260200160002060050160009054906101000a900473ffffffffffffffffffffffffffffffffffffffff1673ffffffffffffffffffffffffffffffffffffffff1673ffffffffffffffffffffffffffffffffffffffff1681526020019081526020016000208190555050565b8173ffffffffffffffffffffffffffffffffffffffff166001600083815260200190815260200160002060009054906101000a900473ffffffffffffffffffffffffffffffffffffffff1673ffffffffffffffffffffffffffffffffffffffff16141515613d22576040517f08c379a00000000000000000000000000000000000000000000000000000000081526004018080602001828103825260258152602001807f4552433732313a206275726e206f6620746f6b656e2074686174206973206e6f81526020017f74206f776e00000000000000000000000000000000000000000000000000000081525060400191505060405180910390fd5b613d2b81613e9d565b60016000808473ffffffffffffffffffffffffffffffffffffffff1673ffffffffffffffffffffffffffffffffffffffff1681526020019081526020016000206000828254039250508190555060006001600083815260200190815260200160002060006101000a81548173ffffffffffffffffffffffffffffffffffffffff021916908373ffffffffffffffffffffffffffffffffffffffff16021790555080600073ffffffffffffffffffffffffffffffffffffffff168373ffffffffffffffffffffffffffffffffffffffff167fddf252ad1be2c89b69c2b068fc378daa952ba7f163c4a11628f55a4df523b3ef60405160405180910390a45050565b6000806001600084815260200190815260200160002060009054906101000a900473ffffffffffffffffffffffffffffffffffffffff169050600073ffffffffffffffffffffffffffffffffffffffff168173ffffffffffffffffffffffffffffffffffffffff161415915050919050565b600073ffffffffffffffffffffffffffffffffffffffff166002600083815260200190815260200160002060009054906101000a900473ffffffffffffffffffffffffffffffffffffffff1673ffffffffffffffffffffffffffffffffffffffff16141515613f5a5760006002600083815260200190815260200160002060006101000a81548173ffffffffffffffffffffffffffffffffffffffff021916908373ffffffffffffffffffffffffffffffffffffffff1602179055505b50565b60c060405190810160405280600073ffffffffffffffffffffffffffffffffffffffff16815260200160608152602001600081526020016000815260200160008152602001600073ffffffffffffffffffffffffffffffffffffffff1681525090565b828054828255906000526020600020908101928215614039579160200282015b828111156140385782518260006101000a81548173ffffffffffffffffffffffffffffffffffffffff021916908373ffffffffffffffffffffffffffffffffffffffff16021790555091602001919060010190613fe0565b5b5090506140469190614087565b5090565b60a060405190810160405280600081526020016000600881111561406a57fe5b815260200160001515815260200160008152602001600081525090565b6140c791905b808211156140c357600081816101000a81549073ffffffffffffffffffffffffffffffffffffffff02191690555060010161408d565b5090565b9056fea165627a7a723058200cae9c561fbd6c2652b821c9affbbb7af043d3cf071ecbe6bcce5ca535cec6c10029608060405234801561001057600080fd5b50610e5f806100206000396000f3fe608060405260043610610083576000357c0100000000000000000000000000000000000000000000000000000000900463ffffffff168063081812fc14610088578063095ea7b31461010357806323b872dd1461015157806370a08231146101bf578063796db31214610224578063a22cb4651461029f578063e985e9c5146102fc575b600080fd5b34801561009457600080fd5b506100c1600480360360208110156100ab57600080fd5b8101908080359060200190929190505050610385565b604051808273ffffffffffffffffffffffffffffffffffffffff1673ffffffffffffffffffffffffffffffffffffffff16815260200191505060405180910390f35b61014f6004803603604081101561011957600080fd5b81019080803573ffffffffffffffffffffffffffffffffffffffff16906020019092919080359060200190929190505050610433565b005b6101bd6004803603606081101561016757600080fd5b81019080803573ffffffffffffffffffffffffffffffffffffffff169060200190929190803573ffffffffffffffffffffffffffffffffffffffff16906020019092919080359060200190929190505050610692565b005b3480156101cb57600080fd5b5061020e600480360360208110156101e257600080fd5b81019080803573ffffffffffffffffffffffffffffffffffffffff169060200190929190505050610ab2565b6040518082815260200191505060405180910390f35b34801561023057600080fd5b5061025d6004803603602081101561024757600080fd5b8101908080359060200190929190505050610ba1565b604051808273ffffffffffffffffffffffffffffffffffffffff1673ffffffffffffffffffffffffffffffffffffffff16815260200191505060405180910390f35b3480156102ab57600080fd5b506102fa600480360360408110156102c257600080fd5b81019080803573ffffffffffffffffffffffffffffffffffffffff169060200190929190803515159060200190929190505050610bd4565b005b34801561030857600080fd5b5061036b6004803603604081101561031f57600080fd5b81019080803573ffffffffffffffffffffffffffffffffffffffff169060200190929190803573ffffffffffffffffffffffffffffffffffffffff169060200190929190505050610d9f565b604051808215151515815260200191505060405180910390f35b600081600073ffffffffffffffffffffffffffffffffffffffff166001600083815260200190815260200160002060009054906101000a900473ffffffffffffffffffffffffffffffffffffffff1673ffffffffffffffffffffffffffffffffffffffff16141515156103f757600080fd5b6002600084815260200190815260200160002060009054906101000a900473ffffffffffffffffffffffffffffffffffffffff16915050919050565b3373ffffffffffffffffffffffffffffffffffffffff168273ffffffffffffffffffffffffffffffffffffffff16141515156104fd576040517f08c379a00000000000000000000000000000000000000000000000000000000081526004018080602001828103825260228152602001807f455243373231203a204f776e657220697320616c726561647920617070726f7681526020017f656400000000000000000000000000000000000000000000000000000000000081525060400191505060405180910390fd5b3373ffffffffffffffffffffffffffffffffffffffff166001600083815260200190815260200160002060009054906101000a900473ffffffffffffffffffffffffffffffffffffffff1673ffffffffffffffffffffffffffffffffffffffff1614806105a357506105a26001600083815260200190815260200160002060009054906101000a900473ffffffffffffffffffffffffffffffffffffffff1633610d9f565b5b15156105ae57600080fd5b816002600083815260200190815260200160002060006101000a81548173ffffffffffffffffffffffffffffffffffffffff021916908373ffffffffffffffffffffffffffffffffffffffff160217905550808273ffffffffffffffffffffffffffffffffffffffff166001600084815260200190815260200160002060009054906101000a900473ffffffffffffffffffffffffffffffffffffffff1673ffffffffffffffffffffffffffffffffffffffff167f8c5be1e5ebec7d5bd14f71427d1e84f3dd0314c0f7b2291e5b200ac8c7c3b92560405160405180910390a45050565b81600073ffffffffffffffffffffffffffffffffffffffff168173ffffffffffffffffffffffffffffffffffffffff1614151515610738576040517f08c379a00000000000000000000000000000000000000000000000000000000081526004018080602001828103825260188152602001807f6164647265737320307830206973206e6f742076616c6964000000000000000081525060200191505060405180910390fd5b81600073ffffffffffffffffffffffffffffffffffffffff166001600083815260200190815260200160002060009054906101000a900473ffffffffffffffffffffffffffffffffffffffff1673ffffffffffffffffffffffffffffffffffffffff16141515156107a857600080fd5b33838173ffffffffffffffffffffffffffffffffffffffff163373ffffffffffffffffffffffffffffffffffffffff16148061081757508173ffffffffffffffffffffffffffffffffffffffff166107ff82610385565b73ffffffffffffffffffffffffffffffffffffffff16145b8061085b575061085a6001600083815260200190815260200160002060009054906101000a900473ffffffffffffffffffffffffffffffffffffffff1683610d9f565b5b151561086657600080fd5b8673ffffffffffffffffffffffffffffffffffffffff166001600087815260200190815260200160002060009054906101000a900473ffffffffffffffffffffffffffffffffffffffff1673ffffffffffffffffffffffffffffffffffffffff16141515610962576040517f08c379a000000000000000000000000000000000000000000000000000000000815260040180806020018281038252602b8152602001807f4552433732313a207472616e73666572206f6620746f6b656e2074686174206981526020017f73206e6f74206f776e656400000000000000000000000000000000000000000081525060400191505060405180910390fd5b60016000808973ffffffffffffffffffffffffffffffffffffffff1673ffffffffffffffffffffffffffffffffffffffff1681526020019081526020016000206000828254039250508190555060016000808873ffffffffffffffffffffffffffffffffffffffff1673ffffffffffffffffffffffffffffffffffffffff16815260200190815260200160002060008282540192505081905550856001600087815260200190815260200160002060006101000a81548173ffffffffffffffffffffffffffffffffffffffff021916908373ffffffffffffffffffffffffffffffffffffffff160217905550848673ffffffffffffffffffffffffffffffffffffffff168873ffffffffffffffffffffffffffffffffffffffff167fddf252ad1be2c89b69c2b068fc378daa952ba7f163c4a11628f55a4df523b3ef60405160405180910390a450505050505050565b600081600073ffffffffffffffffffffffffffffffffffffffff168173ffffffffffffffffffffffffffffffffffffffff1614151515610b5a576040517f08c379a00000000000000000000000000000000000000000000000000000000081526004018080602001828103825260188152602001807f6164647265737320307830206973206e6f742076616c6964000000000000000081525060200191505060405180910390fd5b6000808473ffffffffffffffffffffffffffffffffffffffff1673ffffffffffffffffffffffffffffffffffffffff16815260200190815260200160002054915050919050565b60016020528060005260406000206000915054906101000a900473ffffffffffffffffffffffffffffffffffffffff1681565b3373ffffffffffffffffffffffffffffffffffffffff168273ffffffffffffffffffffffffffffffffffffffff1614151515610c9e576040517f08c379a00000000000000000000000000000000000000000000000000000000081526004018080602001828103825260218152602001807f4552433732313a204f776e657220697320616c726561647920617070726f766581526020017f640000000000000000000000000000000000000000000000000000000000000081525060400191505060405180910390fd5b80600360003373ffffffffffffffffffffffffffffffffffffffff1673ffffffffffffffffffffffffffffffffffffffff16815260200190815260200160002060008473ffffffffffffffffffffffffffffffffffffffff1673ffffffffffffffffffffffffffffffffffffffff16815260200190815260200160002060006101000a81548160ff0219169083151502179055508173ffffffffffffffffffffffffffffffffffffffff163373ffffffffffffffffffffffffffffffffffffffff167f17307eab39ab6107e8899845ad3d59bd9653f200f220920489ca2b5937696c3183604051808215151515815260200191505060405180910390a35050565b6000600360008473ffffffffffffffffffffffffffffffffffffffff1673ffffffffffffffffffffffffffffffffffffffff16815260200190815260200160002060008373ffffffffffffffffffffffffffffffffffffffff1673ffffffffffffffffffffffffffffffffffffffff16815260200190815260200160002060009054906101000a900460ff1690509291505056fea165627a7a723058205671895392c79241393a1eff93788e2eea2c44abfcd660bfd2565da4e68eb53b0029",
  "source": "pragma solidity ^0.5.0;\r\n\r\n\r\nimport \"./SafeMath.sol\";\r\nimport \"./ERC721.sol\";\r\n//import \"./BreedSystem.sol\";\r\n//import \"./Auction.sol\";\r\n//import \"./Arena.sol\";\r\n\r\n\r\ncontract DogRegisterCoin is ERC721 {\r\n\r\n    ERC721 private _erc721;\r\n    address payable public owner;\r\n\r\n    uint private _nextId;\r\n\r\n\r\n    mapping (address => bool) public _whitelist;\r\n\r\n    mapping (address => Dog[]) public breederDogs;\r\n\r\n    mapping (uint => Dog) public dogsById;\r\n\r\n    mapping (uint256 => bool) public availableToBreed;\r\n\r\n    mapping (uint256 => bool) public dogsInAuction; //dogid => bool\r\n\r\n    mapping (uint256 => Auction) public auction; //mapping between dogid and auction\r\n\r\n    mapping (address => uint256) bidderToBid;\r\n\r\n\r\n    Dog[] availableDogsToBreed;\r\n\r\n    \r\n    enum Race {Labrador, Pitbull, Terrier, Bouldog, Husky, Bullador, Pitsky, Labrador_Husky, Unknown}\r\n    \r\n\r\n\tconstructor() public {\r\n\t\t_erc721 = new ERC721();\r\n\t\towner = msg.sender;\r\n\r\n\t}\r\n\r\n\r\n\tstruct Dog {\r\n\t\tuint id;\r\n\t\tRace race;\r\n\t\tbool isMale;\r\n\t\tuint256 age;\r\n\t\tuint256 category;\r\n\t}\r\n\r\n\tstruct Auction {\r\n\t\taddress chairperson;\r\n\t\taddress payable[] bidders;\r\n\t\tuint256 startTime;\r\n\t\tuint256 startingPrice;\r\n\t\tuint256 highestBid;\r\n\t\taddress winner;\r\n\t}\r\n\r\n\tmodifier onlyOwner() {\r\n\t\trequire(msg.sender == owner);\r\n\t\t_;\r\n\t}\r\n\r\n\r\n\tmodifier isNotContractOwner() {\r\n\t\trequire(msg.sender != address(this));\r\n\t\t_;\r\n\t}\r\n\r\n\r\n\tfunction contractBalance() public view returns (uint256) {\r\n\t\treturn address(this).balance;\r\n\t}\r\n\r\n     \r\n    //whitelist \r\n\tfunction registerBreeder(address _breeder) public isNonZeroAddress(_breeder) onlyOwner() {\r\n     require(_whitelist[_breeder] == false, \"breeder already registered\");\r\n     _whitelist[_breeder] = true;\r\n\t}\r\n\r\n\r\n\tfunction declareAnimal(address payable _breeder, Race _race, bool _isMale, uint256 _age, uint256 _category) public isNonZeroAddress(_breeder) returns (bool) {\r\n\t\t_nextId++;\r\n       Dog memory dog = Dog(_nextId, _race, _isMale, _age, _category);\r\n       breederDogs[_breeder].push(dog);\r\n       dogsById[_nextId] = dog;\r\n       if( _breeder == address(this))\r\n       {\r\n       \tdogsInAuction[_nextId] = true;\r\n       \t_auctionByContract(_nextId);\r\n       }\r\n       _mint(_breeder, _nextId);\r\n       return true;\r\n\t}\r\n\r\n\tfunction deadAnimal(uint _tokenId) public {\r\n\t\trequire(msg.sender == ownerOf(_tokenId), \"sender is not token owner\");\r\n\t\t_burn(msg.sender, _tokenId);\r\n\t\tdelete dogsById[_tokenId];\r\n\t\t_removeFromArray(_tokenId);\r\n\t}\r\n\r\n\r\n\tfunction breedAnimal(uint256 _dogId1, uint256 _dogId2) public {\r\n\t\trequire(dogsById[_dogId1].isMale == true && dogsById[_dogId2].isMale == false || dogsById[_dogId1].isMale == false && dogsById[_dogId2].isMale == true, \"not possible to breed same sex animals\");\r\n\t\trequire(_hasDog(msg.sender, _dogId1) || _hasDog(msg.sender, _dogId2), \"message sender is not one of the token owner\");\r\n\t\trequire(availableToBreed[_dogId1] && availableToBreed[_dogId2], \"dogs have to be available to breed\");\r\n\t\t\r\n\r\n\t\tRace _race = _determineRaceAfterBreed(_dogId1, _dogId2);\r\n\t\tuint256 _category = (dogsById[_dogId1].category + dogsById[_dogId2].category)/2;\r\n\r\n\t\tif(_hasDog(msg.sender, _dogId1) && _hasDog(msg.sender, _dogId2))\r\n\t\t{\r\n\t\t\tdeclareAnimal(msg.sender, _race, true, 0, _category);\r\n\r\n\r\n\t\t}\r\n\r\n\t\telse \r\n\t\t{ \r\n\t\t\tdeclareAnimal(address(uint160(address(this))), _race, true, 0, _category);\r\n\r\n\t\t}\r\n\r\n\t}\r\n\r\n\r\n\tfunction proposeToBreed(uint256 _dogId) public {\r\n\t\trequire(msg.sender == ownerOf(_dogId), \"sender is not token owner\");\r\n\t\trequire(availableToBreed[_dogId] == false, \"dog is already available to breed\");\r\n\t\tavailableToBreed[_dogId] = true;\r\n\t}\r\n\r\n\r\n\r\n\tfunction _hasDog(address _breeder, uint256 _dogId) internal view returns (bool success) {\r\n\t\tsuccess = false;\r\n\t\tfor(uint i = 0; i<breederDogs[_breeder].length; i++)\r\n\t\t{\r\n\t\t\tif(breederDogs[_breeder][i].id == _dogId) {\r\n\t\t\t\tsuccess = true;\r\n\t\t\t}\r\n\r\n\t\t}\r\n\t\treturn success;\r\n\r\n\t}\r\n\r\n\tfunction _determineRaceAfterBreed(uint256 _id1, uint256 _id2) internal view returns (Race race){\r\n\t\tDog memory _dog1 = dogsById[_id1];\r\n\t\tDog memory _dog2 = dogsById[_id2];\r\n\r\n\t\tif((_dog1.race == Race.Labrador && _dog2.race == Race.Pitbull) || (_dog1.race == Race.Pitbull && _dog2.race == Race.Labrador))\r\n\t\t{\r\n\t\t\trace = Race.Bullador;\r\n\t\t}\r\n\t\telse if((_dog1.race == Race.Pitbull && _dog2.race == Race.Husky) || (_dog1.race == Race.Husky && _dog2.race == Race.Pitbull))\r\n\t\t{\r\n\t\t\trace = Race.Pitsky;\r\n\t\t}\r\n\t\telse if((_dog1.race == Race.Terrier && _dog2.race == Race.Bouldog) || (_dog1.race == Race.Bouldog && _dog2.race == Race.Terrier))\r\n\t\t{\r\n\t\t\trace = Race.Pitbull;\r\n\t\t}\r\n\t\telse if((_dog1.race == Race.Labrador && _dog2.race == Race.Husky) || (_dog1.race == Race.Husky && _dog2.race == Race.Labrador))\r\n\t\t{\r\n\t\t\trace = Race.Labrador_Husky;\r\n\t\t}\r\n\t\telse \r\n\t\t{\r\n\t\t\trace = Race.Unknown;\r\n\t\t} \r\n\t\treturn race;\r\n\r\n\t} \r\n\r\n\r\n\r\n\tfunction getHighestBid(uint256 _id) public view returns (uint256){\r\n\t\treturn auction[_id].highestBid;\r\n\r\n\t}\r\n\r\n\r\n\tfunction createAuction(uint256 _id, uint256 _startingPrice) public {\r\n\t\trequire(_tokenOwner[_id] == msg.sender, \"sender is not token owner\");\r\n\t\tAuction memory auc;\r\n\t\tauc.chairperson = msg.sender;\r\n\t\tauc.startTime = now;\r\n\t\tauc.startingPrice = _startingPrice;\r\n\t\tauc.highestBid = 0;\r\n\t\tauc.winner = address(0);\r\n\r\n\t\tdogsInAuction[_id] = true;\r\n\t\tauction[_id] = auc;\r\n\r\n\t}\r\n\t\r\n\t\r\n\tfunction _auctionByContract(uint256 _id) internal {\r\n\t    require(_hasDog(address(this), _id), \"sender is not contrat owner\");\r\n\t\tAuction memory auc;\r\n\t\tauc.chairperson = address(this);\r\n\t\tauc.startTime = now;\r\n\t\tauc.startingPrice = 1;\r\n\t\tauc.highestBid = 0;\r\n\t\tauc.winner = address(0);\r\n\r\n\t\tdogsInAuction[_id] = true;\r\n\t\tauction[_id] = auc;\r\n\t}\r\n\r\n\tfunction bidAuction(uint256 _id) public payable {\r\n\t\trequire(_tokenOwner[_id] != msg.sender, \"token owner can't be message sender\");\r\n\t\trequire(dogsInAuction[_id] == true, \"dog is not in auction\");\r\n\t\trequire(msg.value > auction[_id].highestBid, \"msg.value must be superior to the highest bid\");\r\n\t\trequire(auction[_id].startTime + 2 days >= now, \"auction is finished\");\r\n\t\tbidderToBid[msg.sender] = msg.value;\r\n\t\tauction[_id].bidders.push(msg.sender);\r\n\t\tauction[_id].highestBid = msg.value;\r\n\r\n\t}\r\n\r\n\tfunction updateBid(uint256 _id) public payable {\r\n\t\trequire((bidderToBid[msg.sender] + msg.value) > auction[_id].highestBid);\r\n\t\tbidderToBid[msg.sender] += msg.value;\r\n\t}\r\n\r\n\r\n\tfunction claimAuction(uint256 _id) public payable{\r\n\t\trequire(dogsInAuction[_id] == true);\r\n\t\trequire(now > auction[_id].startTime + 2 days);\r\n\t\trequire(bidderToBid[msg.sender] == auction[_id].highestBid);\r\n\t\tauction[_id].winner = msg.sender;\r\n\r\n        _repayAuctionLosers(_id);\r\n\t\t_erc721.transferFrom(ownerOf(_id), msg.sender, _id);\r\n\r\n\r\n\t}\r\n\r\n\r\n\r\n\tfunction TransferAnimal(address _from, address payable _to, uint256 _id) public {\r\n\t\trequire(ownerOf(_id) == _from);\r\n\t\trequire(dogsInAuction[_id] == false);\r\n\t\trequire(_whitelist[_to] == true);\r\n\t\t_removeFromArray(_id);\r\n\t\t_erc721.transferFrom(_from, _to , _id);\r\n\r\n\t}\r\n\r\n\r\n\r\nfunction _removeFromArray(uint256 _id) internal {\r\n    uint i = 0;\r\n\twhile (breederDogs[ownerOf(_id)][i].id != _id)\r\n\t{\r\n\t\ti++;\r\n\t}\r\n\tdelete breederDogs[ownerOf(_id)][i];\r\n}\r\n\r\n\r\nfunction _repayAuctionLosers(uint256 _id) private{\r\n\tfor(uint i =0; i< auction[_id].bidders.length; i++) {\r\n\t\tif(auction[_id].bidders[i] != auction[_id].winner) {\r\n\t\t\tauction[_id].bidders[i].transfer(bidderToBid[auction[_id].bidders[i]]);\r\n\t\t\tbidderToBid[auction[_id].bidders[i]] = 0;\r\n\t\t}\r\n\t}\r\n\tbidderToBid[auction[_id].winner] = 0;\r\n\r\n}\r\n\r\n\r\n\r\n\r\n\r\n}",
  "sourcePath": "C:\\Users\\cleme\\Desktop\\smart_contracts_ethereum\\TD6\\contracts\\DogRegisterCoin.sol",
  "compiler": {
    "name": "solc",
    "version": "0.5.0+commit.1d4f565a.Emscripten.clang"
  },
  "schemaVersion": "3.0.5",
  "updatedAt": "2019-11-17T08:53:03.045Z",
  "devdoc": {
    "methods": {}
  },
  "userdoc": {
    "methods": {}
  }
}