{
  "contractName": "DogRegisterCoin",
  "abi": [
    {
      "inputs": [],
      "payable": false,
      "stateMutability": "nonpayable",
      "type": "constructor"
    },
    {
      "anonymous": false,
      "inputs": [
        {
          "indexed": true,
          "internalType": "address",
          "name": "_owner",
          "type": "address"
        },
        {
          "indexed": true,
          "internalType": "address",
          "name": "_approved",
          "type": "address"
        },
        {
          "indexed": true,
          "internalType": "uint256",
          "name": "_tokenId",
          "type": "uint256"
        }
      ],
      "name": "Approval",
      "type": "event"
    },
    {
      "anonymous": false,
      "inputs": [
        {
          "indexed": true,
          "internalType": "address",
          "name": "_owner",
          "type": "address"
        },
        {
          "indexed": true,
          "internalType": "address",
          "name": "_operator",
          "type": "address"
        },
        {
          "indexed": false,
          "internalType": "bool",
          "name": "_approved",
          "type": "bool"
        }
      ],
      "name": "ApprovalForAll",
      "type": "event"
    },
    {
      "anonymous": false,
      "inputs": [
        {
          "indexed": true,
          "internalType": "address",
          "name": "_from",
          "type": "address"
        },
        {
          "indexed": true,
          "internalType": "address",
          "name": "_to",
          "type": "address"
        },
        {
          "indexed": true,
          "internalType": "uint256",
          "name": "_tokenId",
          "type": "uint256"
        }
      ],
      "name": "Transfer",
      "type": "event"
    },
    {
      "constant": true,
      "inputs": [
        {
          "internalType": "uint256",
          "name": "",
          "type": "uint256"
        }
      ],
      "name": "_tokenOwner",
      "outputs": [
        {
          "internalType": "address payable",
          "name": "",
          "type": "address"
        }
      ],
      "payable": false,
      "stateMutability": "view",
      "type": "function"
    },
    {
      "constant": true,
      "inputs": [
        {
          "internalType": "address",
          "name": "",
          "type": "address"
        }
      ],
      "name": "_whitelist",
      "outputs": [
        {
          "internalType": "bool",
          "name": "",
          "type": "bool"
        }
      ],
      "payable": false,
      "stateMutability": "view",
      "type": "function"
    },
    {
      "constant": false,
      "inputs": [
        {
          "internalType": "address",
          "name": "_approved",
          "type": "address"
        },
        {
          "internalType": "uint256",
          "name": "_tokenId",
          "type": "uint256"
        }
      ],
      "name": "approve",
      "outputs": [],
      "payable": true,
      "stateMutability": "payable",
      "type": "function"
    },
    {
      "constant": true,
      "inputs": [
        {
          "internalType": "uint256",
          "name": "",
          "type": "uint256"
        }
      ],
      "name": "availableToBreed",
      "outputs": [
        {
          "internalType": "bool",
          "name": "",
          "type": "bool"
        }
      ],
      "payable": false,
      "stateMutability": "view",
      "type": "function"
    },
    {
      "constant": true,
      "inputs": [
        {
          "internalType": "address",
          "name": "_address",
          "type": "address"
        }
      ],
      "name": "balanceOf",
      "outputs": [
        {
          "internalType": "uint256",
          "name": "",
          "type": "uint256"
        }
      ],
      "payable": false,
      "stateMutability": "view",
      "type": "function"
    },
    {
      "constant": true,
      "inputs": [
        {
          "internalType": "address",
          "name": "",
          "type": "address"
        },
        {
          "internalType": "uint256",
          "name": "",
          "type": "uint256"
        }
      ],
      "name": "breederDogs",
      "outputs": [
        {
          "internalType": "uint256",
          "name": "id",
          "type": "uint256"
        },
        {
          "internalType": "enum DogRegisterCoin.Race",
          "name": "race",
          "type": "uint8"
        },
        {
          "internalType": "bool",
          "name": "isMale",
          "type": "bool"
        },
        {
          "internalType": "uint8",
          "name": "age",
          "type": "uint8"
        },
        {
          "internalType": "uint8",
          "name": "category",
          "type": "uint8"
        }
      ],
      "payable": false,
      "stateMutability": "view",
      "type": "function"
    },
    {
      "constant": true,
      "inputs": [
        {
          "internalType": "uint256",
          "name": "",
          "type": "uint256"
        }
      ],
      "name": "dogsById",
      "outputs": [
        {
          "internalType": "uint256",
          "name": "id",
          "type": "uint256"
        },
        {
          "internalType": "enum DogRegisterCoin.Race",
          "name": "race",
          "type": "uint8"
        },
        {
          "internalType": "bool",
          "name": "isMale",
          "type": "bool"
        },
        {
          "internalType": "uint8",
          "name": "age",
          "type": "uint8"
        },
        {
          "internalType": "uint8",
          "name": "category",
          "type": "uint8"
        }
      ],
      "payable": false,
      "stateMutability": "view",
      "type": "function"
    },
    {
      "constant": true,
      "inputs": [
        {
          "internalType": "uint256",
          "name": "",
          "type": "uint256"
        }
      ],
      "name": "dogsInAuction",
      "outputs": [
        {
          "internalType": "bool",
          "name": "",
          "type": "bool"
        }
      ],
      "payable": false,
      "stateMutability": "view",
      "type": "function"
    },
    {
      "constant": true,
      "inputs": [
        {
          "internalType": "uint256",
          "name": "_tokenId",
          "type": "uint256"
        }
      ],
      "name": "getApproved",
      "outputs": [
        {
          "internalType": "address",
          "name": "",
          "type": "address"
        }
      ],
      "payable": false,
      "stateMutability": "view",
      "type": "function"
    },
    {
      "constant": true,
      "inputs": [
        {
          "internalType": "address",
          "name": "_owner",
          "type": "address"
        },
        {
          "internalType": "address",
          "name": "_operator",
          "type": "address"
        }
      ],
      "name": "isApprovedForAll",
      "outputs": [
        {
          "internalType": "bool",
          "name": "",
          "type": "bool"
        }
      ],
      "payable": false,
      "stateMutability": "view",
      "type": "function"
    },
    {
      "constant": true,
      "inputs": [],
      "name": "owner",
      "outputs": [
        {
          "internalType": "address payable",
          "name": "",
          "type": "address"
        }
      ],
      "payable": false,
      "stateMutability": "view",
      "type": "function"
    },
    {
      "constant": true,
      "inputs": [
        {
          "internalType": "uint256",
          "name": "_tokenId",
          "type": "uint256"
        }
      ],
      "name": "ownerOf",
      "outputs": [
        {
          "internalType": "address payable",
          "name": "",
          "type": "address"
        }
      ],
      "payable": false,
      "stateMutability": "view",
      "type": "function"
    },
    {
      "constant": false,
      "inputs": [
        {
          "internalType": "address",
          "name": "_operator",
          "type": "address"
        },
        {
          "internalType": "bool",
          "name": "_approved",
          "type": "bool"
        }
      ],
      "name": "setApprovalForAll",
      "outputs": [],
      "payable": false,
      "stateMutability": "nonpayable",
      "type": "function"
    },
    {
      "constant": false,
      "inputs": [
        {
          "internalType": "address",
          "name": "_from",
          "type": "address"
        },
        {
          "internalType": "address payable",
          "name": "_to",
          "type": "address"
        },
        {
          "internalType": "uint256",
          "name": "_tokenId",
          "type": "uint256"
        }
      ],
      "name": "transferFrom",
      "outputs": [],
      "payable": true,
      "stateMutability": "payable",
      "type": "function"
    },
    {
      "constant": true,
      "inputs": [],
      "name": "contractBalance",
      "outputs": [
        {
          "internalType": "uint256",
          "name": "",
          "type": "uint256"
        }
      ],
      "payable": false,
      "stateMutability": "view",
      "type": "function"
    },
    {
      "constant": false,
      "inputs": [
        {
          "internalType": "address",
          "name": "_breeder",
          "type": "address"
        }
      ],
      "name": "registerBreeder",
      "outputs": [],
      "payable": false,
      "stateMutability": "nonpayable",
      "type": "function"
    },
    {
      "constant": false,
      "inputs": [
        {
          "internalType": "address payable",
          "name": "_breeder",
          "type": "address"
        },
        {
          "internalType": "enum DogRegisterCoin.Race",
          "name": "_race",
          "type": "uint8"
        },
        {
          "internalType": "bool",
          "name": "_isMale",
          "type": "bool"
        },
        {
          "internalType": "uint8",
          "name": "_age",
          "type": "uint8"
        },
        {
          "internalType": "uint8",
          "name": "_category",
          "type": "uint8"
        }
      ],
      "name": "declareAnimal",
      "outputs": [
        {
          "internalType": "bool",
          "name": "",
          "type": "bool"
        }
      ],
      "payable": false,
      "stateMutability": "nonpayable",
      "type": "function"
    },
    {
      "constant": false,
      "inputs": [
        {
          "internalType": "uint256",
          "name": "_tokenId",
          "type": "uint256"
        }
      ],
      "name": "deadAnimal",
      "outputs": [],
      "payable": false,
      "stateMutability": "nonpayable",
      "type": "function"
    },
    {
      "constant": false,
      "inputs": [
        {
          "internalType": "address payable",
          "name": "_to",
          "type": "address"
        },
        {
          "internalType": "uint256",
          "name": "_id",
          "type": "uint256"
        }
      ],
      "name": "TransferAnimal",
      "outputs": [],
      "payable": false,
      "stateMutability": "nonpayable",
      "type": "function"
    }
  ],
  "bytecode": "0x60806040523480156200001157600080fd5b506040516200002090620000c5565b604051809103906000f0801580156200003d573d6000803e3d6000fd5b50600460006101000a81548173ffffffffffffffffffffffffffffffffffffffff021916908373ffffffffffffffffffffffffffffffffffffffff16021790555033600560006101000a81548173ffffffffffffffffffffffffffffffffffffffff021916908373ffffffffffffffffffffffffffffffffffffffff160217905550620000d3565b610fa38062002ace83390190565b6129eb80620000e36000396000f3fe6080604052600436106101145760003560e01c806386f253aa116100a0578063c4b4b16b11610064578063c4b4b16b146106fc578063ce6cc0fb14610757578063cfdb63ac146107aa578063e985e9c514610813578063ec9b6db91461089c57610114565b806386f253aa146105215780638b7afe2e146105745780638da5cb5b1461059f578063909e268a146105f6578063a22cb4651461069f57610114565b8063476fd474116100e7578063476fd474146102d9578063617065e31461032a5780636352211e146103c657806370a0823114610441578063796db312146104a657610114565b8063081812fc14610119578063095ea7b31461019457806323b872dd146101e25780634065cc6714610250575b600080fd5b34801561012557600080fd5b506101526004803603602081101561013c57600080fd5b81019080803590602001909291905050506108d7565b604051808273ffffffffffffffffffffffffffffffffffffffff1673ffffffffffffffffffffffffffffffffffffffff16815260200191505060405180910390f35b6101e0600480360360408110156101aa57600080fd5b81019080803573ffffffffffffffffffffffffffffffffffffffff16906020019092919080359060200190929190505050610983565b005b61024e600480360360608110156101f857600080fd5b81019080803573ffffffffffffffffffffffffffffffffffffffff169060200190929190803573ffffffffffffffffffffffffffffffffffffffff16906020019092919080359060200190929190505050610b9b565b005b34801561025c57600080fd5b506102896004803603602081101561027357600080fd5b8101908080359060200190929190505050610f70565b6040518086815260200185600881111561029f57fe5b60ff168152602001841515151581526020018360ff1660ff1681526020018260ff1660ff1681526020019550505050505060405180910390f35b3480156102e557600080fd5b50610328600480360360208110156102fc57600080fd5b81019080803573ffffffffffffffffffffffffffffffffffffffff169060200190929190505050610fda565b005b34801561033657600080fd5b506103ac600480360360a081101561034d57600080fd5b81019080803573ffffffffffffffffffffffffffffffffffffffff169060200190929190803560ff169060200190929190803515159060200190929190803560ff169060200190929190803560ff169060200190929190505050611248565b604051808215151515815260200191505060405180910390f35b3480156103d257600080fd5b506103ff600480360360208110156103e957600080fd5b81019080803590602001909291905050506115b3565b604051808273ffffffffffffffffffffffffffffffffffffffff1673ffffffffffffffffffffffffffffffffffffffff16815260200191505060405180910390f35b34801561044d57600080fd5b506104906004803603602081101561046457600080fd5b81019080803573ffffffffffffffffffffffffffffffffffffffff1690602001909291905050506116c8565b6040518082815260200191505060405180910390f35b3480156104b257600080fd5b506104df600480360360208110156104c957600080fd5b81019080803590602001909291905050506117b5565b604051808273ffffffffffffffffffffffffffffffffffffffff1673ffffffffffffffffffffffffffffffffffffffff16815260200191505060405180910390f35b34801561052d57600080fd5b5061055a6004803603602081101561054457600080fd5b81019080803590602001909291905050506117e8565b604051808215151515815260200191505060405180910390f35b34801561058057600080fd5b50610589611808565b6040518082815260200191505060405180910390f35b3480156105ab57600080fd5b506105b4611827565b604051808273ffffffffffffffffffffffffffffffffffffffff1673ffffffffffffffffffffffffffffffffffffffff16815260200191505060405180910390f35b34801561060257600080fd5b5061064f6004803603604081101561061957600080fd5b81019080803573ffffffffffffffffffffffffffffffffffffffff1690602001909291908035906020019092919050505061184d565b6040518086815260200185600881111561066557fe5b60ff168152602001841515151581526020018360ff1660ff1681526020018260ff1660ff1681526020019550505050505060405180910390f35b3480156106ab57600080fd5b506106fa600480360360408110156106c257600080fd5b81019080803573ffffffffffffffffffffffffffffffffffffffff1690602001909291908035151590602001909291905050506118d1565b005b34801561070857600080fd5b506107556004803603604081101561071f57600080fd5b81019080803573ffffffffffffffffffffffffffffffffffffffff16906020019092919080359060200190929190505050611a57565b005b34801561076357600080fd5b506107906004803603602081101561077a57600080fd5b8101908080359060200190929190505050611dae565b604051808215151515815260200191505060405180910390f35b3480156107b657600080fd5b506107f9600480360360208110156107cd57600080fd5b81019080803573ffffffffffffffffffffffffffffffffffffffff169060200190929190505050611dce565b604051808215151515815260200191505060405180910390f35b34801561081f57600080fd5b506108826004803603604081101561083657600080fd5b81019080803573ffffffffffffffffffffffffffffffffffffffff169060200190929190803573ffffffffffffffffffffffffffffffffffffffff169060200190929190505050611dee565b604051808215151515815260200191505060405180910390f35b3480156108a857600080fd5b506108d5600480360360208110156108bf57600080fd5b8101908080359060200190929190505050611e82565b005b600081600073ffffffffffffffffffffffffffffffffffffffff166001600083815260200190815260200160002060009054906101000a900473ffffffffffffffffffffffffffffffffffffffff1673ffffffffffffffffffffffffffffffffffffffff16141561094757600080fd5b6002600084815260200190815260200160002060009054906101000a900473ffffffffffffffffffffffffffffffffffffffff16915050919050565b3373ffffffffffffffffffffffffffffffffffffffff168273ffffffffffffffffffffffffffffffffffffffff161415610a08576040517f08c379a00000000000000000000000000000000000000000000000000000000081526004018080602001828103825260228152602001806128da6022913960400191505060405180910390fd5b3373ffffffffffffffffffffffffffffffffffffffff166001600083815260200190815260200160002060009054906101000a900473ffffffffffffffffffffffffffffffffffffffff1673ffffffffffffffffffffffffffffffffffffffff161480610aae5750610aad6001600083815260200190815260200160002060009054906101000a900473ffffffffffffffffffffffffffffffffffffffff1633611dee565b5b610ab757600080fd5b816002600083815260200190815260200160002060006101000a81548173ffffffffffffffffffffffffffffffffffffffff021916908373ffffffffffffffffffffffffffffffffffffffff160217905550808273ffffffffffffffffffffffffffffffffffffffff166001600084815260200190815260200160002060009054906101000a900473ffffffffffffffffffffffffffffffffffffffff1673ffffffffffffffffffffffffffffffffffffffff167f8c5be1e5ebec7d5bd14f71427d1e84f3dd0314c0f7b2291e5b200ac8c7c3b92560405160405180910390a45050565b81600073ffffffffffffffffffffffffffffffffffffffff168173ffffffffffffffffffffffffffffffffffffffff161415610c3f576040517f08c379a00000000000000000000000000000000000000000000000000000000081526004018080602001828103825260188152602001807f6164647265737320307830206973206e6f742076616c6964000000000000000081525060200191505060405180910390fd5b81600073ffffffffffffffffffffffffffffffffffffffff166001600083815260200190815260200160002060009054906101000a900473ffffffffffffffffffffffffffffffffffffffff1673ffffffffffffffffffffffffffffffffffffffff161415610cad57600080fd5b33838173ffffffffffffffffffffffffffffffffffffffff163373ffffffffffffffffffffffffffffffffffffffff161480610d1c57508173ffffffffffffffffffffffffffffffffffffffff16610d04826108d7565b73ffffffffffffffffffffffffffffffffffffffff16145b80610d605750610d5f6001600083815260200190815260200160002060009054906101000a900473ffffffffffffffffffffffffffffffffffffffff1683611dee565b5b610d6957600080fd5b8673ffffffffffffffffffffffffffffffffffffffff166001600087815260200190815260200160002060009054906101000a900473ffffffffffffffffffffffffffffffffffffffff1673ffffffffffffffffffffffffffffffffffffffff1614610e20576040517f08c379a000000000000000000000000000000000000000000000000000000000815260040180806020018281038252602b81526020018061298c602b913960400191505060405180910390fd5b60016000808973ffffffffffffffffffffffffffffffffffffffff1673ffffffffffffffffffffffffffffffffffffffff1681526020019081526020016000206000828254039250508190555060016000808873ffffffffffffffffffffffffffffffffffffffff1673ffffffffffffffffffffffffffffffffffffffff16815260200190815260200160002060008282540192505081905550856001600087815260200190815260200160002060006101000a81548173ffffffffffffffffffffffffffffffffffffffff021916908373ffffffffffffffffffffffffffffffffffffffff160217905550848673ffffffffffffffffffffffffffffffffffffffff168873ffffffffffffffffffffffffffffffffffffffff167fddf252ad1be2c89b69c2b068fc378daa952ba7f163c4a11628f55a4df523b3ef60405160405180910390a450505050505050565b60096020528060005260406000206000915090508060000154908060010160009054906101000a900460ff16908060010160019054906101000a900460ff16908060010160029054906101000a900460ff16908060010160039054906101000a900460ff16905085565b80600073ffffffffffffffffffffffffffffffffffffffff168173ffffffffffffffffffffffffffffffffffffffff16141561107e576040517f08c379a00000000000000000000000000000000000000000000000000000000081526004018080602001828103825260188152602001807f6164647265737320307830206973206e6f742076616c6964000000000000000081525060200191505060405180910390fd5b600560009054906101000a900473ffffffffffffffffffffffffffffffffffffffff168073ffffffffffffffffffffffffffffffffffffffff163373ffffffffffffffffffffffffffffffffffffffff1614611125576040517f08c379a000000000000000000000000000000000000000000000000000000000815260040180806020018281038252602181526020018061291d6021913960400191505060405180910390fd5b60001515600760008573ffffffffffffffffffffffffffffffffffffffff1673ffffffffffffffffffffffffffffffffffffffff16815260200190815260200160002060009054906101000a900460ff161515146111eb576040517f08c379a000000000000000000000000000000000000000000000000000000000815260040180806020018281038252601a8152602001807f6272656564657220616c7265616479207265676973746572656400000000000081525060200191505060405180910390fd5b6001600760008573ffffffffffffffffffffffffffffffffffffffff1673ffffffffffffffffffffffffffffffffffffffff16815260200190815260200160002060006101000a81548160ff021916908315150217905550505050565b600085600073ffffffffffffffffffffffffffffffffffffffff168173ffffffffffffffffffffffffffffffffffffffff1614156112ee576040517f08c379a00000000000000000000000000000000000000000000000000000000081526004018080602001828103825260188152602001807f6164647265737320307830206973206e6f742076616c6964000000000000000081525060200191505060405180910390fd5b3373ffffffffffffffffffffffffffffffffffffffff168773ffffffffffffffffffffffffffffffffffffffff161461138f576040517f08c379a000000000000000000000000000000000000000000000000000000000815260040180806020018281038252601e8152602001807f627265656465722061646472657373206973206e6f7420636f7272656374000081525060200191505060405180910390fd5b6006600081548092919060010191905055506113a9612897565b6040518060a0016040528060065481526020018860088111156113c857fe5b815260200187151581526020018660ff1681526020018560ff168152509050600b60008973ffffffffffffffffffffffffffffffffffffffff1673ffffffffffffffffffffffffffffffffffffffff16815260200190815260200160002081908060018154018082558091505090600182039060005260206000209060020201600090919290919091506000820151816000015560208201518160010160006101000a81548160ff0219169083600881111561148057fe5b021790555060408201518160010160016101000a81548160ff02191690831515021790555060608201518160010160026101000a81548160ff021916908360ff16021790555060808201518160010160036101000a81548160ff021916908360ff160217905550505050806009600060065481526020019081526020016000206000820151816000015560208201518160010160006101000a81548160ff0219169083600881111561152e57fe5b021790555060408201518160010160016101000a81548160ff02191690831515021790555060608201518160010160026101000a81548160ff021916908360ff16021790555060808201518160010160036101000a81548160ff021916908360ff1602179055509050506115a488600654611fa3565b60019250505095945050505050565b60006001600083815260200190815260200160002060009054906101000a900473ffffffffffffffffffffffffffffffffffffffff16600073ffffffffffffffffffffffffffffffffffffffff168173ffffffffffffffffffffffffffffffffffffffff16141561168c576040517f08c379a00000000000000000000000000000000000000000000000000000000081526004018080602001828103825260188152602001807f6164647265737320307830206973206e6f742076616c6964000000000000000081525060200191505060405180910390fd5b6001600084815260200190815260200160002060009054906101000a900473ffffffffffffffffffffffffffffffffffffffff16915050919050565b600081600073ffffffffffffffffffffffffffffffffffffffff168173ffffffffffffffffffffffffffffffffffffffff16141561176e576040517f08c379a00000000000000000000000000000000000000000000000000000000081526004018080602001828103825260188152602001807f6164647265737320307830206973206e6f742076616c6964000000000000000081525060200191505060405180910390fd5b6000808473ffffffffffffffffffffffffffffffffffffffff1673ffffffffffffffffffffffffffffffffffffffff16815260200190815260200160002054915050919050565b60016020528060005260406000206000915054906101000a900473ffffffffffffffffffffffffffffffffffffffff1681565b600a6020528060005260406000206000915054906101000a900460ff1681565b60003073ffffffffffffffffffffffffffffffffffffffff1631905090565b600560009054906101000a900473ffffffffffffffffffffffffffffffffffffffff1681565b600b602052816000526040600020818154811061186657fe5b9060005260206000209060020201600091509150508060000154908060010160009054906101000a900460ff16908060010160019054906101000a900460ff16908060010160029054906101000a900460ff16908060010160039054906101000a900460ff16905085565b3373ffffffffffffffffffffffffffffffffffffffff168273ffffffffffffffffffffffffffffffffffffffff161415611956576040517f08c379a00000000000000000000000000000000000000000000000000000000081526004018080602001828103825260218152602001806128fc6021913960400191505060405180910390fd5b80600360003373ffffffffffffffffffffffffffffffffffffffff1673ffffffffffffffffffffffffffffffffffffffff16815260200190815260200160002060008473ffffffffffffffffffffffffffffffffffffffff1673ffffffffffffffffffffffffffffffffffffffff16815260200190815260200160002060006101000a81548160ff0219169083151502179055508173ffffffffffffffffffffffffffffffffffffffff163373ffffffffffffffffffffffffffffffffffffffff167f17307eab39ab6107e8899845ad3d59bd9653f200f220920489ca2b5937696c3183604051808215151515815260200191505060405180910390a35050565b611a60816115b3565b8073ffffffffffffffffffffffffffffffffffffffff163373ffffffffffffffffffffffffffffffffffffffff1614611ae4576040517f08c379a000000000000000000000000000000000000000000000000000000000815260040180806020018281038252602181526020018061291d6021913960400191505060405180910390fd5b600015156008600084815260200190815260200160002060009054906101000a900460ff16151514611b61576040517f08c379a00000000000000000000000000000000000000000000000000000000081526004018080602001828103825260298152602001806129636029913960400191505060405180910390fd5b600460009054906101000a900473ffffffffffffffffffffffffffffffffffffffff1673ffffffffffffffffffffffffffffffffffffffff166323b872dd3385856040518463ffffffff1660e01b8152600401808473ffffffffffffffffffffffffffffffffffffffff1673ffffffffffffffffffffffffffffffffffffffff1681526020018373ffffffffffffffffffffffffffffffffffffffff1673ffffffffffffffffffffffffffffffffffffffff1681526020018281526020019350505050600060405180830381600087803b158015611c3e57600080fd5b505af1158015611c52573d6000803e3d6000fd5b50505050611c6033836121c1565b600b60008473ffffffffffffffffffffffffffffffffffffffff1673ffffffffffffffffffffffffffffffffffffffff1681526020019081526020016000206009600084815260200190815260200160002090806001815401808255809150509060018203906000526020600020906002020160009091929091909150600082015481600001556001820160009054906101000a900460ff168160010160006101000a81548160ff02191690836008811115611d1857fe5b02179055506001820160019054906101000a900460ff168160010160016101000a81548160ff0219169083151502179055506001820160029054906101000a900460ff168160010160026101000a81548160ff021916908360ff1602179055506001820160039054906101000a900460ff168160010160036101000a81548160ff021916908360ff160217905550505050505050565b60086020528060005260406000206000915054906101000a900460ff1681565b60076020528060005260406000206000915054906101000a900460ff1681565b6000600360008473ffffffffffffffffffffffffffffffffffffffff1673ffffffffffffffffffffffffffffffffffffffff16815260200190815260200160002060008373ffffffffffffffffffffffffffffffffffffffff1673ffffffffffffffffffffffffffffffffffffffff16815260200190815260200160002060009054906101000a900460ff16905092915050565b611e8b816115b3565b8073ffffffffffffffffffffffffffffffffffffffff163373ffffffffffffffffffffffffffffffffffffffff1614611f0f576040517f08c379a000000000000000000000000000000000000000000000000000000000815260040180806020018281038252602181526020018061291d6021913960400191505060405180910390fd5b6000611f1a836115b3565b9050611f2633846125a7565b600960008481526020019081526020016000206000808201600090556001820160006101000a81549060ff02191690556001820160016101000a81549060ff02191690556001820160026101000a81549060ff02191690556001820160036101000a81549060ff02191690555050611f9e81846121c1565b505050565b600073ffffffffffffffffffffffffffffffffffffffff168273ffffffffffffffffffffffffffffffffffffffff161415612046576040517f08c379a00000000000000000000000000000000000000000000000000000000081526004018080602001828103825260208152602001807f4552433732313a206d696e7420746f20746865207a65726f206164647265737381525060200191505060405180910390fd5b61204f81612767565b156120c2576040517f08c379a000000000000000000000000000000000000000000000000000000000815260040180806020018281038252601c8152602001807f4552433732313a20746f6b656e20616c7265616479206d696e7465640000000081525060200191505060405180910390fd5b816001600083815260200190815260200160002060006101000a81548173ffffffffffffffffffffffffffffffffffffffff021916908373ffffffffffffffffffffffffffffffffffffffff16021790555060016000808473ffffffffffffffffffffffffffffffffffffffff1673ffffffffffffffffffffffffffffffffffffffff16815260200190815260200160002060008282540192505081905550808273ffffffffffffffffffffffffffffffffffffffff16600073ffffffffffffffffffffffffffffffffffffffff167fddf252ad1be2c89b69c2b068fc378daa952ba7f163c4a11628f55a4df523b3ef60405160405180910390a45050565b600080905060008090506000600b60008673ffffffffffffffffffffffffffffffffffffffff1673ffffffffffffffffffffffffffffffffffffffff1681526020019081526020016000208054905090505b83600b60008773ffffffffffffffffffffffffffffffffffffffff1673ffffffffffffffffffffffffffffffffffffffff168152602001908152602001600020848154811061225e57fe5b90600052602060002090600202016000015414612282578280600101935050612213565b6001810383141561234557600b60008673ffffffffffffffffffffffffffffffffffffffff1673ffffffffffffffffffffffffffffffffffffffff16815260200190815260200160002083815481106122d757fe5b90600052602060002090600202016000808201600090556001820160006101000a81549060ff02191690556001820160016101000a81549060ff02191690556001820160026101000a81549060ff02191690556001820160036101000a81549060ff02191690555050612597565b8291505b600181038210156124e057600b60008673ffffffffffffffffffffffffffffffffffffffff1673ffffffffffffffffffffffffffffffffffffffff16815260200190815260200160002060018301815481106123a157fe5b9060005260206000209060020201600b60008773ffffffffffffffffffffffffffffffffffffffff1673ffffffffffffffffffffffffffffffffffffffff16815260200190815260200160002083815481106123f957fe5b9060005260206000209060020201600082015481600001556001820160009054906101000a900460ff168160010160006101000a81548160ff0219169083600881111561244257fe5b02179055506001820160019054906101000a900460ff168160010160016101000a81548160ff0219169083151502179055506001820160029054906101000a900460ff168160010160026101000a81548160ff021916908360ff1602179055506001820160039054906101000a900460ff168160010160036101000a81548160ff021916908360ff1602179055509050508180600101925050612349565b600b60008673ffffffffffffffffffffffffffffffffffffffff1673ffffffffffffffffffffffffffffffffffffffff168152602001908152602001600020600182038154811061252d57fe5b90600052602060002090600202016000808201600090556001820160006101000a81549060ff02191690556001820160016101000a81549060ff02191690556001820160026101000a81549060ff02191690556001820160036101000a81549060ff021916905550505b8080600190039150505050505050565b8173ffffffffffffffffffffffffffffffffffffffff166001600083815260200190815260200160002060009054906101000a900473ffffffffffffffffffffffffffffffffffffffff1673ffffffffffffffffffffffffffffffffffffffff161461265e576040517f08c379a000000000000000000000000000000000000000000000000000000000815260040180806020018281038252602581526020018061293e6025913960400191505060405180910390fd5b612667816127d9565b60016000808473ffffffffffffffffffffffffffffffffffffffff1673ffffffffffffffffffffffffffffffffffffffff1681526020019081526020016000206000828254039250508190555060006001600083815260200190815260200160002060006101000a81548173ffffffffffffffffffffffffffffffffffffffff021916908373ffffffffffffffffffffffffffffffffffffffff16021790555080600073ffffffffffffffffffffffffffffffffffffffff168373ffffffffffffffffffffffffffffffffffffffff167fddf252ad1be2c89b69c2b068fc378daa952ba7f163c4a11628f55a4df523b3ef60405160405180910390a45050565b6000806001600084815260200190815260200160002060009054906101000a900473ffffffffffffffffffffffffffffffffffffffff169050600073ffffffffffffffffffffffffffffffffffffffff168173ffffffffffffffffffffffffffffffffffffffff161415915050919050565b600073ffffffffffffffffffffffffffffffffffffffff166002600083815260200190815260200160002060009054906101000a900473ffffffffffffffffffffffffffffffffffffffff1673ffffffffffffffffffffffffffffffffffffffff16146128945760006002600083815260200190815260200160002060006101000a81548173ffffffffffffffffffffffffffffffffffffffff021916908373ffffffffffffffffffffffffffffffffffffffff1602179055505b50565b6040518060a0016040528060008152602001600060088111156128b657fe5b8152602001600015158152602001600060ff168152602001600060ff168152509056fe455243373231203a204f776e657220697320616c726561647920617070726f7665644552433732313a204f776e657220697320616c726561647920617070726f76656473656e646572206973206e6f742074686520636f727265637420616464726573734552433732313a206275726e206f6620746f6b656e2074686174206973206e6f74206f776e63616e2774207472616e7366657220616e696d616c20776869636820697320696e2061756374696f6e4552433732313a207472616e73666572206f6620746f6b656e2074686174206973206e6f74206f776e6564a265627a7a723158200a7512293ebe0eb4bcc481524f6f5005e8eabfabff42772f7ff14c7796678aeb64736f6c634300050c0032608060405234801561001057600080fd5b50610f83806100206000396000f3fe60806040526004361061007b5760003560e01c806370a082311161004e57806370a0823114610232578063796db31214610297578063a22cb46514610312578063e985e9c51461036f5761007b565b8063081812fc14610080578063095ea7b3146100fb57806323b872dd146101495780636352211e146101b7575b600080fd5b34801561008c57600080fd5b506100b9600480360360208110156100a357600080fd5b81019080803590602001909291905050506103f8565b604051808273ffffffffffffffffffffffffffffffffffffffff1673ffffffffffffffffffffffffffffffffffffffff16815260200191505060405180910390f35b6101476004803603604081101561011157600080fd5b81019080803573ffffffffffffffffffffffffffffffffffffffff169060200190929190803590602001909291905050506104a4565b005b6101b56004803603606081101561015f57600080fd5b81019080803573ffffffffffffffffffffffffffffffffffffffff169060200190929190803573ffffffffffffffffffffffffffffffffffffffff169060200190929190803590602001909291905050506106bc565b005b3480156101c357600080fd5b506101f0600480360360208110156101da57600080fd5b8101908080359060200190929190505050610a91565b604051808273ffffffffffffffffffffffffffffffffffffffff1673ffffffffffffffffffffffffffffffffffffffff16815260200191505060405180910390f35b34801561023e57600080fd5b506102816004803603602081101561025557600080fd5b81019080803573ffffffffffffffffffffffffffffffffffffffff169060200190929190505050610ba6565b6040518082815260200191505060405180910390f35b3480156102a357600080fd5b506102d0600480360360208110156102ba57600080fd5b8101908080359060200190929190505050610c93565b604051808273ffffffffffffffffffffffffffffffffffffffff1673ffffffffffffffffffffffffffffffffffffffff16815260200191505060405180910390f35b34801561031e57600080fd5b5061036d6004803603604081101561033557600080fd5b81019080803573ffffffffffffffffffffffffffffffffffffffff169060200190929190803515159060200190929190505050610cc6565b005b34801561037b57600080fd5b506103de6004803603604081101561039257600080fd5b81019080803573ffffffffffffffffffffffffffffffffffffffff169060200190929190803573ffffffffffffffffffffffffffffffffffffffff169060200190929190505050610e4c565b604051808215151515815260200191505060405180910390f35b600081600073ffffffffffffffffffffffffffffffffffffffff166001600083815260200190815260200160002060009054906101000a900473ffffffffffffffffffffffffffffffffffffffff1673ffffffffffffffffffffffffffffffffffffffff16141561046857600080fd5b6002600084815260200190815260200160002060009054906101000a900473ffffffffffffffffffffffffffffffffffffffff16915050919050565b3373ffffffffffffffffffffffffffffffffffffffff168273ffffffffffffffffffffffffffffffffffffffff161415610529576040517f08c379a0000000000000000000000000000000000000000000000000000000008152600401808060200182810382526022815260200180610ee16022913960400191505060405180910390fd5b3373ffffffffffffffffffffffffffffffffffffffff166001600083815260200190815260200160002060009054906101000a900473ffffffffffffffffffffffffffffffffffffffff1673ffffffffffffffffffffffffffffffffffffffff1614806105cf57506105ce6001600083815260200190815260200160002060009054906101000a900473ffffffffffffffffffffffffffffffffffffffff1633610e4c565b5b6105d857600080fd5b816002600083815260200190815260200160002060006101000a81548173ffffffffffffffffffffffffffffffffffffffff021916908373ffffffffffffffffffffffffffffffffffffffff160217905550808273ffffffffffffffffffffffffffffffffffffffff166001600084815260200190815260200160002060009054906101000a900473ffffffffffffffffffffffffffffffffffffffff1673ffffffffffffffffffffffffffffffffffffffff167f8c5be1e5ebec7d5bd14f71427d1e84f3dd0314c0f7b2291e5b200ac8c7c3b92560405160405180910390a45050565b81600073ffffffffffffffffffffffffffffffffffffffff168173ffffffffffffffffffffffffffffffffffffffff161415610760576040517f08c379a00000000000000000000000000000000000000000000000000000000081526004018080602001828103825260188152602001807f6164647265737320307830206973206e6f742076616c6964000000000000000081525060200191505060405180910390fd5b81600073ffffffffffffffffffffffffffffffffffffffff166001600083815260200190815260200160002060009054906101000a900473ffffffffffffffffffffffffffffffffffffffff1673ffffffffffffffffffffffffffffffffffffffff1614156107ce57600080fd5b33838173ffffffffffffffffffffffffffffffffffffffff163373ffffffffffffffffffffffffffffffffffffffff16148061083d57508173ffffffffffffffffffffffffffffffffffffffff16610825826103f8565b73ffffffffffffffffffffffffffffffffffffffff16145b8061088157506108806001600083815260200190815260200160002060009054906101000a900473ffffffffffffffffffffffffffffffffffffffff1683610e4c565b5b61088a57600080fd5b8673ffffffffffffffffffffffffffffffffffffffff166001600087815260200190815260200160002060009054906101000a900473ffffffffffffffffffffffffffffffffffffffff1673ffffffffffffffffffffffffffffffffffffffff1614610941576040517f08c379a000000000000000000000000000000000000000000000000000000000815260040180806020018281038252602b815260200180610f24602b913960400191505060405180910390fd5b60016000808973ffffffffffffffffffffffffffffffffffffffff1673ffffffffffffffffffffffffffffffffffffffff1681526020019081526020016000206000828254039250508190555060016000808873ffffffffffffffffffffffffffffffffffffffff1673ffffffffffffffffffffffffffffffffffffffff16815260200190815260200160002060008282540192505081905550856001600087815260200190815260200160002060006101000a81548173ffffffffffffffffffffffffffffffffffffffff021916908373ffffffffffffffffffffffffffffffffffffffff160217905550848673ffffffffffffffffffffffffffffffffffffffff168873ffffffffffffffffffffffffffffffffffffffff167fddf252ad1be2c89b69c2b068fc378daa952ba7f163c4a11628f55a4df523b3ef60405160405180910390a450505050505050565b60006001600083815260200190815260200160002060009054906101000a900473ffffffffffffffffffffffffffffffffffffffff16600073ffffffffffffffffffffffffffffffffffffffff168173ffffffffffffffffffffffffffffffffffffffff161415610b6a576040517f08c379a00000000000000000000000000000000000000000000000000000000081526004018080602001828103825260188152602001807f6164647265737320307830206973206e6f742076616c6964000000000000000081525060200191505060405180910390fd5b6001600084815260200190815260200160002060009054906101000a900473ffffffffffffffffffffffffffffffffffffffff16915050919050565b600081600073ffffffffffffffffffffffffffffffffffffffff168173ffffffffffffffffffffffffffffffffffffffff161415610c4c576040517f08c379a00000000000000000000000000000000000000000000000000000000081526004018080602001828103825260188152602001807f6164647265737320307830206973206e6f742076616c6964000000000000000081525060200191505060405180910390fd5b6000808473ffffffffffffffffffffffffffffffffffffffff1673ffffffffffffffffffffffffffffffffffffffff16815260200190815260200160002054915050919050565b60016020528060005260406000206000915054906101000a900473ffffffffffffffffffffffffffffffffffffffff1681565b3373ffffffffffffffffffffffffffffffffffffffff168273ffffffffffffffffffffffffffffffffffffffff161415610d4b576040517f08c379a0000000000000000000000000000000000000000000000000000000008152600401808060200182810382526021815260200180610f036021913960400191505060405180910390fd5b80600360003373ffffffffffffffffffffffffffffffffffffffff1673ffffffffffffffffffffffffffffffffffffffff16815260200190815260200160002060008473ffffffffffffffffffffffffffffffffffffffff1673ffffffffffffffffffffffffffffffffffffffff16815260200190815260200160002060006101000a81548160ff0219169083151502179055508173ffffffffffffffffffffffffffffffffffffffff163373ffffffffffffffffffffffffffffffffffffffff167f17307eab39ab6107e8899845ad3d59bd9653f200f220920489ca2b5937696c3183604051808215151515815260200191505060405180910390a35050565b6000600360008473ffffffffffffffffffffffffffffffffffffffff1673ffffffffffffffffffffffffffffffffffffffff16815260200190815260200160002060008373ffffffffffffffffffffffffffffffffffffffff1673ffffffffffffffffffffffffffffffffffffffff16815260200190815260200160002060009054906101000a900460ff1690509291505056fe455243373231203a204f776e657220697320616c726561647920617070726f7665644552433732313a204f776e657220697320616c726561647920617070726f7665644552433732313a207472616e73666572206f6620746f6b656e2074686174206973206e6f74206f776e6564a265627a7a723158206a784257c34f68a1ad2d90531af64135e72ac26396daf2b8376bb782aa9ad7c664736f6c634300050c0032",
  "source": "pragma solidity ^0.5.12;\r\n\r\n\r\nimport \"./SafeMath.sol\";\r\nimport \"./ERC721.sol\";\r\n\r\ncontract DogRegisterCoin is  ERC721 {\r\n\r\n\t ERC721 internal _erc721;\r\n\r\n\t address payable public owner;\r\n\r\n\r\n    uint256 internal _nextId;\r\n\r\n\r\n    mapping (address => bool) public _whitelist;\r\n    mapping (uint256 => bool) public dogsInAuction; //dogid => bool\r\n\r\n\r\n    mapping (uint => Dog) public dogsById;\r\n\r\n    mapping (uint256 => bool) public availableToBreed;\r\n         mapping (address => Dog[]) public breederDogs;\r\n\r\n\r\n\r\n    \r\n\r\n\r\n    Dog[] availableDogsToBreed;\r\n\r\n    \r\n    enum Race {Labrador, Pitbull, Terrier, Bouldog, Husky, Bullador, Pitsky, Labrador_Husky, Unknown}\r\n    \r\n\r\n\tconstructor() public {\r\n\t\t_erc721 = new ERC721();\r\n\t\towner = msg.sender;\r\n\r\n\t}\r\n\r\n\r\n\tstruct Dog {\r\n\t\tuint256 id;\r\n\t\tRace race;\r\n\t\tbool isMale;\r\n\t\tuint8 age;\r\n\t\tuint8 category;\r\n\t}\r\n\r\n\r\n\r\n\r\n\r\n\r\n\r\n\tmodifier isRegistered(address _address) {\r\n\t\trequire(_whitelist[_address] == true, \"address is not registered\");\r\n\t\t_;\r\n\t}\r\n\r\n\r\n\r\n\tfunction contractBalance() public view returns (uint256) {\r\n\t\treturn address(this).balance;\r\n\t}\r\n\r\n     \r\n    //whitelist \r\n\tfunction registerBreeder(address _breeder) public isNonZeroAddress(_breeder) onlyBy(owner) {\r\n     require(_whitelist[_breeder] == false, \"breeder already registered\");\r\n     _whitelist[_breeder] = true;\r\n\t}\r\n\r\n\r\n\tfunction declareAnimal(address payable _breeder, Race _race, bool _isMale, uint8 _age, uint8 _category) public isNonZeroAddress(_breeder) returns (bool) {\r\n\t\trequire(_breeder == msg.sender, \"breeder address is not correct\");\r\n\t\t_nextId++;\r\n       Dog memory dog = Dog(_nextId, _race, _isMale, _age, _category);\r\n       breederDogs[_breeder].push(dog);\r\n       dogsById[_nextId] = dog;\r\n\r\n       _mint(_breeder, _nextId);\r\n       return true;\r\n\t}\r\n\r\n\r\n\tfunction deadAnimal(uint _tokenId) public onlyBy(ownerOf(_tokenId)){\r\n\t\taddress tokenOwner = ownerOf(_tokenId);\r\n\t\t_burn(msg.sender, _tokenId);\r\n\t\tdelete dogsById[_tokenId];\r\n\t\t_removeFromArray(tokenOwner, _tokenId);\r\n\t}\r\n\r\n\r\n\r\n\t\r\nfunction TransferAnimal(address payable _to, uint256 _id) public onlyBy(ownerOf(_id)) {\r\n\trequire(dogsInAuction[_id] == false, \"can't transfer animal which is in auction\");\r\n\t_erc721.transferFrom(msg.sender, _to, _id);\r\n\t_removeFromArray(msg.sender,_id);\r\n\tbreederDogs[_to].push(dogsById[_id]);\r\n\r\n}\r\n\r\n/*\r\n\tfunction TransferAnimalFrom(address _from, address payable _to, uint256 _id) public isRegistered(_to) {\r\n\t\trequire(dogsInAuction[_id] == false, \"can't transfer animal which is in auction\");\r\n\t\t_removeFromArray(_from, _id);\r\n\t\t_erc721.transferFrom(_from, _to , _id);\r\n\r\n\t}*/\r\n\r\n\r\n\tfunction _hasDog(address _breeder, uint256 _dogId) internal view returns (bool success) {\r\n\t\tsuccess = false;\r\n\t\tfor(uint i = 0; i<breederDogs[_breeder].length; i++)\r\n\t\t{\r\n\t\t\tif(breederDogs[_breeder][i].id == _dogId) {\r\n\t\t\t\tsuccess = true;\r\n\t\t\t}\r\n\r\n\t\t}\r\n\t\treturn success;\r\n\r\n\t}\r\n\r\nfunction _removeFromArray(address tokenOwner, uint256 _id) internal {\r\n    uint i = 0;\r\n    uint j =0;\r\n    uint length = breederDogs[tokenOwner].length;\r\n\twhile(breederDogs[tokenOwner][i].id != _id)\r\n\t{\r\n\t\ti++;\r\n\t}\r\n\tif(i == length-1) {\r\n\tdelete breederDogs[tokenOwner][i];\r\n\r\n\t}\r\n\telse {\r\n\tfor(j=i; j<length-1; j++) {\r\n\t\tbreederDogs[tokenOwner][j] = breederDogs[tokenOwner][j+1];\r\n\t}\r\n\tdelete breederDogs[tokenOwner][length-1];\r\n\r\n\t}\r\n\tlength--;\r\n\r\n}\r\n\r\n\r\n\r\n\r\n\r\n}",
  "sourcePath": "C:\\Users\\cleme\\Desktop\\smart_contracts_ethereum\\TD6\\contracts\\DogRegisterCoin.sol",
  "compiler": {
    "name": "solc",
    "version": "0.5.12+commit.7709ece9.Emscripten.clang"
  },
  "schemaVersion": "3.0.19",
  "updatedAt": "2019-11-24T18:10:23.629Z",
  "devdoc": {
    "methods": {}
  },
  "userdoc": {
    "methods": {}
  }
}