{
  "contractName": "DogRegisterCoin",
  "abi": [
    {
      "inputs": [],
      "payable": false,
      "stateMutability": "nonpayable",
      "type": "constructor"
    },
    {
      "anonymous": false,
      "inputs": [
        {
          "indexed": true,
          "internalType": "address",
          "name": "_owner",
          "type": "address"
        },
        {
          "indexed": true,
          "internalType": "address",
          "name": "_approved",
          "type": "address"
        },
        {
          "indexed": true,
          "internalType": "uint256",
          "name": "_tokenId",
          "type": "uint256"
        }
      ],
      "name": "Approval",
      "type": "event"
    },
    {
      "anonymous": false,
      "inputs": [
        {
          "indexed": true,
          "internalType": "address",
          "name": "_owner",
          "type": "address"
        },
        {
          "indexed": true,
          "internalType": "address",
          "name": "_operator",
          "type": "address"
        },
        {
          "indexed": false,
          "internalType": "bool",
          "name": "_approved",
          "type": "bool"
        }
      ],
      "name": "ApprovalForAll",
      "type": "event"
    },
    {
      "anonymous": false,
      "inputs": [
        {
          "indexed": true,
          "internalType": "address",
          "name": "_from",
          "type": "address"
        },
        {
          "indexed": true,
          "internalType": "address",
          "name": "_to",
          "type": "address"
        },
        {
          "indexed": true,
          "internalType": "uint256",
          "name": "_tokenId",
          "type": "uint256"
        }
      ],
      "name": "Transfer",
      "type": "event"
    },
    {
      "constant": true,
      "inputs": [
        {
          "internalType": "uint256",
          "name": "",
          "type": "uint256"
        }
      ],
      "name": "_tokenOwner",
      "outputs": [
        {
          "internalType": "address payable",
          "name": "",
          "type": "address"
        }
      ],
      "payable": false,
      "stateMutability": "view",
      "type": "function"
    },
    {
      "constant": true,
      "inputs": [
        {
          "internalType": "address",
          "name": "",
          "type": "address"
        }
      ],
      "name": "_whitelist",
      "outputs": [
        {
          "internalType": "bool",
          "name": "",
          "type": "bool"
        }
      ],
      "payable": false,
      "stateMutability": "view",
      "type": "function"
    },
    {
      "constant": false,
      "inputs": [
        {
          "internalType": "address",
          "name": "_approved",
          "type": "address"
        },
        {
          "internalType": "uint256",
          "name": "_tokenId",
          "type": "uint256"
        }
      ],
      "name": "approve",
      "outputs": [],
      "payable": true,
      "stateMutability": "payable",
      "type": "function"
    },
    {
      "constant": true,
      "inputs": [
        {
          "internalType": "uint256",
          "name": "",
          "type": "uint256"
        }
      ],
      "name": "auction",
      "outputs": [
        {
          "internalType": "address",
          "name": "chairperson",
          "type": "address"
        },
        {
          "internalType": "uint256",
          "name": "startTime",
          "type": "uint256"
        },
        {
          "internalType": "uint256",
          "name": "startingPrice",
          "type": "uint256"
        },
        {
          "internalType": "uint256",
          "name": "highestBid",
          "type": "uint256"
        },
        {
          "internalType": "address",
          "name": "winner",
          "type": "address"
        }
      ],
      "payable": false,
      "stateMutability": "view",
      "type": "function"
    },
    {
      "constant": true,
      "inputs": [
        {
          "internalType": "uint256",
          "name": "",
          "type": "uint256"
        }
      ],
      "name": "availableToBreed",
      "outputs": [
        {
          "internalType": "bool",
          "name": "",
          "type": "bool"
        }
      ],
      "payable": false,
      "stateMutability": "view",
      "type": "function"
    },
    {
      "constant": true,
      "inputs": [
        {
          "internalType": "address",
          "name": "_address",
          "type": "address"
        }
      ],
      "name": "balanceOf",
      "outputs": [
        {
          "internalType": "uint256",
          "name": "",
          "type": "uint256"
        }
      ],
      "payable": false,
      "stateMutability": "view",
      "type": "function"
    },
    {
      "constant": true,
      "inputs": [
        {
          "internalType": "address",
          "name": "",
          "type": "address"
        },
        {
          "internalType": "uint256",
          "name": "",
          "type": "uint256"
        }
      ],
      "name": "breederDogs",
      "outputs": [
        {
          "internalType": "uint256",
          "name": "id",
          "type": "uint256"
        },
        {
          "internalType": "enum DogRegisterCoin.Race",
          "name": "race",
          "type": "uint8"
        },
        {
          "internalType": "bool",
          "name": "isMale",
          "type": "bool"
        },
        {
          "internalType": "uint256",
          "name": "age",
          "type": "uint256"
        },
        {
          "internalType": "uint256",
          "name": "category",
          "type": "uint256"
        }
      ],
      "payable": false,
      "stateMutability": "view",
      "type": "function"
    },
    {
      "constant": true,
      "inputs": [
        {
          "internalType": "uint256",
          "name": "",
          "type": "uint256"
        }
      ],
      "name": "dogsById",
      "outputs": [
        {
          "internalType": "uint256",
          "name": "id",
          "type": "uint256"
        },
        {
          "internalType": "enum DogRegisterCoin.Race",
          "name": "race",
          "type": "uint8"
        },
        {
          "internalType": "bool",
          "name": "isMale",
          "type": "bool"
        },
        {
          "internalType": "uint256",
          "name": "age",
          "type": "uint256"
        },
        {
          "internalType": "uint256",
          "name": "category",
          "type": "uint256"
        }
      ],
      "payable": false,
      "stateMutability": "view",
      "type": "function"
    },
    {
      "constant": true,
      "inputs": [
        {
          "internalType": "uint256",
          "name": "",
          "type": "uint256"
        }
      ],
      "name": "dogsInAuction",
      "outputs": [
        {
          "internalType": "bool",
          "name": "",
          "type": "bool"
        }
      ],
      "payable": false,
      "stateMutability": "view",
      "type": "function"
    },
    {
      "constant": true,
      "inputs": [
        {
          "internalType": "uint256",
          "name": "_tokenId",
          "type": "uint256"
        }
      ],
      "name": "getApproved",
      "outputs": [
        {
          "internalType": "address",
          "name": "",
          "type": "address"
        }
      ],
      "payable": false,
      "stateMutability": "view",
      "type": "function"
    },
    {
      "constant": true,
      "inputs": [
        {
          "internalType": "address",
          "name": "_owner",
          "type": "address"
        },
        {
          "internalType": "address",
          "name": "_operator",
          "type": "address"
        }
      ],
      "name": "isApprovedForAll",
      "outputs": [
        {
          "internalType": "bool",
          "name": "",
          "type": "bool"
        }
      ],
      "payable": false,
      "stateMutability": "view",
      "type": "function"
    },
    {
      "constant": true,
      "inputs": [],
      "name": "owner",
      "outputs": [
        {
          "internalType": "address payable",
          "name": "",
          "type": "address"
        }
      ],
      "payable": false,
      "stateMutability": "view",
      "type": "function"
    },
    {
      "constant": false,
      "inputs": [
        {
          "internalType": "address",
          "name": "_operator",
          "type": "address"
        },
        {
          "internalType": "bool",
          "name": "_approved",
          "type": "bool"
        }
      ],
      "name": "setApprovalForAll",
      "outputs": [],
      "payable": false,
      "stateMutability": "nonpayable",
      "type": "function"
    },
    {
      "constant": false,
      "inputs": [
        {
          "internalType": "address",
          "name": "_from",
          "type": "address"
        },
        {
          "internalType": "address payable",
          "name": "_to",
          "type": "address"
        },
        {
          "internalType": "uint256",
          "name": "_tokenId",
          "type": "uint256"
        }
      ],
      "name": "transferFrom",
      "outputs": [],
      "payable": true,
      "stateMutability": "payable",
      "type": "function"
    },
    {
      "constant": true,
      "inputs": [],
      "name": "contractBalance",
      "outputs": [
        {
          "internalType": "uint256",
          "name": "",
          "type": "uint256"
        }
      ],
      "payable": false,
      "stateMutability": "view",
      "type": "function"
    },
    {
      "constant": false,
      "inputs": [
        {
          "internalType": "address",
          "name": "_breeder",
          "type": "address"
        }
      ],
      "name": "registerBreeder",
      "outputs": [],
      "payable": false,
      "stateMutability": "nonpayable",
      "type": "function"
    },
    {
      "constant": false,
      "inputs": [
        {
          "internalType": "address payable",
          "name": "_breeder",
          "type": "address"
        },
        {
          "internalType": "enum DogRegisterCoin.Race",
          "name": "_race",
          "type": "uint8"
        },
        {
          "internalType": "bool",
          "name": "_isMale",
          "type": "bool"
        },
        {
          "internalType": "uint256",
          "name": "_age",
          "type": "uint256"
        },
        {
          "internalType": "uint256",
          "name": "_category",
          "type": "uint256"
        }
      ],
      "name": "declareAnimal",
      "outputs": [
        {
          "internalType": "bool",
          "name": "",
          "type": "bool"
        }
      ],
      "payable": false,
      "stateMutability": "nonpayable",
      "type": "function"
    },
    {
      "constant": false,
      "inputs": [
        {
          "internalType": "uint256",
          "name": "_tokenId",
          "type": "uint256"
        }
      ],
      "name": "deadAnimal",
      "outputs": [],
      "payable": false,
      "stateMutability": "nonpayable",
      "type": "function"
    },
    {
      "constant": false,
      "inputs": [
        {
          "internalType": "uint256",
          "name": "_dogId1",
          "type": "uint256"
        },
        {
          "internalType": "uint256",
          "name": "_dogId2",
          "type": "uint256"
        }
      ],
      "name": "breedAnimal",
      "outputs": [],
      "payable": false,
      "stateMutability": "nonpayable",
      "type": "function"
    },
    {
      "constant": false,
      "inputs": [
        {
          "internalType": "uint256",
          "name": "_dogId",
          "type": "uint256"
        }
      ],
      "name": "proposeToBreed",
      "outputs": [],
      "payable": false,
      "stateMutability": "nonpayable",
      "type": "function"
    },
    {
      "constant": true,
      "inputs": [
        {
          "internalType": "uint256",
          "name": "_id",
          "type": "uint256"
        }
      ],
      "name": "getHighestBid",
      "outputs": [
        {
          "internalType": "uint256",
          "name": "",
          "type": "uint256"
        }
      ],
      "payable": false,
      "stateMutability": "view",
      "type": "function"
    },
    {
      "constant": false,
      "inputs": [
        {
          "internalType": "uint256",
          "name": "_id",
          "type": "uint256"
        },
        {
          "internalType": "uint256",
          "name": "_startingPrice",
          "type": "uint256"
        }
      ],
      "name": "createAuction",
      "outputs": [],
      "payable": false,
      "stateMutability": "nonpayable",
      "type": "function"
    },
    {
      "constant": false,
      "inputs": [
        {
          "internalType": "uint256",
          "name": "_id",
          "type": "uint256"
        }
      ],
      "name": "bidAuction",
      "outputs": [],
      "payable": true,
      "stateMutability": "payable",
      "type": "function"
    },
    {
      "constant": false,
      "inputs": [
        {
          "internalType": "uint256",
          "name": "_id",
          "type": "uint256"
        }
      ],
      "name": "updateBid",
      "outputs": [],
      "payable": true,
      "stateMutability": "payable",
      "type": "function"
    },
    {
      "constant": false,
      "inputs": [
        {
          "internalType": "uint256",
          "name": "_id",
          "type": "uint256"
        }
      ],
      "name": "claimAuction",
      "outputs": [],
      "payable": true,
      "stateMutability": "payable",
      "type": "function"
    },
    {
      "constant": false,
      "inputs": [
        {
          "internalType": "address",
          "name": "_from",
          "type": "address"
        },
        {
          "internalType": "address payable",
          "name": "_to",
          "type": "address"
        },
        {
          "internalType": "uint256",
          "name": "_id",
          "type": "uint256"
        }
      ],
      "name": "TransferAnimal",
      "outputs": [],
      "payable": false,
      "stateMutability": "nonpayable",
      "type": "function"
    }
  ],
  "bytecode": "0x60806040523480156200001157600080fd5b506040516200002090620000c5565b604051809103906000f0801580156200003d573d6000803e3d6000fd5b50600460006101000a81548173ffffffffffffffffffffffffffffffffffffffff021916908373ffffffffffffffffffffffffffffffffffffffff16021790555033600560006101000a81548173ffffffffffffffffffffffffffffffffffffffff021916908373ffffffffffffffffffffffffffffffffffffffff160217905550620000d3565b610e08806200480983390190565b61472680620000e36000396000f3fe6080604052600436106101815760003560e01c8063796db312116100d1578063909e268a1161008a578063ce6cc0fb11610064578063ce6cc0fb146109ac578063cfdb63ac146109ff578063e985e9c514610a68578063ec9b6db914610af157610181565b8063909e268a146108845780639aafc6c914610921578063a22cb4651461094f57610181565b8063796db312146106aa5780637dcdf9be1461072557806386f253aa146107605780638b7afe2e146107b35780638da5cb5b146107de5780638f2886441461083557610181565b80633948313b1161013e578063476fd47411610118578063476fd474146105815780635e6bab68146105d257806364a7d7c71461061757806370a082311461064557610181565b80633948313b1461045b5780634065cc67146104d657806343129de11461055357610181565b80630121683f14610186578063081812fc146101cb578063095ea7b3146102465780631200617f1461029457806323b872dd1461035757806324d89bd2146103c5575b600080fd5b34801561019257600080fd5b506101c9600480360360408110156101a957600080fd5b810190808035906020019092919080359060200190929190505050610b2c565b005b3480156101d757600080fd5b50610204600480360360208110156101ee57600080fd5b8101908080359060200190929190505050610df7565b604051808273ffffffffffffffffffffffffffffffffffffffff1673ffffffffffffffffffffffffffffffffffffffff16815260200191505060405180910390f35b6102926004803603604081101561025c57600080fd5b81019080803573ffffffffffffffffffffffffffffffffffffffff16906020019092919080359060200190929190505050610ea3565b005b3480156102a057600080fd5b506102cd600480360360208110156102b757600080fd5b81019080803590602001909291905050506110bb565b604051808673ffffffffffffffffffffffffffffffffffffffff1673ffffffffffffffffffffffffffffffffffffffff1681526020018581526020018481526020018381526020018273ffffffffffffffffffffffffffffffffffffffff1673ffffffffffffffffffffffffffffffffffffffff1681526020019550505050505060405180910390f35b6103c36004803603606081101561036d57600080fd5b81019080803573ffffffffffffffffffffffffffffffffffffffff169060200190929190803573ffffffffffffffffffffffffffffffffffffffff16906020019092919080359060200190929190505050611131565b005b3480156103d157600080fd5b50610441600480360360a08110156103e857600080fd5b81019080803573ffffffffffffffffffffffffffffffffffffffff169060200190929190803560ff1690602001909291908035151590602001909291908035906020019092919080359060200190929190505050611506565b604051808215151515815260200191505060405180910390f35b34801561046757600080fd5b506104d46004803603606081101561047e57600080fd5b81019080803573ffffffffffffffffffffffffffffffffffffffff169060200190929190803573ffffffffffffffffffffffffffffffffffffffff169060200190929190803590602001909291905050506118da565b005b3480156104e257600080fd5b5061050f600480360360208110156104f957600080fd5b8101908080359060200190929190505050611b23565b6040518086815260200185600881111561052557fe5b60ff168152602001841515151581526020018381526020018281526020019550505050505060405180910390f35b61057f6004803603602081101561056957600080fd5b8101908080359060200190929190505050611b73565b005b34801561058d57600080fd5b506105d0600480360360208110156105a457600080fd5b81019080803573ffffffffffffffffffffffffffffffffffffffff169060200190929190505050611ccc565b005b3480156105de57600080fd5b50610615600480360360408110156105f557600080fd5b810190808035906020019092919080359060200190929190505050611f3a565b005b6106436004803603602081101561062d57600080fd5b8101908080359060200190929190505050612251565b005b34801561065157600080fd5b506106946004803603602081101561066857600080fd5b81019080803573ffffffffffffffffffffffffffffffffffffffff16906020019092919050505061257e565b6040518082815260200191505060405180910390f35b3480156106b657600080fd5b506106e3600480360360208110156106cd57600080fd5b810190808035906020019092919050505061266b565b604051808273ffffffffffffffffffffffffffffffffffffffff1673ffffffffffffffffffffffffffffffffffffffff16815260200191505060405180910390f35b34801561073157600080fd5b5061075e6004803603602081101561074857600080fd5b810190808035906020019092919050505061269e565b005b34801561076c57600080fd5b506107996004803603602081101561078357600080fd5b81019080803590602001909291905050506127d8565b604051808215151515815260200191505060405180910390f35b3480156107bf57600080fd5b506107c86127f8565b6040518082815260200191505060405180910390f35b3480156107ea57600080fd5b506107f3612817565b604051808273ffffffffffffffffffffffffffffffffffffffff1673ffffffffffffffffffffffffffffffffffffffff16815260200191505060405180910390f35b34801561084157600080fd5b5061086e6004803603602081101561085857600080fd5b810190808035906020019092919050505061283d565b6040518082815260200191505060405180910390f35b34801561089057600080fd5b506108dd600480360360408110156108a757600080fd5b81019080803573ffffffffffffffffffffffffffffffffffffffff1690602001909291908035906020019092919050505061285d565b604051808681526020018560088111156108f357fe5b60ff168152602001841515151581526020018381526020018281526020019550505050505060405180910390f35b61094d6004803603602081101561093757600080fd5b81019080803590602001909291905050506128c7565b005b34801561095b57600080fd5b506109aa6004803603604081101561097257600080fd5b81019080803573ffffffffffffffffffffffffffffffffffffffff169060200190929190803515159060200190929190505050612c19565b005b3480156109b857600080fd5b506109e5600480360360208110156109cf57600080fd5b8101908080359060200190929190505050612d9f565b604051808215151515815260200191505060405180910390f35b348015610a0b57600080fd5b50610a4e60048036036020811015610a2257600080fd5b81019080803573ffffffffffffffffffffffffffffffffffffffff169060200190929190505050612dbf565b604051808215151515815260200191505060405180910390f35b348015610a7457600080fd5b50610ad760048036036040811015610a8b57600080fd5b81019080803573ffffffffffffffffffffffffffffffffffffffff169060200190929190803573ffffffffffffffffffffffffffffffffffffffff169060200190929190505050612ddf565b604051808215151515815260200191505060405180910390f35b348015610afd57600080fd5b50610b2a60048036036020811015610b1457600080fd5b8101908080359060200190929190505050612e73565b005b610b3582612f7c565b8073ffffffffffffffffffffffffffffffffffffffff163373ffffffffffffffffffffffffffffffffffffffff1614610bb9576040517f08c379a00000000000000000000000000000000000000000000000000000000081526004018080602001828103825260218152602001806145b76021913960400191505060405180910390fd5b600b600084815260200190815260200160002060009054906101000a900460ff1615610c4d576040517f08c379a00000000000000000000000000000000000000000000000000000000081526004018080602001828103825260198152602001807f646f6720697320616c726561647920696e2061756374696f6e0000000000000081525060200191505060405180910390fd5b610c55614391565b33816000019073ffffffffffffffffffffffffffffffffffffffff16908173ffffffffffffffffffffffffffffffffffffffff16815250504281604001818152505082816060018181525050600081608001818152505060008160a0019073ffffffffffffffffffffffffffffffffffffffff16908173ffffffffffffffffffffffffffffffffffffffff16815250506001600b600086815260200190815260200160002060006101000a81548160ff02191690831515021790555080600c600086815260200190815260200160002060008201518160000160006101000a81548173ffffffffffffffffffffffffffffffffffffffff021916908373ffffffffffffffffffffffffffffffffffffffff1602179055506020820151816001019080519060200190610d889291906143f3565b5060408201518160020155606082015181600301556080820151816004015560a08201518160050160006101000a81548173ffffffffffffffffffffffffffffffffffffffff021916908373ffffffffffffffffffffffffffffffffffffffff16021790555090505050505050565b600081600073ffffffffffffffffffffffffffffffffffffffff166001600083815260200190815260200160002060009054906101000a900473ffffffffffffffffffffffffffffffffffffffff1673ffffffffffffffffffffffffffffffffffffffff161415610e6757600080fd5b6002600084815260200190815260200160002060009054906101000a900473ffffffffffffffffffffffffffffffffffffffff16915050919050565b3373ffffffffffffffffffffffffffffffffffffffff168273ffffffffffffffffffffffffffffffffffffffff161415610f28576040517f08c379a00000000000000000000000000000000000000000000000000000000081526004018080602001828103825260228152602001806145746022913960400191505060405180910390fd5b3373ffffffffffffffffffffffffffffffffffffffff166001600083815260200190815260200160002060009054906101000a900473ffffffffffffffffffffffffffffffffffffffff1673ffffffffffffffffffffffffffffffffffffffff161480610fce5750610fcd6001600083815260200190815260200160002060009054906101000a900473ffffffffffffffffffffffffffffffffffffffff1633612ddf565b5b610fd757600080fd5b816002600083815260200190815260200160002060006101000a81548173ffffffffffffffffffffffffffffffffffffffff021916908373ffffffffffffffffffffffffffffffffffffffff160217905550808273ffffffffffffffffffffffffffffffffffffffff166001600084815260200190815260200160002060009054906101000a900473ffffffffffffffffffffffffffffffffffffffff1673ffffffffffffffffffffffffffffffffffffffff167f8c5be1e5ebec7d5bd14f71427d1e84f3dd0314c0f7b2291e5b200ac8c7c3b92560405160405180910390a45050565b600c6020528060005260406000206000915090508060000160009054906101000a900473ffffffffffffffffffffffffffffffffffffffff16908060020154908060030154908060040154908060050160009054906101000a900473ffffffffffffffffffffffffffffffffffffffff16905085565b81600073ffffffffffffffffffffffffffffffffffffffff168173ffffffffffffffffffffffffffffffffffffffff1614156111d5576040517f08c379a00000000000000000000000000000000000000000000000000000000081526004018080602001828103825260188152602001807f6164647265737320307830206973206e6f742076616c6964000000000000000081525060200191505060405180910390fd5b81600073ffffffffffffffffffffffffffffffffffffffff166001600083815260200190815260200160002060009054906101000a900473ffffffffffffffffffffffffffffffffffffffff1673ffffffffffffffffffffffffffffffffffffffff16141561124357600080fd5b33838173ffffffffffffffffffffffffffffffffffffffff163373ffffffffffffffffffffffffffffffffffffffff1614806112b257508173ffffffffffffffffffffffffffffffffffffffff1661129a82610df7565b73ffffffffffffffffffffffffffffffffffffffff16145b806112f657506112f56001600083815260200190815260200160002060009054906101000a900473ffffffffffffffffffffffffffffffffffffffff1683612ddf565b5b6112ff57600080fd5b8673ffffffffffffffffffffffffffffffffffffffff166001600087815260200190815260200160002060009054906101000a900473ffffffffffffffffffffffffffffffffffffffff1673ffffffffffffffffffffffffffffffffffffffff16146113b6576040517f08c379a000000000000000000000000000000000000000000000000000000000815260040180806020018281038252602b8152602001806146c7602b913960400191505060405180910390fd5b60016000808973ffffffffffffffffffffffffffffffffffffffff1673ffffffffffffffffffffffffffffffffffffffff1681526020019081526020016000206000828254039250508190555060016000808873ffffffffffffffffffffffffffffffffffffffff1673ffffffffffffffffffffffffffffffffffffffff16815260200190815260200160002060008282540192505081905550856001600087815260200190815260200160002060006101000a81548173ffffffffffffffffffffffffffffffffffffffff021916908373ffffffffffffffffffffffffffffffffffffffff160217905550848673ffffffffffffffffffffffffffffffffffffffff168873ffffffffffffffffffffffffffffffffffffffff167fddf252ad1be2c89b69c2b068fc378daa952ba7f163c4a11628f55a4df523b3ef60405160405180910390a450505050505050565b600085600073ffffffffffffffffffffffffffffffffffffffff168173ffffffffffffffffffffffffffffffffffffffff1614156115ac576040517f08c379a00000000000000000000000000000000000000000000000000000000081526004018080602001828103825260188152602001807f6164647265737320307830206973206e6f742076616c6964000000000000000081525060200191505060405180910390fd5b3373ffffffffffffffffffffffffffffffffffffffff168773ffffffffffffffffffffffffffffffffffffffff16148061166657503073ffffffffffffffffffffffffffffffffffffffff168773ffffffffffffffffffffffffffffffffffffffff161480156116655750600e60003373ffffffffffffffffffffffffffffffffffffffff1673ffffffffffffffffffffffffffffffffffffffff16815260200190815260200160002060009054906101000a900460ff165b5b6116d8576040517f08c379a000000000000000000000000000000000000000000000000000000000815260040180806020018281038252601e8152602001807f627265656465722061646472657373206973206e6f7420636f7272656374000081525060200191505060405180910390fd5b6006600081548092919060010191905055506116f261447d565b6040518060a00160405280600654815260200188600881111561171157fe5b81526020018715158152602001868152602001858152509050600860008973ffffffffffffffffffffffffffffffffffffffff1673ffffffffffffffffffffffffffffffffffffffff16815260200190815260200160002081908060018154018082558091505090600182039060005260206000209060040201600090919290919091506000820151816000015560208201518160010160006101000a81548160ff021916908360088111156117c357fe5b021790555060408201518160010160016101000a81548160ff0219169083151502179055506060820151816002015560808201518160030155505050806009600060065481526020019081526020016000206000820151816000015560208201518160010160006101000a81548160ff0219169083600881111561184357fe5b021790555060408201518160010160016101000a81548160ff02191690831515021790555060608201518160020155608082015181600301559050503073ffffffffffffffffffffffffffffffffffffffff168873ffffffffffffffffffffffffffffffffffffffff1614156118bf576118be600654613091565b5b6118cb886006546133a2565b60019250505095945050505050565b8160011515600760008373ffffffffffffffffffffffffffffffffffffffff1673ffffffffffffffffffffffffffffffffffffffff16815260200190815260200160002060009054906101000a900460ff161515146119a1576040517f08c379a00000000000000000000000000000000000000000000000000000000081526004018080602001828103825260198152602001807f61646472657373206973206e6f7420726567697374657265640000000000000081525060200191505060405180910390fd5b60001515600b600084815260200190815260200160002060009054906101000a900460ff16151514611a1e576040517f08c379a00000000000000000000000000000000000000000000000000000000081526004018080602001828103825260298152602001806146726029913960400191505060405180910390fd5b611a2884836135c0565b600460009054906101000a900473ffffffffffffffffffffffffffffffffffffffff1673ffffffffffffffffffffffffffffffffffffffff166323b872dd8585856040518463ffffffff1660e01b8152600401808473ffffffffffffffffffffffffffffffffffffffff1673ffffffffffffffffffffffffffffffffffffffff1681526020018373ffffffffffffffffffffffffffffffffffffffff1673ffffffffffffffffffffffffffffffffffffffff1681526020018281526020019350505050600060405180830381600087803b158015611b0557600080fd5b505af1158015611b19573d6000803e3d6000fd5b5050505050505050565b60096020528060005260406000206000915090508060000154908060010160009054906101000a900460ff16908060010160019054906101000a900460ff16908060020154908060030154905085565b600c60008281526020019081526020016000206004015434600d60003373ffffffffffffffffffffffffffffffffffffffff1673ffffffffffffffffffffffffffffffffffffffff168152602001908152602001600020540111611c22576040517f08c379a00000000000000000000000000000000000000000000000000000000081526004018080602001828103825260338152602001806144fd6033913960400191505060405180910390fd5b34600d60003373ffffffffffffffffffffffffffffffffffffffff1673ffffffffffffffffffffffffffffffffffffffff16815260200190815260200160002060008282540192505081905550600d60003373ffffffffffffffffffffffffffffffffffffffff1673ffffffffffffffffffffffffffffffffffffffff16815260200190815260200160002054600c60008381526020019081526020016000206004018190555050565b80600073ffffffffffffffffffffffffffffffffffffffff168173ffffffffffffffffffffffffffffffffffffffff161415611d70576040517f08c379a00000000000000000000000000000000000000000000000000000000081526004018080602001828103825260188152602001807f6164647265737320307830206973206e6f742076616c6964000000000000000081525060200191505060405180910390fd5b600560009054906101000a900473ffffffffffffffffffffffffffffffffffffffff168073ffffffffffffffffffffffffffffffffffffffff163373ffffffffffffffffffffffffffffffffffffffff1614611e17576040517f08c379a00000000000000000000000000000000000000000000000000000000081526004018080602001828103825260218152602001806145b76021913960400191505060405180910390fd5b60001515600760008573ffffffffffffffffffffffffffffffffffffffff1673ffffffffffffffffffffffffffffffffffffffff16815260200190815260200160002060009054906101000a900460ff16151514611edd576040517f08c379a000000000000000000000000000000000000000000000000000000000815260040180806020018281038252601a8152602001807f6272656564657220616c7265616479207265676973746572656400000000000081525060200191505060405180910390fd5b6001600760008573ffffffffffffffffffffffffffffffffffffffff1673ffffffffffffffffffffffffffffffffffffffff16815260200190815260200160002060006101000a81548160ff021916908315150217905550505050565b600115156009600084815260200190815260200160002060010160019054906101000a900460ff161515148015611f985750600015156009600083815260200190815260200160002060010160019054906101000a900460ff161515145b80611ffd5750600015156009600084815260200190815260200160002060010160019054906101000a900460ff161515148015611ffc5750600115156009600083815260200190815260200160002060010160019054906101000a900460ff161515145b5b612052576040517f08c379a00000000000000000000000000000000000000000000000000000000081526004018080602001828103825260268152602001806145fa6026913960400191505060405180910390fd5b61205c3383613914565b8061206d575061206c3382613914565b5b6120c2576040517f08c379a000000000000000000000000000000000000000000000000000000000815260040180806020018281038252602c81526020018061469b602c913960400191505060405180910390fd5b600a600083815260200190815260200160002060009054906101000a900460ff16801561210c5750600a600082815260200190815260200160002060009054906101000a900460ff165b612161576040517f08c379a00000000000000000000000000000000000000000000000000000000081526004018080602001828103825260228152602001806145d86022913960400191505060405180910390fd5b600061216d83836139e8565b9050600060026009600085815260200190815260200160002060030154600960008781526020019081526020016000206003015401816121a957fe5b0490506121b63385613914565b80156121c857506121c73384613914565b5b156121e2576121dc33836001600085611506565b5061224b565b6001600e60003373ffffffffffffffffffffffffffffffffffffffff1673ffffffffffffffffffffffffffffffffffffffff16815260200190815260200160002060006101000a81548160ff02191690831515021790555061224930836001600085611506565b505b50505050565b3373ffffffffffffffffffffffffffffffffffffffff166001600083815260200190815260200160002060009054906101000a900473ffffffffffffffffffffffffffffffffffffffff1673ffffffffffffffffffffffffffffffffffffffff161415612309576040517f08c379a00000000000000000000000000000000000000000000000000000000081526004018080602001828103825260238152602001806145516023913960400191505060405180910390fd5b60011515600b600083815260200190815260200160002060009054906101000a900460ff161515146123a3576040517f08c379a00000000000000000000000000000000000000000000000000000000081526004018080602001828103825260158152602001807f646f67206973206e6f7420696e2061756374696f6e000000000000000000000081525060200191505060405180910390fd5b600c6000828152602001908152602001600020600401543411612411576040517f08c379a000000000000000000000000000000000000000000000000000000000815260040180806020018281038252602d815260200180614620602d913960400191505060405180910390fd5b426202a300600c6000848152602001908152602001600020600201540110156124a2576040517f08c379a00000000000000000000000000000000000000000000000000000000081526004018080602001828103825260138152602001807f61756374696f6e2069732066696e69736865640000000000000000000000000081525060200191505060405180910390fd5b34600d60003373ffffffffffffffffffffffffffffffffffffffff1673ffffffffffffffffffffffffffffffffffffffff16815260200190815260200160002081905550600c60008281526020019081526020016000206001013390806001815401808255809150509060018203906000526020600020016000909192909190916101000a81548173ffffffffffffffffffffffffffffffffffffffff021916908373ffffffffffffffffffffffffffffffffffffffff1602179055505034600c60008381526020019081526020016000206004018190555050565b600081600073ffffffffffffffffffffffffffffffffffffffff168173ffffffffffffffffffffffffffffffffffffffff161415612624576040517f08c379a00000000000000000000000000000000000000000000000000000000081526004018080602001828103825260188152602001807f6164647265737320307830206973206e6f742076616c6964000000000000000081525060200191505060405180910390fd5b6000808473ffffffffffffffffffffffffffffffffffffffff1673ffffffffffffffffffffffffffffffffffffffff16815260200190815260200160002054915050919050565b60016020528060005260406000206000915054906101000a900473ffffffffffffffffffffffffffffffffffffffff1681565b6126a781612f7c565b8073ffffffffffffffffffffffffffffffffffffffff163373ffffffffffffffffffffffffffffffffffffffff161461272b576040517f08c379a00000000000000000000000000000000000000000000000000000000081526004018080602001828103825260218152602001806145b76021913960400191505060405180910390fd5b60001515600a600084815260200190815260200160002060009054906101000a900460ff161515146127a8576040517f08c379a00000000000000000000000000000000000000000000000000000000081526004018080602001828103825260218152602001806145306021913960400191505060405180910390fd5b6001600a600084815260200190815260200160002060006101000a81548160ff0219169083151502179055505050565b600a6020528060005260406000206000915054906101000a900460ff1681565b60003073ffffffffffffffffffffffffffffffffffffffff1631905090565b600560009054906101000a900473ffffffffffffffffffffffffffffffffffffffff1681565b6000600c6000838152602001908152602001600020600401549050919050565b6008602052816000526040600020818154811061287657fe5b9060005260206000209060040201600091509150508060000154908060010160009054906101000a900460ff16908060010160019054906101000a900460ff16908060020154908060030154905085565b60011515600b600083815260200190815260200160002060009054906101000a900460ff16151514612961576040517f08c379a00000000000000000000000000000000000000000000000000000000081526004018080602001828103825260168152602001807f646f67206d75737420626520696e2061756374696f6e0000000000000000000081525060200191505060405180910390fd5b6202a300600c6000838152602001908152602001600020600201540142116129f1576040517f08c379a000000000000000000000000000000000000000000000000000000000815260040180806020018281038252601b8152602001807f61756374696f6e206973206e6f742066696e697368656420796574000000000081525060200191505060405180910390fd5b600c600082815260200190815260200160002060040154600d60003373ffffffffffffffffffffffffffffffffffffffff1673ffffffffffffffffffffffffffffffffffffffff1681526020019081526020016000205414612abb576040517f08c379a00000000000000000000000000000000000000000000000000000000081526004018080602001828103825260188152602001807f73656e646572206973206e6f74207468652077696e6e6572000000000000000081525060200191505060405180910390fd5b33600c600083815260200190815260200160002060050160006101000a81548173ffffffffffffffffffffffffffffffffffffffff021916908373ffffffffffffffffffffffffffffffffffffffff160217905550612b1981613d8d565b600460009054906101000a900473ffffffffffffffffffffffffffffffffffffffff1673ffffffffffffffffffffffffffffffffffffffff166323b872dd612b6083612f7c565b33846040518463ffffffff1660e01b8152600401808473ffffffffffffffffffffffffffffffffffffffff1673ffffffffffffffffffffffffffffffffffffffff1681526020018373ffffffffffffffffffffffffffffffffffffffff1673ffffffffffffffffffffffffffffffffffffffff1681526020018281526020019350505050600060405180830381600087803b158015612bfe57600080fd5b505af1158015612c12573d6000803e3d6000fd5b5050505050565b3373ffffffffffffffffffffffffffffffffffffffff168273ffffffffffffffffffffffffffffffffffffffff161415612c9e576040517f08c379a00000000000000000000000000000000000000000000000000000000081526004018080602001828103825260218152602001806145966021913960400191505060405180910390fd5b80600360003373ffffffffffffffffffffffffffffffffffffffff1673ffffffffffffffffffffffffffffffffffffffff16815260200190815260200160002060008473ffffffffffffffffffffffffffffffffffffffff1673ffffffffffffffffffffffffffffffffffffffff16815260200190815260200160002060006101000a81548160ff0219169083151502179055508173ffffffffffffffffffffffffffffffffffffffff163373ffffffffffffffffffffffffffffffffffffffff167f17307eab39ab6107e8899845ad3d59bd9653f200f220920489ca2b5937696c3183604051808215151515815260200191505060405180910390a35050565b600b6020528060005260406000206000915054906101000a900460ff1681565b60076020528060005260406000206000915054906101000a900460ff1681565b6000600360008473ffffffffffffffffffffffffffffffffffffffff1673ffffffffffffffffffffffffffffffffffffffff16815260200190815260200160002060008373ffffffffffffffffffffffffffffffffffffffff1673ffffffffffffffffffffffffffffffffffffffff16815260200190815260200160002060009054906101000a900460ff16905092915050565b612e7c81612f7c565b8073ffffffffffffffffffffffffffffffffffffffff163373ffffffffffffffffffffffffffffffffffffffff1614612f00576040517f08c379a00000000000000000000000000000000000000000000000000000000081526004018080602001828103825260218152602001806145b76021913960400191505060405180910390fd5b6000612f0b83612f7c565b9050612f1733846140a1565b600960008481526020019081526020016000206000808201600090556001820160006101000a81549060ff02191690556001820160016101000a81549060ff0219169055600282016000905560038201600090555050612f7781846135c0565b505050565b60006001600083815260200190815260200160002060009054906101000a900473ffffffffffffffffffffffffffffffffffffffff16600073ffffffffffffffffffffffffffffffffffffffff168173ffffffffffffffffffffffffffffffffffffffff161415613055576040517f08c379a00000000000000000000000000000000000000000000000000000000081526004018080602001828103825260188152602001807f6164647265737320307830206973206e6f742076616c6964000000000000000081525060200191505060405180910390fd5b6001600084815260200190815260200160002060009054906101000a900473ffffffffffffffffffffffffffffffffffffffff16915050919050565b61309b3082613914565b61310d576040517f08c379a000000000000000000000000000000000000000000000000000000000815260040180806020018281038252601b8152602001807f73656e646572206973206e6f7420636f6e74726174206f776e6572000000000081525060200191505060405180910390fd5b600b600082815260200190815260200160002060009054906101000a900460ff16156131a1576040517f08c379a00000000000000000000000000000000000000000000000000000000081526004018080602001828103825260198152602001807f646f6720697320616c726561647920696e2061756374696f6e0000000000000081525060200191505060405180910390fd5b6131a9614391565b30816000019073ffffffffffffffffffffffffffffffffffffffff16908173ffffffffffffffffffffffffffffffffffffffff1681525050428160400181815250506001816060018181525050600081608001818152505060008160a0019073ffffffffffffffffffffffffffffffffffffffff16908173ffffffffffffffffffffffffffffffffffffffff16815250506001600b600084815260200190815260200160002060006101000a81548160ff02191690831515021790555080600c600084815260200190815260200160002060008201518160000160006101000a81548173ffffffffffffffffffffffffffffffffffffffff021916908373ffffffffffffffffffffffffffffffffffffffff16021790555060208201518160010190805190602001906132dd9291906143f3565b5060408201518160020155606082015181600301556080820151816004015560a08201518160050160006101000a81548173ffffffffffffffffffffffffffffffffffffffff021916908373ffffffffffffffffffffffffffffffffffffffff1602179055509050506000600e60003373ffffffffffffffffffffffffffffffffffffffff1673ffffffffffffffffffffffffffffffffffffffff16815260200190815260200160002060006101000a81548160ff0219169083151502179055505050565b600073ffffffffffffffffffffffffffffffffffffffff168273ffffffffffffffffffffffffffffffffffffffff161415613445576040517f08c379a00000000000000000000000000000000000000000000000000000000081526004018080602001828103825260208152602001807f4552433732313a206d696e7420746f20746865207a65726f206164647265737381525060200191505060405180910390fd5b61344e81614261565b156134c1576040517f08c379a000000000000000000000000000000000000000000000000000000000815260040180806020018281038252601c8152602001807f4552433732313a20746f6b656e20616c7265616479206d696e7465640000000081525060200191505060405180910390fd5b816001600083815260200190815260200160002060006101000a81548173ffffffffffffffffffffffffffffffffffffffff021916908373ffffffffffffffffffffffffffffffffffffffff16021790555060016000808473ffffffffffffffffffffffffffffffffffffffff1673ffffffffffffffffffffffffffffffffffffffff16815260200190815260200160002060008282540192505081905550808273ffffffffffffffffffffffffffffffffffffffff16600073ffffffffffffffffffffffffffffffffffffffff167fddf252ad1be2c89b69c2b068fc378daa952ba7f163c4a11628f55a4df523b3ef60405160405180910390a45050565b600080905060008090506000600860008673ffffffffffffffffffffffffffffffffffffffff1673ffffffffffffffffffffffffffffffffffffffff1681526020019081526020016000208054905090505b83600860008773ffffffffffffffffffffffffffffffffffffffff1673ffffffffffffffffffffffffffffffffffffffff168152602001908152602001600020848154811061365d57fe5b90600052602060002090600402016000015414613681578280600101935050613612565b600860008673ffffffffffffffffffffffffffffffffffffffff1673ffffffffffffffffffffffffffffffffffffffff16815260200190815260200160002083815481106136cb57fe5b90600052602060002090600402016000808201600090556001820160006101000a81549060ff02191690556001820160016101000a81549060ff02191690556002820160009055600382016000905550508291505b6001810382101561386f57600860008673ffffffffffffffffffffffffffffffffffffffff1673ffffffffffffffffffffffffffffffffffffffff168152602001908152602001600020600183018154811061377857fe5b9060005260206000209060040201600860008773ffffffffffffffffffffffffffffffffffffffff1673ffffffffffffffffffffffffffffffffffffffff16815260200190815260200160002083815481106137d057fe5b9060005260206000209060040201600082015481600001556001820160009054906101000a900460ff168160010160006101000a81548160ff0219169083600881111561381957fe5b02179055506001820160019054906101000a900460ff168160010160016101000a81548160ff02191690831515021790555060028201548160020155600382015481600301559050508180600101925050613720565b600860008673ffffffffffffffffffffffffffffffffffffffff1673ffffffffffffffffffffffffffffffffffffffff16815260200190815260200160002060018203815481106138bc57fe5b90600052602060002090600402016000808201600090556001820160006101000a81549060ff02191690556001820160016101000a81549060ff02191690556002820160009055600382016000905550505050505050565b600080905060008090505b600860008573ffffffffffffffffffffffffffffffffffffffff1673ffffffffffffffffffffffffffffffffffffffff168152602001908152602001600020805490508110156139de5782600860008673ffffffffffffffffffffffffffffffffffffffff1673ffffffffffffffffffffffffffffffffffffffff16815260200190815260200160002082815481106139b457fe5b90600052602060002090600402016000015414156139d157600191505b808060010191505061391f565b5080905092915050565b60006139f261447d565b600960008581526020019081526020016000206040518060a0016040529081600082015481526020016001820160009054906101000a900460ff166008811115613a3857fe5b6008811115613a4357fe5b81526020016001820160019054906101000a900460ff16151515158152602001600282015481526020016003820154815250509050613a8061447d565b600960008581526020019081526020016000206040518060a0016040529081600082015481526020016001820160009054906101000a900460ff166008811115613ac657fe5b6008811115613ad157fe5b81526020016001820160019054906101000a900460ff1615151515815260200160028201548152602001600382015481525050905060006008811115613b1357fe5b82602001516008811115613b2357fe5b148015613b4a575060016008811115613b3857fe5b81602001516008811115613b4857fe5b145b80613b95575060016008811115613b5d57fe5b82602001516008811115613b6d57fe5b148015613b94575060006008811115613b8257fe5b81602001516008811115613b9257fe5b145b5b15613ba35760059250613d82565b60016008811115613bb057fe5b82602001516008811115613bc057fe5b148015613be7575060046008811115613bd557fe5b81602001516008811115613be557fe5b145b80613c32575060046008811115613bfa57fe5b82602001516008811115613c0a57fe5b148015613c31575060016008811115613c1f57fe5b81602001516008811115613c2f57fe5b145b5b15613c405760069250613d81565b60026008811115613c4d57fe5b82602001516008811115613c5d57fe5b148015613c84575060036008811115613c7257fe5b81602001516008811115613c8257fe5b145b80613ccf575060036008811115613c9757fe5b82602001516008811115613ca757fe5b148015613cce575060026008811115613cbc57fe5b81602001516008811115613ccc57fe5b145b5b15613cdd5760019250613d80565b60006008811115613cea57fe5b82602001516008811115613cfa57fe5b148015613d21575060046008811115613d0f57fe5b81602001516008811115613d1f57fe5b145b80613d6c575060046008811115613d3457fe5b82602001516008811115613d4457fe5b148015613d6b575060006008811115613d5957fe5b81602001516008811115613d6957fe5b145b5b15613d7a5760079250613d7f565b600892505b5b5b5b829250505092915050565b60008090505b600c60008381526020019081526020016000206001018054905081101561402257600c600083815260200190815260200160002060050160009054906101000a900473ffffffffffffffffffffffffffffffffffffffff1673ffffffffffffffffffffffffffffffffffffffff16600c60008481526020019081526020016000206001018281548110613e2257fe5b9060005260206000200160009054906101000a900473ffffffffffffffffffffffffffffffffffffffff1673ffffffffffffffffffffffffffffffffffffffff161461401557600c60008381526020019081526020016000206001018181548110613e8957fe5b9060005260206000200160009054906101000a900473ffffffffffffffffffffffffffffffffffffffff1673ffffffffffffffffffffffffffffffffffffffff166108fc600d6000600c60008781526020019081526020016000206001018581548110613ef257fe5b9060005260206000200160009054906101000a900473ffffffffffffffffffffffffffffffffffffffff1673ffffffffffffffffffffffffffffffffffffffff1673ffffffffffffffffffffffffffffffffffffffff168152602001908152602001600020549081150290604051600060405180830381858888f19350505050158015613f83573d6000803e3d6000fd5b506000600d6000600c60008681526020019081526020016000206001018481548110613fab57fe5b9060005260206000200160009054906101000a900473ffffffffffffffffffffffffffffffffffffffff1673ffffffffffffffffffffffffffffffffffffffff1673ffffffffffffffffffffffffffffffffffffffff168152602001908152602001600020819055505b8080600101915050613d93565b506000600d6000600c600085815260200190815260200160002060050160009054906101000a900473ffffffffffffffffffffffffffffffffffffffff1673ffffffffffffffffffffffffffffffffffffffff1673ffffffffffffffffffffffffffffffffffffffff1681526020019081526020016000208190555050565b8173ffffffffffffffffffffffffffffffffffffffff166001600083815260200190815260200160002060009054906101000a900473ffffffffffffffffffffffffffffffffffffffff1673ffffffffffffffffffffffffffffffffffffffff1614614158576040517f08c379a000000000000000000000000000000000000000000000000000000000815260040180806020018281038252602581526020018061464d6025913960400191505060405180910390fd5b614161816142d3565b60016000808473ffffffffffffffffffffffffffffffffffffffff1673ffffffffffffffffffffffffffffffffffffffff1681526020019081526020016000206000828254039250508190555060006001600083815260200190815260200160002060006101000a81548173ffffffffffffffffffffffffffffffffffffffff021916908373ffffffffffffffffffffffffffffffffffffffff16021790555080600073ffffffffffffffffffffffffffffffffffffffff168373ffffffffffffffffffffffffffffffffffffffff167fddf252ad1be2c89b69c2b068fc378daa952ba7f163c4a11628f55a4df523b3ef60405160405180910390a45050565b6000806001600084815260200190815260200160002060009054906101000a900473ffffffffffffffffffffffffffffffffffffffff169050600073ffffffffffffffffffffffffffffffffffffffff168173ffffffffffffffffffffffffffffffffffffffff161415915050919050565b600073ffffffffffffffffffffffffffffffffffffffff166002600083815260200190815260200160002060009054906101000a900473ffffffffffffffffffffffffffffffffffffffff1673ffffffffffffffffffffffffffffffffffffffff161461438e5760006002600083815260200190815260200160002060006101000a81548173ffffffffffffffffffffffffffffffffffffffff021916908373ffffffffffffffffffffffffffffffffffffffff1602179055505b50565b6040518060c00160405280600073ffffffffffffffffffffffffffffffffffffffff16815260200160608152602001600081526020016000815260200160008152602001600073ffffffffffffffffffffffffffffffffffffffff1681525090565b82805482825590600052602060002090810192821561446c579160200282015b8281111561446b5782518260006101000a81548173ffffffffffffffffffffffffffffffffffffffff021916908373ffffffffffffffffffffffffffffffffffffffff16021790555091602001919060010190614413565b5b50905061447991906144b9565b5090565b6040518060a00160405280600081526020016000600881111561449c57fe5b815260200160001515815260200160008152602001600081525090565b6144f991905b808211156144f557600081816101000a81549073ffffffffffffffffffffffffffffffffffffffff0219169055506001016144bf565b5090565b9056fe7570646174656420626964206d757374206265207375706572696f7220746f2063757272656e74206869676865737420626964646f6720697320616c726561647920617661696c61626c6520746f206272656564746f6b656e206f776e65722063616e2774206265206d6573736167652073656e646572455243373231203a204f776e657220697320616c726561647920617070726f7665644552433732313a204f776e657220697320616c726561647920617070726f76656473656e646572206973206e6f742074686520636f72726563742061646472657373646f6773206861766520746f20626520617661696c61626c6520746f2062726565646e6f7420706f737369626c6520746f2062726565642073616d652073657820616e696d616c736d73672e76616c7565206d757374206265207375706572696f7220746f207468652068696768657374206269644552433732313a206275726e206f6620746f6b656e2074686174206973206e6f74206f776e63616e2774207472616e7366657220616e696d616c20776869636820697320696e2061756374696f6e6d6573736167652073656e646572206973206e6f74206f6e65206f662074686520746f6b656e206f776e65724552433732313a207472616e73666572206f6620746f6b656e2074686174206973206e6f74206f776e6564a265627a7a723158204478b570bac5756b0362a3f713e60ae0cf6fea94c56a63937f40cda1083d2f7164736f6c634300050c0032608060405234801561001057600080fd5b50610de8806100206000396000f3fe6080604052600436106100705760003560e01c806370a082311161004e57806370a08231146101ac578063796db31214610211578063a22cb4651461028c578063e985e9c5146102e957610070565b8063081812fc14610075578063095ea7b3146100f057806323b872dd1461013e575b600080fd5b34801561008157600080fd5b506100ae6004803603602081101561009857600080fd5b8101908080359060200190929190505050610372565b604051808273ffffffffffffffffffffffffffffffffffffffff1673ffffffffffffffffffffffffffffffffffffffff16815260200191505060405180910390f35b61013c6004803603604081101561010657600080fd5b81019080803573ffffffffffffffffffffffffffffffffffffffff1690602001909291908035906020019092919050505061041e565b005b6101aa6004803603606081101561015457600080fd5b81019080803573ffffffffffffffffffffffffffffffffffffffff169060200190929190803573ffffffffffffffffffffffffffffffffffffffff16906020019092919080359060200190929190505050610636565b005b3480156101b857600080fd5b506101fb600480360360208110156101cf57600080fd5b81019080803573ffffffffffffffffffffffffffffffffffffffff169060200190929190505050610a0b565b6040518082815260200191505060405180910390f35b34801561021d57600080fd5b5061024a6004803603602081101561023457600080fd5b8101908080359060200190929190505050610af8565b604051808273ffffffffffffffffffffffffffffffffffffffff1673ffffffffffffffffffffffffffffffffffffffff16815260200191505060405180910390f35b34801561029857600080fd5b506102e7600480360360408110156102af57600080fd5b81019080803573ffffffffffffffffffffffffffffffffffffffff169060200190929190803515159060200190929190505050610b2b565b005b3480156102f557600080fd5b506103586004803603604081101561030c57600080fd5b81019080803573ffffffffffffffffffffffffffffffffffffffff169060200190929190803573ffffffffffffffffffffffffffffffffffffffff169060200190929190505050610cb1565b604051808215151515815260200191505060405180910390f35b600081600073ffffffffffffffffffffffffffffffffffffffff166001600083815260200190815260200160002060009054906101000a900473ffffffffffffffffffffffffffffffffffffffff1673ffffffffffffffffffffffffffffffffffffffff1614156103e257600080fd5b6002600084815260200190815260200160002060009054906101000a900473ffffffffffffffffffffffffffffffffffffffff16915050919050565b3373ffffffffffffffffffffffffffffffffffffffff168273ffffffffffffffffffffffffffffffffffffffff1614156104a3576040517f08c379a0000000000000000000000000000000000000000000000000000000008152600401808060200182810382526022815260200180610d466022913960400191505060405180910390fd5b3373ffffffffffffffffffffffffffffffffffffffff166001600083815260200190815260200160002060009054906101000a900473ffffffffffffffffffffffffffffffffffffffff1673ffffffffffffffffffffffffffffffffffffffff16148061054957506105486001600083815260200190815260200160002060009054906101000a900473ffffffffffffffffffffffffffffffffffffffff1633610cb1565b5b61055257600080fd5b816002600083815260200190815260200160002060006101000a81548173ffffffffffffffffffffffffffffffffffffffff021916908373ffffffffffffffffffffffffffffffffffffffff160217905550808273ffffffffffffffffffffffffffffffffffffffff166001600084815260200190815260200160002060009054906101000a900473ffffffffffffffffffffffffffffffffffffffff1673ffffffffffffffffffffffffffffffffffffffff167f8c5be1e5ebec7d5bd14f71427d1e84f3dd0314c0f7b2291e5b200ac8c7c3b92560405160405180910390a45050565b81600073ffffffffffffffffffffffffffffffffffffffff168173ffffffffffffffffffffffffffffffffffffffff1614156106da576040517f08c379a00000000000000000000000000000000000000000000000000000000081526004018080602001828103825260188152602001807f6164647265737320307830206973206e6f742076616c6964000000000000000081525060200191505060405180910390fd5b81600073ffffffffffffffffffffffffffffffffffffffff166001600083815260200190815260200160002060009054906101000a900473ffffffffffffffffffffffffffffffffffffffff1673ffffffffffffffffffffffffffffffffffffffff16141561074857600080fd5b33838173ffffffffffffffffffffffffffffffffffffffff163373ffffffffffffffffffffffffffffffffffffffff1614806107b757508173ffffffffffffffffffffffffffffffffffffffff1661079f82610372565b73ffffffffffffffffffffffffffffffffffffffff16145b806107fb57506107fa6001600083815260200190815260200160002060009054906101000a900473ffffffffffffffffffffffffffffffffffffffff1683610cb1565b5b61080457600080fd5b8673ffffffffffffffffffffffffffffffffffffffff166001600087815260200190815260200160002060009054906101000a900473ffffffffffffffffffffffffffffffffffffffff1673ffffffffffffffffffffffffffffffffffffffff16146108bb576040517f08c379a000000000000000000000000000000000000000000000000000000000815260040180806020018281038252602b815260200180610d89602b913960400191505060405180910390fd5b60016000808973ffffffffffffffffffffffffffffffffffffffff1673ffffffffffffffffffffffffffffffffffffffff1681526020019081526020016000206000828254039250508190555060016000808873ffffffffffffffffffffffffffffffffffffffff1673ffffffffffffffffffffffffffffffffffffffff16815260200190815260200160002060008282540192505081905550856001600087815260200190815260200160002060006101000a81548173ffffffffffffffffffffffffffffffffffffffff021916908373ffffffffffffffffffffffffffffffffffffffff160217905550848673ffffffffffffffffffffffffffffffffffffffff168873ffffffffffffffffffffffffffffffffffffffff167fddf252ad1be2c89b69c2b068fc378daa952ba7f163c4a11628f55a4df523b3ef60405160405180910390a450505050505050565b600081600073ffffffffffffffffffffffffffffffffffffffff168173ffffffffffffffffffffffffffffffffffffffff161415610ab1576040517f08c379a00000000000000000000000000000000000000000000000000000000081526004018080602001828103825260188152602001807f6164647265737320307830206973206e6f742076616c6964000000000000000081525060200191505060405180910390fd5b6000808473ffffffffffffffffffffffffffffffffffffffff1673ffffffffffffffffffffffffffffffffffffffff16815260200190815260200160002054915050919050565b60016020528060005260406000206000915054906101000a900473ffffffffffffffffffffffffffffffffffffffff1681565b3373ffffffffffffffffffffffffffffffffffffffff168273ffffffffffffffffffffffffffffffffffffffff161415610bb0576040517f08c379a0000000000000000000000000000000000000000000000000000000008152600401808060200182810382526021815260200180610d686021913960400191505060405180910390fd5b80600360003373ffffffffffffffffffffffffffffffffffffffff1673ffffffffffffffffffffffffffffffffffffffff16815260200190815260200160002060008473ffffffffffffffffffffffffffffffffffffffff1673ffffffffffffffffffffffffffffffffffffffff16815260200190815260200160002060006101000a81548160ff0219169083151502179055508173ffffffffffffffffffffffffffffffffffffffff163373ffffffffffffffffffffffffffffffffffffffff167f17307eab39ab6107e8899845ad3d59bd9653f200f220920489ca2b5937696c3183604051808215151515815260200191505060405180910390a35050565b6000600360008473ffffffffffffffffffffffffffffffffffffffff1673ffffffffffffffffffffffffffffffffffffffff16815260200190815260200160002060008373ffffffffffffffffffffffffffffffffffffffff1673ffffffffffffffffffffffffffffffffffffffff16815260200190815260200160002060009054906101000a900460ff1690509291505056fe455243373231203a204f776e657220697320616c726561647920617070726f7665644552433732313a204f776e657220697320616c726561647920617070726f7665644552433732313a207472616e73666572206f6620746f6b656e2074686174206973206e6f74206f776e6564a265627a7a72315820816da92199413d28c058d940977aa43dd092b0bd2e14d482015156ec0e20861264736f6c634300050c0032",
  "source": "pragma solidity ^0.5.12;\r\n\r\n\r\nimport \"./SafeMath.sol\";\r\nimport \"./ERC721.sol\";\r\n//import \"./BreedSystem.sol\";\r\n//import \"./Auction.sol\";\r\n//import \"./Arena.sol\";\r\n\r\n\r\ncontract DogRegisterCoin is ERC721 {\r\n\r\n    ERC721 private _erc721;\r\n    address payable public owner;\r\n\r\n    uint private _nextId;\r\n\r\n\r\n    mapping (address => bool) public _whitelist;\r\n\r\n    mapping (address => Dog[]) public breederDogs;\r\n\r\n    mapping (uint => Dog) public dogsById;\r\n\r\n    mapping (uint256 => bool) public availableToBreed;\r\n\r\n    mapping (uint256 => bool) public dogsInAuction; //dogid => bool\r\n\r\n    mapping (uint256 => Auction) public auction; //mapping between dogid and auction\r\n\r\n    mapping (address => uint256) bidderToBid;\r\n\r\n    mapping (address => bool) canDeclareAnimalToContract;\r\n    \r\n\r\n\r\n    Dog[] availableDogsToBreed;\r\n\r\n    \r\n    enum Race {Labrador, Pitbull, Terrier, Bouldog, Husky, Bullador, Pitsky, Labrador_Husky, Unknown}\r\n    \r\n\r\n\tconstructor() public {\r\n\t\t_erc721 = new ERC721();\r\n\t\towner = msg.sender;\r\n\r\n\t}\r\n\r\n\r\n\tstruct Dog {\r\n\t\tuint id;\r\n\t\tRace race;\r\n\t\tbool isMale;\r\n\t\tuint256 age;\r\n\t\tuint256 category;\r\n\t}\r\n\r\n\tstruct Auction {\r\n\t\taddress chairperson;\r\n\t\taddress payable[] bidders;\r\n\t\tuint256 startTime;\r\n\t\tuint256 startingPrice;\r\n\t\tuint256 highestBid;\r\n\t\taddress winner;\r\n\t}\r\n\r\n\r\n\tmodifier onlyBy(address _address) {\r\n\t\trequire(msg.sender == _address, \"sender is not the correct address\");\r\n\t\t_;\r\n\t}\r\n\r\n\tmodifier isRegistered(address _address) {\r\n\t\trequire(_whitelist[_address] == true, \"address is not registered\");\r\n\t\t_;\r\n\t}\r\n\r\n\r\n\r\n\tfunction contractBalance() public view returns (uint256) {\r\n\t\treturn address(this).balance;\r\n\t}\r\n\r\n     \r\n    //whitelist \r\n\tfunction registerBreeder(address _breeder) public isNonZeroAddress(_breeder) onlyBy(owner) {\r\n     require(_whitelist[_breeder] == false, \"breeder already registered\");\r\n     _whitelist[_breeder] = true;\r\n\t}\r\n\r\n\r\n\tfunction declareAnimal(address payable _breeder, Race _race, bool _isMale, uint256 _age, uint256 _category) public isNonZeroAddress(_breeder) returns (bool) {\r\n\t\trequire(_breeder == msg.sender || (_breeder == address(uint160(address(this))) && canDeclareAnimalToContract[msg.sender]), \"breeder address is not correct\");\r\n\t\t_nextId++;\r\n       Dog memory dog = Dog(_nextId, _race, _isMale, _age, _category);\r\n       breederDogs[_breeder].push(dog);\r\n       dogsById[_nextId] = dog;\r\n       if( _breeder == address(this))\r\n       {\r\n       \t_auctionByContract(_nextId);\r\n       }\r\n       _mint(_breeder, _nextId);\r\n       return true;\r\n\t}\r\n\r\n\tfunction deadAnimal(uint _tokenId) public onlyBy(ownerOf(_tokenId)){\r\n\t\taddress tokenOwner = ownerOf(_tokenId);\r\n\t\t_burn(msg.sender, _tokenId);\r\n\t\tdelete dogsById[_tokenId];\r\n\t\t_removeFromArray(tokenOwner, _tokenId);\r\n\t}\r\n\r\n\r\n\tfunction breedAnimal(uint256 _dogId1, uint256 _dogId2) public {\r\n\t\trequire(dogsById[_dogId1].isMale == true && dogsById[_dogId2].isMale == false || dogsById[_dogId1].isMale == false && dogsById[_dogId2].isMale == true, \"not possible to breed same sex animals\");\r\n\t\trequire(_hasDog(msg.sender, _dogId1) || _hasDog(msg.sender, _dogId2), \"message sender is not one of the token owner\");\r\n\t\trequire(availableToBreed[_dogId1] && availableToBreed[_dogId2], \"dogs have to be available to breed\");\r\n\t\t\r\n\r\n\t\tRace _race = _determineRaceAfterBreed(_dogId1, _dogId2);\r\n\t\tuint256 _category = (dogsById[_dogId1].category + dogsById[_dogId2].category)/2;\r\n\r\n\t\tif(_hasDog(msg.sender, _dogId1) && _hasDog(msg.sender, _dogId2))\r\n\t\t{\r\n\t\t\tdeclareAnimal(msg.sender, _race, true, 0, _category);\r\n\r\n\r\n\t\t}\r\n\r\n\t\telse \r\n\t\t{ \r\n\t\t\tcanDeclareAnimalToContract[msg.sender] = true;\r\n\t\t\tdeclareAnimal(address(uint160(address(this))), _race, true, 0, _category);\r\n\r\n\t\t}\r\n\r\n\t}\r\n\r\n\r\n\tfunction proposeToBreed(uint256 _dogId) public onlyBy(ownerOf(_dogId)) {\r\n\t\trequire(availableToBreed[_dogId] == false, \"dog is already available to breed\");\r\n\t\tavailableToBreed[_dogId] = true;\r\n\t}\r\n\r\n\r\n\r\n\tfunction _hasDog(address _breeder, uint256 _dogId) internal view returns (bool success) {\r\n\t\tsuccess = false;\r\n\t\tfor(uint i = 0; i<breederDogs[_breeder].length; i++)\r\n\t\t{\r\n\t\t\tif(breederDogs[_breeder][i].id == _dogId) {\r\n\t\t\t\tsuccess = true;\r\n\t\t\t}\r\n\r\n\t\t}\r\n\t\treturn success;\r\n\r\n\t}\r\n\r\n\tfunction _determineRaceAfterBreed(uint256 _id1, uint256 _id2) internal view returns (Race race){\r\n\t\tDog memory _dog1 = dogsById[_id1];\r\n\t\tDog memory _dog2 = dogsById[_id2];\r\n\r\n\t\tif((_dog1.race == Race.Labrador && _dog2.race == Race.Pitbull) || (_dog1.race == Race.Pitbull && _dog2.race == Race.Labrador))\r\n\t\t{\r\n\t\t\trace = Race.Bullador;\r\n\t\t}\r\n\t\telse if((_dog1.race == Race.Pitbull && _dog2.race == Race.Husky) || (_dog1.race == Race.Husky && _dog2.race == Race.Pitbull))\r\n\t\t{\r\n\t\t\trace = Race.Pitsky;\r\n\t\t}\r\n\t\telse if((_dog1.race == Race.Terrier && _dog2.race == Race.Bouldog) || (_dog1.race == Race.Bouldog && _dog2.race == Race.Terrier))\r\n\t\t{\r\n\t\t\trace = Race.Pitbull;\r\n\t\t}\r\n\t\telse if((_dog1.race == Race.Labrador && _dog2.race == Race.Husky) || (_dog1.race == Race.Husky && _dog2.race == Race.Labrador))\r\n\t\t{\r\n\t\t\trace = Race.Labrador_Husky;\r\n\t\t}\r\n\t\telse \r\n\t\t{\r\n\t\t\trace = Race.Unknown;\r\n\t\t} \r\n\t\treturn race;\r\n\r\n\t} \r\n\r\n\r\n\r\n\tfunction getHighestBid(uint256 _id) public view returns (uint256){\r\n\t\treturn auction[_id].highestBid;\r\n\t}\r\n\r\n\r\n\tfunction createAuction(uint256 _id, uint256 _startingPrice) public onlyBy(ownerOf(_id)){\r\n\t\trequire(!dogsInAuction[_id], \"dog is already in auction\");\r\n\t\tAuction memory auc;\r\n\t\tauc.chairperson = msg.sender;\r\n\t\tauc.startTime = now;\r\n\t\tauc.startingPrice = _startingPrice;\r\n\t\tauc.highestBid = 0;\r\n\t\tauc.winner = address(0);\r\n\r\n\t\tdogsInAuction[_id] = true;\r\n\t\tauction[_id] = auc;\r\n\r\n\t}\r\n\t\r\n\t\r\n\tfunction _auctionByContract(uint256 _id) internal  {\r\n\t    require(_hasDog(address(this), _id), \"sender is not contrat owner\");\r\n\t\trequire(!dogsInAuction[_id], \"dog is already in auction\");\r\n\r\n\t\tAuction memory auc;\r\n\t\tauc.chairperson = address(this);\r\n\t\tauc.startTime = now;\r\n\t\tauc.startingPrice = 1;\r\n\t\tauc.highestBid = 0;\r\n\t\tauc.winner = address(0);\r\n\r\n\t\tdogsInAuction[_id] = true;\r\n\t\tauction[_id] = auc;\r\n\t    canDeclareAnimalToContract[msg.sender] = false;\r\n\t}\r\n\r\n\r\n\tfunction bidAuction(uint256 _id) public payable {\r\n\t\trequire(_tokenOwner[_id] != msg.sender, \"token owner can't be message sender\");\r\n\t\trequire(dogsInAuction[_id] == true, \"dog is not in auction\");\r\n\t\trequire(msg.value > auction[_id].highestBid, \"msg.value must be superior to the highest bid\");\r\n\t\trequire(auction[_id].startTime + 2 days >= now, \"auction is finished\");\r\n\t\tbidderToBid[msg.sender] = msg.value;\r\n\t\tauction[_id].bidders.push(msg.sender);\r\n\t\tauction[_id].highestBid = msg.value;\r\n\r\n\t}\r\n\r\n\tfunction updateBid(uint256 _id) public payable {\r\n\t\trequire((bidderToBid[msg.sender] + msg.value) > auction[_id].highestBid, \"updated bid must be superior to current highest bid\");\r\n\t\tbidderToBid[msg.sender] += msg.value;\r\n\t\tauction[_id].highestBid = bidderToBid[msg.sender];\r\n\t}\r\n\r\n\r\n\tfunction claimAuction(uint256 _id) public payable{\r\n\t\trequire(dogsInAuction[_id] == true, \"dog must be in auction\");\r\n\t\trequire(now > auction[_id].startTime + 2 days, \"auction is not finished yet\");\r\n\t\trequire(bidderToBid[msg.sender] == auction[_id].highestBid, \"sender is not the winner\");\r\n\t\tauction[_id].winner = msg.sender;\r\n\r\n        _repayAuctionLosers(_id);\r\n\t\t_erc721.transferFrom(ownerOf(_id), msg.sender, _id);\r\n\r\n\r\n\t}\r\n\r\n\r\n\r\n\tfunction TransferAnimal(address _from, address payable _to, uint256 _id) public isRegistered(_to) {\r\n\t\trequire(dogsInAuction[_id] == false, \"can't transfer animal which is in auction\");\r\n\t\t_removeFromArray(_from, _id);\r\n\t\t_erc721.transferFrom(_from, _to , _id);\r\n\r\n\t}\r\n\r\n\r\n\r\nfunction _removeFromArray(address tokenOwner, uint256 _id) internal {\r\n    uint i = 0;\r\n    uint j =0;\r\n    uint length = breederDogs[tokenOwner].length;\r\n\twhile(breederDogs[tokenOwner][i].id != _id)\r\n\t{\r\n\t\ti++;\r\n\t}\r\n\tdelete breederDogs[tokenOwner][i];\r\n\tfor(j=i; j<length-1; j++) {\r\n\t\tbreederDogs[tokenOwner][j] = breederDogs[tokenOwner][j+1];\r\n\t}\r\n\tdelete breederDogs[tokenOwner][length-1];\r\n}\r\n\r\n\r\nfunction _repayAuctionLosers(uint256 _id) private{\r\n\tfor(uint i =0; i< auction[_id].bidders.length; i++) {\r\n\t\tif(auction[_id].bidders[i] != auction[_id].winner) {\r\n\t\t\tauction[_id].bidders[i].transfer(bidderToBid[auction[_id].bidders[i]]);\r\n\t\t\tbidderToBid[auction[_id].bidders[i]] = 0;\r\n\t\t}\r\n\t}\r\n\tbidderToBid[auction[_id].winner] = 0;\r\n\r\n}\r\n\r\n\r\n\r\n\r\n\r\n}",
  "sourcePath": "C:\\Users\\cleme\\Desktop\\smart_contracts_ethereum\\TD6\\contracts\\DogRegisterCoin.sol",
  "compiler": {
    "name": "solc",
    "version": "0.5.12+commit.7709ece9.Emscripten.clang"
  },
  "schemaVersion": "3.0.19",
  "updatedAt": "2019-11-18T07:23:34.879Z",
  "devdoc": {
    "methods": {}
  },
  "userdoc": {
    "methods": {}
  }
}