{
  "contractName": "ERC721",
  "abi": [
    {
      "constant": true,
      "inputs": [
        {
          "name": "",
          "type": "uint256"
        }
      ],
      "name": "_tokenOwner",
      "outputs": [
        {
          "name": "",
          "type": "address"
        }
      ],
      "payable": false,
      "stateMutability": "view",
      "type": "function"
    },
    {
      "anonymous": false,
      "inputs": [
        {
          "indexed": true,
          "name": "_from",
          "type": "address"
        },
        {
          "indexed": true,
          "name": "_to",
          "type": "address"
        },
        {
          "indexed": true,
          "name": "_tokenId",
          "type": "uint256"
        }
      ],
      "name": "Transfer",
      "type": "event"
    },
    {
      "anonymous": false,
      "inputs": [
        {
          "indexed": true,
          "name": "_owner",
          "type": "address"
        },
        {
          "indexed": true,
          "name": "_approved",
          "type": "address"
        },
        {
          "indexed": true,
          "name": "_tokenId",
          "type": "uint256"
        }
      ],
      "name": "Approval",
      "type": "event"
    },
    {
      "anonymous": false,
      "inputs": [
        {
          "indexed": true,
          "name": "_owner",
          "type": "address"
        },
        {
          "indexed": true,
          "name": "_operator",
          "type": "address"
        },
        {
          "indexed": false,
          "name": "_approved",
          "type": "bool"
        }
      ],
      "name": "ApprovalForAll",
      "type": "event"
    },
    {
      "constant": true,
      "inputs": [
        {
          "name": "_address",
          "type": "address"
        }
      ],
      "name": "balanceOf",
      "outputs": [
        {
          "name": "",
          "type": "uint256"
        }
      ],
      "payable": false,
      "stateMutability": "view",
      "type": "function"
    },
    {
      "constant": false,
      "inputs": [
        {
          "name": "_approved",
          "type": "address"
        },
        {
          "name": "_tokenId",
          "type": "uint256"
        }
      ],
      "name": "approve",
      "outputs": [],
      "payable": true,
      "stateMutability": "payable",
      "type": "function"
    },
    {
      "constant": false,
      "inputs": [
        {
          "name": "_operator",
          "type": "address"
        },
        {
          "name": "_approved",
          "type": "bool"
        }
      ],
      "name": "setApprovalForAll",
      "outputs": [],
      "payable": false,
      "stateMutability": "nonpayable",
      "type": "function"
    },
    {
      "constant": true,
      "inputs": [
        {
          "name": "_tokenId",
          "type": "uint256"
        }
      ],
      "name": "getApproved",
      "outputs": [
        {
          "name": "",
          "type": "address"
        }
      ],
      "payable": false,
      "stateMutability": "view",
      "type": "function"
    },
    {
      "constant": true,
      "inputs": [
        {
          "name": "_owner",
          "type": "address"
        },
        {
          "name": "_operator",
          "type": "address"
        }
      ],
      "name": "isApprovedForAll",
      "outputs": [
        {
          "name": "",
          "type": "bool"
        }
      ],
      "payable": false,
      "stateMutability": "view",
      "type": "function"
    },
    {
      "constant": false,
      "inputs": [
        {
          "name": "_from",
          "type": "address"
        },
        {
          "name": "_to",
          "type": "address"
        },
        {
          "name": "_tokenId",
          "type": "uint256"
        }
      ],
      "name": "transferFrom",
      "outputs": [],
      "payable": true,
      "stateMutability": "payable",
      "type": "function"
    }
  ],
  "bytecode": "0x608060405234801561001057600080fd5b50610e5f806100206000396000f3fe608060405260043610610083576000357c0100000000000000000000000000000000000000000000000000000000900463ffffffff168063081812fc14610088578063095ea7b31461010357806323b872dd1461015157806370a08231146101bf578063796db31214610224578063a22cb4651461029f578063e985e9c5146102fc575b600080fd5b34801561009457600080fd5b506100c1600480360360208110156100ab57600080fd5b8101908080359060200190929190505050610385565b604051808273ffffffffffffffffffffffffffffffffffffffff1673ffffffffffffffffffffffffffffffffffffffff16815260200191505060405180910390f35b61014f6004803603604081101561011957600080fd5b81019080803573ffffffffffffffffffffffffffffffffffffffff16906020019092919080359060200190929190505050610433565b005b6101bd6004803603606081101561016757600080fd5b81019080803573ffffffffffffffffffffffffffffffffffffffff169060200190929190803573ffffffffffffffffffffffffffffffffffffffff16906020019092919080359060200190929190505050610692565b005b3480156101cb57600080fd5b5061020e600480360360208110156101e257600080fd5b81019080803573ffffffffffffffffffffffffffffffffffffffff169060200190929190505050610ab2565b6040518082815260200191505060405180910390f35b34801561023057600080fd5b5061025d6004803603602081101561024757600080fd5b8101908080359060200190929190505050610ba1565b604051808273ffffffffffffffffffffffffffffffffffffffff1673ffffffffffffffffffffffffffffffffffffffff16815260200191505060405180910390f35b3480156102ab57600080fd5b506102fa600480360360408110156102c257600080fd5b81019080803573ffffffffffffffffffffffffffffffffffffffff169060200190929190803515159060200190929190505050610bd4565b005b34801561030857600080fd5b5061036b6004803603604081101561031f57600080fd5b81019080803573ffffffffffffffffffffffffffffffffffffffff169060200190929190803573ffffffffffffffffffffffffffffffffffffffff169060200190929190505050610d9f565b604051808215151515815260200191505060405180910390f35b600081600073ffffffffffffffffffffffffffffffffffffffff166001600083815260200190815260200160002060009054906101000a900473ffffffffffffffffffffffffffffffffffffffff1673ffffffffffffffffffffffffffffffffffffffff16141515156103f757600080fd5b6002600084815260200190815260200160002060009054906101000a900473ffffffffffffffffffffffffffffffffffffffff16915050919050565b3373ffffffffffffffffffffffffffffffffffffffff168273ffffffffffffffffffffffffffffffffffffffff16141515156104fd576040517f08c379a00000000000000000000000000000000000000000000000000000000081526004018080602001828103825260228152602001807f455243373231203a204f776e657220697320616c726561647920617070726f7681526020017f656400000000000000000000000000000000000000000000000000000000000081525060400191505060405180910390fd5b3373ffffffffffffffffffffffffffffffffffffffff166001600083815260200190815260200160002060009054906101000a900473ffffffffffffffffffffffffffffffffffffffff1673ffffffffffffffffffffffffffffffffffffffff1614806105a357506105a26001600083815260200190815260200160002060009054906101000a900473ffffffffffffffffffffffffffffffffffffffff1633610d9f565b5b15156105ae57600080fd5b816002600083815260200190815260200160002060006101000a81548173ffffffffffffffffffffffffffffffffffffffff021916908373ffffffffffffffffffffffffffffffffffffffff160217905550808273ffffffffffffffffffffffffffffffffffffffff166001600084815260200190815260200160002060009054906101000a900473ffffffffffffffffffffffffffffffffffffffff1673ffffffffffffffffffffffffffffffffffffffff167f8c5be1e5ebec7d5bd14f71427d1e84f3dd0314c0f7b2291e5b200ac8c7c3b92560405160405180910390a45050565b81600073ffffffffffffffffffffffffffffffffffffffff168173ffffffffffffffffffffffffffffffffffffffff1614151515610738576040517f08c379a00000000000000000000000000000000000000000000000000000000081526004018080602001828103825260188152602001807f6164647265737320307830206973206e6f742076616c6964000000000000000081525060200191505060405180910390fd5b81600073ffffffffffffffffffffffffffffffffffffffff166001600083815260200190815260200160002060009054906101000a900473ffffffffffffffffffffffffffffffffffffffff1673ffffffffffffffffffffffffffffffffffffffff16141515156107a857600080fd5b33838173ffffffffffffffffffffffffffffffffffffffff163373ffffffffffffffffffffffffffffffffffffffff16148061081757508173ffffffffffffffffffffffffffffffffffffffff166107ff82610385565b73ffffffffffffffffffffffffffffffffffffffff16145b8061085b575061085a6001600083815260200190815260200160002060009054906101000a900473ffffffffffffffffffffffffffffffffffffffff1683610d9f565b5b151561086657600080fd5b8673ffffffffffffffffffffffffffffffffffffffff166001600087815260200190815260200160002060009054906101000a900473ffffffffffffffffffffffffffffffffffffffff1673ffffffffffffffffffffffffffffffffffffffff16141515610962576040517f08c379a000000000000000000000000000000000000000000000000000000000815260040180806020018281038252602b8152602001807f4552433732313a207472616e73666572206f6620746f6b656e2074686174206981526020017f73206e6f74206f776e656400000000000000000000000000000000000000000081525060400191505060405180910390fd5b60016000808973ffffffffffffffffffffffffffffffffffffffff1673ffffffffffffffffffffffffffffffffffffffff1681526020019081526020016000206000828254039250508190555060016000808873ffffffffffffffffffffffffffffffffffffffff1673ffffffffffffffffffffffffffffffffffffffff16815260200190815260200160002060008282540192505081905550856001600087815260200190815260200160002060006101000a81548173ffffffffffffffffffffffffffffffffffffffff021916908373ffffffffffffffffffffffffffffffffffffffff160217905550848673ffffffffffffffffffffffffffffffffffffffff168873ffffffffffffffffffffffffffffffffffffffff167fddf252ad1be2c89b69c2b068fc378daa952ba7f163c4a11628f55a4df523b3ef60405160405180910390a450505050505050565b600081600073ffffffffffffffffffffffffffffffffffffffff168173ffffffffffffffffffffffffffffffffffffffff1614151515610b5a576040517f08c379a00000000000000000000000000000000000000000000000000000000081526004018080602001828103825260188152602001807f6164647265737320307830206973206e6f742076616c6964000000000000000081525060200191505060405180910390fd5b6000808473ffffffffffffffffffffffffffffffffffffffff1673ffffffffffffffffffffffffffffffffffffffff16815260200190815260200160002054915050919050565b60016020528060005260406000206000915054906101000a900473ffffffffffffffffffffffffffffffffffffffff1681565b3373ffffffffffffffffffffffffffffffffffffffff168273ffffffffffffffffffffffffffffffffffffffff1614151515610c9e576040517f08c379a00000000000000000000000000000000000000000000000000000000081526004018080602001828103825260218152602001807f4552433732313a204f776e657220697320616c726561647920617070726f766581526020017f640000000000000000000000000000000000000000000000000000000000000081525060400191505060405180910390fd5b80600360003373ffffffffffffffffffffffffffffffffffffffff1673ffffffffffffffffffffffffffffffffffffffff16815260200190815260200160002060008473ffffffffffffffffffffffffffffffffffffffff1673ffffffffffffffffffffffffffffffffffffffff16815260200190815260200160002060006101000a81548160ff0219169083151502179055508173ffffffffffffffffffffffffffffffffffffffff163373ffffffffffffffffffffffffffffffffffffffff167f17307eab39ab6107e8899845ad3d59bd9653f200f220920489ca2b5937696c3183604051808215151515815260200191505060405180910390a35050565b6000600360008473ffffffffffffffffffffffffffffffffffffffff1673ffffffffffffffffffffffffffffffffffffffff16815260200190815260200160002060008373ffffffffffffffffffffffffffffffffffffffff1673ffffffffffffffffffffffffffffffffffffffff16815260200190815260200160002060009054906101000a900460ff1690509291505056fea165627a7a72305820855d066cbefef1f53f7e14e6c5ef26b6b10b128c45d15afac5e736f63a1c143b0029",
  "source": "pragma solidity ^0.5.0;\r\n\r\nimport \"./IERC721.sol\";\r\nimport \"./SafeMath.sol\";\r\n\r\ncontract ERC721 is IERC721 {\r\n\r\n\r\n\r\n    mapping (address => uint256) private _balanceOf;\r\n    mapping (uint256 => address payable) public _tokenOwner;\r\n    mapping (uint256 => address) private _tokenApprovals;\r\n    mapping (address => mapping (address => bool)) private _operatorApprovals;\r\n    \r\n\r\n\r\n    modifier isNonZeroAddress(address _address) { \r\n        require (_address != address(0), \"address 0x0 is not valid\"); \r\n        _; \r\n    }\r\n\r\n\r\n    modifier tokenExists(uint256 _token) {\r\n        require(_tokenOwner[_token] != address(0));\r\n        _;\r\n    }\r\n\r\n    modifier isApprovedForTransfer(address _spender, uint256 _tokenId) {\r\n        require(msg.sender == _spender || getApproved(_tokenId) == _spender || isApprovedForAll(_tokenOwner[_tokenId], _spender));\r\n        _;\r\n    }\r\n\r\n\r\n    \r\n\r\n\r\n    function balanceOf(address _address) external isNonZeroAddress(_address) view returns (uint256) {\r\n        return _balanceOf[_address];\r\n    }\r\n\r\n\r\n    function ownerOf(uint256 _tokenId) internal isNonZeroAddress(_tokenOwner[_tokenId]) view returns (address payable) {\r\n        return _tokenOwner[_tokenId];\r\n\r\n    }\r\n\r\n\r\n    function approve(address _approved, uint256 _tokenId) external payable {\r\n        require(_approved != msg.sender, \"ERC721 : Owner is already approved\");\r\n        require(_tokenOwner[_tokenId] == msg.sender || isApprovedForAll(_tokenOwner[_tokenId], msg.sender));\r\n        _tokenApprovals[_tokenId] = _approved;\r\n\r\n        emit Approval(_tokenOwner[_tokenId], _approved, _tokenId);\r\n    }\r\n\r\n    function setApprovalForAll(address _operator, bool _approved) external {\r\n        require(_operator != msg.sender, \"ERC721: Owner is already approved\");\r\n        _operatorApprovals[msg.sender][_operator] = _approved;\r\n\r\n        emit ApprovalForAll(msg.sender, _operator, _approved);\r\n\r\n    }\r\n\r\n    function getApproved(uint256 _tokenId) public tokenExists(_tokenId) view returns (address) {\r\n        return _tokenApprovals[_tokenId];\r\n    }\r\n\r\n    function isApprovedForAll(address _owner, address _operator) public view returns (bool) {\r\n        return _operatorApprovals[_owner][_operator];\r\n    }\r\n\r\n\r\n\r\n    function transferFrom(address _from, address payable _to, uint256 _tokenId) external isNonZeroAddress(_to) tokenExists(_tokenId) \r\n    isApprovedForTransfer(msg.sender, _tokenId) payable{\r\n        require(_tokenOwner[_tokenId]==_from, \"ERC721: transfer of token that is not owned\");\r\n        _balanceOf[_from] -= 1;\r\n        _balanceOf[_to] += 1;\r\n        _tokenOwner[_tokenId] = _to;\r\n\r\n        emit Transfer(_from, _to, _tokenId);\r\n    }\r\n\r\n\r\n\r\n\r\n\r\n\r\n\r\n\r\n    function _mint(address payable to, uint256 tokenId) internal {\r\n        require(to != address(0), \"ERC721: mint to the zero address\");\r\n        require(!_exists(tokenId), \"ERC721: token already minted\");\r\n\r\n        _tokenOwner[tokenId] = to;\r\n        _balanceOf[to]+=1;\r\n\r\n        emit Transfer(address(0), to, tokenId);\r\n    }\r\n\r\n\r\n\r\n    function _exists(uint256 tokenId) internal view returns (bool) {\r\n        address _owner = _tokenOwner[tokenId];\r\n        return _owner != address(0);\r\n    }\r\n\r\n\r\n\r\n    function _burn(address _owner, uint256 tokenId) internal {\r\n        require(_tokenOwner[tokenId] == _owner, \"ERC721: burn of token that is not own\");\r\n\r\n        _clearApproval(tokenId);\r\n\r\n        _balanceOf[_owner]-=1;\r\n        _tokenOwner[tokenId] = address(0);\r\n\r\n        emit Transfer(_owner, address(0), tokenId);\r\n    }\r\n\r\n\r\n\r\n    function _clearApproval(uint256 tokenId) private {\r\n        if (_tokenApprovals[tokenId] != address(0)) {\r\n            _tokenApprovals[tokenId] = address(0); }\r\n        }\r\n    \r\n\r\n\t\r\n}",
  "sourcePath": "C:\\Users\\cleme\\Desktop\\smart_contracts_ethereum\\TD6\\contracts\\ERC721.sol",
  "compiler": {
    "name": "solc",
    "version": "0.5.0+commit.1d4f565a.Emscripten.clang"
  },
  "schemaVersion": "3.0.5",
  "updatedAt": "2019-11-01T16:41:21.148Z",
  "devdoc": {
    "methods": {}
  },
  "userdoc": {
    "methods": {}
  }
}